:020000041000EA
:1000000000B5324B212058609868022188439860DF
:10001000D860186158612E4B002199600221596106
:100020000121F02299502B49196001219960352056
:1000300000F044F80222904214D00621196600F024
:1000400034F8196E01211966002018661A6600F04E
:100050002CF8196E196E196E052000F02FF8012189
:100060000842F9D1002199601B49196000215960AB
:100070001A491B48016001219960EB211966A021F2
:10008000196600F012F800219960164914480160C1
:100090000121996001BC002800D000471248134993
:1000A000086003C880F30888084703B5996A0420EC
:1000B0000142FBD001200142F8D103BD02B5186610
:1000C0001866FFF7F2FF186E186E02BD00000240BE
:1000D000000000180000070000035F00212200005C
:1000E000F4000018222000A00001001008ED00E03C
:1000F00000000000000000000000000074B24E7A12
:1001000000200420F7010010C3010010C5010010F9
:10011000C1010010C1010010C1010010C101001097
:10012000C1010010C1010010C1010010C701001081
:10013000C1010010C1010010C9010010CB01001065
:10014000CD010010CD010010CD010010CD01001037
:10015000CD010010CD010010CD010010CD01001027
:10016000CD010010CD010010CD010010CD01001017
:10017000CD010010CD010010CD010010CD01001007
:10018000CD010010CD010010CD010010CD010010F7
:10019000CD010010CD010010CD010010CD010010E7
:1001A000CD010010CD010010CD010010CD010010D7
:1001B000CD010010CD010010CD010010CD010010C7
:1001C00000BE00BE00BE00BE00BE00BEEFF3058054
:1001D000103800BEF2EB88712084001040840010BB
:1001E0003402001090A31AE700201F49086006C8D7
:1001F00081F3088810471D48006800282FD10DA4FE
:100200000ECC002902D000F012F8F9E71849194A7B
:10021000002000E001C19142FCD1174988471749ED
:1002200088471749884700BEFDE701C901C29A42C5
:10023000FBD3704740840010C0000020200F002036
:10024000A09200100000042000000420A0920010E2
:10025000001004200010042000000000704709482E
:1002600001F080FD0047000008ED00E0000000D034
:10027000200F002094200220C51B00107D030010D9
:10028000B91C00105756000006005250ABB3605323
:10029000AC81001006005250861C0302BC81001085
:1002A000060052505422A29DC481001005005250F5
:1002B000DE65F468A0920010F8B5C04610B5064C93
:1002C0002378002B07D1054B002B02D0044800E017
:1002D00000BF0123237010BD681200200000000041
:1002E000D0800010044B10B5002B03D00349044804
:1002F00000E000BF10BDC046000000006C120020EE
:10030000D080001070B50C4D0021286805F00CFA63
:100310000128F9D109243120013C02F043F9002CD5
:10032000F9D1064802F08AF900230022002128684A
:1003300004F0B6FFE8E7C046881C0020202D2D2DD4
:1003400070B50C4D0C4E0021286805F0EDF9012820
:10035000F9D109243220013C02F024F9002CF9D112
:10036000300002F06BF9002300220021286804F01D
:1003700097FFE8E7881C0020D080001030B583B0DC
:1003800002F092F9012005F071F800250124802285
:100390000A4B0B491860520000230A48019500944B
:1003A00007F0BAF880220023074952000748019558
:1003B000009407F0B1F806F043FEFEE7881C002029
:1003C000D880001005030010E080001041030010E9
:1003D000024B18688007C00F7047C04600C0064037
:1003E00070B5EFF3108C72B60D4D2B68002BFCD05E
:1003F000BFF35F8F0724CB08C618C05C01230C40F5
:10040000A3401C000440034207D103433370BFF3F1
:100410005F8F2C608CF3108870BD100001F050FCD1
:100420002C0100D0F8B54746CE46884680B5EFF39C
:10043000108C72B6214D2C68002CFCD0BFF35F8F5E
:100440009A422CD8D4080727055D061901241740C5
:10045000BC402C421FD007210127894609E0D4085F
:10046000055D06194C4639001440A1400C00294294
:1004700011D001329342F2D201204042BFF35F8F8C
:1004800000220E4B1A608CF3108800280FDBC0BCD2
:10049000B946B046F8BD2C4310003470EEE7BFF308
:1004A0005F8F00232B608CF310880120404243466D
:1004B000002BECD0089801F003FCC0462C0100D0C2
:1004C0000021044B044ABFF35F8F02C39342FAD169
:1004D0007047C046000100D0800100D0044A107867
:1004E000431CDBB2172B00D9102313707047C04692
:1004F000180E002010B50100024A0348FFF770FFF4
:1005000010BDC046E8800010E017002000B5054B84
:1005100083B00100009318221F230348FFF782FFD6
:1005200003B000BD08810010E017002001238340C4
:10053000002904D0034A1360034A13607047034A3A
:100540001360FBE780E200E000E100E080E100E012
:1005500001228240034B1B6813405A1E9341D8B2BC
:100560007047C04600E100E001238340014A136068
:100570007047C04600E200E0084B10309B688000E6
:10058000C358002B07D0064A00209B1A2F229A42FC
:100590004041C0B270470020FCE7C04600ED00E0DB
:1005A0001C0E0020024B10309B688000C058704722
:1005B00000ED00E070B50D00EFF3108672B60F4A43
:1005C0001368002BFCD0BFF35F8F0D4B10309B687E
:1005D00084001B590B4A934203D09D4201D001F085
:1005E0008DFB074B9B681D51BFF35F8FBFF35F8F80
:1005F0000022024B1A6086F3108870BD240100D0DF
:1006000000ED00E0CD010010F0B557464E46DE4645
:100610004546E0B585B0060002911700EFF3108B58
:1006200072B6674A1368002BFCD0BFF35F8F0025BA
:10063000644B5D579A46002D00DAA4E06B00624CD3
:1006400003935B199B009846A146C1444B46524612
:100650009B79103613705D4BB2009B6801929958DC
:100660000B1B2F2B34D95A4B994200D0A4E0039B8B
:10067000584A9C46584B6544AD0063534346023389
:100680006519E418554B0121043B1B1B1B055B0D31
:1006900013436B80524BEF71AB80FF23AB71029B16
:1006A000AB604B460B431900484B019A9B6899502D
:1006B000BFF35F8FBFF35F8F0022414B1A608BF354
:1006C000108805B0F0BCBB46B246A946A046F0BDB6
:1006D00001200A008243D379BB422FD845464E46BB
:1006E000130040491B1B5B415943090D3A4B6353AF
:1006F0003A4B02356519043B5B1B1B05354D5B0D01
:100700002B4373800426B446E0444444131F1B1B50
:100710004C46A17102991B05A16049465B0D2B4314
:10072000A380314BE77101431360BDE75800C01847
:1007300080002018C679BE422BD902000623D3566A
:10074000002BF3DA101D82462848804604267642A4
:10075000B446E14450464E46361A3005400D8246B6
:1007600056461C48957106439680039A9446654404
:100770001D4AAD00641922604246A371029BA2800B
:10078000E771A36090E701F0B9FA002553465D5781
:1007900054E7101D82469088400500158446404667
:1007A000D444664604302018301AE0260005400D77
:1007B000360230438046C9E701F0A0FA57E7C04649
:1007C000240100D08C2002201C0E002000ED00E04F
:1007D000CD01001000E0FFFF00A1FFFF4C0E002044
:1007E00001BDFFFFAAAA00000148804701BD00002B
:1007F000F0B5DE4657464E464546E0B50C0083B0A0
:10080000EFF3108972B6584A1368002BFCD0BFF37F
:100810005F8F564B9A68030010339F00D559544A96
:100820009046954232D0A54243D0524EAA1B2F2A61
:100830002CD801228240924651464F4A12681140FC
:10084000019151464D4A1160BFF35F8FEFF305826E
:100850009346002A33D101232A009A4393689C428D
:1008600008D177E04B005B189B00F3189968A14210
:100870002AD01A00062151560029F3DA019B002BD9
:1008800019D052463E4B1A603B4B1A60374B9B685F
:10089000DD51BFF35F8FBFF35F8F0022324B1A60D1
:1008A00089F3108803B0F0BCBB46B246A946A04607
:1008B000F0BD1500EAE75246304B1A60E6E7934276
:1008C000C9D001F01BFAC6E706215956002921DBE1
:1008D0004A005018800034188046A0689860E0797B
:1008E000D871062020569871002824DBA488F01ABD
:1008F0006405241544440019E0240005400D240239
:100900002043988052181F4B9200B6181A7819701D
:10091000B271B3E7594600290FD1FF3191711A49DD
:10092000918018490A789A71184A9B1B5B415A4377
:10093000120D0A70A2E71648E3E7164A1649D21AC2
:10094000083A5002400D01439980144952080A4365
:10095000DA8093E70621515613000029B8DA5A4687
:10096000002AEAD14546DCE7240100D000ED00E092
:10097000CD0100101C0E002000E100E080E100E04D
:1009800080E200E08C20022001BDFFFFAAAA000047
:1009900001BD0000560E002000F0FFFF00F8FFFF31
:1009A000032310B50400074A18409446C0009C4336
:1009B000FC3383406444226881409A4313000B4314
:1009C000236010BD00E400E070B5EFF30581012461
:1009D0000443EFF3108C72B6214A1368002BFCD04D
:1009E000BFF35F8F1F4B05001F4AED1A6D416A432D
:1009F000120D1E4D8900AE6852B27658A6421CD028
:100A00000621595691421CD012215956914222D0AA
:100A10001E215956914220D02A2159560324914231
:100A200010D0134B19781A708171BFF35F8F0022B9
:100A30000B4B1A608CF3108870BDAB680D4C5C508A
:100A4000EFE700246100091989005B18FF21997103
:100A500009499980E5E70124F4E70224F2E7C0465A
:100A6000240100D01C0E0020AAAA000000ED00E026
:100A70008C200220CD01001001BDFFFF054B064A6E
:100A80001360064A136053609360D360136153612F
:100A9000936170478080808000E400E004E400E01F
:100AA00000B5074B83B001000093002205230548E1
:100AB000FFF7B8FC002801DB1F23181A03B000BDA4
:100AC0002481001091200220024B9C466144890041
:100AD000016070474000003410B50400FFF7FEFCD1
:100AE00001002000FFF7F0FF01235B426360BFF3CA
:100AF0005F8F10BD10B50400FFF7F0FC010020006F
:100B0000FFF7E2FF01235B42636000232372BFF320
:100B10005F8F10BD10B504000120FFF7F7FC044BF8
:100B20009C46604480002060BFF35F8F10BDC046CC
:100B300040000034034B9C46614489000160BFF3D0
:100B40005F8F70474000003483680B4810B58446BF
:100B500061446244090112019A18591854684B689B
:100B600001209C4201D802D00020C0B210BD126802
:100B70000B689A42F9D8F7E7FFFFFF0F074810B557
:100B80000268EFF3108172B61368002BFCD0BFF33C
:100B90005F8F04F05FF80020002110BD581F002077
:100BA000F8B557464E464546DE46E0B599460CAB8D
:100BB0001C780DAB1B78060090469A460768002CFF
:100BC00011D1BC7B002C42D065003B682D19033D40
:100BD00059194B78BB73002B00D1FB7300238B702A
:100BE0004B700B7004E065003B682D19033D5919EB
:100BF000B2682A4B94464246E3181B0163441A60CC
:100C00004A465A600A9A9A600B9ADA6000238B70FF
:100C10004B700B707B7B9B46002B2BD022005946E0
:100C2000B8687B6898473A68002816D05B465846F3
:100C30005B005B445519033BA870D118D35C002BB3
:100C400000D06B705B460C707B73A34513D0F0BC77
:100C5000BB46B246A946A046F8BD5B465B005B4476
:100C6000033BD3189C705119525D002A00D05A7072
:100C70005B460B707C7342464B46307D00F016FBA2
:100C8000051E06D05346002B03D12100306800F02A
:100C900037FD0E9B002BDAD01D70D8E7FFFFFF0F4A
:100CA000F0B5DE4657464E4645460023E0B58BB0CC
:100CB0000893664B8200D45800239B46099000F0AD
:100CC000A5FA626806000F00EFF3108572B613688C
:100CD000002BFCD0BFF35F8F23689C465B7B99465B
:100CE000002B68D0A2685A4B90464B441B01984495
:100CF00043461A685B6810001900801BB94100293F
:100D000063DD099800F0D2FA002300229846002300
:100D10000692079300239A466368BFF35F8F5A4693
:100D20001A6085F310885346002B08D10028C6D1DD
:100D30000BB0F0BCBB46B246A946A046F0BD089B2E
:100D4000414618024B461843D047626806000F0020
:100D5000EFF3108572B61368002BFCD0BFF35F8FE2
:100D6000002F4FDB33003B4302D02369002B60D1BF
:100D70002368D97B002907D04A00521819688C468D
:100D800049466244033A51709A7B002A01D14A468F
:100D90009A734A46DA734B46E168013BCA5C0132FA
:100DA000CA545B4623616368BFF35F8F5A461A607B
:100DB00085F3108883E700230022984600230692DB
:100DC0000793002300209A46A6E7002901D10028B6
:100DD00097D10021604600F011FC43461A685B6819
:100DE0000692079343469B689A464346DB689846BB
:100DF000E3684B44013B1B7808931B0203432361C8
:100E0000002089E72369002BB2D0069A079B921B2A
:100E1000BB41002B15DB5946049101210391494642
:100E2000029141460191514620000091FFF7B8FE22
:100E3000B7E700F0EBF932003B0012184B41002BF2
:100E4000E9DA0122034B5242E5E7C046981C002034
:100E5000FFFFFF0FFFFFFF7F10B5144C6368002BEF
:100E600004D00A211248FFF72FFE10BD2300114ABB
:100E70001021206800F0DCFA032000F0BBF9032009
:100E800000F084FA03200C4900F0CAF9FFF726FBB2
:100E90000A4B9C4603232375D0231B061B68604422
:100EA0006375074B80006060DC60DAE7640E002049
:100EB000581F0020490B0010A10C00104000003406
:100EC000981C002000487047640E0020F0B557467B
:100ED0004E464546DE46E0B585B0019310AB1B7823
:100EE0000600039300239A46984600927268EFF337
:100EF000108972B61368002BFCD0BFF35F8F356882
:100F0000AC7B002C49D067002B683F19033FDB19ED
:100F10005A78AA73002A00D1EA73B168484A8C460D
:100F200000980199A21812016244106051600E9954
:100F300091600F99D16042469A705A701A706B7B1B
:100F40009B46002B45D022001900A8686B68984783
:100F50002A68002830D05B4658465B005B44D719AE
:100F6000033BB870D118D35C002B00D07B705B467C
:100F70000C706B735C452DD0F3681B19013B18781E
:100F80007368BFF35F8F42461A6089F31088534637
:100F9000002B2CD10002204307E07368BFF35F8F62
:100FA0001C6089F310880120404205B0F0BCBB46AC
:100FB000B246A946A046F0BD5B465B005B44033BDE
:100FC000D3189C70D119D25D002A00D05A705B46AC
:100FD0000B706C73307D009A019B00F067F98246BC
:100FE0000028C9D02100306800F08AFBC4E7039BC9
:100FF000002B23D00E9B00200F999847030004007C
:101000000D000B431AD000290ADA009A019B121B2B
:10101000AB4100920193002B0ADB039B9A4665E7E4
:1010200000F0F4F824184D4100940195002DF4DAF5
:101030000123044C5B4200930194EEE70020B4E7E7
:10104000FFFFFF0FFFFFFF7F70B542680400EFF363
:10105000108572B61368002BFCD0BFF35F8F206839
:10106000CEB2437BB3420AD0FF230B405A00D318C1
:10107000026894466344033B9B78002B13D0E268DC
:10108000FF2394460B406344013B0A0A1978D2B20D
:1010900091420ED000206368BFF35F8F00221A6078
:1010A00085F3108870BD22698A42F3D10020236144
:1010B000F1E7310000F024FBEDE7C046407D7047CA
:1010C00070B5EFF3058305000C0084B0002B0AD047
:1010D000164A0020536A9C4203D8926A0130AA4201
:1010E0001FD304B070BD124E02930193114B020046
:1010F000009330000B00FFF7E9FE011EE8DD20BF82
:101100003000FFF7A1FF094B0020596A8C42E8D854
:101110009B6A0130AB42E4D2641A631E9C41E0B288
:10112000DFE7E41A631E9C41E0B2DAE700400540C5
:10113000640E00207D0B0010F0B5EFF30582D6465B
:101140004F4646461000C0B51038EFF3108872B60F
:10115000214C2368002BFCD0BFF35F8F01231900C3
:1011600081401E4D1F006963AA461D4D29601D4D1B
:101170002E78AC463500C5402F402B4209D1BFF335
:101180005F8F276088F31088E0BCBA46B146A84656
:10119000F0BD5346144D5F6A83005D59AF420ED3D4
:1011A000124A8E439B5862461670BFF35F8F00222F
:1011B000226088F31088002BE6D09847E4E70C4BB8
:1011C00092009C46624413681360BFF35F8F002354
:1011D000236088F31088D7E7280100D0004005403D
:1011E0003C70054090200220641F0020C81600209B
:1011F000D03F054010B50100024A0348FFF7F0F860
:1012000010BDC046408100108B200220034B596A5C
:101210000A00986A596A8A42FAD17047004005402C
:1012200070B504000D00EFF3108672B61A4A136809
:10123000002BFCD0BFF35F8F002D1BD02000FFF7E9
:10124000B1F9164981420AD02000FFF7B3F9012114
:101250002000FFF76BF90123A340114A1360114BE3
:10126000A400E550BFF35F8F00220B4B1A6086F39A
:10127000108870BD0B4BA200D5500122A2400A4934
:1012800020000B7893430B700449FFF7B1FA00215B
:101290002000FFF74BF9E5E7280100D039110010D5
:1012A00038600540C816002090200220F0B54F4657
:1012B000D6464646C0B507002F4C616A0D00A66AA7
:1012C000616AA942FAD18B4208D805D00120E0BC5E
:1012D000BA46B146A846F0BDB242F7D9EFF3108A3C
:1012E00072B6264801680029FCD0BFF35F8F012544
:1012F000BD402349204C8846097889462943C9B214
:101300008C46414660460870391D1E488900656359
:101310000A51B9000B50216A0020294219D0616A94
:101320000800A66A616A8142FAD18B4219D801D1BC
:10133000B24216D8CC451DD00F4B1F201D625D63F5
:1013400001230740BB40104A1E38136043464A46FB
:101350001A70BFF35F8F0022084B1A608AF310885F
:10136000B5E70020BFF35F8F0022044B1A608AF3B9
:101370001088ACE70120ECE700400540280100D0D0
:1013800090200220641F002080E200E0EFF3108C28
:1013900072B60A490B68002BFCD0BFF35F8F0123A4
:1013A0008340074A0748136202789A430270BFF3EA
:1013B0005F8F00230B608CF310887047280100D0EA
:1013C000004005409020022070B505001400160072
:1013D000002915D00C00002A12D080686B6898474D
:1013E000296800280ED073009B196200033B121974
:1013F000CB18033A9C7088188A5C002A15D10670B5
:10140000200070BD63001B197200033B9219CB18BA
:10141000033A9E7088188A5C002A02D10470340056
:10142000EEE75A7004703400EAE75A700670E7E796
:1014300030B583600023CCB2437301330473426040
:101440008373C4730D000068012C06D9421C01335C
:10145000DBB2137003329C42F9D1FF2129404B00CB
:101460005918002340180338437030BDF8B5CE46F4
:10147000474606000C0080B5002907D04D000368E0
:101480006D18033D5A195778002F04D12000C0BCB5
:10149000B946B046F8BD7900C919033988464344B6
:1014A0005978894600215970517073683A002100BB
:1014B000806898473368002814D042469A18947080
:1014C00059195B5D002B00D053700F7027004946FF
:1014D0003000FFF7CBFF390002003000FFF774FF48
:1014E0000400D3E7424641465D19AF709A185B5C31
:1014F000002B00D06B701470E9E7C046F0B557467A
:101500004546DE464E46E0B50D006B0001685B19AE
:10151000DF1E0400C85D83B00192CA19002850D0B4
:1015200043001B18033BCB185E78B446002E1AD13B
:10153000019E002E42D0E67B002E04D073009B1942
:10154000CB18033B5D70A37B002B00D1A573E57323
:1015500000282FD10023537003B0F0BCBB46B24625
:10156000A946A046F0BD72006244033A89184A7841
:10157000904600224A7091465A70010032002000C5
:10158000FFF722FF43468246002B07D05B0021680D
:101590004344033BCB185A78002A16D142465146A1
:1015A0002000FFF711FF2168019BCA19002BC2D14F
:1015B0000028CFD043001B18033BCB1800219970A3
:1015C000C8E7019B002BB6D1C4E750008018033850
:1015D00009184878834648464870587041462000AC
:1015E000FFF7F2FE594680462000FFF73FFF4146D5
:1015F00002002000FFF7E8FE8046CFE7F0B557462F
:101600004546DE464E46E0B583B00191457B040079
:101610006B0000685B19DF1EC15DC219002952D042
:101620004B005B18033BC3185E78B446002E1CD1F8
:10163000019E002E44D0E67B002E04D073009B193F
:10164000C318033B5D70A37B002B00D1A573E5732A
:10165000002931D1002328005370617303B0F0BC1E
:10166000BB46B246A946A046F0BD72006244033AAA
:101670008018427890460022427091465A702000AD
:101680003200FFF7A1FE43468246002B07D05B00E5
:1016900021684344033BCB185A78002A17D14246AD
:1016A00051462000FFF790FE019B01002068C219FF
:1016B000002BC0D10029CDD04B005B18033BC318D1
:1016C00000209870C6E7019B002BB4D1C2E7500000
:1016D000801803380918487883464846487058707F
:1016E00041462000FFF770FE594680462000FFF774
:1016F000BDFE414602002000FFF766FE8046CEE7B1
:1017000070B5040000292CD0437B8B422ED0056895
:1017100048004018033828188278002A21D0530046
:101720009B18033BEA5CEE188A4202D11BE0002AB8
:1017300008D053009B18033BEB185A788A42F6D125
:1017400042785A7000230122837043702000FFF713
:10175000D5FE617B02002000FFF736FE607301209A
:1017600000E0002070BD43783370EBE701221900E0
:10177000FFF7C4FE60730120F4E7C04630B50C20CB
:1017800083B000F0B7F9FEF723FE00280ED0944B8B
:10179000944A1A605A609A60DA601A615A619A61D2
:1017A000DA611A62904A5A6203B030BD8F4CA0676A
:1017B00000F0F4F901228E4B1A60636C012BFCD10E
:1017C00003228C4B1A60894A936B012BFCD10133A5
:1017D0000121894A89480093043300F033F9052335
:1017E000874A00930121874800F02CF9864B5A68FC
:1017F000FF2A02D8802252005A608022784C7D4B0A
:1018000021691201804D1A60002905D0606900F03D
:10181000DBFA01300138FDD1E0217B4B02201A6850
:101820001140802252012A43116019684840032167
:101830000140116004219A681142FCD0802280216D
:1018400092012A4309011160802252005A606F4BB5
:1018500023616F4B5968FF2900D85A600321644AFD
:101860006B4B116002399A681142FCD0E0201A6873
:101870001040802252011A4310601868484003212A
:1018800001400220116062498A681042FCD0802227
:1018900092011343802212011A6080225D4B520094
:1018A0004A6063615C4B5968FF2900D85A60802206
:1018B0005A4BE1691201584D1A60002905D0606940
:1018C00000F082FA01300138FDD1E02252490B6864
:1018D0001A4080235B012B431A60802380229B01E6
:1018E0002B4312011A6080223E4B52004A60E36192
:1018F0004B4B5968FF2900D85A608022494B216A16
:101900001201474D1A60002905D0606900F05CFAA9
:1019100001300138FDD1E02241490B681A40802393
:101920005B012B431A60802380229B012B43120111
:101930001A60802380225B004B602A4BD202236214
:10194000394B5968914200D25A608022374B616A04
:101950001201354D1A60002905D0606900F034FA93
:1019600001300138FDD1E0222F490B681A40802355
:101970005B012B431A60802380229B012B431201C1
:101980001A608023DB024B60174B6362284B5A6856
:10199000FF2A02D8802252005A608022254BA1697A
:1019A0001201234D1A60002905D0606900F00CFA7D
:1019B00001300138FDD1E0221D490B681A40802317
:1019C0005B012B431A60802380229B012B43120171
:1019D0001A6080235B004B600E4BA361E4E6C046B7
:1019E000E4170020006CDC021BB700000080004000
:1019F0003CB0004030B00040002F685900800240E9
:101A0000008C864700C0024030800040001BB700B9
:101A10003C800040405973075480004054B000405F
:101A20006080004060B000406C8000406CB00040BE
:101A30004880004048B00040014B8000C0587047CB
:101A4000E4170020F0B5C646040000B50C2090460F
:101A50001F000E0000F0B8F94101091A8D01691A42
:101A6000C90009188901404600F0AEF9069B3F0401
:101A70001A0323681743002B22DB1A4B1A4DE21876
:101A800053425A4180235B019C461203174B624428
:101A90001A60174B1A601100AB689943FBD1C02242
:101AA000231D92011A4321232660A060136023683E
:101AB000002BFCDA0823E760136080BCB846F0BD59
:101AC0003F2322681340B342D7D1A3681B051B0DE7
:101AD0008342D2D1EE22E368D2021340BB42CCD182
:101AE000EBE7C0460040FDBF00C0004000E0004002
:101AF00000F000408023024A9B000343D3627047FA
:101B00000080054010B5140080221B4BD2051A60DE
:101B100000281AD00123194A1843194BDA61194ACF
:101B200042401A62596298628022134BD2051A60B1
:101B30001549164A1160E022D2041A60002C07D120
:101B40008022134B12061A6010BD0D4BD861EBE7D3
:101B500063011B1B9A008023121912015B049A4235
:101B600000D30C4A0C4B1A60054B5A608022084B7C
:101B7000D2051A60E8E7C04600B00540D3C007B000
:101B8000008005402D3FF84FFCFF01000820014078
:101B900000A00540FFFFFF00841C0020AA23064A86
:101BA0001B0113602F230549D360054B196053684F
:101BB000002BFCDA7047C0460040024000B0FA003B
:101BC000006002402C4B2D4A70B51A602C4A2D4BF8
:101BD0002D491A6014008B689C43FBD12B4D2C4E71
:101BE000B54208D2013E761BB60808CD98472300BF
:101BF0000134B342F9D1FFF7C1FD264A214B1A60E7
:101C0000214A9368DB43DB01DD09002BF9D1402237
:101C1000214B224C224E9A675A671A67DA66B44201
:101C200008D223682000002B20D00C34FEF762FF7E
:101C3000B442F6D31B4E1C4CC022A168300000F009
:101C4000CBFBA660FEF73CFCFEF718FFFFF704F99C
:101C5000164C174EB44208D2013E361BB60808CCCB
:101C600098472B0001359E42F9D170BD0834FEF72C
:101C700033FFB442D5D3DDE700E00040BFCDFBFE2B
:101C8000FE7F3C0000F0004000C00040040F002038
:101C9000140F0020FFFFFF0100F00140F40E0020B0
:101CA000040F00200000002000ED00E0140F0020D1
:101CB000200F002000BEFDE710B5FFF7FBFFC04678
:101CC0000FB400B5084883B000F0B8FC049B002BAB
:101CD00007D005A91800019100F01EF8034800F094
:101CE000ADFC0120FFF7E6FF648100107481001055
:101CF00010B50148FFF7E4FF7881001010B50148E6
:101D0000FFF7DEFF8881001010B5002800D110BD5C
:101D100000F048FCFBE7C04610B5094A0300146810
:101D200084B0002C08D0012200910648524203A939
:101D3000A047012004B010BD00F080FC0020F9E7AE
:101D4000801C0020091D001001480421014B184788
:101D5000900E0020851D0010014B5B6818470000A5
:101D6000900E0020142310B50100188804331B883E
:101D7000984710BD162310B50100188802331B8840
:101D8000984710BDF8B54746CE4680B50F1E19D00E
:101D900014239946043304000025012698464B4637
:101DA0001888434621681B88984701C4431E984100
:101DB000013540420640AF42F1D13000C0BCB946C7
:101DC000B046F8BD0126F8E7114A936F9B0813D27D
:101DD00010665166002905D0FFE7FFE7FFE7516F66
:101DE000106F704704B5002801D00020C04306F0F2
:101DF0002FF9002104BDC046F0B5146E556E576F23
:101E0000166FFFF7E5FF1466556657671667F0BD56
:101E1000000000D094464A4A926F9208624601D26E
:101E200028E0C046F0B5464E346E756E776F366F5B
:101E300000F020F89446424A1466556657671667C4
:101E40006246F0BD94463E4A926F9208624601D2C5
:101E500054E0C046F0B53A4E346E756E776F366F0B
:101E600000F04CF89446364A146655665767166774
:101E70006246F0BD002B24DB11D000293EDA00B50C
:101E8000C943404200D1013100F038F8C943404213
:101E900000D10131DB43524200D1013300BD002AA1
:101EA000EBD1002801D1002905D00020C90FC907B6
:101EB00001D1C043410800B506F0B2F8002200236A
:101EC00000BD00B500290ADBDB43524200D10133DB
:101ED00000F014F8C943404200D1013100BDC943AC
:101EE000404200D10131DB43524200D1013300F0C6
:101EF00005F8DB43524200D1013300BD002923D154
:101F0000002B18D1002A0CD0BC460D4F38667A66DB
:101F100000210023FFE7FFE7FFE77A6F386F67468E
:101F20007047002801D00748010000B506F078F896
:101F30000022002300BD02000B000020002170479A
:101F4000000000D0FFFFFFFF002B00D0BFE0130C0C
:101F500028D1002AE7D080B4114F39667A66FFE7AE
:101F6000FFE730B4040C7B6F396F1B0423433B66DF
:101F70007A66FFE7FFE7FFE7C04684B27B6F3D6FFD
:101F80001B0423433B667A66FFE7FFE7C046002356
:101F90002C042D0C7A6F386F00196941B0BC704762
:101FA000000000D0F0B594460025140E01D11202B5
:101FB0000835140F01D112010435940F01D192009C
:101FC0000235D40F01D152000135D40B0134254F15
:101FD0007C66254C3C660E0C93B2FFE7FFE7FFE7FB
:101FE0003C6F6643360C7703BE467343DF0B5B04DE
:101FF000C01AB941130C7343DB18C91ACE086643E3
:10200000360CB64493B273431F0F1B01C01AB9417B
:10201000130C73431F0B1B05C01AB941860D8F02A9
:102020003E436643360C092D24DB520A7243801A64
:102030007703460A6643360C16235B1BDE40DF40FF
:10204000BF1964466643821B70460435063301009F
:10205000D940A840C01900D30131A24206D20023C2
:10206000F0BD0000000000D0FFFFFFFF121B013099
:10207000F3D3F1E709277F1BFE406446A2B2724307
:10208000801A00D20139220C7243130C1204821AF6
:1020900099410B007046043513370100F940A84000
:1020A000801900D30131002B02D1A2420AD2F0BD27
:1020B000013000D30131121BFAD2013BF8D1A24208
:1020C00000D2F0BD013000D30131121BF7E7F0B5AB
:1020D0001C0C00D080E00CB400251C0A04D11B02AB
:1020E000160E3343120208351C0B04D11B01160FC8
:1020F0003343120104359C0B04D19B00960F3343EC
:1021000092000235DC0B02D192185B4101351C00B4
:10211000971864410134464F7C66464C3C660E0C71
:10212000FFE7FFE7FFE7C0463C6F6643360C7703E7
:10213000BE4697B27743C01B00D20139C01B00D204
:1021400001399FB27743C91BC91B170C77437E0423
:10215000FF0B801BB941CE086643360C0C2D33DBD8
:10216000B644120B1F053A431B0B97B27743C01BB3
:1021700000D201399FB27743C91B170C77433E0445
:102180003F0C801BB941860D8F023E4366432927D1
:102190007F1BFE400C3D7746AF40BF1930BCA2B25A
:1021A000ABB272437343801A9941220C7243130CF1
:1021B0001204801A994102000B000137001BA9414B
:1021C000F9D2781E0021F0BD0C277F1BFE40774618
:1021D0007F0BAF40FF19E0E700245D1C07D0144FD0
:1021E0007D663966FFE7FFE7FFE7FFE73C6F95B2E3
:1021F0009EB265436643401BB141150C1E0C6543FE
:10220000664336042F0C3E432D04401BB1419942D6
:1022100004D202000B0020000021F0BD01D1904249
:10222000F7D3801A994101349942F2D3F6E70000BE
:10223000000000D0FFFFFFFF132370B51D78012DB4
:1022400015D010DD1C48FFF795FD1C4C01008022C5
:10225000200000F0C1F8022D06D01948FFF782FDDA
:10226000184B186070BD154C174BA364F5E7164B5F
:10227000124C23606360A360E36023616361A36128
:10228000E36123626362A362E36223636363A36324
:10229000E36323646364A364E36423656365A36504
:1022A000E36523666366A366E36623676367A367E4
:1022B000E367A364D1E7C046534400002810002020
:1022C0004C330000541F0020CD22001007B560469B
:1022D00001880A0A0230DF2AFAD1C9B2820804D37F
:1022E000028840880004104300E00068014A505012
:1022F000039007BD2810002051434343C9188C4662
:10230000110C83B24B4310B4040C614392B280B2FF
:10231000504362431C041B0C001910BC59411304A8
:10232000120CC0185141614470470000132310B5CE
:1023300012481C78FFF71EFD0100012C0AD003DDB6
:1023400080220F4800F048F80E48FFF70BFD0E4BB7
:10235000186010BD0A4C5422200000F03DF80B4BD1
:102360006365A365E36523666366A366E366236727
:102370006367A367E3672362E361E5E75346000011
:10238000281100204C330000541F0020912300101E
:1023900007B5604601880A0A0230DF2AFAD1C9B2BD
:1023A000820804D3028840880004104300E00068DB
:1023B000014A5050039007BD281100200148042114
:1023C000014B1847A00E0020851D0010014B1B6813
:1023D00018470000A00E0020014B5B681847000062
:1023E000A00E0020030010B5080011001B689847DC
:1023F00010BDC046F0B546464F46D646C0B5437DF3
:1024000080460E001700002B46D0002A3FDD4B1EF1
:102410009946244B0125002400209A460DE04B46A6
:102420001B5D0D3B5A425341325DDBB20A2A0BD091
:102430002B00013401359F421ADD002CEFD14346B9
:10244000325D1B7D0A2AF3D1002BF1D1A04204DAC0
:102450004346211A1B6830189847434650461B686C
:1024600002219847013428002B0001359F42E4DC0B
:10247000874204DD4346391A1B6830189847F6191D
:10248000013E33780D3B5A42534142461375E0BC3E
:10249000BA46B146A846F0BD03681100300098471F
:1024A000F5E7C046F4810010F0B5DE4657464E46CB
:1024B0004546E0B585B017001C0006000D00FEF78C
:1024C000A5FE0023304A12184B41002B58DB2F4940
:1024D00008008A4605F0DCFD01906B1C03D130003A
:1024E00005F05EFD0500002C25D1294B9846294BAF
:1024F0001C68002C15D0002F20D1274F02E0246942
:10250000002C0ED02368002BF9D03B68002B01D0A3
:10251000A342F4D120002A003100C0472469002CD6
:10252000F0D1019B002B27D105B0F0BCBB46B246D1
:10253000A946A046F0BD194B9846D8E7164B9946D8
:1025400002ABDF1D0A239B4602E02469002CE8D081
:102550002368002BF9D04B461B68002B01D0A34207
:10256000F3D12A0031002000C0475B460122390028
:1025700020003B70C047E8E7504605F049FDD3E72F
:102580000122074B5242A2E740420F00FC0E0020FE
:10259000F5230010741800207C180020E52300109B
:1025A000FFFFFF7FF0B5CE46474680B583B06B4650
:1025B0000600DD1D2870FEF729FE00231A4A1218B6
:1025C0004B41002B2BDB19490800884605F060FDC4
:1025D000174B81461C68002C14D0164F02E024696A
:1025E000002C0FD02368002BF9D03B68002B01D0C2
:1025F000A342F4D1200001222900FFF7FBFE246949
:10260000002CEFD14B46002B05D1300003B0C0BCED
:10261000B946B046F0BD404605F0FAFCF5E70122A8
:10262000054B5242CFE7C04640420F00FC0E00204F
:10263000741800207C180020FFFFFF7F70B5040095
:1026400005F0AEFC00230100050001222000FFF789
:102650002BFF084B1C68002C06D06368002B05D0AC
:1026600098472469002CF8D1280070BD2469002CFB
:10267000F3D1F9E7741800200A4A1368002B05D13A
:102680000CE01A001B691032002B07D09842F8D1D9
:10269000002902D103691360016170470029FCD051
:1026A0001060FAE77418002010B500F0D9F910BDD9
:1026B0007047C0460022014B1A7070478D200220DF
:1026C0004B790020FF2B0BD18B79002B08D1CB79D4
:1026D000012B05D1082A03D98A78024B09301A70D8
:1026E0007047C0468D2002200120704770B5012937
:1026F00009D115495379107909781B020343002049
:10270000994202D070BD0120FCE75378012B08D01C
:10271000022BF7D1002064220021FFF7F3F90120FA
:10272000F0E79478D278050012021443D20502D55E
:10273000620A93401D000548FFF714FB7F21030048
:10274000214028009847C0468D20022055420000B5
:102750000123037000487047F881001048780B7817
:102760008A7800021843120410439622CB7810B5E1
:102770001B060343D200934200D010BD0348FFF76D
:10278000F1FA0021030008009847C04655420000B6
:10279000024B1860024B19607047C046D8170020E2
:1027A000DC17002010B5024B1878FDF7DDFE10BDD8
:1027B0008E200220114B70B51A68002A1AD0EFF350
:1027C000108172B610680028FCD0BFF35F8F002222
:1027D0000B48596002701B68BFF35F8F1A6081F36A
:1027E000108800240025074B1878FDF7BDFE29004E
:1027F000200070BDFA240025A400F4E7901C0020FE
:102800008F2002208E20022070B5040000200E00D0
:1028100001F002FB002835D0002001F015FB002854
:1028200030D0FEF7F3FC0023184A12184B41002B5E
:1028300024DB174D280005F02BFC002822D00020B7
:1028400001F0EAFA00280BD10120002103244042C4
:1028500000F0CCFC6442280005F0DAFB200070BDDB
:10286000002001F0F1FA0028EED021003200002013
:1028700001F0F6FA041EEED1033CECE70122054B11
:102880005242D6E703246442E8E7C04640420F00C4
:102890005C1F0020FFFFFF7FF8B5DE46574680B57E
:1028A00005000C00FEF7B2FC0023364A12184B411B
:1028B000002B5ADB344908008A4605F0E9FB002862
:1028C00003D1C0BCBB46B246F8BD002001F0A4FA5B
:1028D00000284ED00026002C43DD2C4B9B4614E0F4
:1028E000A919002001F030FB07000120002140421F
:1028F00000F07CFC002001F0EBFAFEF787FC234B94
:10290000F61918605960B4422BDD002001F036FB47
:10291000A71B0200B84200DD3A00002AE0D10120E6
:102920000021404200F062FC002001F0D1FA0020BA
:1029300001F072FA002814D0002001F01FFB0028DB
:10294000E1D1FEF763FC5B460F001A685B6800216B
:1029500084460F4812184B419F4202D8D3D1944568
:10296000D1D9504605F054FBABE70122094B524246
:10297000A0E700200021054B18605960504605F083
:1029800047FB9EE740420F005C1F00202010002004
:1029900020A10700FFFFFF7F10B5244C84B0002169
:1029A000200005F05DFB00281CD1214B1A68002A8D
:1029B00016D0EFF3108172B610680028FCD0BFF378
:1029C0005F8F01241B48596002781B68D2B20470E3
:1029D000BFF35F8F0020186081F31088002A0AD0AF
:1029E00004B010BD01200021404200F0FFFB200098
:1029F00005F00EFBF4E7FEF765FA0400FEF706FCAF
:102A0000FA220023920012184B41002B09DB01210E
:102A1000029100210191084920000091FEF756FA29
:102A2000DEE70122054B5242F1E7C0465C1F002061
:102A3000901C00208F200220B5270010FFFFFF7F91
:102A4000054B10B51868002804D0044B0022196803
:102A500001F044F810BDC046D8170020DC17002054
:102A6000D02310B51B0684B01C68FEF72BFAFEF7C6
:102A700025FBA04202D0002004B010BD264B1B78DD
:102A800001F066FC2548FEF727F80120FEF708F85C
:102A9000FF23234C234920701840FDF78BFD20783D
:102AA0000121FDF743FD0520FDF766FD002822D139
:102AB000FEF708FA0400FEF7A9FBFA2200239200B1
:102AC00012184B41002B22DB0121029100210191C0
:102AD000154920000091FEF7F9F9082204000021B1
:102AE0001248FFF773FC002CC5DB11480121FFF7EA
:102AF000C3FD0120C0E700220E490520FDF784FD3B
:102B0000FDF7ECFC01000948FEF714F8EDE701229F
:102B1000094B5242D8E7C0463C8400105C1F00209D
:102B20008E20022099290010B5270010901C00204B
:102B3000B00E0020A5270010FFFFFF7F0048704760
:102B4000B0820010004870475C82001070B504002D
:102B500017480378002B21D0002C06D1C12415483A
:102B6000154BA4004380048070BD052C1DD8134B69
:102B70001048A400E558811C002304E001330A80BA
:102B80000231132B0ED0EA5CDCB2002AF6D1C0234E
:102B90000134E4B264009B001C43E4E7112100F01F
:102BA00017F8D9E7CA24A400DDE70020DCE7C04617
:102BB000841F02204C18002009040000C482001069
:102BC00010B5024800F0D8F810BDC0464C1F0020D8
:102BD00030B54B1E012900D1A7E0664A11780D11CE
:102BE0002C0030349F2900D9A2E00470012B00D1C1
:102BF000BEE00F21147821400C003034092900DD9B
:102C000098E04470022B00D1B2E0547825112900DD
:102C100030319F2C00D990E08170032B00D1A7E0C8
:102C20000F2121400C003034092900DD87E0C470F9
:102C3000042B00D19CE094782511290030319F2C81
:102C400000D97FE00171052B00D191E00F212140D7
:102C50000C003034092900DD76E04471062B00D1E8
:102C600086E0D4782511290030319F2C00D96EE000
:102C70008171072B00D17BE00F2121400C00303403
:102C8000092966DCC471082B00D171E01479251183
:102C9000290030319F2C5FD80172092B68D00F2199
:102CA00021400C003034092958DC44720A2B5FD0D3
:102CB00054792511290030319F2C52D881720B2B69
:102CC00056D00F2121400C00303409294BDCC4724E
:102CD0000C2B4DD094792511290030319F2C00D92F
:102CE000073101730D2B43D00F2121400C003034EC
:102CF000092901DD37310C0044730E2B38D0D1790E
:102D00000C11220030329F2900D9073282730F2B19
:102D10002ED00F220A4011003731092A01DC30324F
:102D20001100C173102B23D010300023037030BD6D
:102D300007345AE737310C0063E707316CE7373166
:102D40000C0074E707317DE737310C0085E7073168
:102D50008EE737310C0095E707319DE737310C00DE
:102D6000A3E70731AAE737310C00C4720C2BB1D1AD
:102D7000C018DAE74C1F002030B5002589B00400E8
:102D80000922002101A80095FFF720FB092200215C
:102D900005A80495FFF71AFB4B236A466846137093
:102DA00004A90D2205F02CF9152108222000694400
:102DB000FFF712FB09B030BD10B501210520FDF76A
:102DC000B5FB10BD10B500220021024800F05AF9F1
:102DD00010BDC046A01800208022024B5202DA64C7
:102DE0007047C04600201150F0B5C64600B5060039
:102DF00000F022F90C231B4DFF22AB6705201A4976
:102E0000FDF702FC40239846184C40220021200088
:102E1000FFF7DCFA43460127238321210023144ACC
:102E20006770A260136063545F31618441462187FB
:102E3000053963540F4A10496360E260A1620B6078
:102E40006362E26205F01CF980239B052F64EB644A
:102E500090230A4A3000EA50FFF7BEFF80BCB84614
:102E6000F0BDC04600001150D90400208018002099
:102E700084001050000110508000105010D001004C
:102E80000B785B0602D14B78052B00D070478A780F
:102E9000014B1A60FAE7C04600001150F0B5C64673
:102EA00000B54B790C791B0288782343CC787F21BD
:102EB000A4070140C509A20F4F001400324E7A1931
:102EC0005201B218907001206840507000205B05DC
:102ED0005B0DD0701383D4768046CA00012D33D0A9
:102EE0002A488446880162448446B444604682602D
:102EF00040461060002933D0254AC90090466246FA
:102F0000414451603F223F339343022C00D15B0088
:102F100020487A1901685201B218D1601E4ACB18B4
:102F2000036051405340802288465201934228D882
:102F30004346A4061C4380237F197F011B06F61914
:102F40001C4373681C6011E0144884468801624485
:102F50008446B4446046826240461060002909D12C
:102F600000236D01761973600D4BF360012080BC66
:102F7000B846F0BD084AC9009046624641445162D5
:102F8000C0E7FEF7BBFED3E7801800208400105096
:102F9000040010508C1C00200000105080001050C5
:102FA0000001105010B505F06BF810BD10B57F2072
:102FB0000C0020404000E409110000191A00034BE6
:102FC0004001C01800F05EF8012010BD80180020FC
:102FD0007F22130010B50B400A420BD0C909802292
:102FE000580040180649400140181201002105F020
:102FF00067F810BD02220348C909521A8266EEE73B
:1030000080180020002011507F22100010B50840C9
:103010000A4200D110BD0023C909400040180449EC
:103020004001081800220349C37005F049F8F1E790
:1030300080180020FFF7FFFF80220D4B520410B5CF
:103040001A600C4B0C491A6010008B689843FBD136
:103050000A4C9C2200212000FFF7B8F980220021B1
:1030600052010748FFF7B2F90923636710BDC04654
:1030700000E0004000F0004000C00040000011509F
:103080000000105070B5837E04000D001600002B68
:1030900017D10023E38201332000A682A3762561A5
:1030A00004F0C6FF002804D080219023084A89023A
:1030B000D150200004F0C4FF002805D0012323775D
:1030C00070BD04F0F5FFE4E7200004F0E9FFF7E746
:1030D00000201150024B5878431E9841C0B27047EF
:1030E000AC150020024B18784007C00F7047C0464F
:1030F000AC150020034B1878FF38431E9841C0B22E
:103100007047C046EC0E0020F8B5CE46474680B565
:103110002C4E050033780120FF2B03D0C0BCB946EC
:10312000B046F8BD532200212748FFF74FF9274C3E
:103130002000FDF7D1FC264B1C60264C20001430EB
:10314000FDF7E8FC200001F0D1FB234B234F1C606E
:10315000234B9846002B04D03800FFF7F9FA214B97
:103160001860424600243B78002A23D01E4A90462D
:103170001C4A9146A34212D80FD1434698470134C6
:103180003B78E4B2A342F5D228003570FFF72CFE5D
:103190002800FFF711FE0120C0E70020BEE74A46E5
:1031A0001268630094461B19DB006344002BF4D0C3
:1031B0001B68E3E700F0EEFE3B780020002BADD16A
:1031C000E2E7C046EC0E0020AC150020641500209C
:1031D00000160020D00E00200416002088200220B7
:1031E0005127001084120020953F0010F0B5DE46F4
:1031F00057464E464546E0B58BB001F0AFF8002883
:1032000000D10FE1CD4BCE4D9946CE4B07AC9B463E
:103210002E687269EFF3108172B61368002BFCD030
:10322000BFF35F8FB1613000210001F0A1F9726935
:10323000B369BFF35F8F0021116083F3108800280A
:1032400000D1EFE06378082BE2D84A469B00D358C0
:103250009F466368002BDBD0A0689847D8E77F22A1
:103260002179B84E0A405000CB093618F6183000C4
:1032700001273030C378BB43C370C3780337BB43E7
:10328000C370002A00D1F2E0AF4AF37C002A06D0D6
:10329000AE4A1278934200D244E19B1ADBB2002B73
:1032A00000D0BFE0AA4E62792078A368B047AFE7AC
:1032B0005B4601221B78012113435A4613703323C6
:1032C0005846D25C5E468A43C254C25C04208243A4
:1032D000F2540133F25C8A43F254F25C8243F254BA
:1032E000237800209A4600F005FD602223791A40D9
:1032F000602A0DD0402A00D1BFE0DB06DB0E012B97
:1033000000D137E1022B00D1D4E0002B00D1C3E083
:1033100020780021FFF75CFE80212078FFF758FE1F
:1033200076E7884E3378DB0700D471E7894B002BB2
:1033300000D16DE700E000BF6AE7824E3378DB071B
:1033400000D465E7844B002B00D161E7307800079B
:10335000C00F00E000BF5BE77C4B7B4A984600262D
:1033600027781B78002A00D179E07C4A92469E4259
:103370005FD319D17A4B38009847434601361B7802
:10338000F6B2B342F3D26F4E532200213000FFF762
:103390001DF81022FF21F01CFFF718F83000202242
:1033A000FF211330FFF712F800F09AFC6D4B002B51
:1033B00000D12DE700E000BF2AE7644B624A98463F
:1033C000002627781B78002A1FD0644A92469E4226
:1033D0003AD321D1624B38009847434601361B78D7
:1033E000F6B2B342F3D2574E532200213000FEF71B
:1033F000EDFF1022FF21F01CFEF7E8FF3000202235
:10340000FF211330FEF7E2FF07E0380000F000FE76
:1034100043461B78002BE6D04A4E00F061FC23792E
:10342000B370F5E60BB0F0BCBB46B246A946A04669
:10343000F0BD52461268730094469B19DB0063444A
:10344000002BB1D05B6896E7524612687300944631
:103450009B19DB006344002BDED05B68BBE73800C0
:1034600000F0D6FD43461B78002B9DD18BE7627997
:103470002078A36800F052FCCAE63B48002800D13F
:1034800046E700F037FC0121504608AA00E000BFE3
:10349000002800D0BCE63BE7202A00D19FE0002AAC
:1034A00000D035E76379092B00D931E72F4A9B001B
:1034B000D3589F467023217A0B4200D028E7584604
:1034C0000F330B405B00CE09C0181F4F8019C07C22
:1034D000002F06D01D4F3F78B84200D2A1E0C01B9C
:1034E000C0B2002800D097E0002A00D048E1204F69
:1034F0000220627990468243012A00D143E142468C
:10350000002A00D004E75B449E193036F37806AAFF
:103510009B07DB0F023213805046022308A900F0FC
:1035200081FB75E65A00D3180C4ADB001268D318E9
:10353000002B00D176E71E69B5E6C0464483001033
:1035400004160020AC15002051270010882002200E
:10355000094200100000000000000000841200205A
:1035600011400010000000000000000068830010FF
:10357000D0830010237A0F2B00D9C9E6AA4A5B44F6
:10358000DB78002A05D0A94A127893425ED39B1AB1
:10359000DBB2002B00D0BBE6A548A64E00F0AAFB8C
:1035A00001215046F36808AA9847002800D02FE66A
:1035B0006022160023791E401A4200D0A8E66379E3
:1035C0000A3B012B00D9A3E600F094FB63790A2B98
:1035D00000D120E1504608A900F00CFB18E6237A40
:1035E0000F2B00D994E6904A5B44DB78002A06D082
:1035F0008E4A1278934200D2E6E09B1ADBB2002B8F
:1036000000D085E68A488B4E00F074FB01215046BD
:10361000F36808AA98473BE70027002A00D167E72C
:1036200076E647003818844FC0003F683F18002AEC
:1036300000D15DE7002F00D16AE6F86800F05AFB80
:1036400001215046FB6808AA984721E77A4A5E00A4
:10365000F3181668DB00F618002E00D158E6F06863
:103660009CE7A279019273789A4207D07378002B75
:1036700000D045E1019B002B00D0E9E05B46019AB8
:10368000504608A95A7000F0B5FAC1E5737806AA49
:10369000023213705046012308A900F0C3FAB7E5BF
:1036A000E088030AC0B20F2B00D931E663499A00C3
:1036B0008A58974608A800F023FB5046A179FFF7E7
:1036C00081FB0222337813433370A1E5E388012B99
:1036D00000D01DE60822337893435A46137079E7E9
:1036E0000220317806AB9A1C8B068908DB0F01405B
:1036F0000B4310E7E388012B00D009E6082233785A
:103700001343EAE74E4B002B00D101E600E000BF77
:10371000021E00D1FCE5D37891781B020B43504682
:1037200008A900F07FFAB3E6464B002B00D1EFE585
:1037300000E000BF021E00D1EAE55046137808A958
:1037400000F070FAA4E62189FFF700FA021EF4D116
:10375000DEE5022B00D111E13B4B002B00D1D7E578
:1037600000E000BF0200002A00D1D1E5D3E7FFF757
:10377000E5F91223020008A9504600F053FA87E643
:103780002B482C4F5AE7E288002A08D142465B4476
:103790009E193036F378012A21D09B072ED5002FB1
:1037A00000D135E5F86800F0A5FAFB6808AA012108
:1037B00050469847002000F09DFA34235A46D35CC7
:1037C000DB0700D524E505E71B4A5E00F318166801
:1037D000DB00F618002E00D19AE5F06814E79B078D
:1037E000DDD51A4B1878FFF70FFC0222F3789343CC
:1037F0004246F370F3789343F370D0E7134B187895
:10380000FFF7E6FB0222F37813430122F370F3780B
:103810001343F370C3E706AB9A1C5046012308A973
:10382000167000F0FFF9F3E4512700108820022001
:1038300025410010D08300108412002090830010D6
:10384000000000000000000000000000EC0E00205E
:10385000581EC0B2FFF776F9002800D158E543782A
:103860000593022B00D053E50121C2790700931183
:1038700052110B400A4012015B0113435A46127861
:103880002F318A4313435A461370C37882781B0240
:103890001343C31809370393039BBB4200D8ACE022
:1038A00001227B7800920B2B03D1FB7800933B78AD
:1038B000FF187B78042B00D02AE50026039B584A8A
:1038C000DB1B9BB20293574B04931B78B24263D02D
:1038D000B846B34256D800D01AE5534B534F414631
:1038E0005046029A9847082803D9029A824200D388
:1038F0008AE0049B01361B78F6B2B342E9D207E5B1
:103900005046FFF74FFBB378454A0093454B0026DE
:1039100098461B78002A0DD0454FB34225D820D1B8
:10392000444B50469847434601361B78F6B2B342A3
:10393000F3D206E0504600F06BFB43461B78002BA9
:103940000FD1532200215846FEF740FD5B4610225E
:10395000FF21D81CFEF73AFD2022FF213648FEF752
:1039600035FD5B46009A9A7084E618233A687343E3
:1039700094466344002BF4D05B68D2E7FFF7E2F88B
:103980000200F0E62A4B1F6818237343FF18002F2C
:1039900000D1BDE4BB68A2E7029B39001A00504683
:1039A000984600F04BFB082800D8B1E4424682421A
:1039B00000D2ADE41D4B9846009B012B28D000227D
:1039C0000AE0BB78D318DBB25B44D978FF2900D07A
:1039D0009EE40132DE70D2B2009B9A42F1D1804661
:1039E000330002003900144800F03CFD049B4744BA
:1039F0001B78B34200D34FE78AE4104B002B00D171
:103A00003CE600E000BF39E63B0047469846D3E776
:103A10004246054B92689A42D1D1059B0093CEE76E
:103A200051270010882002203D400010D083001054
:103A30008412002011400010BF150020000000007B
:103A4000F8B557464E46DE4645460C00E0B5160032
:103A50001F00002A3CD0702398461E4B00259B4631
:103A60001D4B9A461AE05B461B7820009946534648
:103A7000997800F0BBFC00281CD021004846FFF7D5
:103A80000DFA002816D0A378DA09012A19D00A9A6B
:103A9000013513702378E418B54219DA6378052BE1
:103AA00008D1E3789B079B0FBB4203D14246A37822
:103AB0001A42D8D00020F0BCBB46B246A946A04668
:103AC000F8BD0B9A013513702378E418B542E5DB95
:103AD0000120F0E7EC0E0020AC150020802310B58B
:103AE0001B0184B001930E4B02901C680391626924
:103AF000EFF3108372B611680029FCD0BFF35F8F1B
:103B0000A361200001A900F0F9FD6269A369BFF378
:103B10005F8F0021116083F3108804B010BDC04690
:103B200004160020702270B58B780C001A4201D068
:103B3000002070BD064B20001D78064B997800F0E0
:103B400055FC0028F4D021002800FFF7A7F9F0E782
:103B5000EC0E0020AC150020074B080019687F23ED
:103B600010B50340C0095B0033301818034B181818
:103B700000F0F8FB10BDC04600160020AC15002078
:103B8000074B080019687F2310B50340C0095B008C
:103B900033301818034B181800F00CFC10BDC04649
:103BA00000160020AC1500207F2070B508400F4C97
:103BB0004000CD09241864193034E5780020ED0761
:103BC00000D570BD0126E578094835430078E570D9
:103BD000FFF7ECF90028F4D10122E3789343E37076
:103BE000E37803329343E370EBE7C046AC15002063
:103BF000EC0E002070B50A4E0500300008220C00C3
:103C0000FEF7EAFB00237F21F3602278B360914244
:103C10005B412800D90100220023FFF7C5FF70BDDA
:103C200050150020F8B5CE46474691462A4E80B53D
:103C30000822070030000D009846FEF7CDFB4B46EA
:103C4000B3600023F381EC79A97924020C43231C8F
:103C5000444500D943469AB29046B381002C13D014
:103C6000002A1FD04B46002B34D0131C402A1FD8EB
:103C70009BB2984633787F2B20D80021174A4346C1
:103C80003800FFF791FF09E07F222B7838009A4235
:103C9000644100230022E101FFF786FFC0BCB94662
:103CA000B046F8BD33787F2B11D980210022E6E79A
:103CB00040239BB2984633787F2BDED9074C42468F
:103CC00049462000FEF788FB80212200D7E700212B
:103CD0000022D4E70020E1E7501500206C150020F9
:103CE00010B5142200210248FEF770FB10BDC0463B
:103CF00050150020014B18617047C0465015002038
:103D000010B5054C010008222000FEF765FB0023DA
:103D1000A360E36010BDC04650150020F8B53B4CD1
:103D20001D0023780600DA09C9098A4213D0002051
:103D3000002D00D0F8BD364B002B03D02100300001
:103D4000FFF79EF82369002B44D0220003213000A6
:103D500098470120EEE77F2B06D8A068002837D0CF
:103D60002A002C49FEF738FBA368E2895919521939
:103D7000E38892B2E281A160934214D03F2D12D920
:103D8000A589A81A071C80B240282FD82378BFB273
:103D90007F2B2DD80021AA4235D01E4A3B0030008F
:103DA000FFF702FFC6E72369002B05D0220002219E
:103DB0003000984700280FD07F2200212378300060
:103DC0009A42494100230022C901FFF7EDFEB1E705
:103DD0000020AFE70120ADE700213000FFF7F8F841
:103DE00030008021FFF7F4F80120A3E74027CDE75A
:103DF000AA4207D0074C3A002000FEF7EDFA8021D6
:103E00002200CBE780210022C8E7C04650150020E1
:103E1000812E00106C15002010B50400FFF75AF930
:103E2000002801D1002010BDFFF75CF90028F9D16E
:103E3000B220800044430348001903790120184050
:103E4000F1E7C04688120020B2239B00584310B50A
:103E5000024B1030C01800F057FB10BD8812002034
:103E6000F0B5B225AD0045432C00C646174F1034BF
:103E7000E41900B5200092B200F0CAFB0600200051
:103E800000F060FB3F2803D8300080BCB846F0BD8E
:103E90007B190020D9789846FFF75EFE0028F3D002
:103EA000200000F04FFB3F280AD992239B00EA181C
:103EB0004346D219D97800204023FFF775FEE3E787
:103EC00043460020D978FFF75BFEDDE7881200202B
:103ED000F8B50400FFF7FEF8002801D10020F8BD76
:103EE000FFF700F90028F9D1B220800044432500F3
:103EF000144E2435AD19280000F006FB0028EDD043
:103F000037190020B978FFF727FE0028E6D0A22352
:103F10009B009C466444A41921002800402200F024
:103F200077FBB978051E08D0030022000020FFF7B8
:103F30003BFE0028D2D02800D1E70020FFF720FE6A
:103F4000CCE7C0468812002070B5B224A4004443D8
:103F5000094B2434E418050092B2200000F012FC52
:103F60000600200000F0D0FA3F2801D8300070BDD4
:103F70002800FFF7ADFFF9E788120020B2239B006D
:103F8000584310B5024B2430C01800F0DBFA10BDC6
:103F900088120020B222F0B51B4C83B00021200013
:103FA0009200FEF713FAFF236371184B8026002559
:103FB000E3800127082321002000760023733200CC
:103FC000278138310095073B103000F065FA210059
:103FD000200039313200FF3101230097243000F0F6
:103FE0005BFA8E239B00E6183000FCF775FD9023EA
:103FF0009B002662E6183000E561FCF76DFD266344
:10400000656303B0F0BDC0468812002000C2FFFF08
:1040100010B5094C052200212000FEF7D7F9200039
:104020002434103000F062FC200000F05FFC01211D
:10403000200000F07BFC10BD88120020F0B54B7909
:10404000060083B0022B02D18B79022B03D000250E
:10405000280003B0F0BD304FBB78002BF7D18B7830
:1040600009253B700C780C196378242B0BD1082A96
:1040700002D80FE0AA420DD32378E418ED18637834
:10408000ADB2242BF6D0052B21D0042B02D16379BD
:104090000A2B2FD0214C200000F054FA3F28D7D90A
:1040A0002600103E0020F178FFF756FD0028CFD003
:1040B000200000F047FA3F2817D98E239B00E21812
:1040C000F93BF178FF3B0020FFF76EFDC0E72100D0
:1040D0003000FFF727FD0028B9D0A3787B70237844
:1040E000ED18E4186378ADB2CFE7F1780020FFF760
:1040F00047FDADE70A4B2778019301330093022275
:1041000002233000E119FFF79BFC00289FD00E35F9
:10411000ED19ADB2BEE7C04688120020981200200B
:104120008A120020F8B560231400127805001340AD
:104130000020202B12D12F4A6379277916781B0291
:104140003B439E420AD16378222B27D007D8202BED
:1041500017D0212B02D101293DD00120F8BD232BFE
:10416000FCD101293FD00329F7D1234B002BF4D0F8
:10417000E178A37809020020194300E000BF012084
:10418000ECE7012927D00329E7D11C4B002BE4D011
:104190000020911DFEF7E2FA0120DFE7012922D07D
:1041A0000329DAD101252E00A378E478023924020C
:1041B0001C431471264024321000714000F0B6FBFD
:1041C0000F4B002BC9D06208002031002A4000E0CC
:1041D00000BF0120C2E7072321002800094AFFF79A
:1041E00021FD0120BAE721002800FFF703FD01208F
:1041F000B4E7C04688120020000000005D270010D0
:10420000000000008E120020F8B557464E46454685
:10421000DE46E0B5494F8046FA780C001E008A421F
:1042200064D19AB292239B00FD1810239B46BB4495
:104230002900584600F0A6FA414BD946002B18D069
:104240007B79D946FF2B14D0002E12D0AA199246A2
:1042500003E0013555450CD07B792A789A42F8D194
:10426000484600F067F90028F3D1797900E000BFF3
:10427000EFE7344B002B04D0484600F05BF90028F0
:1042800052D0484600F05EF93F2834D84A46103AEA
:104290009378A34207D001242000F0BCBB46B2466D
:1042A000A946A046F8BD284B002B02D0002000E014
:1042B00000BF0020FFF70CFE0028ECD1234D2800A2
:1042C00000F022F90028E6D1002EE4D0B306E2D1B6
:1042D000243D4046A978FFF73FFC041EDBD00023B5
:1042E00000224046A978FFF75FFCD5E7BB788B42F8
:1042F000D9D00024D0E74D46103D0020E978FFF7E3
:104300002BFC002801D1AB78C3E7484600F01AF92E
:104310003F280CD98E22920040230020E9784A449D
:10432000FFF742FCAB78B4E7FEF78AFBA9E7002071
:10433000E978FFF725FCAB78ABE7C0468812002090
:1043400000000000412A001000000000AC12002014
:1043500010B50020FEF7D8FE10BDC04610B5FEF720
:10436000C9FE10BD037870B5DB0704000E00DD0F39
:10437000002B17D103785B0701D5280070BD012100
:104380003000494203F074FE2378DB07DD0F002B79
:104390000AD123785B0708D404222378012513432C
:1043A000237002E00025E8E70025300003F030FE2E
:1043B000E3E7C04670B50D00012104004942280022
:1043C00003F056FE23785B07DE0F002B04DB28008A
:1043D00003F01EFE300070BD2378DB0704D40422F6
:1043E000237893432370F2E70026F0E710B5437972
:1043F00004791B0223435B055A0DC3789B079B0F6F
:10440000022B05D0032B15D00020012B08D010BDA6
:1044100002291CD00020402393424041C0B2F6E75D
:1044200002394B4259410D4B9C46614491424041F7
:10443000C0B2ECE702394B425941F0230020494217
:104440009B001940403191424041C0B2DFE7044B2C
:10445000D3185A425341D8B2D9E7C046FF030000EF
:1044600000FEFFFF8A1870B5914207D27F264C7874
:10447000052C04D00C7809198A42F8D870BD340094
:104480008D782C4064000419ED0963550C780919E6
:104490008A42ECD8F2E7C046F0B5C64600B5040043
:1044A00006A805788020884617001E000002824278
:1044B00027D8E068002803D00121494203F0D8FD45
:1044C0002069002803D00121494203F0D1FD434671
:1044D000236073045B0CED031D430023E0686381DC
:1044E000A780E5802381002801D003F091FD206999
:1044F0000124002801D003F08BFD200080BCB846C9
:10450000F0BD0024F9E7C04610B5048941898288CE
:10451000A3B288B28C4207D31B1A9BB2101C9A42DA
:1045200000D9181C80B210BD5100091A5B189BB24B
:10453000F4E7C046030000895B89C01A4342584132
:10454000C0B2704710B5048941898288A3B288B28D
:104550008C4207D31B1A9BB200209A4201D9D31A6E
:1045600098B210BD5100091A5B189BB2F4E7C0461F
:1045700070B5040000690E00002803D001214942F3
:1045800003F076FD25896089A288A9B283B28542AD
:104590002CD3CD1AADB2002D2ED0AA4208D2914212
:1045A00031D38B1A9BB263819A4203D89B1A9BB278
:1045B0009A42FBD9E28821685204520C53433000DE
:1045C000C918FDF709FF618901254B1C9BB2A28820
:1045D000994214D9002352009B1A9BB2206963812F
:1045E000002801D003F014FD280070BD5500ED1A1D
:1045F0004D19ADB2002DD0D1002563899BB2520078
:104600009342EBDBE8E789188BB26381CCE7C046C5
:10461000F0B546464F46D646C0B506000069894605
:104620009046002803D00121494203F021FD318941
:104630007289B5888BB294B2914257D31F1BBFB217
:10464000002F4DD0BD4205D2AB4254D25B199CB273
:104650002F0074814346B84540D89FB2A54203D885
:10466000641BA4B2A542FBD9F288281B5204530C48
:1046700019009846336861439C4680B26144874282
:1046800026D94346584383B21A0048469A46FDF756
:10469000A3FE434648467D1B64195C433168504481
:1046A000A2B2FDF799FE7189B588CB199BB26A0059
:1046B000994217D99B1A9BB230697381002801D0A7
:1046C00003F0A6FC3800E0BCBA46B146A846F0BDEF
:1046D000424648467A43FDF77FFEE4E73B1CBCE7D1
:1046E00073899BB26A009342E6DBE3E76F003F1BEE
:1046F000DF19BFB2A4E75B1B9CB2A9E7F8B50400C1
:10470000C0680E00002803D00121494203F0B0FC2C
:10471000258920896189A288ADB283B28FB288428F
:1047200028D3DB1B9BB29A4209D8E779FF0906D14F
:10473000E068002801D003F06BFC3800F8BD2B00C6
:10474000954203D39B1A9BB29342FBD2E288216825
:104750005204520C5343C8183100FDF73DFEA288A5
:104760006B1C9BB252009D4209D99B1A9BB2012738
:104770002381DDE75100C91B5B189BB2D3E793424D
:10478000F5DBF2E7F0B54E464546DE465746E0B566
:1047900089460500140083B0002A6ED0C068002846
:1047A00003D00121494203F063FC2F89EA796B8928
:1047B000BFB29BB2D20942D1AE889F4267D272008B
:1047C000D31AFB189BB2002290469E4231D9F31AAD
:1047D0001A1C9BB2A34200D9221C93B29846E888C7
:1047E0004346FB189BB29B463C00B74203D3A41B35
:1047F000A4B2B442FBD24004430C18009A462B6882
:1048000060439C46311B89B2604441454ED35246B9
:10481000434649465A43FDF7DFFDAB885B00BB4585
:1048200001D39B4503DB5A46D31A9BB29B465B469A
:104830002B81E868002822D003F0EAFB1FE0AA8859
:104840009046944226D29F4244D34146FA1A92B2ED
:10485000490012198A4209DB42469A1892B2171B84
:10486000BFB29346BB423AD97F1ABFB2E3199BB29B
:1048700046469B46A046E888B6E700239846404651
:1048800003B0F0BCBB46B246A946A046F0BDFB1A39
:104890009BB298E7E888A21A4404640C5443424649
:1048A000A144002AC5D046461F0099E75346594304
:1048B00089B20A0001914946FDF78EFD43469A1BD5
:1048C0005346A2185A430199286892B24944FDF709
:1048D00083FDA2E75100CA1ABA1892B2B9E7B942E9
:1048E000C2DD4646E888A0467EE7C04610B5040013
:1048F000C068002803D00121494203F0B9FB2069B8
:10490000002803D00121494203F0B2FB0023E068F4
:1049100063812381002801D003F07AFB20690028FD
:1049200001D003F075FB012010BDC04670B5040036
:10493000C0680D00002803D00121494203F098FB14
:104940002069002803D00121494203F091FB7F2117
:10495000E379ED011940E0682943E171002801D0B5
:1049600003F056FB2069002801D003F051FB012021
:1049700070BDC0467047C046000000000000000047
:104980000BA10CC9126892009B581868203080F364
:104990000988022080F31488BFF36F8F3FBCAE46B6
:1049A00008BC04BC62B61847C046C046C046C046F4
:1049B000000000D0A81C0020D0231B061A6DD207CF
:1049C00004D501219A6D1A6D1142FBD1D023FF222B
:1049D0001B061A658022024B52051A607047C046BA
:1049E00004ED00E0000000000000000000000000F6
:1049F000EFF309811AA00CC8106880001B18186812
:104A000020390160F0C144464D4656465F46F0C12C
:104A1000146E556E566F176F3039F0C1106808B5B7
:104A200072B601F013FB62B60CBC11680868103056
:104A3000F0C8A046A946B246BB4680F309880D22BD
:104A400012073038F0C81466556656671767F0C805
:104A50001847C046C046C046C046C046C046C046CD
:104A6000000000D0A81C002010B5EFF3108472B62F
:104A700002F0EEF802F044FB002803D08022044B41
:104A800052051A6002F0BAFE84F3108810BDC046C9
:104A900004ED00E010B5FDF72BF9C04610B58024F9
:104AA000031F64041C60043B19600349043B196044
:104AB000143B40381A6010BD954A00108022044B08
:104AC00052051A60BFF34F8FBFF36F8F7047C04618
:104AD00004ED00E0D0231B061B6808499B005A58D0
:104AE000002A08D00020585005495B58BFF35F8F5B
:104AF000106083F3108862B67047C046441F0020E0
:104B00007C1F0220D02300221B065A657047C04636
:104B1000002310B5084A094C052023601360FCF7F8
:104B20008BFFFA218900FDF74FF9054B013818601A
:104B30000723236010BDC04618E000E010E000E04D
:104B400014E000E070B5244B1A78D0231B061B68D4
:104B50009A4232D0FF230220204A1B0411684042AF
:104B60000B4313601E4903F089F805201D4940429C
:104B700003F084F8D023FF221B061A651A6DD207B2
:104B800004D501219A6D1A6D1142FBD1D0252D0655
:104B90002C68FF210F342000FBF702FF2000124990
:104BA000FBF708FD01212000FBF7C0FCFFF7E8FE42
:104BB000286801F04BFAFDF79BF8FFF7A9FFFF23E8
:104BC0000120064A1B06116840420B431360074947
:104BD00003F054F8BEE7C046ED0E002020ED00E0E3
:104BE000F149001075490010B9490010694A0010D8
:104BF00010B5EFF3108372B6FFF7A4FF10B50E20C7
:104C0000FBF778FC0F20FBF775FC0022034B0448F0
:104C10001A7003F0A1F8FFF795FFC046ED0E0020D3
:104C2000F14B001010B50A4B1B78FF2B0CD0EFF3A3
:104C30000580002805D0D0231B061B684000C01843
:104C400010BD01F065FEFBE7D0231B061868F7E7EF
:104C5000ED0E002000B51C4A0B00127883B0FF2A2D
:104C600029D01A4902688C46022162449210FF3111
:104C70009140090A40BF0068BFF35F8F00220260C5
:104C800083F31088EFF30583DBB2002B05D1104BC3
:104C9000186800F04DF903B000BD0D4B0192186883
:104CA00001AA00F08DF9019B002BF4D08022094B62
:104CB00052051A60EFE740BF0268BFF35F8F002123
:104CC000116083F31088E6E7ED0E002000FFFF2F50
:104CD0000020022004ED00E0F0B51D00314B07007C
:104CE0001B780E00140083B0FF2B4ED0FCF78EFA19
:104CF00022002B00121A8B4101212B4849428018B7
:104D00005941002921DC1CD03B68BFF35F8F002292
:104D10001A6086F31088254B5A6A95420AD9802278
:104D2000234B52051A60BFF34F8FBFF36F8F0020E4
:104D300003B0F0BD9B6A0120A342F9D29542F7D19E
:104D4000EDE7FA239B009842DED3FA22002392007B
:104D5000FDF760F8031ED7D0D0221206116815485F
:104D60003A6889000A5014480E5014498C460221B2
:104D700062449210FF319140114A090A1068009371
:104D80000122002300F078F8C5E70368BFF35F8FC6
:104D900000221A6081F3108820002900FCF790F9A6
:104DA000C6E7C046ED0E002018FCFFFF004005409E
:104DB00004ED00E0441F00207C1F022000FFFF2FB5
:104DC0000020022010B500F04BF8014B186010BD18
:104DD00000200220F8B5DE4657464E464546E0B56F
:104DE00005000F00060001F0A7F829682C69394377
:104DF0000C362960A6422AD0002398468023DB0483
:104E00009B4680235B049A4680239B0499460EE0D0
:104E10000B420AD057463A4202D042461A439046C5
:104E20004B46194302F03AFB2968A6420DD02000F8
:104E30005F460268646813021B0A3A42E8D01F000A
:104E40000F40BB42E6D0A642F1D1434699432960C8
:104E500002F018FBF0BCBB46B246A946A046F8BD1E
:104E600010B51C2002F09EFF041E03D0002308C0D2
:104E700000F0B0F8200010BDF0B5C646060000B541
:104E80000D0090461F0001F057F83468002F0AD13A
:104E900025420CD04346002B0CD02300AB4333609B
:104EA00002F0F0FA08E02B0023409D42F2D0069B6E
:104EB000002B05D102F0E6FA200080BCB846F0BD18
:104EC0004346002B16D180210023C904002F00D1B6
:104ED0001900069A2943301D01F0D0FA02F0D2FAE7
:104EE00000281CD002F0A4FC0400830107D5240292
:104EF000240AE1E7A0218023C9045B04E6E701F06E
:104F0000A7FE3468002F0DD12C4205D04346002B5C
:104F100002D02300AB43336002F070FCE7E701F0FE
:104F20007DFEDFE723002B409D42F5D1EEE7C04632
:104F3000F8B5DE4657464E464546E0B505000F003B
:104F4000060000F0F9FF29682C6939430C36296006
:104F5000A6422AD0002398468023DB049B46802368
:104F60005B049A4680239B0499460EE019420AD0BE
:104F700057463A4202D042461A4390464B4619439E
:104F800002F08CFA2968A6420DD020005F46026824
:104F9000646813021B0A3A42E8D00F001F409F4288
:104FA000E6D0A642F1D143469943296002F06AFA5D
:104FB0002868F0BCBB46B246A946A046F8BDC0462C
:104FC00010B513000A000100014802F043FE10BDB5
:104FD000D54D00100300083301224360C360036114
:104FE00000235242826003607047C0460023036181
:104FF0007047C04643689A684B608A609A685160FF
:10500000996003680861013303607047030030B59D
:105010000C680833621C0DD01A005B681D68A5423D
:10502000FAD94B60996003688A6001335160086166
:10503000036030BD02695368F3E7C0460369416805
:1050400082688A6051605968814206D000220261FC
:105050001A68013A1A60186870475A60F6E7C04645
:10506000F0B5DE464E4657464546E0B585B00600EB
:1050700001F0EEFD4523F45C64B2002C21DD213B00
:10508000994621339A46B14409E0AB6BEA6B03962B
:10509000934245D3013CE3B264B2002B11D0B56C0E
:1050A000002DF2D1736A002B0BD0484601F08AFA2A
:1050B0000028EFD001F022FC013CE3B264B2002BE7
:1050C000EDD14523FF22F25402F098FB01F0C0FD20
:1050D0004423F45C64B2002C16DD3500103504E086
:1050E000013CE2B264B2002A0ED03369002B0BD02F
:1050F000280001F067FA0028F2D0013C01F0FEFB25
:10510000E2B264B2002AF0D14423FF22F25402F04A
:1051100075FB05B0F0BCBB46B246A946A046F0BD43
:1051200053462A6CEF5CAB6B7FB29846002A14D1D1
:105130002B680193002B2BD000239B464346013361
:10514000AB637B1C18D0534601377FB2EF545B46EC
:10515000002B9FD001F0D2FBAEE7686803A9FDF7F2
:105160003BF92A6C6B689446AA6863446B6093426F
:10517000E2D32B686B60DFE76B6A002BE7D0280077
:10518000243001F01FFA0028E1D001F0B7FB93E7CB
:10519000A86801F0DFFC019B8346AB60CEE7C04608
:1051A000F0B5C64600B5846C82B0A36BE26B0026F6
:1051B0000190934204D3300002B080BCB846F0BDE9
:1051C0004523226CE55CA76B6DB2002A16D060689F
:1051D00001A9FDF701F9226C63689446A268634453
:1051E000636093420ED3236863600137A7636B1C2F
:1051F0000DD0452301356DB2E554DCE723689846B0
:10520000002B0FD001370026A7636B1CF1D1636A16
:10521000002BD0D02000243001F0D4F90028CAD0CF
:105220000126C8E7A06801F095FC43460600A3608C
:10523000DBE7C046F8B506000800704354300D00A7
:10524000170002F0AFFD041E25D00300002D24D16D
:1052500023602564E66301F0FBFC226CE36B2168AC
:105260005343C8189B1ACB18E3600025FF23442240
:10527000A06020006160A563A3540132A3541030E4
:10528000FFF7A8FE20002430FFF7A4FE02F0B6FAD4
:105290005023E754A5642000F8BD5433D8E7C04636
:1052A000F0B5CE46474604001E00002380B585B009
:1052B00099460192884601F0CBFCA36BE26B002774
:1052C0004425934237D3022E72D0019B002B00D18C
:1052D0008AE0002F68D002F091FA00F02DFE01F074
:1052E000B7FC625D52B2531C01D14B466355452356
:1052F000E25C52B2013201D14A46E25402F07EFA37
:1053000001A902A801F00AFA002800D074E001F017
:105310009FFCA36BE26B934234D002F06FFA200043
:10532000FFF79EFE02F0AEF8012701F091FCA36B9F
:10533000E26B9342C7D2226CA76BA56B002A3CD0CC
:105340004146002E00D084E06068FDF745F8226CED
:1053500063689446A26863446360934201D3236800
:105360006360A36C0135A563002B34D1636A002B05
:1053700036D02000243001F025F9002830D001F08B
:105380004DFC2DE002F03AFA20000199103001F0B6
:1053900005F82000FFF764FE02F074F80028C3D17E
:1053A00001F03CFC0127C0E702A801F0ABF992E74D
:1053B000226CA76BA56B002A25D123680020984694
:1053C000002B40D0A36C0135A563002B35D0022EF5
:1053D00001D1002F04D12000FFF7E2FE0028CED13A
:1053E00002F00CFA012002E002F008FA002005B0F9
:1053F000C0BCB946B046F0BD2000FFF731FE02F058
:1054000041F80020F3E74146E068FCF7E5FFE1687A
:10541000236C5A42CB1A2168E3608B4205D2A36801
:105420009C466244E260022E9BD1002D00D10135E2
:10543000A36CA563002BCCD198E7636A002B98D1AD
:1054400000289CD1CCE7A06801F084FB4346A36010
:10545000B8E7E068FCF7C0FFE168236C5A42CB1A5A
:105460002168E3608B42DED2D9E7C04670B5060002
:10547000542002F097FC041E2CD00025012300606C
:10548000C363056401F0E4FB216CE36B22684B43CA
:10549000D0185B1AD3186260E3604422FF23A06037
:1054A0002000A563A3540132A3541030FFF792FDEE
:1054B00020002430FFF78EFD02F0A0F950230022D7
:1054C000E654002100232000A564A5602560E56066
:1054D000FFF7E6FE200070BDF8B54E464546DE46B5
:1054E00057460400E0B5884691461D00EFF310874B
:1054F00072B601F0ADFBA36BE26B934226D3022D93
:105500000BD0002402F07AF987F310882000F0BC59
:10551000BB46B246A946A046F8BD4523E65CA36B50
:10552000226C9B46A36B76B29A46002A29D1236847
:105530009846002B61D053460133A363731C37D0C8
:105540004523013676B2E6540124DBE74523E65CC9
:10555000A36B226C9B46A36B76B29A46002AE6D0D8
:10556000002D0ED141466068FCF736FF226C63685F
:105570009446A268634463609342DCD3236863600B
:10558000D9E74146E068FCF727FFE168236C5A42FF
:10559000CB1A2168E3608B4203D2A3689C46624425
:1055A000E2605346022D24D00133A363731CC7D19C
:1055B000A36C002B13D0022D04D15B46002B01D02D
:1055C00001249FE72000FFF7EBFD0028F8D04B46B1
:1055D000002BF5D001234A460124136092E7636A49
:1055E000002BEDD02000243000F0ECFF0028EED19D
:1055F000E6E7002BA1D10133D7E7A06801F0AAFAB2
:105600004346A3605346013397E7C046F0B547468B
:10561000CE46040080B585B08846019201F018FBA3
:10562000A76B002F5ED1019B002B3BD002A801F09D
:1056300069F8002344269946452502F0DFF800F07A
:105640007BFC01F005FBA35D5BB2013301D14B464E
:10565000A355635D5BB2013301D14B46635502F044
:10566000CDF801A902A801F059F8002822D101F0D3
:10567000EFFAA36B002B2AD102F0C0F820000199A9
:10568000243000F08BFE2000FFF7EAFC01F0FAFE68
:10569000002824D001F0DCFAA76B002F22D1019B57
:1056A000002BCAD102F0AAF8002005B0C0BCB94650
:1056B000B046F0BD2000FFF7D3FC01F0E3FE01F09F
:1056C000C7FAA36B002BEDD002F098F8E2E702F0E6
:1056D00095F82000FFF7C4FC01F0D4FEDAE701F0F2
:1056E0009DFAD7E7226C002A08D0E3689918A368CE
:1056F000E16099420BD24046FCF76EFE013FA76382
:105700002369002B06D102F079F80120CDE721684A
:10571000E160F0E72000103000F054FF0028F2D0E4
:1057200001F07CFAEFE7C046F0B5C646002304005E
:1057300000B584B09846019101F08AFAA36B002667
:1057400000274425002B3CD1019B002B00D178E0A1
:10575000002F50D002F052F800F0EEFB01F078FA82
:10576000635D5BB2013301D1434663554522A35CBF
:105770005BB2013301D14346A35402F03FF801A9C3
:1057800002A800F0CBFF002827D101F061FAA36B3B
:10579000002B34D102F032F82368002B55D02000C2
:1057A0000199243000F0FAFD2000FFF759FC01F0C8
:1057B00069FE002835D0012701F04AFAA36B002BBF
:1057C000C2D0013BA3632368002B50D02369002B78
:1057D00044D102F013F801261EE02000FFF740FC40
:1057E00001F050FE01F034FAA36B002B10D002F050
:1057F00005F80127E0E702A800F084FFAAE701F01E
:10580000FDFF2000FFF72CFC012701F03BFED3E752
:1058100001F0F4FF002E08D1300004B080BCB8467F
:10582000F0BD01F0FBF90127C6E701F011FA616A4A
:10583000002903D02021236B1B68C91AA06801F03E
:10584000B5F901F0DBFF0026E6E701F001FAA068F8
:1058500001F012F9060001F0D1FFA0E7200010309E
:1058600000F0B0FE0028B4D001F0D8F9B1E702F0A2
:1058700003F8A060AAE7C046164B1A68002A15D0A4
:105880009A68002A18D01A69002A17D09A69002A43
:1058900016D01A6A002A15D09A6A002A14D01A6BF8
:1058A000002A13D09A6B002A12D070470022D2002F
:1058B00099509B185860F8E70122F8E70222F6E7B2
:1058C0000322F4E70422F2E70522F0E70622EEE7DE
:1058D0000732ECE72812002070B5040016000D0016
:1058E00001F0B6F94422A35C5BB2013301D100237D
:1058F000A3544522A35C5BB2013301D10023A3541E
:1059000001F07CFFA36B002B03D02000FFF7A8FB66
:1059100070BD200032002900243000F0D3FDF4E7F0
:1059200010B5FFF7CBF8034C2368022BFCD9FFF727
:10593000C5F8F9E7C41C0020F0B5C646304B00B5E9
:10594000040088461E68EFF3108172B6D0273F0628
:105950003B682C4D9B00EA5881F310887D23002181
:10596000D154EFF3108272B63B689B00E85882F383
:1059700010880830FFF762FB631C30D03419EFF356
:10598000108172B6D022120613689B00EB5881F387
:1059900010889C60A64214D81B4B1868EFF3108641
:1059A00072B613689B00E95886F310880831FFF738
:1059B0002DFB164B1A68A24200D91C6080BCB84669
:1059C000F0BD134B1868EFF3108472B613689B0098
:1059D000E95884F310880831FFF718FBEEE74346D7
:1059E000002BCBD0EFF3108272B63B689B00E958D6
:1059F00082F3108807480831FFF7FCFADEE7C0465B
:105A000074200220A81C0020B41C002018200220B2
:105A1000BC1C00204C20022010B5EFF3108C72B695
:105A2000D02109060B68274A9B0098588CF31088F0
:105A3000036D013B0365EFF3108072B609688B00BC
:105A40009B5880F310881B6D002B36D11E4A1378AB
:105A5000013BDBB21370002B08D101201B4C635CAF
:105A600083436354BFF35F8F194B1860EFF30583D3
:105A7000DBB2002B21D1D0231B0619685378013BE0
:105A8000DBB25370002B09D10220104A535C8343D0
:105A90005354BFF35F8F01220E4B1A60FFF71AF8C1
:105AA000EFF3108272B6D0231B061B680A499B00D5
:105AB0005B5882F31088002B00D110BDFEF7FEFF6B
:105AC000FBE7C046A81C0020781F0220741F02209C
:105AD000380100D03C0100D080200220F8B5D0234E
