:020000041000EA
:1000000000B5324B212058609868022188439860DF
:10001000D860186158612E4B002199600221596106
:100020000121F02299502B49196001219960352056
:1000300000F044F80222904214D00621196600F024
:1000400034F8196E01211966002018661A6600F04E
:100050002CF8196E196E196E052000F02FF8012189
:100060000842F9D1002199601B49196000215960AB
:100070001A491B48016001219960EB211966A021F2
:10008000196600F012F800219960164914480160C1
:100090000121996001BC002800D000471248134993
:1000A000086003C880F30888084703B5996A0420EC
:1000B0000142FBD001200142F8D103BD02B5186610
:1000C0001866FFF7F2FF186E186E02BD00000240BE
:1000D000000000180000070000035F00212200005C
:1000E000F4000018222000A00001001008ED00E03C
:1000F00000000000000000000000000074B24E7A12
:1001000000200420F7010010C3010010C5010010F9
:10011000C1010010C1010010C1010010C101001097
:10012000C1010010C1010010C1010010C701001081
:10013000C1010010C1010010C9010010CB01001065
:10014000CD010010CD010010CD010010CD01001037
:10015000CD010010CD010010CD010010CD01001027
:10016000CD010010CD010010CD010010CD01001017
:10017000CD010010CD010010CD010010CD01001007
:10018000CD010010CD010010CD010010CD010010F7
:10019000CD010010CD010010CD010010CD010010E7
:1001A000CD010010CD010010CD010010CD010010D7
:1001B000CD010010CD010010CD010010CD010010C7
:1001C00000BE00BE00BE00BE00BE00BEEFF3058054
:1001D000103800BEF2EB887124580010405800100F
:1001E0003402001090A31AE700201F49086006C8D7
:1001F00081F3088810471D48006800282FD10DA4FE
:100200000ECC002902D000F012F8F9E71849194A7B
:10021000002000E001C19142FCD1174988471749ED
:1002200088471749884700BEFDE701C901C29A42C5
:10023000FBD3704740580010C0000020800200200F
:10024000005A00100000042000000420005A001092
:10025000001004200010042000000000704709482E
:1002600001F074FB0047000008ED00E0000000D042
:1002700080020020340A0220AD1700102503001070
:10028000A11800105756000006005250ABB360533F
:10029000A057001006005250861C0302B0570010F1
:1002A000060052505422A29DB8570010050052502B
:1002B000DE65F468005A0010F8B5C04610B5064C6B
:1002C0002378002B07D1054B002B02D0044800E017
:1002D00000BF0123237010BDC005002000000000F6
:1002E00008570010044B10B5002B03D003490448F5
:1002F00000E000BF10BDC04600000000C4050020A3
:100300000857001070B5D02580242D06A404FA20CB
:100310006C61000104F014FCFA20AC61000104F0EF
:100320000FFCF4E700B5192083B000F017F8D023D4
:1003300080221B0692045A6200230193013380221B
:10034000044900930448002304F070FC04F0CAF947
:1003500003B000BD08570010050300100123D02290
:100360008340120693629361094A830094464022B7
:1003700063441968C0004A40C021114080225201E4
:1003800013431960034B9C46052360444360704748
:1003900004C0014000400140024B18688007C00FB4
:1003A0007047C04600C0064070B5EFF3108C72B6BF
:1003B0000D4D2B68002BFCD0BFF35F8F0724CB08BB
:1003C000C618C05C01230C40A3401C00044003423B
:1003D00007D103433370BFF35F8F2C608CF3108819
:1003E00070BD100001F060FA2C0100D00021044B18
:1003F000044ABFF35F8F02C39342FAD17047C046ED
:10040000000100D0800100D0044A1078431CDBB208
:10041000172B00D9102313707047C046B00100207D
:1004200010B50100024A0348FFF7BEFF10BDC046E9
:1004300014570010EC05002001238340002904D04C
:10044000034A1360034A13607047034A1360FBE7D3
:1004500080E200E000E100E080E100E00122824073
:10046000034B1B6813405A1E9341D8B27047C046D5
:1004700000E100E0024B10309B688000C0587047DC
:1004800000ED00E070B50D00EFF3108672B60F4A74
:100490001368002BFCD0BFF35F8F0D4B10309B68AF
:1004A00084001B590B4A934203D09D4201D001F0B6
:1004B00019FA074B9B681D51BFF35F8FBFF35F8F26
:1004C0000022024B1A6086F3108870BD240100D010
:1004D00000ED00E0CD010010F0B5DE4657464E4677
:1004E0004546E0B50C0083B0EFF3108972B6584A68
:1004F0001368002BFCD0BFF35F8F564B9A68030044
:1005000010339F00D559544A9046954232D0A542A7
:1005100043D0524EAA1B2F2A2CD801228240924649
:1005200051464F4A12681140019151464D4A11609F
:10053000BFF35F8FEFF305829346002A33D1012387
:100540002A009A4393689C4208D177E04B005B18DD
:100550009B00F3189968A1422AD01A00062151562F
:100560000029F3DA019B002B19D052463E4B1A604A
:100570003B4B1A60374B9B68DD51BFF35F8FBFF376
:100580005F8F0022324B1A6089F3108803B0F0BCF1
:10059000BB46B246A946A046F0BD1500EAE7524662
:1005A000304B1A60E6E79342C9D001F09BF9C6E7E9
:1005B00006215956002921DB4A00501880003418C2
:1005C0008046A0689860E079D8710620205698711E
:1005D000002824DBA488F01A64052415444400197B
:1005E000E0240005400D24022043988052181F4B40
:1005F0009200B6181A781970B271B3E759460029FB
:100600000FD1FF3191711A49918018490A789A7176
:10061000184A9B1B5B415A43120D0A70A2E7164809
:10062000E3E7164A1649D21A083A5002400D014330
:100630009980144952080A43DA8093E706215156FB
:1006400013000029B8DA5A46002AEAD14546DCE709
:10065000240100D000ED00E0CD010010B401002025
:1006600000E100E080E100E080E200E0310A0220E9
:1006700001BDFFFFAAAA000001BD0000EE0100209D
:1006800000F0FFFF00F8FFFF032310B50400074A46
:1006900018409446C0009C43FC3383406444226865
:1006A00081409A4313000B43236010BD00E400E037
:1006B00070B5EFF3058101240443EFF3108C72B69B
:1006C000214A1368002BFCD0BFF35F8F1F4B05003E
:1006D0001F4AED1A6D416A43120D1E4D8900AE6826
:1006E00052B27658A6421CD00621595691421CD0CF
:1006F00012215956914222D01E215956914220D0A2
:100700002A2159560324914210D0134B19781A709C
:100710008171BFF35F8F00220B4B1A608CF310883E
:1007200070BDAB680D4C5C50EFE700246100091907
:1007300089005B18FF21997109499980E5E7012437
:10074000F4E70224F2E7C046240100D0B4010020FF
:10075000AAAA000000ED00E0310A0220CD0100103D
:1007600001BDFFFF054B064A1360064A1360536044
:100770009360D36013615361936170478080808080
:1007800000E400E004E400E0024B9C466144890080
:10079000016070474000003410B50400FFF734FEDC
:1007A00001002000FFF7F0FF01235B426360BFF30D
:1007B0005F8F10BD10B50400FFF726FE010020007A
:1007C000FFF7E2FF01235B42636000232372BFF364
:1007D0005F8F10BD83680B4810B584466144624446
:1007E000090112019A18591854684B6801209C425B
:1007F00001D802D00020C0B210BD12680B689A4226
:10080000F9D8F7E7FFFFFF0F074810B50268EFF3CD
:10081000108172B61368002BFCD0BFF35F8F01F01C
:1008200071FE0020002110BD1C090020F8B55746BC
:100830004E464546DE46E0B599460CAB1C780DABFE
:100840001B78060090469A460768002C11D1BC7BA5
:10085000002C42D065003B682D19033D59194B7897
:10086000BB73002B00D1FB7300238B704B700B709C
:1008700004E065003B682D19033D5919B2682A4B05
:1008800094464246E3181B0163441A604A465A6084
:100890000A9A9A600B9ADA6000238B704B700B7087
:1008A0007B7B9B46002B2BD022005946B8687B6887
:1008B00098473A68002816D05B4658465B005B4470
:1008C0005519033BA870D118D35C002B00D06B7076
:1008D0005B460C707B73A34513D0F0BCBB46B2469D
:1008E000A946A046F8BD5B465B005B44033BD318BA
:1008F0009C705119525D002A00D05A705B460B70F3
:100900007C7342464B46307D00F010FB051E06D03E
:100910005346002B03D12100306800F031FD0E9BBF
:10092000002BDAD01D70D8E7FFFFFF0FF0B5DE46D1
:1009300057464E4645460023E0B58BB00893664BBC
:100940008200D45800239B46099000F09FFA626809
:1009500006000F00EFF3108572B61368002BFCD071
:10096000BFF35F8F23689C465B7B9946002B68D062
:10097000A2685A4B90464B441B01984443461A6860
:100980005B6810001900801BB941002963DD0998DC
:1009900000F0CCFA00230022984600230692079329
:1009A00000239A466368BFF35F8F5A461A6085F347
:1009B00010885346002B08D10028C6D10BB0F0BCDC
:1009C000BB46B246A946A046F0BD089B4146180268
:1009D0004B461843D047626806000F00EFF31085BE
:1009E00072B61368002BFCD0BFF35F8F002F4FDB74
:1009F00033003B4302D02369002B60D12368D97BAD
:100A0000002907D04A00521819688C4649466244AA
:100A1000033A51709A7B002A01D14A469A734A469A
:100A2000DA734B46E168013BCA5C0132CA545B464B
:100A300023616368BFF35F8F5A461A6085F310889D
:100A400083E70023002298460023069207930023A1
:100A500000209A46A6E7002901D1002897D100215D
:100A6000604600F00BFC43461A685B6806920793E9
:100A700043469B689A464346DB689846E3684B4486
:100A8000013B1B7808931B0203432361002089E785
:100A90002369002BB2D0069A079B921BBB41002B07
:100AA00015DB5946049101210391494602914146C3
:100AB0000191514620000091FFF7B8FEB7E700F022
:100AC000E5F932003B0012184B41002BE9DA012214
:100AD000034B5242E5E7C04664060020FFFFFF0FCC
:100AE000FFFFFF7F10B5144C6368002B04D00A2170
:100AF0001248FFF749FE10BD2300114A102120685B
:100B000000F0D6FA032000F0B5F9032000F07EFAD9
:100B100003200C4900F0C4F9FFF776FC0A4B9C4611
:100B200003232375D0231B061B6860446375074BA2
:100B300080006060DC60DAE7FC0100201C09002016
:100B4000D50700102D090010400000346406002075
:100B5000F0B557464E464546DE46E0B585B00193B2
:100B600010AB1B780600039300239A469846009228
:100B70007268EFF3108972B61368002BFCD0BFF3D4
:100B80005F8F3568AC7B002C49D067002B683F191C
:100B9000033FDB195A78AA73002A00D1EA73B168BF
:100BA000484A8C4600980199A218120162441060CC
:100BB00051600E9991600F99D16042469A705A70B7
:100BC0001A706B7B9B46002B45D022001900A86849
:100BD0006B6898472A68002830D05B4658465B000F
:100BE0005B44D719033BB870D118D35C002B00D0FD
:100BF0007B705B460C706B735C452DD0F3681B19E2
:100C0000013B18787368BFF35F8F42461A6089F31F
:100C100010885346002B2CD10002204307E0736854
:100C2000BFF35F8F1C6089F310880120404205B03C
:100C3000F0BCBB46B246A946A046F0BD5B465B0091
:100C40005B44033BD3189C70D119D25D002A00D0BD
:100C50005A705B460B706C73307D009A019B00F0FC
:100C600065F982460028C9D02100306800F088FB71
:100C7000C4E7039B002B23D00E9B00200F999847BD
:100C8000030004000D000B431AD000290ADA009A71
:100C9000019B121BAB4100920193002B0ADB039BCB
:100CA0009A4665E700F0F2F824184D41009401954A
:100CB000002DF4DA0123044C5B4200930194EEE72B
:100CC0000020B4E7FFFFFF0FFFFFFF7F70B5426812
:100CD0000400EFF3108572B61368002BFCD0BFF34D
:100CE0005F8F2068CEB2437BB3420AD0FF230B4014
:100CF0005A00D318026894466344033B9B78002B48
:100D000013D0E268FF2394460B406344013B0A0A78
:100D10001978D2B291420ED000206368BFF35F8F82
:100D200000221A6085F3108870BD22698A42F3D1CF
:100D300000202361F1E7310000F022FBEDE7C0461F
:100D400070B5EFF3058305000C0084B0002B0AD0CA
:100D5000164A0020536A9C4203D8926A0130AA4284
:100D60001FD304B070BD124E02930193114B0200C9
:100D7000009330000B00FFF7EBFE011EE8DD20BF03
:100D80003000FFF7A3FF094B0020596A8C42E8D8D6
:100D90009B6A0130AB42E4D2641A631E9C41E0B20C
:100DA000DFE7E41A631E9C41E0B2DAE70040054049
:100DB000FC01002009080010F0B5EFF30582D646CB
:100DC0004F4646461000C0B51038EFF3108872B693
:100DD000214C2368002BFCD0BFF35F8F0123190047
:100DE00081401E4D1F006963AA461D4D29601D4D9F
:100DF0002E78AC463500C5402F402B4209D1BFF3B9
:100E00005F8F276088F31088E0BCBA46B146A846D9
:100E1000F0BD5346144D5F6A83005D59AF420ED357
:100E2000124A8E439B5862461670BFF35F8F0022B2
:100E3000226088F31088002BE6D09847E4E70C4B3B
:100E400092009C46624413681360BFF35F8F0023D7
:100E5000236088F31088D7E7280100D000400540C0
:100E60003C700540320A022020090020DC050020E9
:100E7000D03F054010B50100024A0348FFF794FA3D
:100E800010BDC04634570010300A0220034B596A87
:100E90000A00986A596A8A42FAD1704700400540B0
:100EA00070B504000D00EFF3108672B61A4A13688D
:100EB000002BFCD0BFF35F8F002D1BD02000FFF76D
:100EC000D9FA164981420AD02000FFF7DBFA012146
:100ED0002000FFF7B1FA0123A340114A1360114B20
:100EE000A400E550BFF35F8F00220B4B1A6086F31E
:100EF000108870BD0B4BA200D5500122A2400A49B8
:100F000020000B7893430B700449FFF7E5FA0021AA
:100F10002000FFF791FAE5E7280100D0B90D001095
:100F200038600540DC050020320A0220F0B54F464B
:100F3000D6464646C0B507002F4C616A0D00A66A2A
:100F4000616AA942FAD18B4208D805D00120E0BCE1
:100F5000BA46B146A846F0BDB242F7D9EFF3108ABF
:100F600072B6264801680029FCD0BFF35F8F0125C7
:100F7000BD402349204C8846097889462943C9B297
:100F80008C46414660460870391D1E4889006563DD
:100F90000A51B9000B50216A0020294219D0616A18
:100FA0000800A66A616A8142FAD18B4219D801D140
:100FB000B24216D8CC451DD00F4B1F201D625D6379
:100FC00001230740BB40104A1E38136043464A467F
:100FD0001A70BFF35F8F0022084B1A608AF31088E3
:100FE000B5E70020BFF35F8F0022044B1A608AF33D
:100FF0001088ACE70120ECE700400540280100D054
:10100000320A02202009002080E200E0EFF3108C79
:1010100072B60A490B68002BFCD0BFF35F8F012327
:101020008340074A0748136202789A430270BFF36D
:101030005F8F00230B608CF310887047280100D06D
:1010400000400540320A022070B505001400160069
:10105000002915D00C00002A12D080686B689847D0
:10106000296800280ED073009B196200033B1219F7
:10107000CB18033A9C7088188A5C002A15D1067038
:10108000200070BD63001B197200033B9219CB183E
:10109000033A9E7088188A5C002A02D104703400DA
:1010A000EEE75A7004703400EAE75A700670E7E71A
:1010B00030B583600023CCB24373013304734260C4
:1010C0008373C4730D000068012C06D9421C0133E0
:1010D000DBB2137003329C42F9D1FF2129404B004F
:1010E0005918002340180338437030BDF8B5CE4678
:1010F000474606000C0080B5002907D04D00036864
:101100006D18033D5A195778002F04D12000C0BC38
:10111000B946B046F8BD7900C91903398846434439
:101120005978894600215970517073683A0021003E
:10113000806898473368002814D042469A18947003
:1011400059195B5D002B00D053700F702700494682
:101150003000FFF7CBFF390002003000FFF774FFCB
:101160000400D3E7424641465D19AF709A185B5CB4
:10117000002B00D06B701470E9E7C046F0B55746FD
:101180004546DE464E46E0B50D006B0001685B1932
:10119000DF1E0400C85D83B00192CA19002850D038
:1011A00043001B18033BCB185E78B446002E1AD1BF
:1011B000019E002E42D0E67B002E04D073009B19C6
:1011C000CB18033B5D70A37B002B00D1A573E573A7
:1011D00000282FD10023537003B0F0BCBB46B246A9
:1011E000A946A046F0BD72006244033A89184A78C5
:1011F000904600224A7091465A7001003200200049
:10120000FFF722FF43468246002B07D05B00216890
:101210004344033BCB185A78002A16D14246514624
:101220002000FFF711FF2168019BCA19002BC2D1D2
:101230000028CFD043001B18033BCB180021997026
:10124000C8E7019B002BB6D1C4E7500080180338D3
:10125000091848788346484648705870414620002F
:10126000FFF7F2FE594680462000FFF73FFF414658
:1012700002002000FFF7E8FE8046CFE7F0B55746B2
:101280004546DE464E46E0B583B00191457B0400FD
:101290006B0000685B19DF1EC15DC219002952D0C6
:1012A0004B005B18033BC3185E78B446002E1CD17C
:1012B000019E002E44D0E67B002E04D073009B19C3
:1012C000C318033B5D70A37B002B00D1A573E573AE
:1012D000002931D1002328005370617303B0F0BCA2
:1012E000BB46B246A946A046F0BD72006244033A2E
:1012F0008018427890460022427091465A70200031
:101300003200FFF7A1FE43468246002B07D05B0068
:1013100021684344033BCB185A78002A17D1424630
:1013200051462000FFF790FE019B01002068C21982
:10133000002BC0D10029CDD04B005B18033BC31854
:1013400000209870C6E7019B002BB4D1C2E7500083
:101350008018033809184878834648464870587002
:1013600041462000FFF770FE594680462000FFF7F7
:10137000BDFE414602002000FFF766FE8046CEE734
:1013800070B5040000292CD0437B8B422ED0056819
:1013900048004018033828188278002A21D05300CA
:1013A0009B18033BEA5CEE188A4202D11BE0002A3C
:1013B00008D053009B18033BEB185A788A42F6D1A9
:1013C00042785A7000230122837043702000FFF797
:1013D000D5FE617B02002000FFF736FE607301201E
:1013E00000E0002070BD43783370EBE70122190064
:1013F000FFF7C4FE60730120F4E7C04630B50C204F
:1014000083B000F0B7F9FEF7C7FF00280ED0944B69
:10141000944A1A605A609A60DA601A615A619A6155
:10142000DA611A62904A5A6203B030BD8F4CA067ED
:1014300000F0A8F901228E4B1A60636C012BFCD1DD
:1014400003228C4B1A60894A936B012BFCD1013328
:101450000121894A89480093043300F033F90523B8
:10146000874A00930121874800F02CF9864B5A687F
:10147000FF2A02D8802252005A608022784C7D4B8D
:1014800021691201804D1A60002905D0606900F0C1
:101490008FFA01300138FDD1E0217B4B02201A6820
:1014A0001140802252012A431160196848400321EB
:1014B0000140116004219A681142FCD080228021F1
:1014C00092012A4309011160802252005A606F4B39
:1014D00023616F4B5968FF2900D85A600321644A81
:1014E0006B4B116002399A681142FCD0E0201A68F7
:1014F0001040802252011A431060186848400321AE
:1015000001400220116062498A681042FCD08022AA
:1015100092011343802212011A6080225D4B520017
:101520004A6063615C4B5968FF2900D85A60802289
:101530005A4BE1691201584D1A60002905D06069C3
:1015400000F036FA01300138FDD1E02252490B6833
:101550001A4080235B012B431A60802380229B0169
:101560002B4312011A6080223E4B52004A60E36115
:101570004B4B5968FF2900D85A608022494B216A99
:101580001201474D1A60002905D0606900F010FA79
:1015900001300138FDD1E02241490B681A40802317
:1015A0005B012B431A60802380229B012B43120195
:1015B0001A60802380225B004B602A4BD202236298
:1015C000394B5968914200D25A608022374B616A88
:1015D0001201354D1A60002905D0606900F0E8F964
:1015E00001300138FDD1E0222F490B681A408023D9
:1015F0005B012B431A60802380229B012B43120145
:101600001A608023DB024B60174B6362284B5A68D9
:10161000FF2A02D8802252005A608022254BA169FD
:101620001201234D1A60002905D0606900F0C0F94D
:1016300001300138FDD1E0221D490B681A4080239A
:101640005B012B431A60802380229B012B431201F4
:101650001A6080235B004B600E4BA361E4E6C0463A
:10166000F0050020006CDC021BB700000080004089
:101670003CB0004030B00040002F6859008002406C
:10168000008C864700C0024030800040001BB7003D
:101690003C800040405973075480004054B00040E3
:1016A0006080004060B000406C8000406CB0004042
:1016B0004880004048B00040014B8000C05870474F
:1016C000F0050020F0B5C646040000B50C20904699
:1016D0001F000E0000F06CF94101091A8D01691A12
:1016E000C90009188901404600F062F9069B3F04D1
:1016F0001A0323681743002B22DB1A4B1A4DE218FA
:1017000053425A4180235B019C461203174B6244AB
:101710001A60174B1A601100AB689943FBD1C022C5
:10172000231D92011A4321232660A06013602368C1
:10173000002BFCDA0823E760136080BCB846F0BDDC
:101740003F2322681340B342D7D1A3681B051B0D6A
:101750008342D2D1EE22E368D2021340BB42CCD105
:10176000EBE7C0460040FDBF00C0004000E0004085
:1017700000F000408023024A9B000343D36270477D
:1017800000800540AA23064A1B0113602F23054948
:10179000D360054B19605368002BFCDA7047C046D4
:1017A0000040024000B0FA00006002402C4B2D4A7D
:1017B00070B51A602C4A2D4B2D491A6014008B68A5
:1017C0009C43FBD12B4D2C4EB54208D2013E761BDB
:1017D000B60808CD984723000134B342F9D1FFF78A
:1017E0000DFE264A214B1A60214A9368DB43DB0138
:1017F000DD09002BF9D14022214B224C224E9A6761
:101800005A671A67DA66B44208D223682000002BB0
:1018100020D00C34FEF7CEFFB442F6D31B4E1C4C46
:10182000C022A168300000F0B1FBA660FEF7DEFD2B
:10183000FEF798FFFFF756F9164C174EB44208D240
:10184000013E361BB60808CC98472B0001359E4256
:10185000F9D170BD0834FEF79FFFB442D5D3DDE760
:1018600000E00040BFCDFBFEFE7F3C0000F00040EA
:1018700000C000406802002078020020FFFFFF0146
:1018800000F0014058020020680200200000002003
:1018900000ED00E0780200208002002000BEFDE79D
:1018A00010B5FFF7FBFFC0460FB400B5084883B082
:1018B00000F09EFC049B002B07D005A918000191A5
:1018C00000F01EF8034800F093FC0120FFF7E6FF4C
:1018D000585700106857001010B50148FFF7E4FF93
:1018E0006C57001010B50148FFF7DEFF7C57001061
:1018F00010B5002800D110BD00F02EFCFBE7C0465B
:1019000010B5094A0300146884B0002C08D00122E5
:1019100000910648524203A9A047012004B010BD1F
:1019200000F066FC0020F9E760060020F1180010C6
:1019300001480421014B1847300200206D190010A6
:10194000014B5B681847000030020020142310B5DB
:101950000100188804331B88984710BD162310B562
:101960000100188802331B88984710BDF8B5474618
:10197000CE4680B50F1E19D01423994604330400B7
:101980000025012698464B461888434621681B8847
:10199000984701C4431E9841013540420640AF427A
:1019A000F1D13000C0BCB946B046F8BD0126F8E719
:1019B000114A936F9B0813D210665166002905D017
:1019C000FFE7FFE7FFE7516F106F704704B500288E
:1019D00001D00020C04303F087FE002104BDC046B3
:1019E000F0B5146E556E576F166FFFF7E5FF14666E
:1019F000556657671667F0BD000000D094464A4A06
:101A0000926F9208624601D228E0C046F0B5464E79
:101A1000346E756E776F366F00F020F89446424A48
:101A200014665566576716676246F0BD94463E4A8F
:101A3000926F9208624601D254E0C046F0B53A4E29
:101A4000346E756E776F366F00F04CF89446364AF8
:101A500014665566576716676246F0BD002B24DB97
:101A600011D000293EDA00B5C943404200D101310E
:101A700000F038F8C943404200D10131DB43524203
:101A800000D1013300BD002AEBD1002801D100298B
:101A900005D00020C90FC90701D1C043410800B5D6
:101AA00003F01AFE0022002300BD00B500290ADB66
:101AB000DB43524200D1013300F014F8C9434042E5
:101AC00000D1013100BDC943404200D10131DB43A7
:101AD000524200D1013300F005F8DB43524200D1FD
:101AE000013300BD002923D1002B18D1002A0CD0CE
:101AF000BC460D4F38667A6600210023FFE7FFE7FA
:101B0000FFE77A6F386F67467047002801D00748B3
:101B1000010000B503F0E0FD0022002300BD02003B
:101B20000B00002000217047000000D0FFFFFFFFE6
:101B3000002B00D0BFE0130C28D1002AE7D080B4DE
:101B4000114F39667A66FFE7FFE730B4040C7B6F0C
:101B5000396F1B0423433B667A66FFE7FFE7FFE725
:101B6000C04684B27B6F3D6F1B0423433B667A669D
:101B7000FFE7FFE7C04600232C042D0C7A6F386F77
:101B800000196941B0BC7047000000D0F0B5944620
:101B90000025140E01D112020835140F01D11201D3
:101BA0000435940F01D192000235D40F01D15200B7
:101BB0000135D40B0134254F7C66254C3C660E0C58
:101BC00093B2FFE7FFE7FFE73C6F6643360C77030E
:101BD000BE467343DF0B5B04C01AB941130C734359
:101BE000DB18C91ACE086643360CB64493B2734369
:101BF0001F0F1B01C01AB941130C73431F0B1B05A8
:101C0000C01AB941860D8F023E436643360C092D3A
:101C100024DB520A7243801A7703460A6643360C65
:101C200016235B1BDE40DF40BF1964466643821B00
:101C30007046043506330100D940A840C01900D3CE
:101C40000131A24206D20023F0BD0000000000D006
:101C5000FFFFFFFF121B0130F3D3F1E709277F1BC2
:101C6000FE406446A2B27243801A00D20139220CAF
:101C70007243130C1204821A99410B00704604350A
:101C800013370100F940A840801900D30131002B1F
:101C900002D1A2420AD2F0BD013000D30131121BA1
:101CA000FAD2013BF8D1A24200D2F0BD013000D3FC
:101CB0000131121BF7E7F0B51C0C00D080E00CB42A
:101CC00000251C0A04D11B02160E334312020835EC
:101CD0001C0B04D11B01160F3343120104359C0B5E
:101CE00004D19B00960F334392000235DC0B02D1E6
:101CF00092185B4101351C00971864410134464F2E
:101D00007C66464C3C660E0CFFE7FFE7FFE7C046EB
:101D10003C6F6643360C7703BE4697B27743C01BD1
:101D200000D20139C01B00D201399FB27743C91BD1
:101D3000C91B170C77437E04FF0B801BB941CE08EB
:101D40006643360C0C2D33DBB644120B1F053A43A9
:101D50001B0B97B27743C01B00D201399FB2774368
:101D6000C91B170C77433E043F0C801BB941860DFD
:101D70008F023E43664329277F1BFE400C3D77467A
:101D8000AF40BF1930BCA2B2ABB272437343801AEA
:101D90009941220C7243130C1204801A99410200DB
:101DA0000B000137001BA941F9D2781E0021F0BDBC
:101DB0000C277F1BFE4077467F0BAF40FF19E0E703
:101DC00000245D1C07D0144F7D663966FFE7FFE7EE
:101DD000FFE7FFE73C6F95B29EB265436643401B49
:101DE000B141150C1E0C6543664336042F0C3E436F
:101DF0002D04401BB141994204D202000B00200087
:101E00000021F0BD01D19042F7D3801A99410134ED
:101E10009942F2D3F6E70000000000D0FFFFFFFF79
:101E2000132370B51D78012D15D010DD1C48FFF768
:101E300095FD1C4C01008022200000F0A7F8022D27
:101E400006D01948FFF782FD184B186070BD154C7D
:101E5000174BA364F5E7164B124C23606360A36035
:101E6000E36023616361A361E36123626362A36250
:101E7000E36223636363A363E36323646364A36430
:101E8000E36423656365A365E36523666366A36610
:101E9000E36623676367A367E367A364D1E7C0468C
:101EA00053440000800300204C3300001809002038
:101EB000B51E001007B5604601880A0A0230DF2A05
:101EC000FAD1C9B2820804D30288408800041043C2
:101ED00000E00068014A5050039007BD80030020D5
:101EE000132310B512481C78FFF738FD0100012CB0
:101EF0000AD003DD80220F4800F048F80E48FFF7B3
:101F000025FD0E4B186010BD0A4C5422200000F035
:101F10003DF80B4B6365A365E36523666366A366C3
:101F2000E36623676367A367E3672362E361E5E72B
:101F300053460000800400204C33000018090020A4
:101F4000451F001007B5604601880A0A0230DF2AE3
:101F5000FAD1C9B2820804D3028840880004104331
:101F600000E00068014A5050039007BD8004002043
:101F700001480421014B1847400200206D19001050
:101F8000014B1B681847000040020020014B5B68B2
:101F90001847000040020020030010B5080011009F
:101FA0001B68984710BDC046F0B546464F46D6461A
:101FB000C0B5437D80460E001700002B46D0002A96
:101FC0003FDD4B1E9946244B0125002400209A46F4
:101FD0000DE04B461B5D0D3B5A425341325DDBB277
:101FE0000A2A0BD02B00013401359F421ADD002C48
:101FF000EFD14346325D1B7D0A2AF3D1002BF1D18C
:10200000A04204DA4346211A1B6830189847434619
:1020100050461B6802219847013428002B000135E7
:102020009F42E4DC874204DD4346391A1B683018BE
:102030009847F619013E33780D3B5A4253414246C8
:102040001375E0BCBA46B146A846F0BD036811005E
:1020500030009847F5E7C046E8570010F0B5DE4677
:1020600057464E464546E0B585B017001C000600B1
:102070000D00FEF70BFF0023304A12184B41002BD6
:1020800058DB2F4908008A4603F036FB01906B1C91
:1020900003D1300003F0E8FA0500002C25D1294BCC
:1020A0009846294B1C68002C15D0002F20D1274FB3
:1020B00002E02469002C0ED02368002BF9D03B6885
:1020C000002B01D0A342F4D120002A003100C047E8
:1020D0002469002CF0D1019B002B27D105B0F0BC66
:1020E000BB46B246A946A046F0BD194B9846D8E774
:1020F000164B994602ABDF1D0A239B4602E024697A
:10210000002CE8D02368002BF9D04B461B68002B2D
:1021100001D0A342F3D12A0031002000C0475B4622
:102120000122390020003B70C047E8E7504603F029
:10213000CBFAD3E70122074B5242A2E740420F00FD
:1021400060020020A91F0010580600205C06002035
:10215000991F0010FFFFFF7FF0B5CE46474680B5C0
:1021600083B06B460600DD1D2870FEF78FFE00234E
:102170001A4A12184B41002B2BDB194908008846DC
:1021800003F0BAFA174B81461C68002C14D0164F86
:1021900002E02469002C0FD02368002BF9D03B68A3
:1021A000002B01D0A342F4D1200001222900FFF727
:1021B000FBFE2469002CEFD14B46002B05D13000EB
:1021C00003B0C0BCB946B046F0BD404603F07CFA4F
:1021D000F5E70122054B5242CFE7C04640420F00CF
:1021E00060020020580600205C060020FFFFFF7FF1
:1021F00070B5040003F038FA002301000500012245
:102200002000FFF72BFF084B1C68002C06D06368EA
:10221000002B05D098472469002CF8D1280070BD08
:102220002469002CF3D1F9E7580600207047C04616
:102230000BA10CC9126892009B581868203080F3DB
:102240000988022080F31488BFF36F8F3FBCAE462D
:1022500008BC04BC62B61847C046C046C046C0466B
:10226000000000D074060020D0231B061A6DD20790
:1022700004D501219A6D1A6D1142FBD1D023FF22A2
:102280001B061A658022024B52051A607047C04631
:1022900004ED00E00000000000000000000000006D
:1022A000EFF309811AA00CC8106880001B18186889
:1022B00020390160F0C144464D4656465F46F0C1A4
:1022C000146E556E566F176F3039F0C1106808B52F
:1022D00072B601F0B3FA62B60CBC1168086810302F
:1022E000F0C8A046A946B246BB4680F309880D2235
:1022F00012073038F0C81466556656671767F0C87D
:102300001847C046C046C046C046C046C046C04644
:10231000000000D07406002010B5EFF3108472B6F0
:1023200001F0E8FF02F03EFA002803D08022044BBF
:1023300052051A6002F0ECFD84F3108810BDC0460F
:1023400004ED00E010B5FFF7C7FAC04610B58024D1
:10235000031F64041C60043B19600349043B1960BB
:10236000143B40381A6010BD452300108022044BF6
:1023700052051A60BFF34F8FBFF36F8F7047C0468F
:1023800004ED00E0D0231B061B6808499B005A5847
:10239000002A08D00020585005495B58BFF35F8FD2
:1023A000106083F3108862B67047C04610090020A1
:1023B00038090220D02300221B065A657047C04608
:1023C000002310B5084A094C052023601360FFF76D
:1023D00073F9FA218900FFF7EBFA054B0138186011
:1023E0000723236010BDC04618E000E010E000E0C5
:1023F00014E000E070B5244B1A78D0231B061B684C
:102400009A4232D0FF230220204A1B041168404226
:102410000B4313601E4902F095FF05201D49404201
:1024200002F090FFD023FF221B061A651A6DD20717
:1024300004D501219A6D1A6D1142FBD1D0252D06CC
:102440002C68FF210F342000FEF71EF920001249EE
:10245000FEF718F801212000FDF7EEFFFFF7E8FE78
:10246000286801F0EBF9FFF737FAFFF7A9FFFF2320
:102470000120064A1B06116840420B4313600749BE
:1024800002F060FFBEE7C0465002002020ED00E0F1
:10249000A12200102D220010692200101923001023
:1024A00010B5EFF3108372B6FFF7A4FF10B50E203E
:1024B000FDF7B6FF0F20FDF7B3FF0022034B0448E2
:1024C0001A7002F0ADFFFFF795FFC04650020020E2
:1024D000A124001010B50A4B1B78FF2B0CD0EFF392
:1024E0000580002805D0D0231B061B684000C018BB
:1024F00010BD01F005FEFBE7D0231B061868F7E7C7
:102500005002002000B51C4A0B00127883B0FF2A4D
:1025100029D01A4902688C46022162449210FF3188
:102520009140090A40BF0068BFF35F8F002202603C
:1025300083F31088EFF30583DBB2002B05D1104B3A
:10254000186800F04DF903B000BD0D4B01921868FA
:1025500001AA00F08DF9019B002BF4D08022094BD9
:1025600052051A60EFE740BF0268BFF35F8F00219A
:10257000116083F31088E6E75002002000FFFF2F70
:10258000A809022004ED00E0F0B51D00314B070062
:102590001B780E00140083B0FF2B4ED0FEF776FCA4
:1025A00022002B00121A8B4101212B48494280182E
:1025B0005941002921DC1CD03B68BFF35F8F00220A
:1025C0001A6086F31088254B5A6A95420AD98022F0
:1025D000234B52051A60BFF34F8FBFF36F8F00205C
:1025E00003B0F0BD9B6A0120A342F9D29542F7D116
:1025F000EDE7FA239B009842DED3FA2200239200F3
:10260000FFF7FCF9031ED7D0D02212061168154837
:102610003A6889000A5014480E5014498C46022129
:1026200062449210FF319140114A090A10680093E8
:102630000122002300F078F8C5E70368BFF35F8F3D
:1026400000221A6081F3108820002900FEF778FB31
:10265000C6E7C0465002002018FCFFFF00400540BE
:1026600004ED00E0100900203809022000FFFF2FD0
:10267000A809022010B500F04BF8014B186010BDFE
:10268000A8090220F8B5DE4657464E464546E0B555
:1026900005000F00060001F047F829682C6939434E
:1026A0000C362960A6422AD0002398468023DB04FA
:1026B0009B4680235B049A4680239B0499460EE048
:1026C0000B420AD057463A4202D042461A4390463D
:1026D0004B46194302F06CFA2968A6420DD020003F
:1026E0005F460268646813021B0A3A42E8D01F0082
:1026F0000F40BB42E6D0A642F1D143469943296040
:1027000002F012FAF0BCBB46B246A946A046F8BD9C
:1027100010B51C2002F0AAFE041E03D0002308C03E
:1027200000F0B0F8200010BDF0B5C646060000B5B8
:102730000D0090461F0000F0F7FF3468002F0AD10B
:1027400025420CD04346002B0CD02300AB43336012
:1027500002F0EAF908E02B0023409D42F2D0069BEC
:10276000002B05D102F0E0F9200080BCB846F0BD96
:102770004346002B16D180210023C904002F00D12D
:102780001900069A2943301D01F070FA02F0CCF9C5
:1027900000281CD002F0D6FB0400830107D52402D8
:1027A000240AE1E7A0218023C9045B04E6E701F0E5
:1027B000A1FD3468002F0DD12C4205D04346002BDB
:1027C00002D02300AB43336002F0A2FBE7E701F045
:1027D00077FDDFE723002B409D42F5D1EEE7C046B1
:1027E000F8B5DE4657464E464546E0B505000F00B3
:1027F000060000F099FF29682C6939430C362960DE
:10280000A6422AD0002398468023DB049B468023DF
:102810005B049A4680239B0499460EE019420AD035
:1028200057463A4202D042461A4390464B46194315
:1028300002F0BEF92968A6420DD020005F4602686A
:10284000646813021B0A3A42E8D00F001F409F42FF
:10285000E6D0A642F1D143469943296002F064F9DB
:102860002868F0BCBB46B246A946A046F8BDC046A3
:1028700010B513000A000100014802F04FFD10BD21
:10288000852600100300083301224360C360036102
:1028900000235242826003607047C04600230361F8
:1028A0007047C04643689A684B608A609A68516076
:1028B000996003680861013303607047030030B515
:1028C0000C680833621C0DD01A005B681D68A542B5
:1028D000FAD94B60996003688A60013351600861DE
:1028E000036030BD02695368F3E7C046036941687D
:1028F00082688A6051605968814206D00022026174
:102900001A68013A1A60186870475A60F6E7C046BC
:10291000F0B5DE464E4657464546E0B585B0060062
:1029200001F0E8FC4523F45C64B2002C21DD213B7E
:10293000994621339A46B14409E0AB6BEA6B0396A2
:10294000934245D3013CE3B264B2002B11D0B56C85
:10295000002DF2D1736A002B0BD0484601F02AFA01
:102960000028EFD001F0C2FB013CE3B264B2002BBF
:10297000EDD14523FF22F25402F0CAFA01F0BAFC6D
:102980004423F45C64B2002C16DD3500103504E0FD
:10299000013CE2B264B2002A0ED03369002B0BD0A6
:1029A000280001F007FA0028F2D0013C01F09EFB5C
:1029B000E2B264B2002AF0D14423FF22F25402F0C2
:1029C000A7FA05B0F0BCBB46B246A946A046F0BD8A
:1029D00053462A6CEF5CAB6B7FB29846002A14D149
:1029E0002B680193002B2BD000239B4643460133D9
:1029F000AB637B1C18D0534601377FB2EF545B4664
:102A0000002B9FD001F072FBAEE7686803A9FFF7C7
:102A1000BDFA2A6C6B689446AA6863446B60934263
:102A2000E2D32B686B60DFE76B6A002BE7D02800EE
:102A3000243001F0BFF90028E1D001F057FB93E703
:102A4000A86801F011FC019B8346AB60CEE7C0464D
:102A5000F0B5C64600B5846C82B0A36BE26B00266D
:102A60000190934204D3300002B080BCB846F0BD60
:102A70004523226CE55CA76B6DB2002A16D0606816
:102A800001A9FFF783FA226C63689446A268634445
:102A9000636093420ED3236863600137A7636B1CA6
:102AA0000DD0452301356DB2E554DCE72368984627
:102AB000002B0FD001370026A7636B1CF1D1636A8E
:102AC000002BD0D02000243001F074F90028CAD0A7
:102AD0000126C8E7A06801F0C7FB43460600A360D3
:102AE000DBE7C046F8B506000800704354300D001F
:102AF000170002F0BBFC041E25D00300002D24D1DA
:102B000023602564E66301F0F5FB226CE36B21682A
:102B10005343C8189B1ACB18E3600025FF234422B7
:102B2000A06020006160A563A3540132A35410305B
:102B3000FFF7A8FE20002430FFF7A4FE02F0E8F91A
:102B40005023E754A5642000F8BD5433D8E7C046AD
:102B5000F0B5CE46474604001E00002380B585B080
:102B600099460192884601F0C5FBA36BE26B0027F2
:102B70004425934237D3022E72D0019B002B00D103
:102B80008AE0002F68D002F0C3F900F0CDFD01F01B
:102B9000B1FB625D52B2531C01D14B4663554523D4
:102BA000E25C52B2013201D14A46E25402F0B0F97D
:102BB00001A902A801F0AAF9002800D074E001F0F0
:102BC00099FBA36BE26B934234D002F0A1F9200091
:102BD000FFF79EFE01F0A8FF012701F08BFBA36B1E
:102BE000E26B9342C7D2226CA76BA56B002A3CD044
:102BF0004146002E00D084E06068FFF7C7F9226CE0
:102C000063689446A26863446360934201D3236877
:102C10006360A36C0135A563002B34D1636A002B7C
:102C200036D02000243001F0C5F8002830D001F063
:102C300047FB2DE002F06CF920000199103000F004
:102C4000A5FF2000FFF764FE01F06EFF0028C3D14E
:102C500001F036FB0127C0E702A801F04BF992E72B
:102C6000226CA76BA56B002A25D12368002098460B
:102C7000002B40D0A36C0135A563002B35D0022E6C
:102C800001D1002F04D12000FFF7E2FE0028CED1B1
:102C900002F03EF9012002E002F03AF9002005B00E
:102CA000C0BCB946B046F0BD2000FFF731FE01F0D0
:102CB0003BFF0020F3E74146E068FFF767F9E16872
:102CC000236C5A42CB1A2168E3608B4205D2A36879
:102CD0009C466244E260022E9BD1002D00D101355A
:102CE000A36CA563002BCCD198E7636A002B98D125
:102CF00000289CD1CCE7A06801F0B6FA4346A36057
:102D0000B8E7E068FFF742F9E168236C5A42CB1A52
:102D10002168E3608B42DED2D9E7C046F8B54E4663
:102D20004546DE4657460400E0B5884691461D00FC
:102D3000EFF3108772B601F0DDFAA36BE26B9342FA
:102D400026D3022D0BD0002402F0E2F887F310887E
:102D50002000F0BCBB46B246A946A046F8BD4523BC
:102D6000E65CA36B226C9B46A36B76B29A46002A64
:102D700029D123689846002B61D053460133A363C1
:102D8000731C37D04523013676B2E6540124DBE7C5
:102D90004523E65CA36B226C9B46A36B76B29A46F6
:102DA000002AE6D0002D0ED141466068FFF7EEF80C
:102DB000226C63689446A268634463609342DCD3E8
:102DC00023686360D9E74146E068FFF7DFF8E16810
:102DD000236C5A42CB1A2168E3608B4203D2A3686A
:102DE0009C466244E2605346022D24D00133A36323
:102DF000731CC7D1A36C002B13D0022D04D15B46EA
:102E0000002B01D001249FE72000FFF721FE0028BE
:102E1000F8D04B46002BF5D001234A46012413601D
:102E200092E7636A002BEDD02000243000F0C2FF4F
:102E30000028EED1E6E7002BA1D10133D7E7A06847
:102E400001F012FA4346A3605346013397E7C046A8
:102E5000F0B54746CE46040080B585B0884601925D
:102E600001F048FAA76B002F5ED1019B002B3BD0ED
:102E700002A801F03FF8002344269946452502F0B8
:102E800047F800F051FC01F035FAA35D5BB2013365
:102E900001D14B46A355635D5BB2013301D14B4673
:102EA000635502F035F801A902A801F02FF80028B7
:102EB00022D101F01FFAA36B002B2AD102F028F8CF
:102EC00020000199243000F061FE2000FFF720FD72
:102ED00001F02AFE002824D001F00CFAA76B002F85
:102EE00022D1019B002BCAD102F012F8002005B0BC
:102EF000C0BCB946B046F0BD2000FFF709FD01F0A7
:102F000013FE01F0F7F9A36B002BEDD002F000F8EF
:102F1000E2E701F0FDFF2000FFF7FAFC01F004FEFC
:102F2000DAE701F0CDF9D7E7226C002A08D0E36890
:102F30009918A368E16099420BD24046FFF726F842
:102F4000013FA7632369002B06D101F0E1FF0120B7
:102F5000CDE72168E160F0E72000103000F02AFFA3
:102F60000028F2D001F0ACF9EFE7C046164B1A6822
:102F7000002A15D09A68002A18D01A69002A17D09A
:102F80009A69002A16D01A6A002A15D09A6A002A6D
:102F900014D01A6B002A13D09A6B002A12D07047F3
:102FA0000022D20099509B185860F8E70122F8E7F8
:102FB0000222F6E70322F4E70422F2E70522F0E713
:102FC0000622EEE70732ECE78005002070B504002A
:102FD00016000D0001F08EF94422A35C5BB20133B0
:102FE00001D10023A3544522A35C5BB2013301D17C
:102FF0000023A35401F08CFFA36B002B03D020000F
:10300000FFF786FC70BD200032002900243000F05C
:1030100051FEF4E710B5FFF7A9F9034C2368022B22
:10302000FCD9FFF7A3F9F9E790060020F0B5C646F2
:10303000304B00B5040088461E68EFF3108172B66D
:10304000D0273F063B682C4D9B00EA5881F310883F
:103050007D230021D154EFF3108272B63B689B00B0
:10306000E85882F310880830FFF740FC631C30D02A
:103070003419EFF3108172B6D022120613689B0048
:10308000EB5881F310889C60A64214D81B4B18683B
:10309000EFF3108672B613689B00E95886F3108828
:1030A0000831FFF70BFC164B1A68A24200D91C60CE
:1030B00080BCB846F0BD134B1868EFF3108472B6AD
:1030C00013689B00E95884F310880831FFF7F6FB7A
:1030D000EEE74346002BCBD0EFF3108272B63B688D
:1030E0009B00E95882F3108807480831FFF7DAFBA4
:1030F000DEE7C0461C0A022074060020800600207D
:10310000C009022088060020F409022010B5EFF360
:10311000108C72B6D02109060B68274A9B0098587C
:103120008CF31088036D013B0365EFF3108072B6DA
:1031300009688B009B5880F310881B6D002B36D1DB
:103140001E4A1378013BDBB21370002B08D101201B
:103150001B4C635C83436354BFF35F8F194B186050
:10316000EFF30583DBB2002B21D1D0231B061968B6
:103170005378013BDBB25370002B09D10220104A77
:10318000535C83435354BFF35F8F01220E4B1A608D
:10319000FFF7F8F8EFF3108272B6D0231B061B6816
:1031A0000A499B005B5882F31088002B00D110BDA8
:1031B000FFF7DCF8FBE7C046740600203409022064
:1031C00030090220380100D03C0100D0280A02203A
:1031D000F8B5D0235746DE4645464E461B061B68CB
:1031E000584A9B00D358E0B59846574B574F9A46DC
:1031F000574B9B4659E042461365D023524D1B0660
:103200001A682B78524C013BDBB22B70002B07D194
:103210000121A35C8B43A354BFF35F8F4D4B196017
:10322000D0231B061A686B78013BDBB26B70002B56
:1032300008D10221A35C8B43A354BFF35F8F01220B
:10324000454B1A60FFF79EF8EFF3108372B6D02358
:103250001B061A68404B196800294ED0BFF35F8FD8
:10326000012302216B70A35C0B43A354D0231B06E4
:103270001A68384B1968002938D0BFF35F8F0123D3
:1032800001212B70A35C0B43A354EFF3108172B6A2
:10329000D022120613682B489B00C35881F3108874
:1032A0001E654B463B60002E34D043469B6B023379
:1032B0002AD143461E6D3B68994600233B60002E91
:1032C00099D1D02355461B061A686B785C46013BA2
:1032D000DBB26B70002BB5D10221A35C8B43A354EE
:1032E000BFF35F8F01221C4B1A60ABE7A15CC907DB
:1032F00020D419680029C0D1FBE7A15C89071DD43F
:1033000019680029AAD1FBE7F0BCBB46B246A94622
:10331000A046F8BD2B781268013BDBB22B70002B66
:10332000C3D10121A35C8B43A354BFF35F8F094B2F
:103330001960BAE72B7801332B70A6E76B7801335D
:103340006B7093E7740600203409022048090220BC
:1033500030090220380100D03C0100D070B5EFF3F5
:10336000108472B6D023364A1B0618681368002BE7
:1033700045D0344BBFF35F8F01210225324A517093
:10338000195C29431954D02530492D060E68286848
:10339000002E3CD0BFF35F8F012101251170195C15
:1033A000294319542A490025086801300860D020B3
:1033B00000060068157001251A5CAA431A54BFF371
:1033C0005F8F224B1D600B68012B02D084F31088A5
:1033D00070BDEFF3108272B6D0231B061B681D4927
:1033E0009B005B5882F310881B6D002BEED1EFF32E
:1033F0000583DBB2002BE9D1FFF7EAFEE6E7114BCC
:10340000195C89070AD411680029B3D1FBE71E5C57
:10341000F60708D40D68002DBCD1FBE70A4A5178A5
:1034200001315170AFE71678711C117008490868B6
:103430000130086028681670002EC4D1BBE7C04672
:103440003C0100D03009022034090220380100D0AC
:103450004809022074060020F8B5DE4657464E465D
:103460004546E0B5FEF782FF6C4BD0279B466C4B80
:103470006C4E99466C4B6D4C9A466D4B3F06984688
:103480002368002B6FD0EFF3108372B63368002BE4
:103490003AD0EFF3108172B658463B689A008258D2
:1034A00081F31088126D002A12D1EFF30582D2B297
:1034B000002A67D05F4A1268002A77D0BFF35F8F77
:1034C00001215D4A11705D4AD25C0A435B49CA54CE
:1034D000EFF3108172B65A463B689B00D25881F3D5
:1034E0001088136D013313654B461B68002B0BD1FD
:1034F000EFF3108272B659463B689B00CB5882F3BB
:1035000010881B6D012B35D02368002B17D0534634
:10351000DB68DD68AB6B013353D128000830FFF75F
:10352000E5F9434642461B68686B013B136023681C
:10353000013B236002F050F8280002F04DF8336898
:10354000002B9DD0EFF3108272B659463B689B006A
:10355000CB5882F310881B6D002B91D0FFF7D6FD5E
:103560002368002B8FD1364B1B68022B88D9FEF7BE
:10357000FDFE85E7EFF30583DBB2002BC4D1FFF737
:1035800027FEC1E72F4A1168002937D0BFF35F8FAC
:103590000121294A51700221284AD25C0A43274955
:1035A000CA54244A3B681268002A87D10121234A61
:1035B000D25C11421CD11F4A1268002A00D07DE75C
:1035C000F9E73368002BCED0EFF3108272B659467C
:1035D0003B689B00CB5882F310881B6D002BC2D038
:1035E000FFF794FD164B1B68022B00D848E7BEE797
:1035F000114B114A1B780133137069E70F49C95CFD
:10360000890703D411680029C0D1FBE70A4B0A4A95
:103610005B78013353703B684CE7C046740600206A
:1036200048090220E8090220080A02204409022071
:1036300040090220380100D034090220300902205C
:10364000900600203C0100D04A425141F8B5344C6C
:10365000036B2668256822685B1A926B012A06D9DB
:10366000656866686268926B012A14D9F8BD2D4AB4
:1036700011680029F4D1376BED6B7F1BBB42EFDB88
:103680004568ED07ECD56568666863689B6B012B40
:103690003CD9002010E0234A51680029E6D10121DD
:1036A00049428C46296BF56B491B99421BDD6346E9
:1036B000012BDBD800210020EFF30583DBB2002BC8
:1036C00017D0D0231B061B68834225D08D00635979
:1036D0009B6B0233CAD00800FEF76CFE02226359CE
:1036E00052429A63C2E743689B07E0D5012101205B
:1036F000E2E78D0063599B6B0233B7D0D0231B06E2
:103700001B688342E7D101235351AFE753689C46BE
:10371000002BBED13B00C5E7012389005350A5E72C
:1037200074060020280A02203A4B70B51B68002B53
:1037300000D170BDEFF3108472B6D023364A1B0659
:1037400018681368002B45D0344BBFF35F8F0121FD
:103750000225334A5170195C29431954D025314947
:103760002D060E682868002E3CD0BFF35F8F012124
:1037700001251170195C294319542B49002508684B
:1037800001300860D02000060068157001251A5C21
:10379000AA431A54BFF35F8F224B1D600B68012BA5
:1037A00002D084F31088C4E7EFF3108272B6D023FE
:1037B0001B061B681D499B005B5882F310881B6D1C
:1037C000002BEED1EFF30583DBB2002BE9D1FFF73D
:1037D000FFFCE6E7114B195C89070AD41168002940
:1037E000B3D1FBE71E5CF60708D40D68002DBCD1F1
:1037F000FBE70B4A517801315170AFE71678711C25
:103800001170094908680130086028681670002E98
:10381000C4D1BBE7E80902203C0100D030090220F6
:1038200034090220380100D0480902207406002023
:10383000014B18687047C0461C0A0220F0B5DE46EE
:1038400057464E464546D023E0B51B061A68C64B80
:1038500083B019680190002900D102E1C34B9A4658
:10386000BFF35F8FC24B9946012349464B705346C5
:1038700002219B5C0B4351468B54D0231B061A68D4
:10388000BC4B1968002900D1E2E0BFF35F8F012330
:1038900049460B70534601219B5C0B4351468B54A8
:1038A000B54B1B68002B36D00122019B9800B34B0F
:1038B000C250D0231B061A684B4649461B78013B71
:1038C000DBB20B70002B09D15346012150469B5CA3
:1038D0008B438354BFF35F8FA64B1960D0231B0625
:1038E0001A684B4649465B78013BDBB24B70002BB4
:1038F0000AD1534602219B5C8B4351468B54BFF344
:103900005F8F0122984B1A6003B0F0BCBB46B246F1
:10391000A946A046F0BD019A99499700974A99484F
:10392000D3510B689A009C46D3189B00C358002BB8
:103930000CD163460A68013B013A0A609A00914C37
:10394000D018800020580028F4D09C46012301990B
:103950008D4E8B4018008B4B62449B4698469200DC
:103960009344083242445B465B689C68944268D04A
:10397000030000972000984605E0009971588B429B
:1039800030D084423FD06468944229D0E3689D6B74
:10399000691CF2D1474659683942F2D0009F01991B
:1039A000F25920009563F2599963F3510092FEF7A2
:1039B0009DFF21005846FEF775FF009A002A0BD0A4
:1039C000704811008446126B896993009B189B0014
:1039D0006344019199424ED0D0231B061A686BE7CD
:1039E0006468D3E7454659682942CAD0019A200045
:1039F0009A63FEF77BFF21005846FEF753FFD02362
:103A00001B061A6858E701235B4240469846C444A7
:103A100063469B005B4963449B00CB581421494299
:103A20008846009FC3445218002B9CD16346013B3B
:103A30009A00544CD118890061580029F7D09C464F
:103A400089E79368009798460300404698469AE7AE
:103A50005146895CC9076AD41968002900D014E767
:103A6000FAE742498A46895C890759D419680029CE
:103A700000D0F5E6FAE700994B68C96B521A9346F5
:103A80004246134248D1032214001C401A42A3D0DC
:103A90001F2398462B0001275D469B4601E0002C22
:103AA0001ED02000FDF74CFF4346181A3B00834010
:103AB000810072589C437358126BDB6BD31A9D4282
:103AC000EDDD7258926B002AE9DB7258926B012A85
:103AD000E5DC2A4A5258002AE1D183461D00DEE780
:103AE0005D46012D00D977E7EFF30583DBB2002BAC
:103AF00023D0D0231B061A6895422ED0AC00335930
:103B00009B6B023300D1D7E62800FEF753FC02225C
:103B1000335952429A635FE7F25952689343B2E7CE
:103B2000134B99464A465B7801335370A5E64B46E2
:103B30004A461B7801331370B2E6AC0033599B6BD5
:103B4000023300D148E7D0231B061A689542DBD127
:103B500001220A490A511A68AEE60121074892007B
:103B600081501A68A8E6C0463C0100D03009022006
:103B700034090220380100D048090220280A022016
:103B8000500902209006002074060020F8B50C00B1
:103B9000EFF3108272B6D026360633682D4D9B00A7
:103BA000595982F310881C31FEF788FE2A4B1F6892
:103BB000EFF3108172B633689B005A5981F3108875
:103BC0007D230021D154EFF3108272B633689B003D
:103BD000585982F310880830FEF788FE631C2CD0F9
:103BE000E419EFF3108272B633689B005B5982F3DD
:103BF00010889C60A7420DD9184B1868EFF310820B
:103C000072B633689B00595982F310880831FEF769
:103C100055FEF8BD124B1868EFF3108272B6336888
:103C20009B00595982F310880831FEF747FE0D4B6F
:103C30001A689442EDD21C60EBE7EFF3108272B683
:103C400033689B00595982F3108807480831FEF702
:103C500029FEDEE7740600201C0A022088060020E8
:103C600080060020C0090220F409022070B50B0074
:103C70001400EFF3108172B6D026360632680C4D70
:103C80009200525981F31088802109061943D161AD
:103C9000EFF3108272B633689B00595982F3108893
:103CA0001C31FEF7FFFD01212000FFF7BFF970BDB9
:103CB00074060020F0B5C6460C0000B51600EFF300
:103CC000108272B6D0231B061B68344D9B00E95846
:103CD00082F310881C31FEF7E5FD002E01D001248F
:103CE00064422F4B1B689846EFF3108172B6D027C1
:103CF0003F063B689B00EA5881F310887D23002132
:103D0000D154EFF3108272B63B689B00E85882F3FF
:103D100010880830FEF7EAFD631C30D04444EFF30E
:103D2000108172B6D022120613689B00EB5881F303
:103D300010889C60A04514D81A4B1868EFF31086C1
:103D400072B613689B00E95886F310880831FEF7B5
:103D5000B5FD154B1A68944200D21C6080BCB84671
:103D6000F0BD124B1868EFF3108472B613689B0015
:103D7000E95884F310880831FEF7A0FDEEE7002E25
:103D8000CCD0EFF3108272B63B689B00E95882F307
:103D9000108807480831FEF785FDDFE7740600202C
:103DA0001C0A022080060020C0090220880600208C
:103DB000F4090220F8B5C368DD682C001C3420002B
:103DC000FEF794FD454B1B68002B28D1143C2000C6
:103DD000FEF78CFD424A2B6B11688B4224D8980069
:103DE000C018404B80002100C018FEF75BFD3E4C20
:103DF0002B6B2768216822683C4E926B013B012A9D
:103E000014D9616867686268926B012A21D9D0234E
:103E10001B061B689B00F058431E9841F8BD21000B
:103E20003348FEF73FFDE2E71360D8E7306800282B
:103E3000E7D13A6BC96B521A9342E2DB6968C90752
:103E4000DFD56168676863689B6B012B3BD90022F3
:103E50000FE07268002ADAD10122524294460A6BBE
:103E6000F96B521A9A421ADD634600200022012B98
:103E7000CDD8EFF30583DBB2002B16D0D021090695
:103E80000B68934225D085006259926B0232C1D0F3
:103E9000FEF790FA0222635952429A63B7E76B68C1
:103EA0009B07E1D501200122E3E7850063599B6B65
:103EB0000233ACD0D0231B0619689142E8D101220D
:103EC00072511B68A6E773689C46002BBFD1130094
:103ED000C5E70123800033500B689BE748090220A7
:103EE000500902209006002074060020280A0220B3
:103EF000D4090220034B1B680360034B1B6843601B
:103F00007047C046C40902201C0A0220F0B5D646FC
:103F10004F46464604008A46C0B5EFF3108372B69A
:103F2000694F3B68002B47D1684D69490B6898463B
:103F300063689946EFF3108C72B6D02212061368AC
:103F40009B00E8588CF310887D23C05C002822D0A9
:103F5000EFF3108172B612689200AA5881F31088AC
:103F600000210124D1543B68002B0ED0EFF31082C6
:103F700072B6D0231B061B689B00EB5882F3108897
:103F80001B6D002B01D0FFF7C1F82000E0BCBA4642
:103F9000B146A846F0BD53461B685A1C64D04D4A32
:103FA0002668106886424FD0606840454CD8002390
:103FB000524601241360D6E7EFF3108072B6D02288
:103FC00012061368414D9900695880F31088096DF5
:103FD000002912D1EFF30581C9B2002946D03E492C
:103FE0003E483F4A1668002E54D0BFF35F8F01222F
:103FF00002700120CA5C0243CA54EFF3108072B60B
:10400000D02109060B689B00EA5880F31088136DD5
:1040100001331365334B1B68002B00D085E7EFF3AA
:10402000108272B60B689B00EB5882F310881B6DF0
:10403000012B00D079E7EFF30583DBB2002B00D032
:1040400073E7FFF7C5F870E740464E46801B834292
:10405000ADD940461B1A50464B4403601368236099
:104060000B68636000247EE700247CE71E4801683B
:1040700000291AD01849BFF35F8F0226B4460122E7
:10408000664616484270CA5C3243CA54D0231B06A7
:104090001B68A6E7CE5CF60703D41668002EA4D1F1
:1040A000FBE7037801330370A7E70B49CE5CB60743
:1040B00003D40268002ADED1FBE7084843780133C5
:1040C000437013688DE7C046E8090220740600209B
:1040D0001C0A0220C40902203009022034090220EF
:1040E000380100D0480902203C0100D0D023012132
:1040F0001B061B68014A9B0099507047280A022042
:10410000EFF3108272B6D0231B061B6802499B0096
:10411000585882F3108870477406002070B54B4DD4
:1041200001242B68002B01D1200070BDEFF3108318
:1041300072B62B68002B44D0EFF3108472B6D021F6
:1041400009060B68424A9800105884F31088006DE5
:10415000002812D1EFF30580C0B200284AD03D48B4
:104160003D4C3E490E68002E56D0BFF35F8F0121B3
:1041700021700124C15C2143C154EFF3108472B655
:10418000D020000603689B00D15884F310880B6D83
:10419000334C01330B652368002B13D1EFF31081EF
:1041A00072B603689B00D35881F310881B6D012BF6
:1041B00008D1EFF30583DBB2002B03D1FFF708F83A
:1041C00000E0274C246863425C412B686400002BAC
:1041D000AAD0EFF3108272B6D0231B061B681C49CD
:1041E0009B005B5882F310881B6D002B9CD0FEF760
:1041F0008DFF99E71B4C2068002818D01548BFF3A5
:104200005F8F01210226144C6170C15C3143C1549F
:10421000D0231B061B68A4E7C65CF60703D40E6810
:10422000002EA2D1FBE7237801332370A5E70948CC
:10423000C65CB60703D421680029E0D1FBE7064C31
:104240006378013363700B688BE7C046E80902208E
:10425000740600203009022034090220380100D001
:10426000480902203C0100D070B5041E08D0036E3E
:10427000026BC16D013B03668A4201D0002B01D065
:10428000002070BD050008352800FEF72FFB202216
:10429000E36DD21AE261084A236311688B4200D9A8
:1042A00013609800C018054B8000C0182900FEF765
:1042B000F9FA0120E5E7C0465009022090060020E7
:1042C00010B5EFF3108172B6D0231B061B68074AA6
:1042D0009B009A5881F31088126D002A03D00121A7
:1042E000034A995010BDFEF741F8FBE77406002021
:1042F000280A022070B5EFF3108372B63A4B1B68A0
:10430000002B3CD0EFF3108C72B6D02109060B685D
:10431000364A980010588CF31088006D002812D18E
:10432000EFF30580C0B2002832D03148314C324919
:104330000D68002D3ED0BFF35F8F01212170012455
:10434000C15C2143C154EFF3108C72B6D02000063B
:1043500003689B00D1588CF310880B6D01330B65FB
:10436000264B1B68002B0AD1EFF3108172B603684D
:104370009B00D35881F310881B6D012B00D070BDBA
:10438000EFF30583DBB2002BF9D1FEF721FFF6E74F
:104390001B4C2068002818D01548BFF35F8F0121FF
:1043A0000225144C6170C15C2943C154D0231B0603
:1043B0001B68BCE7C55CED0703D40D68002DBAD1BE
:1043C000FBE7237801332370BDE70948C55CAD07DF
:1043D00003D421680029E0D1FBE7064C6378013360
:1043E00063700B68A3E7C046E8090220740600204A
:1043F0003009022034090220380100D04809022087
:104400003C0100D0F0B54E464546DE465746E0B585
:104410009600804683B030000D00994601F026F8E2
:10442000071E00D1ECE0802001F020F8041E00D12E
:10443000F1E047633200A5213800FDF7A1FD636B71
:104440000193002D00D109E140232A78E2542B7812
:10445000002B56D041236A78E2546B78002B50D061
:104460004223AA78E254AB78002B4AD04323EA785F
:10447000E254EB78002B44D044232A79E2542B7980
:10448000002B3ED045236A79E2546B79002B38D05B
:104490004623AA79E254AB79002B32D04723EA793C
:1044A000E254EB79002B2CD048232A7AE2542B7A61
:1044B000002B26D049236A7AE2546B7A002B20D055
:1044C0004A23AA7AE254AB7A002B1AD04B23EA7A19
:1044D000E254EB7A002B14D04C232A7BE2542B7B42
:1044E000002B0ED04D236A7BE2546B7B002B08D04F
:1044F0004E23AA7BE254AB7B002B02D04F23EA7BF6
:10450000E2544F230022E2540C9F1F2F00D980E079
:1045100008239A460025A24450462763E76525668E
:10452000FEF7BCF920001C30FEF7B8F9202320006C
:10453000DB1BE361142200216461A4622565643001
:10454000FDF71EFD2000042200217830FDF718FD44
:1045500023007C331D707D23E5547E3B9B466360C6
:10456000019B301F9C460723604498434A464146BE
:10457000FDF7ECFE5B46A3634B4B2060984550D0A3
:104580004A4B98454DD0E5630E9B002B00D01C6034
:104590000D9B6360FFF7AEFE454A464F136801333B
:1045A00013603B689946002B3ED0434E434A136844
:1045B00001331360424A63651168236B8B4200D953
:1045C00013609800C018800051463018FEF76AF951
:1045D0003B68002B3DD13B68002B0FD0EFF31082DE
:1045E00072B6D0231B061B6836499B005B5882F3CA
:1045F00010881B6D002B01D0FEF788FD012001E023
:104600000120404203B0F0BCBB46B246A946A046DA
:10461000F0BD1F277CE7380000F0DEFF012040429C
:10462000F0E70123E363AFE71368234E012B18D0B3
:10463000E36B002BBAD0234A1368002B04D05368D5
:10464000002BB3D1013399464B46A3639B00D45052
:10465000ACE700212000FEF7F7FFBCE74023E5545C
:1046600052E7A0239B0098463500B044280014353B
:10467000FEF708F94545F9D1134B98461800FEF7A7
:1046800001F9124D2800FEF7FDF81148FEF7FAF87F
:104690001048FEF7F7F81048FEF7F4F842460F4BC3
:1046A0001A600F4B1D60C3E759340010153000101D
:1046B00040090220E8090220900600204C0902204F
:1046C000500902207406002080090220940902206B
:1046D000D4090220080A0220F409022080060020E2
:1046E00088060020F0B5D6464F464646C0B588B08D
:1046F00000F0CEFD234B01249946234B234F9A46CD
:1047000004AD234B0026049323002F332B716E71CD
:10471000012C19D03B1D0293012380225B42984655
:10472000019329000023484600965200FFF76AFED5
:10473000022C15D1012817D0164B1B6808B0E0BC1D
:10474000BA46B146A846F0BD012380225B420193E0
:10475000290000235046029700965200FFF752FEB0
:1047600001340028CDD1E7E7EFF3108372B642465B
:10477000094B1A60094B1860094B1E60FDF796FE45
:10478000DAE7C0461530001059340010B009022095
:1047900049444C4554020020C0090220E809022087
:1047A0001C0A0220F0B5DE46454657464E46E0B5A7
:1047B00083B0082200216846FDF7E2FBFFF79AFD6F
:1047C0007C4B1D68002D5DD17B4B1F6801371F603E
:1047D000002F00D177E0794B9B465B461B68BB42BC
:1047E00000D889E0764B9946764F3B681A6B930068
:1047F0009B184A469B00D25879680123086B934264
:1048000092418100091848468900415852428B4222
:104810009B416D495B4288460968002900D001220E
:10482000009242465268002A00D001230193D0230F
:104830001B0699461B686C469A4600262368002B87
:104840001BD0554500D1A7E0EFF30583DBB2002B69
:1048500000D189E04B461B689D4200D1A5E0AB002A
:104860009B46FB589B6B023307D02800FDF7A2FD47
:104870005B460222FB5852429A630434012D06D053
:104880000125DBE70026514A136801331360504BC2
:104890001B68002B0FD0EFF3108272B6D0231B06DB
:1048A0001B6848499B005B5882F310881B6D002BE6
:1048B00001D0FEF72BFC300003B0F0BCBB46B24683
:1048C000A946A046F0BD434B434A196810681860DA
:1048D000116042490A6801320A601A681268002AA7
:1048E00053D1364B9B4601235A465B4213605B46CD
:1048F0001B68BB4200D975E7364B98461B681B689E
:10490000002B4BD02E4B9946354B9A4622E0260081
:1049100008363000FDF7EAFFE36A002B03D02000E1
:104920001C30FDF7E3FF5346206B1B68984201D90A
:104930005346186083001818800031004844FDF782
:10494000B1FF01212000FEF77FFE43461B681B6874
:10495000002B25D043461B68DB68DC68A3689F42B8
:10496000D5D25A4613603FE7AB009B46FB589B6B82
:10497000023300D181E74B461B689D4200D074E7AB
:1049800043465A460121995077E71B680B4ADB687A
:1049900093461B68136020E701266EE7084B994693
:1049A00001235A465B4213601EE742460121AB00D9
:1049B000D15062E7480902201C0A0220C0090220E7
:1049C0009006002074060020280A0220D009022048
:1049D000E80902208006002088060020C409022081
:1049E00050090220F8B5CE46474680B5FFF782FC55
:1049F000D02109060B683E4A99461368013B1360B3
:104A000008683C494B78013BDBB24B70002B09D165
:104A1000022439490B5CA3430B54BFF35F8F012180
:104A2000364B196013680024002B42D1344B1B68AD
:104A3000002B3ED0334D2B68002B24D0324B334E0D
:104A40009846EB68DF6838003C001C300834FDF7FE
:104A50004DFF2000FDF74AFF386B3368984200D9BC
:104A6000306083001818800021004044FDF71AFFD1
:104A70002B68002BE5D1264B1A681268002A31D129
:104A8000244B013A1A60244B244D98461C684B462F
:104A90009F00002C0AD00126FFF784FE002800D0DA
:104AA000EE51013C002CF7D143461C60EC59631ECB
:104AB0009C411B4B1B68002B0FD0EFF3108272B68A
:104AC000D0231B061B6817499B005B5882F3108894
:104AD0001B6D002B01D0FEF719FB2000C0BCB946AE
:104AE000B046F8BD1B68DB681A680A4B1A60CAE753
:104AF0004809022034090220300902203C0100D07C
:104B000040090220D409022090060020500902200A
:104B100080060020C0090220D0090220280A0220B5
:104B2000E809022074060020044B10B5186800281C
:104B300000D110BDFFF756FFFBE7C046E809022091
:104B400070B5041E0AD0174D2B68002B1DD1002113
:104B50002000FEF76BFA2B68002B11D1EFF31081C8
:104B600072B6D0231B061B680F4A9B009A5881F32C
:104B70001088126D002A12D001210C4A995070BD84
:104B8000FFF730FF0028E9D0F9E7FEF7E7FB002147
:104B90002000FEF74BFA2B68002BDFD0F0E7FDF783
:104BA000E5FBECE7E809022074060020280A022051
:104BB00070B58023C4681B0625000B4303600835CD
:104BC000FDF794FE2800FDF791FE144A236B11684F
:104BD0008B4200D913609800C018114B8000C01898
:104BE0002900FDF75FFEFFF785FB00212000FEF79F
:104BF0002BFD0C4B1B68002B0FD0EFF3108272B60D
:104C0000D0231B061B6808499B005B5882F3108861
:104C10001B6D002B01D0FEF779FA70BD5009022000
:104C200090060020E809022074060020F0B54E46E8
:104C30004546DE465746E0B59600804683B03000D4
:104C40000D00994600F012FC071E00D1EDE0802017
:104C500000F00CFC041E00D1F2E047633200A521F5
:104C60003800FDF78DF9636B0193002D00D10AE147
:104C700040232A78E2542B78002B56D041236A78BF
:104C8000E2546B78002B50D04223AA78E254AB78E0
:104C9000002B4AD04323EA78E254EB78002B44D02F
:104CA00044232A79E2542B79002B3ED045236A799C
:104CB000E2546B79002B38D04623AA79E254AB79C1
:104CC000002B32D04723EA79E254EB79002B2CD029
:104CD00048232A7AE2542B7A002B26D049236A7A79
:104CE000E2546B7A002B20D04A23AA7AE254AB7AA2
:104CF000002B1AD04B23EA7AE254EB7A002B14D023
:104D00004C232A7BE2542B7B002B0ED04D236A7B55
:104D1000E2546B7B002B08D04E23AA7BE254AB7B82
:104D2000002B02D04F23EA7BE2544F230022E254AF
:104D30000C9F1F2F00D981E008239A460025A2442A
:104D400050462763E7652566FDF7A8FD20001C3067
:104D5000FDF7A4FD20232000DB1BE36114220021CA
:104D60006461A46225656430FDF70AF9200004221D
:104D700000217830FDF704F923007C331D707D237A
:104D8000E5547E3B9B466360019B301F9C46072396
:104D9000604498434A464146FDF7D8FA5B46A36310
:104DA0004C4B2060984551D04B4B98454ED0E56315
:104DB0000D9B002B00D01C6001235B426360FFF75A
:104DC00099FA464A464F1368013313603B68994687
:104DD000002B3ED0434E444A136801331360434ACC
:104DE00063651168236B8B4200D913609800C0186B
:104DF000800051463018FDF755FD3B68002B3DD132
:104E00003B68002B0FD0EFF3108272B6D0231B0645
:104E10001B6837499B005B5882F310881B6D002B81
:104E200001D0FEF773F9012001E00120404203B0F8
:104E3000F0BCBB46B246A946A046F0BD1F277BE7A3
:104E4000380000F0C9FB01204042F0E70123E36392
:104E5000AEE71368234E012B18D0E36B002BBAD0BA
:104E6000234A1368002B04D05368002BB3D10133BD
:104E700099464B46A3639B00D450ACE70021200029
:104E8000FEF7E2FBBCE74023E55451E7A0239B007B
:104E900098463500B04428001435FDF7F3FC45452D
:104EA000F9D1144B98461800FDF7ECFC124D280080
:104EB000FDF7E8FC1148FDF7E5FC1148FDF7E2FCC1
:104EC0001048FDF7DFFC42460F4B1A600F4B1D6088
:104ED000C3E7C046593400101530001040090220C5
:104EE000E8090220900600204C0902205009022007
:104EF000740600208009022094090220D4090220AF
:104F0000080A0220F40902208006002088060020FA
:104F10000A4B10B51B68002B0FD0EFF3108272B64E
:104F2000D0231B061B6806499B005B5882F3108840
:104F30001B6D002B01D0FEF7E9F810BDE809022037
:104F40007406002010B5EFF3108072B6D021090668
:104F50000B680D4A9B009B5880F31088D869EFF3CB
:104F6000108472B60B689B009B5884F310881C6BEE
:104F7000EFF3108372B6096889008A5883F31088AA
:104F800020231B1BD36110BD740600202823F0B51D
:104F90004F464646D6469946204BC0B59846204DCA
:104FA00084B004260EE0DB68DC681A68271D380030
:104FB0009246FDF79BFC236A200098474B46E35C32
:104FC0001E420DD12B681A68002AECD1154A1168CF
:104FD0001360296004B0E0BCBA46B146A846F0BDF3
:104FE000A36953449A4512D343461B68002BD8D07B
:104FF00000230093534602940193FFF78FF8404635
:105000000023002269460068FDF7A2FDC9E73900C8
:10501000286863602461FDF751FCC2E7200A022082
:105020007C0600208C060020944BF0B54E46994635
:10503000934BDE469B462823454657469846E0B5A7
:10504000904C914E8DB04B461B681F68002F00D1CD
:10505000A3E0DB681F68FEF767FBFEF7E9FB336838
:105060000500834200D9B2E03060874200D8C2E038
:1050700000222068791BFDF7A9FFFFF755FD0028E6
:1050800000D1A1E002239A462068002204A9FDF77E
:10509000DFFE0028D7D0049B0193002B6EDB069D1A
:1050A0006B69002B02D0281DFDF720FCFEF7C0FB2A
:1050B00033680700984200D28FE0049B3760092BC9
:1050C00041D8724A9B00D3589F4643460122EB5C6D
:1050D00013434246AB54A969059B2D615A186A6077
:1050E000BA427DD8FB1A994241D828002B6A9847CA
:1050F00043460422EB5C20681A42C6D00028C4D084
:105100000022059B0193AB690892019A0A95944687
:1051100063440993FFF702F800230022206808A9DE
:10512000FDF716FD2068B0E743460122EB5C134310
:105130004246AB54059B2D61DA19AB616A60BA42F5
:1051400052D8002B13D120689FE74346EB5C012225
:10515000934342462068AB5497E743465246EB5C84
:105160001A42F4D1280000F037FA20688DE75B4638
:10517000291D1868FDF7A2FB206886E7079B0193AD
:10518000069B01990293059B029803939847049B01
:105190000193002B83DA206877E7FEF7C5FAFEF764
:1051A00047FB33680500834211D85B461B682068C3
:1051B0001A68791B53425A413560FDF707FFFFF724
:1051C000B3FC002800D05DE7FFF77AF85AE7FFF755
:1051D000DDFE3560FFF7A8FC54E7FFF7D7FE6CE76C
:1051E000BB4201D9934280D94B46291D1868FDF76F
:1051F00065FB206849E7FFF797FC4B461B68DB68B7
:10520000DB689A46043318000193FDF76FFB4246B2
:1052100053469B5C04221A4209D101224146934322
:1052200052465354534650461B6A98472AE7534602
:1052300051469A690961BB184B60AB4205D94B4690
:1052400001991868FDF73AFBECE7ED1BAA420FD86D
:105250002368002BE6D000230A9108930997FEF7F4
:105260005DFF00230022206808A9FDF771FCD9E743
:105270005B4601991868FDF721FBD3E77C06002007
:105280008C060020200A0220B8090220EC570010EA
:1052900070B582B0FFF72EF8174C2368002B12D0A0
:1052A000FFF736FE23680020002B0AD0134B802224
:1052B00001931F231249009312480023D200FFF7E5
:1052C000B5FC02B070BD104E3000FDF7DBFA0F4D9B
:1052D0002800FDF7D7FA0E4B00221E600D4B10215F
:1052E0000A201D60FDF7FEFB20600028D8D00A4987
:1052F000FDF73CFED4E7C046200A0220240A022023
:105300001C5800102950001054090220680902207E
:105310007C0600208C0600201458001010B51400E4
:105320001A00022384B05B420093054B0190029166
:105330001868694600230394FDF7F0FC04B010BD23
:10534000200A0220F8B50D00EFF3108772B60C4B5F
:1053500010309B6884001E59B14205D0094B9E4213
:105360000BD3094B9E4208D2054B9B681D51BFF3DE
:105370005F8F87F310883000F8BDFCF7B3FAF3E7CE
:1053800000ED00E0C0010010CC01001003BDC046DC
:1053900010B50400FBF7E6F9A04710BDF0B5040016
:1053A00087B00F200E001700FBF758F8002105000A
:1053B0000F20FBF741F80023002200920193012304
:1053C0000293D02304960594002600240121022094
:1053D00003971B06002C14D01A6D1042FCD05C659C
:1053E00040BF1A6D114203D120BF1A6D1142FBD08C
:1053F0009A6DA2420AD000266C46B200A458E9E792
:105400009A6D1A6D1142FBD140BFE5E70136052EBA
:10541000F2D929000F20FBF70FF807B0F0BDC04606
:105420000B4B0C4A10B5934201D201235B42190089
:10543000094A985004329B50084A094B0948CA50FF
:10544000094B9A68044B9C466144FFF7A7FF10BDC7
:105450000008042000000420F4070000915300100D
:10546000FC0700008D53001000ED00E0F0B5D646BB
:105470004F464646C0B50400FEF756F94F4A176836
:10548000002F48D04E4B1D6825423BD1631E0A3386
:1054900038D820000723083003422DD1494B9946C4
:1054A0001B68984683422DD3474B9C461B68644635
:1054B00004E01A68002A04D01C00130059688142D5
:1054C000F7D3BB421ED01E001A68083622600A1AA3
:1054D000102A48D842464846521A02603B4804689F
:1054E000A24200D2026000221A60394A2943596060
:1054F00013680133136006E002009A431300083377
:10550000834227D80026FFF70FFB3000E0BCBA46E5
:10551000B146A846F0BD07202E4908421CD1802381
:105520009B02CF1808000B000021274D083F69603F
:1055300028600725AF4380251760244AFB1A1360B3
:10554000204A79603960136043601D4B2D06076067
:105550001D6099E71800A1E7CB1D834380208002DE
:105560000F181800E0E719184A608A46624658602A
:10557000110012689245FBD848680C18A2450DD05E
:105580005046406854462418A2420DD0504602604E
:10559000514501D052460A6059689BE754466468F9
:1055A0008A4600194860EDE7BA42EFD054681268A5
:1055B000A4465446604460602260E9E78406002007
:1055C0007C090220AC090220EC090220BC0902205F
:1055D000C80902203009002070B5002809D01D4AF2
:1055E00008384368126804001A4202D00168002992
:1055F00000D070BD934343600500FEF795F8164A4E
:10560000616813685B181360144B1A001B689C4296
:10561000FBD850681618B44218D0681883420AD0D4
:105620002B60AA4200D015600D4A13680133136045
:10563000FFF77AFADDE70B4800688342F0D058683C
:105640001B688446614469602B60EAE7091815000D
:105650005160E2E77C090220AC090220EC0902203B
:10566000CC0902208406002010B583070AD003006D
:10567000032102E001330B4205D01A78002AF9D148
:10568000181A10BD030019680C4A0D4C8A188A4379
:1056900022420FD15968094A04338A188A432242A8
:1056A00008D15968054A04338A188A432242F1D046
:1056B00000E001331A78002AFBD1E1E7FFFEFEFE8D
:1056C00080808080F8B5C04601B40248844601BCA1
:1056D000604700BF5D01002001B40248844601BC60
:1056E000604700BF7D01002001B40248844601BC30
:1056F000604700BF7D01002001B40248844601BC20
:08570000604700BFC10000205A
:10570800426C696E6B205461736B00005370696E54
:105718006C6F636B20256420697320616C7265610E
:10572800647920636C61696D656400004861726426
:105738007761726520616C61726D20256420616CEF
:10574800726561647920636C61696D65640000004D
:105758000A2A2A2A2050414E4943202A2A2A0A0086
:105768000A0000006E6F7420737570706F72746534
:10577800640000004861726420617373657274008C
:1057880052656C6561736500626F6F74325F773262
:105798003571303830000000312E352E30000000D1
:1057A8007069636F00000000626C696E6B00000036
:1057B8004D617920313420323032330006005250A6
:1057C800BBFF3CB6A857001006005250E182887F04
:1057D8009057001006005250D3F0754288570010B9
:1057E8000D0A0000CA500010CA500010CA5000101C
:1057F8004A510010285100105A510010CA50001088
:10580800CA5000104A51001028510010546D7251AE
:0C58180000000000546D72205376630005
:10582400AC020010A002001094020010C457001033
:0C58340088020010D0570010DC57001054
:10584000F0B5C646150000B504001E000268EFF36F
:10585000108872B61368002BFCD0BFF35F8F6768A7
:105860007B1C0ED02368BFF35F8F00221A6088F381
:10587000108800F04DF8B8420FD1002080BCB84627
:10588000F0BD00F045F823686060BFF35F8F002231
:105890001A6088F310880120F0E700F039F807005B
:1058A00006E02A003300200000F02AF80028E4D1A6
:1058B0002268EFF3108172B61368002BFCD0BFF39F
:1058C0005F8F63680133ECD123686760BFF35F8F3C
:1058D00000221A6081F310880120CFE710B502681A
:1058E000EFF3108172B61368002BFCD0BFF35F8F0B
:1058F00001235B42436000F013F810BD7047C046BF
:1059000001B40248844601BC604700BF89250010ED
:1059100001B40248844601BC604700BFD524001092
:1059200001B40248844601BC604700BF0525001051
:105930001000000000000000000001000000000056
:105940000000000000000200000000000000000055
:105950000000030000000000000000000000FF0045
:105960000000000001B5486801318E4600477046CE
:1059700009380149884701BDB10600101402002012
:105980000000000080020020180600200000000037
:1059900000000000280600200000000000000000B9
:1059A00010000000000000000000000000000000E7
:1059B000503300004C3300005433000052330000D9
:1059C0004D5300004D4300005334000043340000A9
:1059D000FF0000001F0000000000000000000000A9
:1059E0000000000000000000711F001031190010BD
:1059F000211E0010E11E0010E502001075260010A7
:04000005100001E9FD
:00000001FF
