:020000041000EA
:1000000000B5324B212058609868022188439860DF
:10001000D860186158612E4B002199600221596106
:100020000121F02299502B49196001219960352056
:1000300000F044F80222904214D00621196600F024
:1000400034F8196E01211966002018661A6600F04E
:100050002CF8196E196E196E052000F02FF8012189
:100060000842F9D1002199601B49196000215960AB
:100070001A491B48016001219960EB211966A021F2
:10008000196600F012F800219960164914480160C1
:100090000121996001BC002800D000471248134993
:1000A000086003C880F30888084703B5996A0420EC
:1000B0000142FBD001200142F8D103BD02B5186610
:1000C0001866FFF7F2FF186E186E02BD00000240BE
:1000D000000000180000070000035F00212200005C
:1000E000F4000018222000A00001001008ED00E03C
:1000F00000000000000000000000000074B24E7A12
:1001000000200420F7010010C3010010C5010010F9
:10011000C1010010C1010010C1010010C101001097
:10012000C1010010C1010010C1010010C701001081
:10013000C1010010C1010010C9010010CB01001065
:10014000CD010010CD010010CD010010CD01001037
:10015000CD010010CD010010CD010010CD01001027
:10016000CD010010CD010010CD010010CD01001017
:10017000CD010010CD010010CD010010CD01001007
:10018000CD010010CD010010CD010010CD010010F7
:10019000CD010010CD010010CD010010CD010010E7
:1001A000CD010010CD010010CD010010CD010010D7
:1001B000CD010010CD010010CD010010CD010010C7
:1001C00000BE00BE00BE00BE00BE00BEEFF3058054
:1001D000103800BEF2EB8871DC3C0010003D0010CE
:1001E0003402001090A31AE700201F49086006C8D7
:1001F00081F3088810471D48006800282FD10DA4FE
:100200000ECC002902D000F012F8F9E71849194A7B
:10021000002000E001C19142FCD1174988471749ED
:1002200088471749884700BEFDE701C901C29A42C5
:10023000FBD37047003D0010C00000209402002056
:10024000D43E00100000042000000420D43E001022
:10025000001004200010042000000000704709482E
:1002600001F042FC0047000008ED00E0000000D073
:100270009802002090090220611900100503001067
:10028000551A00105756000006005250ABB3605389
:10029000503C001006005250861C0302603C0010C7
:1002A000060052505422A29D683C00100500525096
:1002B000DE65F468D43E0010F8B5C04610B5064CB3
:1002C0002378002B07D1054B002B02D0044800E017
:1002D00000BF0123237010BD98050020000000001E
:1002E000E03B0010044B10B5002B03D00349044839
:1002F00000E000BF10BDC046000000009C050020CB
:10030000E03B0010F8B5D024802502F08FF81920CA
:1003100000F032F82406AD04094F0A4E6562380039
:10032000656102F04DF8FA20800000F049FD3000D0
:10033000A56102F045F8FA20800000F041FDEEE7EB
:10034000E03B0010E83B0010094A8300944640223D
:10035000634410B51C68C0006240C0241440802271
:10036000520113431C60034B9C466044416010BD26
:1003700004C00140004001400123D0228340120606
:1003800093629361094A830094464022634419684A
:10039000C0004A40C021114080225201134319601D
:1003A000034B9C46052360444360704704C00140F2
:1003B00000400140024B18688007C00F7047C046DC
:1003C00000C0064070B5EFF3108C72B60D4D2B686F
:1003D000002BFCD0BFF35F8F0724CB08C618C05C8E
:1003E00001230C40A3401C000440034207D10343F7
:1003F0003370BFF35F8F2C608CF3108870BD1000DA
:1004000001F02CFB2C0100D00021044B044ABFF367
:100410005F8F02C39342FAD17047C046000100D0FB
:10042000800100D0044A1078431CDBB2172B00D99E
:10043000102313707047C046B00100200123834091
:10044000002904D0034A1360034A13607047034A2B
:100450001360FBE780E200E000E100E080E100E003
:10046000024B10309B688000C058704700ED00E0E0
:1004700070B50D00EFF3108672B60F4A1368002BAB
:10048000FCD0BFF35F8F0D4B10309B6884001B596D
:100490000B4A934203D09D4201D001F0F7FA074B7B
:1004A0009B681D51BFF35F8FBFF35F8F0022024B2C
:1004B0001A6086F3108870BD240100D000ED00E0C2
:1004C000CD010010F0B5DE4657464E464546E0B534
:1004D0000C0083B0EFF3108972B6584A1368002BF2
:1004E000FCD0BFF35F8F564B9A68030010339F0018
:1004F000D559544A9046954232D0A54243D0524EE7
:10050000AA1B2F2A2CD801228240924651464F4ADC
:1005100012681140019151464D4A1160BFF35F8F3F
:10052000EFF305829346002A33D101232A009A4330
:1005300093689C4208D177E04B005B189B00F3184E
:100540009968A1422AD01A00062151560029F3DAEF
:10055000019B002B19D052463E4B1A603B4B1A6050
:10056000374B9B68DD51BFF35F8FBFF35F8F002276
:10057000324B1A6089F3108803B0F0BCBB46B24618
:10058000A946A046F0BD1500EAE75246304B1A6076
:10059000E6E79342C9D001F079FAC6E70621595639
:1005A000002921DB4A005018800034188046A068DA
:1005B0009860E079D871062020569871002824DBD5
:1005C000A488F01A6405241544440019E0240005A9
:1005D000400D24022043988052181F4B9200B618F9
:1005E0001A781970B271B3E7594600290FD1FF315B
:1005F00091711A49918018490A789A71184A9B1B7F
:100600005B415A43120D0A70A2E71648E3E7164A07
:100610001649D21A083A5002400D014399801449F4
:1006200052080A43DA8093E7062151561300002945
:10063000B8DA5A46002AEAD14546DCE7240100D060
:1006400000ED00E0CD010010B401002000E100E069
:1006500080E100E080E200E08D09022001BDFFFFA3
:10066000AAAA000001BD0000EE01002000F0FFFF7B
:1006700000F8FFFF70B5EFF3058101240443EFF3A9
:10068000108C72B6214A1368002BFCD0BFF35F8F29
:100690001F4B05001F4AED1A6D416A43120D1E4D96
:1006A0008900AE6852B27658A6421CD0062159562F
:1006B00091421CD012215956914222D01E215956E6
:1006C000914220D02A2159560324914210D0134B35
:1006D00019781A708171BFF35F8F00220B4B1A607B
:1006E0008CF3108870BDAB680D4C5C50EFE70024B4
:1006F0006100091989005B18FF21997109499980E6
:10070000E5E70124F4E70224F2E7C046240100D023
:10071000B4010020AAAA000000ED00E08D0902202B
:10072000CD01001001BDFFFF054B064A1360064ACC
:10073000136053609360D36013615361936170479A
:100740008080808000E400E004E400E0024B9C46EE
:1007500061448900016070474000003410B5040016
:10076000FFF760FE01002000FFF7F0FF01235B426E
:100770006360BFF35F8F10BD10B50400FFF752FE3A
:1007800001002000FFF7E2FF01235B4263600023CA
:100790002372BFF35F8F10BD83680B4810B584468A
:1007A00061446244090112019A18591854684B684F
:1007B00001209C4201D802D00020C0B210BD1268B6
:1007C0000B689A42F9D8F7E7FFFFFF0F074810B50B
:1007D0000268EFF3108172B61368002BFCD0BFF3F0
:1007E0005F8F01F087FF0020002110BDF00800207E
:1007F000F8B557464E464546DE46E0B599460CAB41
:100800001C780DAB1B78060090469A460768002CB2
:1008100011D1BC7B002C42D065003B682D19033DF3
:1008200059194B78BB73002B00D1FB7300238B70DD
:100830004B700B7004E065003B682D19033D59199E
:10084000B2682A4B94464246E3181B0163441A607F
:100850004A465A600A9A9A600B9ADA6000238B70B3
:100860004B700B707B7B9B46002B2BD02200594694
:10087000B8687B6898473A68002816D05B465846A7
:100880005B005B445519033BA870D118D35C002B67
:1008900000D06B705B460C707B73A34513D0F0BC2B
:1008A000BB46B246A946A046F8BD5B465B005B442A
:1008B000033BD3189C705119525D002A00D05A7026
:1008C0005B460B707C7342464B46307D00F098FBD4
:1008D000051E06D05346002B03D12100306800F0DE
:1008E000B9FD0E9B002BDAD01D70D8E7FFFFFF0F7C
:1008F000F0B5DE4657464E4645460023E0B58BB080
:100900000893664B8200D45800239B46099000F060
:1009100017FB626806000F00EFF3108572B61368CC
:10092000002BFCD0BFF35F8F23689C465B7B99460E
:10093000002B68D0A2685A4B90464B441B01984448
:1009400043461A685B6810001900801BB9410029F2
:1009500063DD099800F054FB002300229846002331
:100960000692079300239A466368BFF35F8F5A4647
:100970001A6085F310885346002B08D10028C6D191
:100980000BB0F0BCBB46B246A946A046F0BD089BE2
:10099000414618024B461843D047626806000F00D4
:1009A000EFF3108572B61368002BFCD0BFF35F8F96
:1009B000002F4FDB33003B4302D02369002B60D173
:1009C0002368D97B002907D04A00521819688C4641
:1009D00049466244033A51709A7B002A01D14A4643
:1009E0009A734A46DA734B46E168013BCA5C0132AE
:1009F000CA545B4623616368BFF35F8F5A461A602F
:100A000085F3108883E7002300229846002306928E
:100A10000793002300209A46A6E7002901D1002869
:100A200097D10021604600F093FC43461A685B684A
:100A30000692079343469B689A464346DB6898466E
:100A4000E3684B44013B1B7808931B02034323617B
:100A5000002089E72369002BB2D0069A079B921BDE
:100A6000BB41002B15DB59460491012103914946F6
:100A7000029141460191514620000091FFF7B8FED6
:100A8000B7E700F05DFA32003B0012184B41002B33
:100A9000E9DA0122034B5242E5E7C0464006002056
:100AA000FFFFFF0FFFFFFF7F10B5144C6368002BA3
:100AB00004D00A211248FFF749FE10BD2300114A55
:100AC0001021206800F05EFB032000F02DFA0320C7
:100AD00000F006FB03200C4900F04CFAFFF7A2FCE3
:100AE0000A4B9C4603232375D0231B061B686044D6
:100AF0006375074B80006060DC60DAE7FC01002072
:100B0000F008002099070010F108001040000034A0
:100B100040060020F0B557464E464546DE46E0B555
:100B200085B0019310AB1B780600039300239A460F
:100B3000984600927268EFF3108972B61368002B22
:100B4000FCD0BFF35F8F3568AC7B002C49D06700C9
:100B50002B683F19033FDB195A78AA73002A00D18A
:100B6000EA73B168484A8C4600980199A2181201AC
:100B70006244106051600E9991600F99D1604246B5
:100B80009A705A701A706B7B9B46002B45D02200DE
:100B90001900A8686B6898472A68002830D05B461F
:100BA00058465B005B44D719033BB870D118D35C3F
:100BB000002B00D07B705B460C706B735C452DD0B6
:100BC000F3681B19013B18787368BFF35F8F4246C7
:100BD0001A6089F310885346002B2CD10002204361
:100BE00007E07368BFF35F8F1C6089F310880120F2
:100BF000404205B0F0BCBB46B246A946A046F0BD97
:100C00005B465B005B44033BD3189C70D119D25DFB
:100C1000002A00D05A705B460B706C73307D009ACE
:100C2000019B00F0EDF982460028C9D02100306810
:100C300000F010FCC4E7039B002B23D00E9B002088
:100C40000F999847030004000D000B431AD00029A8
:100C50000ADA009A019B121BAB4100920193002B10
:100C60000ADB039B9A4665E700F06AF924184D41B8
:100C700000940195002DF4DA0123044C5B420093AB
:100C80000194EEE70020B4E7FFFFFF0FFFFFFF7FB7
:100C900070B542680400EFF3108572B61368002B3C
:100CA000FCD0BFF35F8F2068CEB2437BB3420AD043
:100CB000FF230B405A00D318026894466344033B59
:100CC0009B78002B13D0E268FF2394460B406344CB
:100CD000013B0A0A1978D2B291420ED00020636813
:100CE000BFF35F8F00221A6085F3108870BD226900
:100CF0008A42F3D100202361F1E7310000F0AAFB22
:100D0000EDE7C046F0B54746CE46040080B50D007D
:100D100096267642F71736196F4185B08F4215D85F
:100D200012D000F00DF932003B00121A8B41002B5B
:100D300016DC002B39D02000290000F00BF905B09B
:100D4000C0BCB946B046F0BD8642EAD900260027AD
:100D500000F0F6F832003B00121A8B41002BE8DD60
:100D6000002302930193124B3200009311483B0081
:100D7000FFF7D0FE0028DEDBB846B1460E4F0F4E1F
:100D8000736A984504D8B26A9145D4D99845D2D1AE
:100D90003A68EFF3108172B61368002BFCD0BFF3F2
:100DA0005F8F380001F070FCEAE7002AC3D0D7E774
:100DB000CD070010FC010020F00800200040054095
:100DC00070B5060000F0BCF8FA2204000D00002304
:100DD00030000021920001F051F900196941002909
:100DE00002DBFFF78FFF70BD012001494042F8E7A9
:100DF000FFFFFF7F70B5EFF3058305000C0084B0A3
:100E0000002B0AD0164A0020536A9C4203D8926AEB
:100E10000130AA421FD304B070BD124E0293019359
:100E2000114B0200009330000B00FFF773FE011E10
:100E3000E8DD20BF3000FFF72BFF094B0020596A87
:100E40008C42E8D89B6A0130AB42E4D2641A631E3C
:100E50009C41E0B2DFE7E41A631E9C41E0B2DAE7AE
:100E600000400540FC010020CD070010F0B5EFF375
:100E70000582D6464F4646461000C0B51038EFF3FF
:100E8000108872B6214C2368002BFCD0BFF35F8F13
:100E90000123190081401E4D1F006963AA461D4DA4
:100EA00029601D4D2E78AC463500C5402F402B42A1
:100EB00009D1BFF35F8F276088F31088E0BCBA4682
:100EC000B146A846F0BD5346144D5F6A83005D5994
:100ED000AF420ED3124A8E439B5862461670BFF340
:100EE0005F8F0022226088F31088002BE6D098479D
:100EF000E4E70C4B92009C46624413681360BFF316
:100F00005F8F0023236088F31088D7E7280100D083
:100F1000004005403C7005408E090220F408002086
:100F2000B4050020D03F054010B50100024A034837
:100F3000FFF748FA10BDC046F43B00108C090220B0
:100F4000034B596A0A00986A596A8A42FAD1704773
:100F500000400540064A536A9942FCD807D1044B29
:100F600002E05A6A914202D19A6A8242F9D37047EA
:100F70000040054070B504000D00EFF3108672B616
:100F80001A4A1368002BFCD0BFF35F8F002D1BD0D3
:100F90002000FFF765FA164981420AD02000FFF7CA
:100FA00067FA01212000FFF749FA0123A340114A03
:100FB0001360114BA400E550BFF35F8F00220B4B71
:100FC0001A6086F3108870BD0B4BA200D550012229
:100FD000A2400A4920000B7893430B700449FFF7A5
:100FE00071FA00212000FFF729FAE5E7280100D077
:100FF0006D0E001038600540B40500208E090220F7
:10100000F0B54F46D6464646C0B507002F4C616A3C
:101010000D00A66A616AA942FAD18B4208D805D0B0
:101020000120E0BCBA46B146A846F0BDB242F7D9AD
:10103000EFF3108A72B6264801680029FCD0BFF38E
:101040005F8F0125BD402349204C88460978894699
:101050002943C9B28C46414660460870391D1E4876
:10106000890065630A51B9000B50216A00202942AA
:1010700019D0616A0800A66A616A8142FAD18B427E
:1010800019D801D1B24216D8CC451DD00F4B1F2024
:101090001D625D6301230740BB40104A1E38136088
:1010A00043464A461A70BFF35F8F0022084B1A600E
:1010B0008AF31088B5E70020BFF35F8F0022044B4E
:1010C0001A608AF31088ACE70120ECE70040054085
:1010D000280100D08E090220F408002080E200E000
:1010E000EFF3108C72B60A490B68002BFCD0BFF3EB
:1010F0005F8F01238340074A0748136202789A43AF
:101100000270BFF35F8F00230B608CF31088704771
:10111000280100D0004005408E09022070B505006E
:1011200014001600002915D00C00002A12D0806887
:101130006B689847296800280ED073009B196200DD
:10114000033B1219CB18033A9C7088188A5C002A5A
:1011500015D10670200070BD63001B197200033B9F
:101160009219CB18033A9E7088188A5C002A02D123
:1011700004703400EEE75A7004703400EAE75A70E5
:101180000670E7E730B583600023CCB243730133C8
:10119000047342608373C4730D000068012C06D988
:1011A000421C0133DBB2137003329C42F9D1FF21A0
:1011B00029404B005918002340180338437030BDB4
:1011C000F8B5CE46474606000C0080B5002907D08A
:1011D0004D0003686D18033D5A195778002F04D14C
:1011E0002000C0BCB946B046F8BD7900C919033922
:1011F0008846434459788946002159705170736874
:101200003A002100806898473368002814D042468D
:101210009A18947059195B5D002B00D053700F70B1
:10122000270049463000FFF7CBFF390002003000AD
:10123000FFF774FF0400D3E7424641465D19AF70E3
:101240009A185B5C002B00D06B701470E9E7C04605
:10125000F0B557464546DE464E46E0B50D006B00FC
:1012600001685B19DF1E0400C85D83B00192CA19D2
:10127000002850D043001B18033BCB185E78B446BF
:10128000002E1AD1019E002E42D0E67B002E04D003
:1012900073009B19CB18033B5D70A37B002B00D11F
:1012A000A573E57300282FD10023537003B0F0BC61
:1012B000BB46B246A946A046F0BD72006244033A5E
:1012C00089184A78904600224A7091465A70010067
:1012D00032002000FFF722FF43468246002B07D052
:1012E0005B0021684344033BCB185A78002A16D18F
:1012F000424651462000FFF711FF2168019BCA19A1
:10130000002BC2D10028CFD043001B18033BCB18C1
:1013100000219970C8E7019B002BB6D1C4E75000AB
:101320008018033809184878834648464870587032
:1013300041462000FFF7F2FE594680462000FFF7A5
:101340003FFF414602002000FFF7E8FE8046CFE75E
:10135000F0B557464546DE464E46E0B583B00191AE
:10136000457B04006B0000685B19DF1EC15DC2197C
:10137000002952D04B005B18033BC3185E78B4467B
:10138000002E1CD1019E002E44D0E67B002E04D0FE
:1013900073009B19C318033B5D70A37B002B00D126
:1013A000A573E573002931D10023280053706173C0
:1013B00003B0F0BCBB46B246A946A046F0BD7200E1
:1013C0006244033A80184278904600224270914667
:1013D0005A7020003200FFF7A1FE43468246002BE0
:1013E00007D05B0021684344033BCB185A78002A9E
:1013F00017D1424651462000FFF790FE019B0100A5
:101400002068C219002BC0D10029CDD04B005B1839
:10141000033BC31800209870C6E7019B002BB4D192
:10142000C2E75000801803380918487883464846B8
:101430004870587041462000FFF770FE59468046BC
:101440002000FFF7BDFE414602002000FFF766FEC8
:101450008046CEE770B5040000292CD0437B8B4238
:101460002ED0056848004018033828188278002AD2
:1014700021D053009B18033BEA5CEE188A4202D14C
:101480001BE0002A08D053009B18033BEB185A7846
:101490008A42F6D142785A70002301228370437049
:1014A0002000FFF7D5FE617B02002000FFF736FE2B
:1014B0006073012000E0002070BD43783370EBE7DB
:1014C00001221900FFF7C4FE60730120F4E7C04653
:1014D000F8B5040006200D0000F0C8F9002844D03B
:1014E0002A4B2B49E21853425A418023DB039C4686
:1014F0009205284B62441A60274B1A6010008B68D3
:101500009843FBD1214B8021E3185A425341234A8F
:101510005B0049009952062000F0A8F92900C0009C
:1015200000F014FBC30921D14027012126008025AA
:101530006162A36200232C36AD0135432B60062087
:1015400000F094F93900800000F000FB6023E26AAB
:1015500053406E221A4080235B0133431A60104BC4
:10156000236310232B600D3BA364F8BD0D4A934207
:1015700003D900230C4F0D49D8E77F2210400130DA
:1015800040089F0119003F180300CFE70080FCBF0F
:1015900000C0004000E0004000F0004004090020CE
:1015A00001030000FEFF0000C0FF3F00FFFF00003E
:1015B00030B50C2083B000F0B7F9FEF7FBFE002831
:1015C0000ED0944B944A1A605A609A60DA601A619D
:1015D0005A619A61DA611A62904A5A6203B030BD68
:1015E0008F4CA06700F0A8F901228E4B1A60636C43
:1015F000012BFCD103228C4B1A60894A936B012B7F
:10160000FCD101330121894A89480093043300F059
:1016100033F90523874A00930121874800F02CF90C
:10162000864B5A68FF2A02D8802252005A608022D4
:10163000784C7D4B21691201804D1A60002905D03C
:10164000606900F083FA01300138FDD1E0217B4B65
:1016500002201A681140802252012A431160196841
:10166000484003210140116004219A681142FCD0D6
:101670008022802192012A430901116080225200B8
:101680005A606F4B23616F4B5968FF2900D85A602D
:101690000321644A6B4B116002399A681142FCD0F5
:1016A000E0201A681040802252011A431060186826
:1016B0004840032101400220116062498A681042BB
:1016C000FCD0802292011343802212011A608022F2
:1016D0005D4B52004A6063615C4B5968FF2900D83A
:1016E0005A6080225A4BE1691201584D1A60002954
:1016F00005D0606900F02AFA01300138FDD1E022FE
:1017000052490B681A4080235B012B431A608023E7
:1017100080229B012B4312011A6080223E4B520013
:101720004A60E3614B4B5968FF2900D85A60802218
:10173000494B216A1201474D1A60002905D06069A2
:1017400000F004FA01300138FDD1E02241490B6874
:101750001A4080235B012B431A60802380229B0167
:101760002B4312011A60802380225B004B602A4BBE
:10177000D2022362394B5968914200D25A608022CA
:10178000374B616A1201354D1A60002905D0606936
:1017900000F0DCF901300138FDD1E0222F490B685F
:1017A0001A4080235B012B431A60802380229B0117
:1017B0002B4312011A608023DB024B60174B6362DC
:1017C000284B5A68FF2A02D8802252005A60802291
:1017D000254BA1691201234D1A60002905D06069CB
:1017E00000F0B4F901300138FDD1E0221D490B6849
:1017F0001A4080235B012B431A60802380229B01C7
:101800002B4312011A6080235B004B600E4BA361D7
:10181000E4E6C046CC050020006CDC021BB70000EB
:10182000008000403CB0004030B00040002F6859BC
:1018300000800240008C864700C00240308000409B
:10184000001BB7003C8000404059730754800040A3
:1018500054B000406080004060B000406C800040A8
:101860006CB000404880004048B00040014B800010
:10187000C0587047CC050020F0B5C646040000B53E
:101880000C2090461F000E0000F060F94101091A7B
:101890008D01691AC90009188901404600F056F9FE
:1018A000069B3F041A0323681743002B22DB1A4BC5
:1018B0001A4DE21853425A4180235B019C461203A1
:1018C000174B62441A60174B1A601100AB689943BA
:1018D000FBD1C022231D92011A4321232660A06060
:1018E00013602368002BFCDA0823E760136080BCD8
:1018F000B846F0BD3F2322681340B342D7D1A36856
:101900001B051B0D8342D2D1EE22E368D2021340A5
:10191000BB42CCD1EBE7C0460040FDBF00C0004059
:1019200000E0004000F000408023024A9B00034397
:10193000D362704700800540AA23064A1B0113604A
:101940002F230549D360054B19605368002BFCDA3F
:101950007047C0460040024000B0FA0000600240FC
:101960002C4B2D4A70B51A602C4A2D4B2D491A600C
:1019700014008B689C43FBD12B4D2C4EB54208D2F2
:10198000013E761BB60808CD984723000134B342C8
:10199000F9D1FFF70DFE264A214B1A60214A9368C0
:1019A000DB43DB01DD09002BF9D14022214B224C26
:1019B000224E9A675A671A67DA66B44208D22368D9
:1019C0002000002B20D00C34FEF7D6FEB442F6D314
:1019D0001B4E1C4CC022A168300000F0BFFBA6606B
:1019E000FEF712FDFEF7A0FEFFF75EF8164C174E4D
:1019F000B44208D2013E361BB60808CC98472B00EB
:101A000001359E42F9D170BD0834FEF7A7FEB442FD
:101A1000D5D3DDE700E00040BFCDFBFEFE7F3C00FC
:101A200000F0004000C000407C0200208C0200203A
:101A3000FFFFFF0100F001406C0200207C0200204B
:101A40000000002000ED00E08C0200209402002045
:101A500000BEFDE710B5FFF7FBFFC0460FB400B5B1
:101A6000084883B000F0ACFC049B002B07D005A90C
:101A70001800019100F018F8034800F0A1FC0120C3
:101A8000FFF7E6FF183C0010283C001010B5014895
:101A9000FFF7E4FF2C3C001010B5002800D110BD6A
:101AA00000F042FCFBE7C04610B5094A0300146889
:101AB00084B0002C08D0012200910648524203A9AC
:101AC000A047012004B010BD00F07AFC0020F9E727
:101AD0003C060020991A001001480421014B1847C8
:101AE00030020020091B0010142310B501001888D3
:101AF00004331B88984710BD162310B501001888C1
:101B000002331B88984710BDF8B54746CE4680B5CE
:101B10000F1E19D014239946043304000025012612
:101B200098464B461888434621681B88984701C44D
:101B3000431E9841013540420640AF42F1D130008A
:101B4000C0BCB946B046F8BD0126F8E7114A936F0C
:101B50009B0813D210665166002905D0FFE7FFE706
:101B6000FFE7516F106F704704B5002801D00020C7
:101B7000C04302F025F8002104BDC046F0B5146E44
:101B8000556E576F166FFFF7E5FF1466556657677A
:101B90001667F0BD000000D094464A4A926F920842
:101BA000624601D228E0C046F0B5464E346E756EEE
:101BB000776F366F00F020F89446424A14665566F7
:101BC000576716676246F0BD94463E4A926F920888
:101BD000624601D254E0C046F0B53A4E346E756E9E
:101BE000776F366F00F04CF89446364A14665566A7
:101BF000576716676246F0BD002B24DB11D0002921
:101C00003EDA00B5C943404200D1013100F038F856
:101C1000C943404200D10131DB43524200D101337C
:101C200000BD002AEBD1002801D1002905D00020F9
:101C3000C90FC90701D1C043410800B501F0B8FF81
:101C40000022002300BD00B500290ADBDB4352421D
:101C500000D1013300F014F8C943404200D10131F2
:101C600000BDC943404200D10131DB43524200D1A3
:101C7000013300F005F8DB43524200D1013300BDCF
:101C8000002923D1002B18D1002A0CD0BC460D4FBF
:101C900038667A6600210023FFE7FFE7FFE77A6FE7
:101CA000386F67467047002801D00748010000B52B
:101CB00001F07EFF0022002300BD02000B00002087
:101CC00000217047000000D0FFFFFFFF002B00D075
:101CD000BFE0130C28D1002AE7D080B4114F396639
:101CE0007A66FFE7FFE730B4040C7B6F396F1B04A3
:101CF00023433B667A66FFE7FFE7FFE7C04684B20F
:101D00007B6F3D6F1B0423433B667A66FFE7FFE76B
:101D1000C04600232C042D0C7A6F386F00196941DE
:101D2000B0BC7047000000D0F0B594460025140EFA
:101D300001D112020835140F01D112010435940F9C
:101D400001D192000235D40F01D152000135D40BDC
:101D50000134254F7C66254C3C660E0C93B2FFE7A0
:101D6000FFE7FFE73C6F6643360C7703BE467343DD
:101D7000DF0B5B04C01AB941130C7343DB18C91A9B
:101D8000CE086643360CB64493B273431F0F1B0153
:101D9000C01AB941130C73431F0B1B05C01AB9417C
:101DA000860D8F023E436643360C092D24DB520A12
:101DB0007243801A7703460A6643360C16235B1B70
:101DC000DE40DF40BF1964466643821B704604351F
:101DD00006330100D940A840C01900D30131A24206
:101DE00006D20023F0BD0000000000D0FFFFFFFF7F
:101DF000121B0130F3D3F1E709277F1BFE40644635
:101E0000A2B27243801A00D20139220C7243130C21
:101E10001204821A99410B007046043513370100F1
:101E2000F940A840801900D30131002B02D1A24211
:101E30000AD2F0BD013000D30131121BFAD2013BAE
:101E4000F8D1A24200D2F0BD013000D30131121B03
:101E5000F7E7F0B51C0C00D080E00CB400251C0A9C
:101E600004D11B02160E3343120208351C0B04D199
:101E70001B01160F3343120104359C0B04D19B0048
:101E8000960F334392000235DC0B02D192185B416E
:101E900001351C00971864410134464F7C66464C5E
:101EA0003C660E0CFFE7FFE7FFE7C0463C6F66436A
:101EB000360C7703BE4697B27743C01B00D2013978
:101EC000C01B00D201399FB27743C91BC91B170C35
:101ED00077437E04FF0B801BB941CE086643360C66
:101EE0000C2D33DBB644120B1F053A431B0B97B284
:101EF0007743C01B00D201399FB27743C91B170C2F
:101F000077433E043F0C801BB941860D8F023E4350
:101F1000664329277F1BFE400C3D7746AF40BF1923
:101F200030BCA2B2ABB272437343801A9941220C07
:101F30007243130C1204801A994102000B000137FE
:101F4000001BA941F9D2781E0021F0BD0C277F1B90
:101F5000FE4077467F0BAF40FF19E0E700245D1C91
:101F600007D0144F7D663966FFE7FFE7FFE7FFE71D
:101F70003C6F95B29EB265436643401BB141150C60
:101F80001E0C6543664336042F0C3E432D04401B54
:101F9000B141994204D202000B0020000021F0BDA3
:101FA00001D19042F7D3801A994101349942F2D37A
:101FB000F6E70000000000D0FFFFFFFF132370B51D
:101FC0001D78012D15D010DD1C48FFF795FD1C4C28
:101FD00001008022200000F0C1F8022D06D019482F
:101FE000FFF782FD184B186070BD154C174BA364AA
:101FF000F5E7164B124C23606360A360E360236136
:102000006361A361E36123626362A362E3622363AA
:102010006363A363E36323646364A364E36423658A
:102020006365A365E36523666366A366E36623676A
:102030006367A367E367A364D1E7C0465344000026
:10204000980300204C330000EC08002051200010C1
:1020500007B5604601880A0A0230DF2AFAD1C9B200
:10206000820804D3028840880004104300E000681E
:10207000014A5050039007BD980300205143434349
:10208000C9188C46110C83B24B4310B4040C614345
:1020900092B280B2504362431C041B0C001910BC66
:1020A00059411304120CC01851416144704700009B
:1020B000132310B512481C78FFF71EFD0100012CF8
:1020C0000AD003DD80220F4800F048F80E48FFF7E1
:1020D0000BFD0E4B186010BD0A4C5422200000F07E
:1020E0003DF80B4B6365A365E36523666366A366F2
:1020F000E36623676367A367E3672362E361E5E75A
:1021000053460000980400204C330000EC080020E7
:102110001521001007B5604601880A0A0230DF2A3F
:10212000FAD1C9B2820804D302884088000410435F
:1021300000E00068014A5050039007BD9804002059
:1021400001480421014B184740020020091B0010E0
:10215000014B1B681847000040020020014B5B68E0
:102160001847000040020020030010B508001100CD
:102170001B68984710BDC046F0B546464F46D64648
:10218000C0B5437D80460E001700002B46D0002AC4
:102190003FDD4B1E9946244B0125002400209A4622
:1021A0000DE04B461B5D0D3B5A425341325DDBB2A5
:1021B0000A2A0BD02B00013401359F421ADD002C76
:1021C000EFD14346325D1B7D0A2AF3D1002BF1D1BA
:1021D000A04204DA4346211A1B6830189847434648
:1021E00050461B6802219847013428002B00013516
:1021F0009F42E4DC874204DD4346391A1B683018ED
:102200009847F619013E33780D3B5A4253414246F6
:102210001375E0BCBA46B146A846F0BD036811008C
:1022200030009847F5E7C046983C0010F0B5DE4610
:1022300057464E464546E0B585B017001C000600DF
:102240000D00FEF77DFE0023304A12184B41002B93
:1022500058DB2F4908008A4601F0BAFC01906B1C3C
:1022600003D1300001F06CFC0500002C25D1294B76
:102270009846294B1C68002C15D0002F20D1274FE1
:1022800002E02469002C0ED02368002BF9D03B68B3
:10229000002B01D0A342F4D120002A003100C04716
:1022A0002469002CF0D1019B002B27D105B0F0BC94
:1022B000BB46B246A946A046F0BD194B9846D8E7A2
:1022C000164B994602ABDF1D0A239B4602E02469A8
:1022D000002CE8D02368002BF9D04B461B68002B5C
:1022E00001D0A342F3D12A0031002000C0475B4651
:1022F0000122390020003B70C047E8E7504601F05A
:102300004FFCD3E70122074B5242A2E740420F00A5
:1023100074020020792100103406002038060020C5
:1023200069210010FFFFFF7FF0B5CE46474680B51C
:1023300083B06B460600DD1D2870FEF701FE00230A
:102340001A4A12184B41002B2BDB1949080088460A
:1023500001F03EFC174B81461C68002C14D0164F30
:1023600002E02469002C0FD02368002BF9D03B68D1
:10237000002B01D0A342F4D1200001222900FFF755
:10238000FBFE2469002CEFD14B46002B05D1300019
:1023900003B0C0BCB946B046F0BD404601F000FCF9
:1023A000F5E70122054B5242CFE7C04640420F00FD
:1023B000740200203406002038060020FFFFFF7F53
:1023C00070B5040001F0BCFB0023010005000122F0
:1023D0002000FFF72BFF084B1C68002C06D0636819
:1023E000002B05D098472469002CF8D1280070BD37
:1023F0002469002CF3D1F9E7340600200A4A136857
:10240000002B05D10CE01A001B691032002B07D0FD
:102410009842F8D1002902D1036913600161704725
:102420000029FCD01060FAE73406002010B500F057
:10243000C5F8012010BDC046F0B50D1E15DD0E4BD0
:102440000D271A680D4B4519D31859424B410C49B9
:102450005B005E5E20210478A64207D09369194292
:10246000FCD101301460A842F5D1F0BD9369194246
:10247000FCD11760F2E7C046080900200080FCBFCD
:102480000409002030B504000D1E26DD00201021B7
:102490001B4B013C1A689369194219D101309369A9
:1024A0001942FCD1136823548542F4D1154B1B68A3
:1024B000002B0CD050239363516B183B34320B40EC
:1024C0001100802252010A431360002815D030BD4C
:1024D0000C4B1B68002BEDD1F7E70A4B1B68002B58
:1024E0000BD050223821064B1B689A635A6B343349
:1024F0001140802252011343196003204042E6E755
:1025000008090020C4050020064B10B51B68002BED
:1025100006D00021044A12689163044A1068984763
:1025200010BDC046C405002008090020C8050020D1
:102530001D4BF0B51A68C64698461C4B0E00D318C2
:1025400059424B411A4F14331C00050000B53B683B
:10255000002807D0002B11D0164B3D601E6080BCB8
:10256000B846F0BD002BF7D0906300212000FDF7A6
:1025700065FF20001049FDF7A5FFEDE720000E499B
:10258000FDF776FF01212000FDF758FF434650225A
:1025900038211B689A635A6B3433114080225201F0
:1025A00013431960D8E7C046080900200080FCBF2B
:1025B000C4050020C80500200925001010B50C4BEB
:1025C0000C4C1B780C4B02211B780C4B0020236019
:1025D000FDF7BAFE02210120FDF7B6FEE1212068D9
:1025E0004902FEF775FF01210548FFF707FF10BDFF
:1025F000F83C001008090020FC3C0010004003409B
:10260000500200208022044B52051A60BFF34F8F06
:10261000BFF36F8F7047C04604ED00E0D0231B0668
:102620001B6808499B005A58002A08D000205850BF
:1026300005495B58BFF35F8F106083F3108862B663
:102640007047C046E408002014090220D02300226D
:102650001B065A657047C04610B50A4B1B78FF2B06
:102660000CD0EFF30580002805D0D0231B061B6893
:102670004000C01810BD00F073FEFBE7D0231B061E
:102680001868F7E76802002000B5154B83B01B7887
:10269000FF2B09D10368BFF35F8F00221A6081F31B
:1026A000108820BF03B000BDD0231B061A68036842
:1026B0000C48920013500C4811500C4A02219446C9
:1026C00063449B10FF319940094B01221868012394
:1026D0005B420093090A002300F01EF9E2E7C046BE
:1026E00068020020E40800201409022000FFFF2FE8
:1026F0002C09022000B51C4A0B00127883B0FF2A77
:1027000029D01A4902688C46022162449210FF3196
:102710009140090A40BF0068BFF35F8F002202604A
:1027200083F31088EFF30583DBB2002B05D1104B48
:10273000186800F04DF903B000BD0D4B0192186808
:1027400001AA00F08DF9019B002BF4D08022094BE7
:1027500052051A60EFE740BF0268BFF35F8F0021A8
:10276000116083F31088E6E76802002000FFFF2F66
:102770002C09022004ED00E0F0B51D00314B0700EC
:102780001B780E00140083B0FF2B4ED0FEF7D8FB51
:1027900022002B00121A8B4101212B48494280183C
:1027A0005941002921DC1CD03B68BFF35F8F002218
:1027B0001A6086F31088254B5A6A95420AD98022FE
:1027C000234B52051A60BFF34F8FBFF36F8F00206A
:1027D00003B0F0BD9B6A0120A342F9D29542F7D124
:1027E000EDE7FA239B009842DED3FA220023920001
:1027F000FFF7D2F9031ED7D0D02212061168154870
:102800003A6889000A5014480E5014498C46022137
:1028100062449210FF319140114A090A10680093F6
:102820000122002300F078F8C5E70368BFF35F8F4B
:1028300000221A6081F3108820002900FEF7DAFADE
:10284000C6E7C0466802002018FCFFFF00400540B4
:1028500004ED00E0E40800201409022000FFFF2F2F
:102860002C09022010B500F04BF8014B186010BD88
:102870002C090220F8B5DE4657464E464546E0B5DF
:1028800005000F00060000F023FC29682C6939437D
:102890000C362960A6422AD0002398468023DB0408
:1028A0009B4680235B049A4680239B0499460EE056
:1028B0000B420AD057463A4202D042461A4390464B
:1028C0004B46194300F0F6FF2968A6420DD02000C0
:1028D0005F460268646813021B0A3A42E8D01F0090
:1028E0000F40BB42E6D0A642F1D14346994329604E
:1028F00000F0D4FFF0BCBB46B246A946A046F8BDE6
:1029000010B51C2001F066F8041E03D0002308C097
:1029100000F0B0F8200010BDF0B5C646060000B5C6
:102920000D0090461F0000F0D3FB3468002F0AD141
:1029300025420CD04346002B0CD02300AB43336020
:1029400000F0ACFF08E02B0023409D42F2D0069B34
:10295000002B05D100F0A2FF200080BCB846F0BDDE
:102960004346002B16D180210023C904002F00D13B
:102970001900069A2943301D00F02EFC00F08EFF4E
:1029800000281CD000F0EEFF0400830107D52402CC
:10299000240AE1E7A0218023C9045B04E6E700F0F4
:1029A00033FD3468002F0DD12C4205D04346002B57
:1029B00002D02300AB43336000F0BAFFE7E700F03A
:1029C00009FDDFE723002B409D42F5D1EEE7C0462D
:1029D000F8B5DE4657464E464546E0B505000F00C1
:1029E000060000F075FB29682C6939430C36296014
:1029F000A6422AD0002398468023DB049B468023EE
:102A00005B049A4680239B0499460EE019420AD043
:102A100057463A4202D042461A4390464B46194323
:102A200000F048FF2968A6420DD020005F460268EA
:102A3000646813021B0A3A42E8D00F001F409F420D
:102A4000E6D0A642F1D143469943296000F026FF23
:102A50002868F0BCBB46B246A946A046F8BDC046B1
:102A600010B513000A000100014800F09FFF10BDDF
:102A7000752800100300083301224360C36003611E
:102A800000235242826003607047C04643689A68E0
:102A90004B608A609A6851609960036808610133ED
:102AA00003607047030030B50C680833621C0DD01A
:102AB0001A005B681D68A542FAD94B6099600368EB
:102AC0008A60013351600861036030BD0269536858
:102AD000F3E7C0460369416882688A6051605968BB
:102AE000814206D0002202611A68013A1A60186811
:102AF00070475A60F6E7C046F0B5C64600B5846C2C
:102B000082B0A36BE26B00260190934204D33000A5
:102B100002B080BCB846F0BD4523226CE55CA76BD3
:102B20006DB2002A16D0606801A9FFF717FB226C6E
:102B300063689446A2686344636093420ED323683B
:102B400063600137A7636B1C0DD0452301356DB25F
:102B5000E554DCE723689846002B0FD001370026A8
:102B6000A7636B1CF1D1636A002BD0D02000243006
:102B700000F056FB0028CAD00126C8E7A06800F084
:102B8000FDFB43460600A360DBE7C046F8B54E46B2
:102B90004546DE4657460400E0B5884691461D008E
:102BA000EFF3108772B600F02FFCA36BE26B934239
:102BB00026D3022D0BD0002400F0BAFE87F3108834
:102BC0002000F0BCBB46B246A946A046F8BD45234E
:102BD000E65CA36B226C9B46A36B76B29A46002AF6
:102BE00029D123689846002B61D053460133A36353
:102BF000731C37D04523013676B2E6540124DBE757
:102C00004523E65CA36B226C9B46A36B76B29A4687
:102C1000002AE6D0002D0ED141466068FFF79EFAEB
:102C2000226C63689446A268634463609342DCD379
:102C300023686360D9E74146E068FFF78FFAE168EF
:102C4000236C5A42CB1A2168E3608B4203D2A368FB
:102C50009C466244E2605346022D24D00133A363B4
:102C6000731CC7D1A36C002B13D0022D04D15B467B
:102C7000002B01D001249FE72000FFF73DFF002833
:102C8000F8D04B46002BF5D001234A4601241360AF
:102C900092E7636A002BEDD02000243000F0C0FAE8
:102CA0000028EED1E6E7002BA1D10133D7E7A068D9
:102CB00000F064FB4346A3605346013397E7C046E8
:102CC000F0B5C646304B00B5040088461E68EFF3E9
:102CD000108172B6D0273F063B682C4D9B00EA5806
:102CE00081F310887D230021D154EFF3108272B656
:102CF0003B689B00E85882F310880830FFF7EAFE33
:102D0000631C30D03419EFF3108172B6D022120652
:102D100013689B00EB5881F310889C60A64214D87E
:102D20001B4B1868EFF3108672B613689B00E958C6
:102D300086F310880831FFF7B5FE164B1A68A242D9
:102D400000D91C6080BCB846F0BD134B1868EFF387
:102D5000108472B613689B00E95884F31088083118
:102D6000FFF7A0FEEEE74346002BCBD0EFF3108237
:102D700072B63B689B00E95882F310880748083117
:102D8000FFF784FEDEE7C0467C09022050060020E3
:102D90005806002038090220600600206809022039
:102DA00010B5EFF3108C72B6D02109060B68274AD4
:102DB0009B0098588CF31088036D013B0365EFF37B
:102DC000108072B609688B009B5880F310881B6DC9
:102DD000002B36D11E4A1378013BDBB21370002B57
:102DE00008D101201B4C635C83436354BFF35F8FA6
:102DF000194B1860EFF30583DBB2002B21D1D023F0
:102E00001B0619685378013BDBB25370002B09D1C4
:102E10000220104A535C83435354BFF35F8F012257
:102E20000E4B1A60FFF7FAFBEFF3108272B6D02355
:102E30001B061B680A499B005B5882F31088002B15
:102E400000D110BDFFF7DEFBFBE7C04650060020B7
:102E5000100902200C090220380100D03C0100D0EA
:102E600084090220F8B5D0235746DE4645464E4633
:102E70001B061B68584A9B00D358E0B59846574B31
:102E8000574F9A46574B9B4659E042461365D0230D
:102E9000524D1B061A682B78524C013BDBB22B704B
:102EA000002B07D10121A35C8B43A354BFF35F8F99
:102EB0004D4B1960D0231B061A686B78013BDBB2BF
:102EC0006B70002B08D10221A35C8B43A354BFF38A
:102ED0005F8F0122454B1A60FFF7A0FBEFF31083D1
:102EE00072B6D0231B061A68404B196800294ED0D1
:102EF000BFF35F8F012302216B70A35C0B43A354CC
:102F0000D0231B061A68384B1968002938D0BFF344
:102F10005F8F012301212B70A35C0B43A354EFF3BC
:102F2000108172B6D022120613682B489B00C3583A
:102F300081F310881E654B463B60002E34D043461B
:102F40009B6B02332AD143461E6D3B689946002392
:102F50003B60002E99D1D02355461B061A686B782A
:102F60005C46013BDBB26B70002BB5D10221A35C48
:102F70008B43A354BFF35F8F01221C4B1A60ABE756
:102F8000A15CC90720D419680029C0D1FBE7A15C66
:102F900089071DD419680029AAD1FBE7F0BCBB46FC
:102FA000B246A946A046F8BD2B781268013BDBB2B9
:102FB0002B70002BC3D10121A35C8B43A354BFF31F
:102FC0005F8F094B1960BAE72B7801332B70A6E7A6
:102FD0006B7801336B7093E75006002010090220D4
:102FE000200902200C090220380100D03C0100D049
:102FF0004A425141F8B5344C036B26682568226873
:103000005B1A926B012A06D9656866686268926BE2
:10301000012A14D9F8BD2D4A11680029F4D1376B63
:10302000ED6B7F1BBB42EFDB4568ED07ECD56568B8
:10303000666863689B6B012B3CD9002010E0234A33
:1030400051680029E6D1012149428C46296BF56B74
:10305000491B99421BDD6346012BDBD80021002070
:10306000EFF30583DBB2002B17D0D0231B061B68C0
:10307000834225D08D0063599B6B0233CAD0080070
:10308000FFF7E4FA0222635952429A63C2E74368A7
:103090009B07E0D501210120E2E78D0063599B6B7E
:1030A0000233B7D0D0231B061B688342E7D101232C
:1030B0005351AFE753689C46002BBED13B00C5E798
:1030C000012389005350A5E75006002084090220FF
:1030D0003A4B70B51B68002B00D170BDEFF3108424
:1030E00072B6D023364A1B0618681368002B45D0E9
:1030F000344BBFF35F8F01210225334A5170195CB5
:1031000029431954D02531492D060E682868002E10
:103110003CD0BFF35F8F012101251170195C294359
:1031200019542B490025086801300860D02000069A
:103130000068157001251A5CAA431A54BFF35F8F0B
:10314000224B1D600B68012B02D084F31088C4E76A
:10315000EFF3108272B6D0231B061B681D499B003B
:103160005B5882F310881B6D002BEED1EFF30583C3
:10317000DBB2002BE9D1FFF775FEE6E7114B195CD6
:1031800089070AD411680029B3D1FBE71E5CF60752
:1031900008D40D68002DBCD1FBE70B4A51780131F2
:1031A0005170AFE71678711C117009490868013039
:1031B000086028681670002EC4D1BBE75C090220A5
:1031C0003C0100D00C09022010090220380100D077
:1031D000200902205006002070B50B001400EFF308
:1031E000108172B6D026360632680C4D92005259C4
:1031F00081F31088802109061943D161EFF3108211
:1032000072B633689B00595982F310881C31FFF75E
:103210003DFC01212000FFF753FD70BD500600204A
:10322000F8B5C368DD682C001C342000FFF752FCA1
:10323000454B1B68002B28D1143C2000FFF74AFCAB
:10324000424A2B6B11688B4224D89800C018404B1F
:1032500080002100C018FFF719FC3E4C2B6B27683B
:10326000216822683C4E926B013B012A14D96168A7
:1032700067686268926B012A21D9D0231B061B68FC
:103280009B00F058431E9841F8BD21003348FFF7DA
:10329000FDFBE2E71360D8E730680028E7D13A6B1E
:1032A000C96B521A9342E2DB6968C907DFD56168CE
:1032B000676863689B6B012B3BD900220FE0726843
:1032C000002ADAD10122524294460A6BF96B521A53
:1032D0009A421ADD634600200022012BCDD8EFF37D
:1032E0000583DBB2002B16D0D02109060B68934270
:1032F00025D085006259926B0232C1D0FFF7A6F942
:103300000222635952429A63B7E76B689B07E1D583
:1033100001200122E3E7850063599B6B0233ACD0A7
:10332000D0231B0619689142E8D1012272511B6813
:10333000A6E773689C46002BBFD11300C5E70123A5
:10334000800033500B689BE72009022024090220EB
:10335000640600205006002084090220480902204B
:10336000EFF3108272B6D0231B061B6802499B0044
:10337000585882F3108870475006002070B5041E1C
:1033800008D0036E026BC16D013B03668A4201D017
:10339000002B01D0002070BD050008352800FFF784
:1033A00099FB2022E36DD21AE261084A2363116877
:1033B0008B4200D913609800C018054B8000C018DC
:1033C0002900FFF763FB0120E5E7C046240902203E
:1033D0006406002010B5EFF3108172B6D0231B06EF
:1033E0001B68074A9B009A5881F31088126D002AC7
:1033F00003D00121034A995010BDFFF703F9FBE701
:10340000500600208409022070B5EFF3108372B6D5
:103410003A4B1B68002B3CD0EFF3108C72B6D021D6
:1034200009060B68364A980010588CF31088006D16
:10343000002812D1EFF30580C0B2002832D0314805
:10344000314C32490D68002D3ED0BFF35F8F012112
:1034500021700124C15C2143C154EFF3108C72B67A
:10346000D020000603689B00D1588CF310880B6DA8
:1034700001330B65264B1B68002B0AD1EFF310813B
:1034800072B603689B00D35881F310881B6D012B23
:1034900000D070BDEFF30583DBB2002BF9D1FFF74D
:1034A000E1FCF6E71B4C2068002818D01548BFF354
:1034B0005F8F01210225144C6170C15C2943C15406
:1034C000D0231B061B68BCE7C55CED0703D40D6861
:1034D000002DBAD1FBE7237801332370BDE70948FB
:1034E000C55CAD0703D421680029E0D1FBE7064C99
:1034F0006378013363700B68A3E7C0465C09022060
:10350000500600200C09022010090220380100D0CA
:10351000200902203C0100D0F0B5DE464546574662
:103520004E46E0B583B0082200216846FEF710FE43
:10353000FFF76AFF7C4B1D68002D5DD17B4B1F6838
:1035400001371F60002F00D177E0794B9B465B4627
:103550001B68BB4200D889E0764B9946764F3B68A2
:103560001A6B93009B184A469B00D2587968012336
:10357000086B9342924181000918484689004158DE
:1035800052428B429B416D495B4288460968002943
:1035900000D00122009242465268002A00D0012346
:1035A0000193D0231B0699461B686C469A46002659
:1035B0002368002B1BD0554500D1A7E0EFF305830E
:1035C000DBB2002B00D189E04B461B689D4200D145
:1035D000A5E0AB009B46FB589B6B023307D028004D
:1035E000FFF734F85B460222FB5852429A630434D8
:1035F000012D06D00125DBE70026514A136801336F
:103600001360504B1B68002B0FD0EFF3108272B683
:10361000D0231B061B6848499B005B5882F3108827
:103620001B6D002B01D0FFF7BBFB300003B0F0BCDB
:10363000BB46B246A946A046F0BD434B434A196873
:1036400010681860116042490A6801320A601A68FD
:103650001268002A53D1364B9B4601235A465B42DF
:1036600013605B461B68BB4200D975E7364B984632
:103670001B681B68002B4BD02E4B9946354B9A4646
:1036800022E0260008363000FFF724FAE36A002B18
:1036900003D020001C30FFF71DFA5346206B1B6837
:1036A000984201D9534618608300181880003100F1
:1036B0004844FFF7EBF901212000FFF799FC43464E
:1036C0001B681B68002B25D043461B68DB68DC6841
:1036D000A3689F42D5D25A4613603FE7AB009B4692
:1036E000FB589B6B023300D181E74B461B689D4220
:1036F00000D074E743465A460121995077E71B688A
:103700000B4ADB6893461B68136020E701266EE7CF
:10371000084B994601235A465B4213601EE7424616
:103720000121AB00D15062E7200902207C09022070
:103730003809022064060020500600208409022077
:10374000440902205C09022058060020600600207F
:103750003C09022024090220F8B5CE46474680B530
:10376000FFF752FED02109060B683E4A99461368BE
:10377000013B136008683C494B78013BDBB24B705E
:10378000002B09D1022439490B5CA3430B54BFF32E
:103790005F8F0121364B196013680024002B42D142
:1037A000344B1B68002B3ED0334D2B68002B24D0AC
:1037B000324B334E9846EB68DF6838003C001C30D3
:1037C0000834FFF787F92000FFF784F9386B336876
:1037D000984200D9306083001818800021004044CE
:1037E000FFF754F92B68002BE5D1264B1A681268B5
:1037F000002A31D1244B013A1A60244B244D9846BB
:103800001C684B469F00002C0AD00126FFF784FE5F
:10381000002800D0EE51013C002CF7D143461C603B
:10382000EC59631E9C411B4B1B68002B0FD0EFF320
:10383000108272B6D0231B061B6817499B005B5889
:1038400082F310881B6D002B01D0FFF7A9FA20002E
:10385000C0BCB946B046F8BD1B68DB681A680A4BA5
:103860001A60CAE720090220100902200C09022070
:103870003C0100D01C0902204809022064060020F7
:103880002409022058060020380902204409022099
:10389000840902205C09022050060020044B10B568
:1038A0001868002800D110BDFFF756FFFBE7C0469F
:1038B0005C09022070B58023C4681B0625000B43F9
:1038C00003600835FFF706F92800FFF703F9144AEB
:1038D000236B11688B4200D913609800C018114BFC
:1038E0008000C0182900FFF7D1F8FFF78DFD0021F7
:1038F0002000FFF77DFB0C4B1B68002B0FD0EFF374
:10390000108272B6D0231B061B6808499B005B58C7
:1039100082F310881B6D002B01D0FFF741FA70BDB8
:1039200024090220640600205C09022050060020C1
:103930000A4B10B51B68002B0FD0EFF3108272B644
:10394000D0231B061B6806499B005B5882F3108836
:103950001B6D002B01D0FFF723FA10BD5C0902207C
:103960005006002010B5EFF3108072B6D021090682
:103970000B680D4A9B009B5880F31088D869EFF3C1
:10398000108472B60B689B009B5884F310881C6BE4
:10399000EFF3108372B6096889008A5883F31088A0
:1039A00020231B1BD36110BD5006002010B514004E
:1039B0001A00022384B05B420093054B01900291F0
:1039C0001868694600230394FFF7E0F804B010BDBF
:1039D00080090220F0B5D6464F464646C0B50400E1
:1039E000FFF776FB4F4A1768002F48D04E4B1D68F3
:1039F00025423BD1631E0A3338D820000723083004
:103A000003422DD1494B99461B68984683422DD3DA
:103A1000474B9C461B68644604E01A68002A04D0A1
:103A20001C00130059688142F7D3BB421ED01E0010
:103A30001A68083622600A1A102A48D842464846B0
:103A4000521A02603B480468A24200D2026000227F
:103A50001A60394A2943596013680133136006E03C
:103A600002009A4313000833834227D80026FFF749
:103A700015FF3000E0BCBA46B146A846F0BD0720AD
:103A80002E4908421CD180239B02CF1808000B004E
:103A90000021274D083F696028600725AF43802536
:103AA0001760244AFB1A1360204A7960396013605A
:103AB00043601D4B2D0607601D6099E71800A1E7C4
:103AC000CB1D8343802080020F181800E0E71918EF
:103AD0004A608A4662465860110012689245FBD8D7
:103AE00048680C18A2450DD050464068544624182A
:103AF000A2420DD050460260514501D052460A60A4
:103B000059689BE7544664688A4600194860EDE7A7
:103B1000BA42EFD054681268A446544660446060CC
:103B20002260E9E75C060020280902203009022013
:103B30006009022034090220400902200C090020FB
:103B400010B583070AD00300032102E001330B42C2
:103B500005D01A78002AF9D1181A10BD0300196887
:103B60000C4A0D4C8A188A4322420FD15968094ADF
:103B700004338A188A43224208D15968054A04331B
:103B80008A188A432242F1D000E001331A78002AD1
:103B9000FBD1E1E7FFFEFEFE80808080F8B5C046E5
:103BA00001B40248844601BC604700BF5D010020AB
:103BB00001B40248844601BC604700BF7D0100207B
:103BC00001B40248844601BC604700BF7D0100206B
:103BD00001B40248844601BC604700BFC100002018
:103BE0004C4544204F4E21004C4544204F46462131
:103BF00000000000486172647761726520616C6149
:103C0000726D20256420616C726561647920636C3B
:103C100061696D65640000000A2A2A2A2050414E1D
:103C20004943202A2A2A0A000A00000048617264D7
:103C3000206173736572740052656C656173650011
:103C4000626F6F74325F7732357130383000000048
:103C5000312E352E300000007069636F00000000C7
:103C6000626C696E6B0000004D6179203134203246
:103C70003032330006005250BBFF3CB6583C0010B7
:103C800006005250E182887F403C001006005250EE
:103C9000D3F07542383C00100D0A000055415254D3
:103CA00020737464696E000055415254207374642B
:103CB0006F7574005541525420737464696E202FDF
:103CC000207374646F7574000600525053B4F4A1ED
:0C3CD000B43C00100800525092000000AC
:103CDC00AC020010A002001094020010743C001002
:103CEC0088020010803C00108C3C0010C83C001076
:043CFC00D43C0010A4
:103D0000F0B5C646150000B504001E000268EFF3CA
:103D1000108872B61368002BFCD0BFF35F8F676802
:103D20007B1C0ED02368BFF35F8F00221A6088F3DC
:103D3000108800F04DF8B8420FD1002080BCB84682
:103D4000F0BD00F045F823686060BFF35F8F00228C
:103D50001A6088F310880120F0E700F039F80700B6
:103D600006E02A003300200000F03AF80028E4D1F1
:103D70002268EFF3108172B61368002BFCD0BFF3FA
:103D80005F8F63680133ECD123686760BFF35F8F97
:103D900000221A6081F310880120CFE710B5026875
:103DA000EFF3108172B61368002BFCD0BFF35F8F66
:103DB00001235B42436000F003F810BD7047C0462A
:103DC00001B40248844601BC604700BFF5260010DC
:103DD00001B40248844601BC604700BF5926001068
:103DE00001B40248844601BC604700BF7927001037
:103DF00010000000000000000000010000000000B2
:103E000000000000000002000000000000000000B0
:103E10000000030000000000000000000000FF00A0
:103E20000000000001B5486801318E460047704629
:103E300009380149884701BD7506001014020020A9
:103E40000000000098020020F4050020000000009F
:103E50000000000004060020000000000000000038
:103E60001000000000000000000000000000000042
:103E7000503300004C330000543300005233000034
:103E80004D5300004D430000533400004334000004
:103E90003924001000000000852400103125001096
:103EA0000000000000010000FF0000000000000012
:103EB0000000000000000000000000004121001090
:103EC000D91A0010BD1F0010B1200010E50200102B
:043ED0006528001051
:04000005100001E9FD
:00000001FF
