:020000041000EA
:1000000000B5324B212058609868022188439860DF
:10001000D860186158612E4B002199600221596106
:100020000121F02299502B49196001219960352056
:1000300000F044F80222904214D00621196600F024
:1000400034F8196E01211966002018661A6600F04E
:100050002CF8196E196E196E052000F02FF8012189
:100060000842F9D1002199601B49196000215960AB
:100070001A491B48016001219960EB211966A021F2
:10008000196600F012F800219960164914480160C1
:100090000121996001BC002800D000471248134993
:1000A000086003C880F30888084703B5996A0420EC
:1000B0000142FBD001200142F8D103BD02B5186610
:1000C0001866FFF7F2FF186E186E02BD00000240BE
:1000D000000000180000070000035F00212200005C
:1000E000F4000018222000A00001001008ED00E03C
:1000F00000000000000000000000000074B24E7A12
:1001000000200420F7010010C3010010C5010010F9
:10011000C1010010C1010010C1010010C101001097
:10012000C1010010C1010010C1010010C701001081
:10013000C1010010C1010010C9010010CB01001065
:10014000CD010010CD010010CD010010CD01001037
:10015000CD010010CD010010CD010010CD01001027
:10016000CD010010CD010010CD010010CD01001017
:10017000CD010010CD010010CD010010CD01001007
:10018000CD010010CD010010CD010010CD010010F7
:10019000CD010010CD010010CD010010CD010010E7
:1001A000CD010010CD010010CD010010CD010010D7
:1001B000CD010010CD010010CD010010CD010010C7
:1001C00000BE00BE00BE00BE00BE00BEEFF3058054
:1001D000103800BEF2EB8871A4930010C093001099
:1001E0003402001090A31AE700201F49086006C8D7
:1001F00081F3088810471D48006800282FD10DA4FE
:100200000ECC002902D000F012F8F9E71849194A7B
:10021000002000E001C19142FCD1174988471749ED
:1002200088471749884700BEFDE701C901C29A42C5
:10023000FBD37047C0930010C000002000030020D3
:10024000009600100000042000000420009600101A
:10025000001004200010042000000000704709482E
:1002600002F0BEFE0047000008ED00E0000000D0F4
:1002700000030020B00A0220511D001025030010C9
:100280000D1D00105756000006005250ABB36053CE
:100290005481001006005250861C03026481001035
:1002A000060052505422A29D6C810010050052504D
:1002B000DE65F46800960010F8B5C04610B5064C2F
:1002C0002378002B07D1054B002B02D0044800E017
:1002D00000BF0123237010BD0004002000000000B7
:1002E00060720010044B10B5002B03D00349044882
:1002F00000E000BF10BDC046000000000404002064
:100300006072001070B5D0252D068026B6046E618F
:10031000FA24A400200006F023FAAE61200006F0C3
:100320001FFAF0E700B583B0192000F02FF8D023B2
:100330001B06802292045A6200230193013300932A
:10034000002380220349044806F00AF806F05CF80E
:1003500003B000BD607200100503001010B58300EB
:10036000084A944663441C6840226240C0241440FA
:100370008022520113431C60C000034B9C46604422
:10038000416010BD04C001400040014010B5012390
:100390008340D0221206936293610521FFF7DEFFAE
:1003A00010BD0000034B1B6802201840431E9841FB
:1003B000C0B2704700C00640EFF3108072B6034B26
:1003C0001B68002BFBD0BFF35F8F70472C0100D060
:1003D000BFF35F8F024B00221A6080F310887047D2
:1003E0002C0100D0F8B506000C001500FFF7E4FF63
:1003F000E308F718F15C07222240012393400B42E7
:1004000005D1DBB20B433B70FFF7E2FFF8BD2100E3
:10041000280001F019FD0000002307E0054A9A18A2
:100420009200BFF35F8F0021116001331F2BF5D9BC
:100430007047C04640000034054A1078431CDBB2C8
:100440001370172B02D9130010221A707047C04680
:100450003802002010B50100024A0348FFF7C2FF2E
:1004600010BDC0466C7200102C040020074B9B6826
:10047000103080001950BFF35F8FBFF35F8F044BC4
:100480000021196082F310887047C04600ED00E03B
:10049000240100D010B5091A081F0A4B9C4661447C
:1004A000094A914208D8C30706D440104005400DC0
:1004B000064B184380B210BD054B064AA3210648DF
:1004C00001F028FCFC070000FE0F000000E0FFFF29
:1004D0008C720010E8740010BC72001010B5091A7C
:1004E00004394C08090B08D14905490D064A114346
:1004F0000180064B2343438010BD054B054AAB21C9
:10050000054801F007FCC04600F0FFFF00F8FFFFC0
:1005100004730010BC740010BC72001001238340EF
:10052000034A10681840431E9841C0B27047C04645
:1005300000E100E0002904D0034B1860034B186071
:100540007047034B1860FBE780E200E000E100E049
:1005500080E100E010B5012383401800FFF7EAFFB7
:1005600010BD0000024B9B6810308000C0587047DF
:1005700000ED00E070B504000D00EFF3108672B6D8
:100580000C4B1B68002BFBD0BFF35F8F2000FFF7E5
:10059000E9FF094B984201D0A84205D13200290059
:1005A0002000FFF763FF70BD044B054A8621054814
:1005B00001F0B0FB240100D0CD0100101473001035
:1005C00004750010BC720010F0B5CE46474680B5E9
:1005D00083B006000D00EFF3108872B6564B1B680F
:1005E000002BFBD0BFF35F8F544B9A68340010345C
:1005F000A300D758524B9F4207D0AF4200D198E09A
:100600000197504BFB1A2F2B09D942463900300075
:10061000FFF72CFF03B0C0BCB946B046F0BD3000B8
:10062000FFF77CFF814600213000FFF793FFBFF307
:100630005F8FEFF30581002901D08C4211D1012396
:10064000019C9C430022A368AB4212D00622A25612
:10065000002A0DDB53009B189B002200394CE41844
:10066000F1E73621384B394AFF31394801F052FB66
:100670002200AB4256D106256557002D38DB6B00B2
:100680005B199A002F4B9B189A68A260DA79E27185
:1006900006229A56A2719B795BB2002B0FDA2D4885
:1006A000A0806B005B199B00264AD3182A4A117858
:1006B0009971157049463000FFF74CFFA5E7201DE2
:1006C0006B005B199B001F4A9B181A1D9B88D90A57
:1006D0001C2907D15B055B15023359005118FFF740
:1006E000D9FEDDE71D4B1E4AB121194801F012FB6E
:1006F000002912D1002A0ED0FF239371194B938049
:10070000154A1378A371184B0E49641A6441634368
:100710001B0D1370CEE70A4FF2E7201D1349FFF7B8
:10072000DDFEC7E76A21124B084AFF31084801F095
:10073000F1FA034F69E7C046240100D000ED00E064
:10074000CD0100103C02002028740010D474001069
:10075000BC72001001BD0000AD0A02201074001030
:10076000F474001001BDFFFFAAAA00007602002069
:100770005C74001010B5032304009C43064A9446A1
:10078000644422681840C000FC3383409A4313003D
:1007900081400B43236010BD00E400E070B50121EF
:1007A00001432E4BCB1A2F2B28D8EFF30583002BB8
:1007B0002BD0EFF3108C72B6294A1268002AFBD0B6
:1007C000BFF35F8F274A0400244D641B64416243DA
:1007D000120D54B2244A92689B00D2588A421BD010
:1007E0000022032A32D853009B189B001B49CB18C8
:1007F0009B795BB2A3421FD00132F2E7C7211B4BAA
:100800001B4A49001B4801F085FA92211A4B184AED
:10081000FF31184801F07EFA134A92681749D15007
:10082000174B1A7882711C70BFF35F8F0C4B00223C
:100830001A608CF3108870BD0D0053009918890060
:100840006918FF268E710F4A8A80E9E7D1210E4B85
:10085000074A4900074801F05DFAC0463C02002003
:10086000240100D0AAAA000000ED00E0647400108A
:10087000A0740010BC7200108C740010CD01001028
:10088000AD0A022001BDFFFF987400100022044B46
:1008900002E0044902C30132072AFAD97047C04670
:1008A00000E400E080808080024B9C466144890027
:1008B000016070474000003410B50400FFF7BCFD34
:1008C00001002000FFF7F0FF01235B426360BFF3EC
:1008D0005F8F10BD10B50400FFF7AEFD01002000D2
:1008E000FFF7E2FF01235B42636000232372BFF343
:1008F0005F8F10BD70B505000C00080000F00AFE07
:100900000949200000F04AFDFFF796FD074B9C4681
:100910006044800068602C75D0231B061B786B75C3
:10092000A400034BE55070BD310C001040000034B2
:10093000A004002010B5084B1A68EFF3108172B6BE
:100940001368002BFCD0BFF35F8F034803F0A8FDB2
:100950000020002110BDC0465809002010B5002914
:1009600022D003681B7B99421ED8174B9C466144DA
:10097000090183689C4661440C684968002A19D0C3
:1009800003681B7B9A4215D883680F4884466244EB
:1009900012019A1810685368020001208B4201D896
:1009A0000ED00020C0B210BD084B094A3C210948B6
:1009B00001F0B0F9054B064A3C21064801F0AAF9BE
:1009C000A242EFD8EDE7C046FFFFFF0FA076001070
:1009D000C07800105C76001010B500291ED0037B93
:1009E00099421BD84B005B18033B0468A446634440
:1009F000002919D0002A1DD0914221D0002A25D0EB
:100A0000047BA24222D804685000801803382018C2
:100A10008170197800291FD11A7010BD104B114A2E
:100A20006821114801F076F9104B114A6F310E48D8
:100A300001F070F90F4B0E4A70210B4801F06AF972
:100A40000D4B0B4A7121084801F064F9044B054A2B
:100A50006821054801F05EF941701A70DDE7C04673
:100A6000C47600102C790010E07600103877001062
:100A700008790010447700105077001070B5060018
:100A80000D001400002914D0002A14D08068736867
:100A90009847002806D0220029003000FFF79CFF6D
:100AA000280007E02A0021003000FFF795FF200012
:100AB00000E0100070BD0800FCE70000F0B583B056
:100AC0000500009201930AAB1C780BAB1F78002C39
:100AD00026D003685A7B944207D10123002B19D1F9
:100AE000002C3BD1200003B0F0BD002C0CD01A7BB1
:100AF000944209D81A6863001B19033BD3189B78EA
:100B0000002BEBD00123E9E73E4B3F4A68213F48E9
:100B100001F000F93E4B3F4A67213F4801F0FAF8E7
:100B200003689C7B002CDBD012D01A7B94420FD838
:100B300062001219033A19688C466244517899731D
:100B4000002900D1D9730023937053701370C7E745
:100B50002C4B2D4A68212D4801F0DCF8002C3AD0AE
:100B60002B681B7B9C4236D82C4BE3181B01AA68D0
:100B700094466344009A1A60019A5A60089A9A60EF
:100B8000099ADA602E68002C2BD030D0337B9C423F
:100B90002DD863001B19033B32689446634400223E
:100BA0009A705A701A70717B22003000FFF766FF4E
:100BB0007073844200D095E7287D009A019B00F075
:100BC00035FC061E01D0002F17D00C9B002B00D146
:100BD00088E71E7086E7124B124A3C210E4801F04E
:100BE00099F8114B114AA521084801F093F8054BDB
:100BF000054A6821054801F08DF82868210000F0B9
:100C00004DFEE2E7C47600102C790010E07600106B
:100C100068770010387900105C760010FFFFFF0F36
:100C2000A0760010C0780010587600101C790010D3
:100C3000F0B5DE4657464E464546E0B58BB00990C6
:100C4000002308938200B54BD658370052E0B44BCE
:100C5000B44A3F21B44801F05DF8B44BB44A3C219A
:100C6000B44801F057F8002901D1002869D10021CA
:100C7000404600F009FEA04219D12A686B6806922E
:100C80000793AB689846EB689A464346002B14D00E
:100C9000002C18D03B681B7B9C4214D8631EFA685A
:100CA000D35C08931B0218433861002015E0A24B67
:100CB000A24A8E219F4801F02DF8A14B9F4A922114
:100CC0009C4801F027F8994B9E4A4121994801F030
:100CD00021F800239A46984600207B68BFF35F8F77
:100CE00000221A6086F310884346002B32D1002878
:100CF00000D10CE100F046FB02000B1EA7DB002038
:100D00000021069007917868EFF3108672B60168AB
:100D10000029FCD0BFF35F8F396888464C7B002CDC
:100D2000D7D09AD0097B8C4297D8874965182D0176
:100D3000B9688C46654428686968801A9941002919
:100D400091DD2A686B68099800F070FB00239A46D1
:100D50009846C2E7089B1B02234399465146180058
:100D6000C04705000E007A68EFF3108B72B6136867
:100D700059424B41D9B2002BF9D1BFF35F8F002EFE
:100D80001EDB002E46DD3B69002B47D04B456DD165
:100D900000F0F8FA02000B1E6EDB52197341002BB3
:100DA00070DB002B72DB002104910131039102946E
:100DB00051460191414600913800FFF77FFE4CE01B
:100DC0003B69002BDDD04B4514D1069A079B521B83
:100DD000B341002B14DB002B16DB00210491013101
:100DE0000391029451460191414600913800FFF76A
:100DF00065FE32E0554B514AA1214E4800F08AFF72
:100E000001225242524BE6E7454B464A3F214648B3
:100E100000F080FF002E01D1002DB4D13B68002CE2
:100E200050D05A7B944237D1012100294AD1DA7B34
:100E3000002A4DD19A7B002A03D1DA7B002A5AD1AD
:100E40009C73DC73002C5CD03B681B7B9C4258D8A5
:100E5000FA68013C135D0133135500233B617A6846
:100E6000BFF35F8F13608BF3108843E7374B334A30
:100E7000A421304800F04EFF294B2A4A3F212A483E
:100E800000F048FF01225242314B8AE7244B254AA9
:100E90003F21254800F03EFF002C0DD01A7B9442E4
:100EA0000AD862001219033A18688446624492789C
:100EB000002ABAD00121B8E7264B274A68212748E3
:100EC00000F028FF264B274AF621244800F022FF95
:100ED000002A0AD0197B8A4207D851008A18033A9F
:100EE00019688C4662445470A4E71A4B1A4A682168
:100EF0001A4800F00FFF1C4B1A4AFB21174800F05C
:100F000009FF0A4B0F4A41210A4800F003FF0BB0CA
:100F1000F0BCBB46B246A946A046F0BDA0040020E6
:100F2000807500108C7800109C750010A076001061
:100F3000C07800105C76001090770010A478001044
:100F4000A8770010E4780010FFFFFF0FB4770010BF
:100F5000FFFFFF7FC47600102C790010E0760010B0
:100F6000F0770010F87800101478001010B50C4BD2
:100F70005B68002B04D00A210A48FFF795FC10BDDE
:100F8000074C2300084A1021206800F08DFB032045
:100F900000F0ECF903212000FFF7ACFCEBE7C046C2
:100FA00084020020580900205D09001010B5064B8E
:100FB0005B68002B01D0044810BD044B044A5E213D
:100FC000044800F0A7FEC0468402002028780010E4
:100FD000CC7800105C760010F0B5DE4657464E46E1
:100FE0004546E0B58BB0804616001F00149B9A461C
:100FF000159B994616AB1B789B461F2302AA944665
:10100000634400221A702BE0002809D0424612687F
:10101000127B904204D8421E4146C9688A5C41E076
:10102000404B414A4121414800F074FE07984CE092
:10103000361BAF41002F07DB002F11DA3C4B3D4A36
:101040003F213D4800F066FE012676423B4FF3E724
:10105000374B384A3F21384800F05CFE002F4FDB09
:1010600043465A68EFF3108472B6136859424B41F5
:10107000D9B20791002BF8D1BFF35F8F1F3302AABB
:101080009446634404930023039302934B460193D5
:101090005346009332003B004046FFF70FFD031E0E
:1010A000B2D1020041464968BFF35F8F00250D6051
:1010B00084F31088002B29D01F2302A98C46634497
:1010C0001B78002BB2D112021043002B20D05B46BC
:1010D000002B1DD04946D04704000D0003000B43F0
:1010E0001DD00029A4DB00F04DF906000F1EAFDB78
:1010F00036196F41002FB1DA012676420F4FADE766
:101100000B4B0C4A3F210C4800F004FE01204042EA
:101110000BB0F0BCBB46B246A946A046F0BD07984E
:10112000F6E7C046A0760010E47800105C76001068
:10113000807500108C7800109C750010FFFFFF7FF9
:10114000F8B504004268EFF3108572B61368584290
:101150004341D8B2002BF9D1BFF35F8FCBB22268E5
:10116000567BB3421BD10120002848D02069884219
:101170002BD0090AC9B2002B2ED02068007B8342F5
:101180002AD8581EE668305C88422BD0002063685D
:10119000BFF35F8F00221A6085F31088F8BD002B23
:1011A0000DD0167BB3420AD85E00F618033E1768CE
:1011B000BC466644B678002ED6D00120D4E7134B47
:1011C000134A6821134800F0A5FD9521124B134ADC
:1011D0004900134800F09EFD124B134A412110486C
:1011E00000F098FD1900100000F058FB0028CED147
:1011F00032210E4B094AFF31094800F08BFD23696B
:101200008B42C4D100232361C1E7C046C4760010DD
:101210002C790010E07600104C78001074780010E3
:101220005C760010A0760010E47800107078001052
:1012300070B584B005000C00EFF30583002B1ED1C0
:10124000FFF7B4FE002302930193224B00932A0080
:101250002300FFF7C1FE061E23DD20BFFFF7A6FE19
:101260003100FFF76DFF1C4B5B6A9C422DD81A4A78
:10127000926AAA422CD29C4225D0012026E0164B2D
:101280005B6A994209D8144A926A824207D299420B
:1012900001D001201AE0002018E0002016E0012013
:1012A00014E00D4B5B6A9C4209D80B4A926AAA4231
:1012B00007D29C4201D0012008E0002006E0002077
:1012C00004E0012002E0002000E0002004B070BD36
:1012D0000120FBE7350900100040054070B5EFF331
:1012E00005801038EFF3108C72B61A4B1B68002B78
:1012F000FBD0BFF35F8F01221300834016494B637D
:1013000016490B60164909780C00C440224214D0DB
:10131000114A546A8200134D5259944206D38200F6
:10132000114C125999430E4B197007E00A4A031DDC
:101330009B0099589950002200E00022BFF35F8F74
:10134000044B002119608CF31088002A00D09047CC
:1013500070BDC046280100D0004005403C700540EB
:10136000AE0A02205C0900201C04002010B5010018
:10137000024A0348FFF736F810BDC0465079001006
:10138000AC0A0220044B5B6A034A906A1900536A54
:101390009942F9D17047C0460040054070B504003D
:1013A0000D00EFF3108672B61B4B1B68002BFBD0B1
:1013B000BFF35F8F002D1CD02000FFF7D3F8174B31
:1013C00083420BD019002000FFF7D4F80121200040
:1013D000FFF7C0F80123A340114A1360A400114B8A
:1013E000E550BFF35F8F0C4B00221A6086F3108824
:1013F00070BDA2000B4B0021D1500122A2400A492E
:101400000B7893430B7005492000FFF7DDF80021AE
:101410002000FFF79FF8E4E7280100D0DD1200105C
:10142000386005401C040020AE0A0220F0B5DE46FC
:1014300000B584B00400150001921E000293FFF76E
:10144000A1FF03958E4202D84ED185424CD9EFF3CD
:10145000108B72B6274B1B68002BFBD0BFF35F8F3E
:10146000254A17780125A540EBB23B431370234B67
:101470005D63221D92000199D150A200204902987B
:1014800050501B6A2B4212D11C4B1B6C2B4208D0B4
:101490000020BFF35F8F174B00221A608BF3108878
:1014A00023E0184B184AC521184800F033FCFFF719
:1014B00069FF8E4214D802D1039B834210D80E4B91
:1014C0001B78BB420ED00D4B1D625D631F20044094
:1014D0000123A3400E4A1360074B1F701E38D8E744
:1014E0000020D6E70120D4E7012004B080BCBB4631
:1014F000F0BDC046280100D0AE0A022000400540E1
:101500005C09002074790010E479001098790010CB
:1015100080E200E0EFF3108C72B60B4B1B68002BDF
:10152000FBD0BFF35F8F01238340084A1362084951
:101530000A789A430A70BFF35F8F034B00221A6048
:101540008CF310887047C046280100D00040054049
:10155000AE0A022010B500291ED0037B99421BD889
:101560004B005B18033B0468A4466344002919D070
:10157000002A1DD0914221D0002A25D0047BA2420E
:1015800022D8046850008018033820188170197818
:1015900000291FD11A7010BD104B114A6821114843
:1015A00000F0B8FB104B114A6F310E4800F0B2FB4F
:1015B0000F4B0E4A70210B4800F0ACFB0D4B0B4A51
:1015C0007121084800F0A6FB044B054A6821054834
:1015D00000F0A0FB41701A70DDE7C046C476001031
:1015E000F87A0010E076001038770010E47A0010E6
:1015F000447700105077001070B506000D001400FD
:10160000002914D0002A14D08068736898470028F5
:1016100006D0220029003000FFF79CFF280007E0D9
:101620002A0021003000FFF795FF200000E01000A5
:1016300070BD0800FCE7000010B5002343730133C0
:101640008373037BC3730123027B9A4214D9002B5B
:101650000CD0027B934209D85A00D218033A016891
:101660008C4662440133DBB25370EDE70B4B0C4AFE
:1016700068210C4800F04EFB002A09D0924207D89E
:10168000016853009A18033A8A180023537010BD5A
:10169000024B034A6821034800F03CFBC47600106B
:1016A000F87A0010E076001010B501734260836094
:1016B000FFF7C2FF10BD000070B50400081E00D186
:1016C00070BD002934D0237B994231D84B005B1880
:1016D000033B2268944663445A78002AF0D02DD008
:1016E000237B9A422AD853009B18033B21688C46DF
:1016F00063445D7800215970002825D0237B9842EF
:1017000022D843001B18033B21688C466344002108
:10171000597001002000FFF76FFF0600290020002C
:10172000FFF7CAFF020031002000FFF765FFC7E79F
:10173000084B094A6821094800F0ECFA054B064AB3
:101740006821064800F0E6FA024B034A6821034884
:1017500000F0E0FAC4760010F87A0010E07600108D
:1017600070B505000C00160000292FD034D0037B83
:10177000994231D84B005B18033B0268944663449E
:101780005A78002A2ED19A78002A31D11978FFF799
:1017900093FF0300002E0AD0EA7B002A2ED1AA7BF9
:1017A000002A03D1EA7B002A3BD1AC73EC73002BF7
:1017B0003DD1002C4FD02B7B9C424CD82B68610034
:1017C0000C19033C1C190023637070BD254B264A7D
:1017D0003821264800F09EFA254B264A68212648E3
:1017E00000F098FA254B204A3A21204800F092FA5E
:1017F000234B1D4A3B211D4800F08CFA002A0AD0D9
:10180000297B8A4207D851008A18033A29688C46F6
:1018100062445470C3E7164B164A6821164800F01C
:1018200079FA184B104A4221104800F073FA002B45
:101830000BD02A7B934208D843001B18033B2A682D
:101840009446634400229A70B3E7094B094A682121
:10185000094800F05FFA064B064A6821064800F086
:1018600059FAC046007A0010D07A0010087A0010A9
:10187000C4760010F87A0010E07600104C7A001060
:10188000747A00101478001070B504000A00457BCB
:101890002900FFF765FF6073280070BD70B5040074
:1018A000002967D0437B8B420ED0002911D0037BE7
:1018B00099420ED84B005B18033B0268D01883781E
:1018C000002B0CD1002056E00121FFF7DDFF0120A5
:1018D00051E0294B294A6821294800F01BFA002BC6
:1018E00020D0227B93421DD85A00D318033B226894
:1018F000D2182568EB5C8B421AD0002B1BD0227BC0
:10190000934218D85A00D318033B2268D218537850
:101910008B4216D0002BF0D11A4B1B4A6B211B486F
:1019200000F0F8F9144B154A6821154800F0F2F957
:101930004378137007E0104B104A6821104800F0FC
:10194000E9F943785370002383704370012220002B
:10195000FFF706FF0200617B814205D02000FFF700
:101960004BFE6073012006E0094B074A71210748CE
:1019700000F0D0F9002070BDC4760010F87A001095
:10198000E076001098740010B87A0010087A001001
:10199000987A0010F8B5DE4657464E464546E0B503
:1019A00005000F0092460A9A93424ED31A0E9146B2
:1019B0001E020A9A00233000494601F0A3FB80462C
:1019C0006C006419A4002F4B9C46644463688342F6
:1019D00000D260602B1FDBB29B46012B3BD9C0239A
:1019E0009B012343802212011A60AB00264A9958BA
:1019F000002905D0506901F047FB01300138FDD1C5
:101A000053465A0123685A40E0231A4080235B0161
:101A100023431A605A46012A28D980239B01234375
:101A2000802212011A604346636042460023300060
:101A3000494601F067FBAD00134B58510120F0BC43
:101A4000BB46B246A946A046F8BD104B104A2D2110
:101A5000104800F05FF9012FC1D1C0239B0123433F
:101A600003221A60A368DB07FCD5C9E72168794027
:101A700003220A401A60A2680123BB401342FAD035
:101A8000CBE7C0460080004030040020047B0010FB
:101A9000687B0010187B001030B583B00C2000F07C
:101AA00017F9FEF77FFC00280DD0002304E0990011
:101AB0002D4A2E4888500133092BF8D92A4B2C4A3D
:101AC0005A6203B030BD2B4B00229A6700F008F930
:101AD000294B01221A60274B5B6C012BFBD1274B52
:101AE00003221A60234B9B6B012BFBD10133009324
:101AF0000433234A0121234800F054F805230093BE
:101B0000214A0121214800F04DF8214B0093002289
:101B100002210420FFF73EFF1E4D00952B000022FE
:101B200001210520FFF736FF104C0094230000220E
:101B300000210720FFF72EFF009423000022002140
:101B40000820FFF727FF0A4B009323000022002103
:101B50000920FFF71FFF00952B000022002106201F
:101B6000FFF718FFADE7C04630040020006CDC0230
:101B70001BB70000008000403CB0004030B0004087
:101B8000002F685900800240008C864700C0024048
:101B9000001BB700405973078000014BC0587047C5
:101BA00030040020F0B5C64600B504000D00170053
:101BB00098460C2001F068FA0600394BFA18394BA8
:101BC0009A4241D843011B1A9901C91AC900091840
:101BD0008901380001F058FA0200103A98235B009E
:101BE0009A4237D84346013B062B39D8069B013B26
:101BF000062B35D83F09B74238D343461E04069B0F
:101C00001A0316432368002B36DB274B9C4244D033
:101C100080225201254B1A60254B1A60254B9B6888
:101C200011009943FAD12560A060231DC0229201C2
:101C30001A43212313602368002BFCDAE660082393
:101C4000136080BCB846F0BD1B4B1C4A11211C48D8
:101C500000F060F81B4B194A1921194800F05AF896
:101C6000194B164A1C21164800F054F8174B134A1A
:101C70002321134800F04EF822683F231340AB4263
:101C8000C3D1A3681B051B0D8342BED1E368EE22BE
:101C9000D2021340B342B8D1D3E780229201B9E710
:101CA00080E84BD380F8A93200C0024000E0004039
:101CB00000F0004000C00040787B0010A47C0010C1
:101CC000D87B0010207C00103C7C0010887C001029
:101CD00080239B000343014AD36270470080054084
:101CE000064BAA2212011A602F22DA60044B054A21
:101CF0001A60024B5B68002BFBDA70470040024021
:101D00000060024000B0FA0000BEFDE710B5FFF72A
:101D1000FBFF000010B582B00C001900002A0CD0A7
:101D2000084B002A0BD001920093230002000648C2
:101D300002F0CEF90120FFF7E7FF044BF1E7034A79
:101D4000F1E7C046B07C0010C07C0010BC7C0010E5
:101D500070B52B4B2B4A1A602B4B2C4A1A602C4B1C
:101D60009A682A4B9343FAD12A4C01E008CC984751
:101D7000294B9C42FAD3FFF78FFE234B274A1A6068
:101D8000234B9B68DB43DB01FAD1254B40229A674A
:101D90005A671A67DA66234C09E0234B234A8621E7
:101DA0002348FFF7B7FF2000FEF786FD0834214BDC
:101DB0009C4209D22368002BF5D0012BEDD12000E5
:101DC000FEF788FD0C34F2E71B4CA1681B4DC022C6
:101DD000280002F03BF8A560EFF30583002B00D04C
:101DE00000BEFEF719FBFEF751FDFFF7BFF8144CDC
:101DF00001E008CC9847134B9C42FAD370BDC04613
:101E000000E00040BFCDFBFE00F00040FE7F3C0044
:101E100000C00040E8020020F8020020FFFFFF01A0
:101E200000F00140D8020020F07C0010807D0010FE
:101E3000107D0010E802002000ED00E0000000200E
:101E4000F8020020000300200FB400B583B008485A
:101E500002F00EF9049B002B07D005A90191180090
:101E600002F016F9034802F003F90120FFF74CFFD6
:101E70005C7D00106C7D001010B50148FFF7E4FF99
:101E8000707D0010704710B5002802D00B684968BB
:101E9000984710BD0100002007E083001B185B007D
:101EA000501C08601078C01830380A681378303B2E
:101EB000DBB2092BF1D97047F0B5DE4657464E46E6
:101EC0004546E0B583B093461F000C9B9A460D9C97
:101ED0000E9B99460F9B9B0703D0B8460F00060048
:101EE00022E00192A34688464E46B9460700B44216
:101EF00007D2551C4B4641462020B84701342A00E2
:101F0000F5E73D004F465C46019B9B46B146464681
:101F1000B84637002E0007E0013C551C5346185DBB
:101F200043463900B0472A00002CF5D135003E0069
:101F300047460F9B9B0707D4100003B0F0BCBB467D
:101F4000B246A946A046F0BDB0464E46B9462F005F
:101F50005D46531BB342EFD2541C4B4641462020F2
:101F6000B8472200F5E7F0B5CE46474680B585B0C4
:101F7000944698460C9D0D9C0EAB1B789946109A82
:101F8000119B129EB7071CD4002B0CD0F7070AD563
:101F90004F46002F02D10C37374204D0013B02E0FC
:101FA00030272F550134944201D21F2CF8D9F7075E
:101FB00007D59C4205D21F2C03D830272F5501345A
:101FC000F5E7F70615D5770505D4002C03D0944224
:101FD00024D09C4222D00F9A102A2BD00F9A102A7C
:101FE00030D00F9A022A35D01F2C02D830222A5521
:101FF00001341F2C05D84A46002A31D02D222A55FB
:102000000134039602930194009543466246FFF71C
:1020100053FF05B0C0BCB946B046F0BD621E012CEE
:1020200006D00F9F102F01D01400D4E7023CD2E756
:102030001400D0E7B206D1D41F2CCFD878222A556D
:102040000134D1E7B206CCD51F2CCAD858222A5564
:102050000134C9E71F2CC7D860322A550134C3E7C1
:10206000720703D52B222A550134CAE73207C8D597
:1020700020222A550134C4E7F0B5DE4657464E46C5
:102080004546E0B593B081468A46089209931CAB59
:1020900010CB1B789B461E9D219B9846002C03D19C
:1020A000102342469A4390468023DB0046461E405A
:1020B00042461A4212D0002C22D000260EE03033C5
:1020C000D9B2771C0AAB99552900200000F0DCFF3B
:1020D000AC4216D31F2F14D83E0004002900200064
:1020E00000F0D2FFCBB2092BE9D94246920605D5C2
:1020F0004121C918C9B20A39C9B2E2E76121F8E73A
:10210000270043460693209B05931F9B049303954A
:102110005B46029301970AAB0093099B089A5146CC
:102120004846FFF720FF13B0F0BCBB46B246A946B5
:10213000A046F0BDF0B5DE4657464E464546E0B5F2
:1021400095B0089009910A920B931E9E1F9C20AB9C
:102150001B789B46229B9946239D269B9A463300DB
:10216000234303D1103352469A4392468023DB0027
:1021700057461F4052461A4219D0330023432DD0F0
:10218000002714E03033DAB27B1C98460CABDA55EA
:102190004A462B003000210000F0B4FFA5421FD8B2
:1021A00019D043461F2B1BD8474606000C004A4651
:1021B0002B003000210000F0A5FFD3B2092BE1D99C
:1021C0005246920605D54122D218D2B20A3AD2B26C
:1021D000DAE76122F8E7B145E3D901E00023984648
:1021E00053460693259B0593249B04934B460393E8
:1021F0005B460293434601930CAB00930B9B0A9AF8
:1022000009990898FFF7AFFE15B0F0BCBB46B2467F
:10221000A946A046F0BD0000F0B5DE4657464E4642
:102220004546E0B591B083468A460C9298461A9C82
:1022300008941B9D099522002B002000290001F025
:10224000ECF9002800D0E5E001225242D74B2000F3
:10225000290001F0DDF9002800D0DBE00122524224
:10226000D34B2000290001F0BDF9002800D0D1E0B7
:1022700000220023089E3000099D290001F0B2F9D8
:10228000002800D0DDE00898099906900791802386
:10229000DB001E9A1A400D921E9A1A4201D10623A3
:1022A0001C930698079904000D000A0006000243DB
:1022B00000D1D1E0080D4005400DBE4CA44660445D
:1022C0000A03120BBC4B13431F0001F0B9F9BB4AC0
:1022D000BB4B01F044F9BB4ABB4B01F019F90400B8
:1022E0000D000022B94B3000390001F008F9B84A5E
:1022F000B84B01F034F902000B002000290001F076
:1023000007F901F0B5F9814601F09AF904000D00D2
:10231000B14AB24B01F023F90022B14B01F0F8F8B9
:1023200001F0A6F90600AF4AAF4B2000290001F0EA
:1023300016F904000D00300001F082F9AB4AAC4BF5
:1023400001F00DF902000B002000290001F0D7F880
:1023500004000D0002000B0001F001F90A900B913E
:10236000A44BF31800261F0522002B002000290093
:1023700001F0CEF80E900F9122002B00002080215A
:10238000C90501F0BCF804000D0000229A4B0A9820
:102390000B9901F0C6F80022984B01F0B9F8020041
:1023A0000B000A980B9901F0BCF80022944B01F045
:1023B000AFF802000B000A980B9901F0B2F8020086
:1023C0000B002000290001F0A3F802000B000E987A
:1023D0000F9901F0A6F80022774B01F099F832002E
:1023E0003B0001F0BCF806000F0004000D00069A47
:1023F000079B01F00DF9002830D001235B429C4679
:10240000E14400227D4B3000390001F08AF80400DD
:102410000D0023E01E9B04931D9B03931C9B0293C2
:10242000089A099B0092019343460C9A51465846DC
:1024300000F0FCF811B0F0BCBB46B246A946A0467D
:10244000F0BD0023002406930794069680231B0604
:102450009C46654407951AE7002399464B4663332B
:10246000C62B1ED804261E9B1B0526D52B002343F6
:102470000FD0644A644B0698079901F0C1F8002810
:1024800079D00022614B0698079901F0ABF800283B
:1024900071D01C9B4B4506DD4A46981A431E1C937F
:1024A00003E00526DFE700231C938023DB001E9A50
:1024B0001A431E920026002399461D9B9E4264D219
:1024C0009F1B02231E9A1A400A921E9A134202D0A0
:1024D000002E00D000274B46002B07D022002B00F7
:1024E0000698079901F01DF8069007910022002335
:1024F0000898099901F076F8002848D1444B1E9AB3
:102500001340049303971C9B0293069B079C009324
:10251000019443460C9A5146584600F087F8002E25
:1025200000D187E71E9B9B063DD54525441C4346AD
:10253000020051462800D8474B46DA179B185340F3
:1025400005220592013E0496002203920A3202926D
:102550004A46D00F01900093434622005146584608
:10256000FFF78AFD0A9B002B00D163E702005F465C
:102570000C9E1D9D54E01C9B002B9ED00D9B002BA0
:102580009BD01C9B013B1C9397E7002799E7069C77
:10259000079D2200290080200006844661440B002C
:1025A00006920793AAE76525C0E7C046FFFFEF7FC5
:1025B000FFFFEFFF01FCFFFF0000F03FFB799F50A2
:1025C0001344D33FB3C8608B288AC63F0000F83F4E
:1025D00061436F63A787D23F71A379094F930A4084
:1025E0000000E03F1655B5BBB16B0240EF39FAFE73
:1025F000422EE63FFF03000000002C400000244074
:10260000000018402D431CEBE2361A3F80842E4117
:10261000FFF7FFFF541C434651462020B8472200D5
:10262000931BAB42F6D3100004E7C046F0B5DE467C
:1026300057464E464546E0B595B0069007919346FD
:102640009946209F1E9A1F9B1000190000F0E5FF7D
:10265000002831D101225242BF4B1E981F9900F031
:10266000C1FF002837D101225242BC4B1E981F994E
:1026700000F0CEFF00283DD10022B94B1E981F99D3
:1026800000F0C6FF002850D10022B64B1E981F99BB
:1026900000F0A8FF002848D1002200231E981F99AF
:1026A00000F0A0FF002850D100239846229B5B0534
:1026B00000D4B6E0002458E0229B0393219B0293B0
:1026C00003230193A84B00934B465A46079906985B
:1026D000FFF7F2FB0EE1229B0393219B029304235D
:1026E0000193A24B00934B465A4607990698FFF771
:1026F000E3FBFFE00423229A1A4022990B4210D0F8
:102700009B4B002A0FD00422229903912199029118
:10271000019200934B465A4607990698FFF7CCFB67
:10272000E8E0944BEDE70322EEE7229B0493219B24
:10273000039302971E9B1F9C009301944B465A469D
:1027400007990698FFF768FDD4E01E9A1F9B0020AA
:10275000002100F0D4FE1E901F9101239846A5E7AA
:102760000CAB30221A55013F01341F2C01D8092F20
:10277000F6D81E981F9900F07BFF050000F060FF5F
:1027800002000B001E981F9900F0B9FEFA007A4B68
:102790009B181A685B680A920B9300F0E0FE0890A1
:1027A000099100F089FF060000F046FF02000B00CF
:1027B0000898099900F0A3FE0890099100226F4B38
:1027C00000F026FF00282ED00136300000F034FF44
:1027D00002000B000A980B9900F00AFF002801D0B4
:1027E00001350026002F2CD1280000F029FF02001F
:1027F0000B001E981F9900F082FE06000F000022B9
:102800005E4B00F0EFFE002846D100225B4B30000B
:10281000390000F0FDFE00283ED1EB073CD5013524
:102820003AE0062746E70022544B0898099900F041
:10283000D9FE0028D6D1002E01D0F307D2D501361B
:10284000D0E7AA461F2C11D8013F0A21300000F022
:102850001BFC651C30310CAB19550A21300000F00F
:1028600013FC092E0ED906002C00EBE755461F2C51
:102870000CD87B1E002F09D00CAA302111551F0047
:102880000134F4E72B0055461C00F0E71F2C03D859
:102890000CAB2E221A5501341F2C10D80A21280007
:1028A00000F0CAFB661C30310CAB19550A21280018
:1028B00000F0C2FB051E01D03400EDE73400032315
:1028C000229A1340012B1CD01F2C06D84346002B04
:1028D00032D00CAB2D221A550134229B0393219B3D
:1028E000029301940CAB00934B465A460799069805
:1028F000FFF7E2FA15B0F0BCBB46B246A946A046C7
:10290000F0BD219B002B13D04346002B02D10C338A
:1029100013420FD0219B013B2193190003E00CAB24
:1029200030221A5501348C42CED21F2CF7D9CBE776
:102930002199F8E72199F6E7229B5B0704D50CABB8
:102940002B221A550134C8E7229B1B07C5D50CABB7
:1029500020221A550134C0E7FFFFEFFFFFFFEF7F92
:1029600065CDCD4165CDCDC19C7D0010A07D001011
:10297000947D0010907D0010887F00100000E03FE3
:10298000F0B5DE4657464E464546E0B593B0824622
:102990008B4690461193002900D1EBE20027554663
:1029A000119B1878002800D1E7E2252809D07C1C6B
:1029B00043463A005946A847119B0133119327001B
:1029C000EEE7013311930024119A11780B00203B9C
:1029D000D8B2102803D88300D048C3589F460B00B4
:1029E000303BDBB2092B2CD92A292FD000230A93A4
:1029F000119B1A782E2A39D000239A46119A1378FF
:102A0000683BD9B2122976D88B00C549CB589F466E
:102A100001231C4301321192D6E702231C430132E9
:102A20001192D1E704231C4301321192CCE7082311
:102A30001C4301321192C7E710231C43013211924B
:102A4000C2E711A8FFF726FA0A90D1E71C9B1A1DCE
:102A50001C921868002804DB0A90119B0133119323
:102A6000C6E702231C4343420A93F6E78022D200C2
:102A700014435A1C11925A781300303BDBB2092BD5
:102A800004D92A2A07D000239A46B7E711A8FFF7EE
:102A900001FA8246B2E71C9B1A1D1C921868002896
:102AA00004DB8246119B01331193A7E70020F8E76E
:102AB00080235B002343511C119152786C2A01D072
:102AC0001C0018E0C0239B001C430131119112E04F
:102AD00080232343511C11915278682A01D01C0095
:102AE00009E0C0231C430131119104E080235B0005
:102AF0001C4301321192119B18780300253BDAB276
:102B0000532A00D92CE29300864AD3589F4680234B
:102B10009B001C4301321192EDE780235B001C43B4
:102B200001321192E7E7782809D0582838D06F2869
:102B300038D0622838D010239C430A2600E01026A3
:102B4000582833D0692803D0642801D00C2294433C
:102B5000630501D50122944369282AD0642828D02E
:102B6000A30500D59FE0E30500D5B8E0630600D4D7
:102B7000CAE01C9A111D1C911168FF220A4005949D
:102B80000A9B0493534603930296002301930092F9
:102B900043463A0059462800FFF76EFA070027E03F
:102BA0001026CDE70826CBE70226C9E720221443EA
:102BB000C8E7A30520D4E30550D4630666D51C9A64
:102BC000111D1C911168FF220A40D317D1185940DA
:102BD00005940A9B0493534603930296D20F0192E5
:102BE000009143463A0059462800FFF745FA07008E
:102BF000119B01331193D3E61C9BDA1D07218A43F5
:102C0000110008311C91116853689C46DB170C9326
:102C10000D930C9A0D9B100048400E906246534055
:102C20000F930E980F990C9A0D9B801A99410E9054
:102C30000F9108940A9B079353460693049600232A
:102C400005936346DA0F02920090019143463A00E1
:102C500059462800FFF76EFA0700C9E71C9A111DB4
:102C60001C911268D317D118594005940A9B0493FC
:102C7000534603930296D20F0192009143463A00C5
:102C800059462800FFF7F8F90700B1E7230605D5F4
:102C90001C9A111D1C910023D25E96E71C9A111DEF
:102CA0001C91126891E71C9BDA1D07218A431100D1
:102CB00008311C9108940A9B079353460693049687
:102CC00000230593029313685468009301944346CC
:102CD0003A0059462800FFF72DFA070088E71C9AAA
:102CE000111D1C9105940A9B04935346039302966D
:102CF000002301931368009343463A005946280085
:102D0000FFF7BAF9070073E723060DD51C9A111DCA
:102D10001C9112681204120C31E7C046A87D001005
:102D2000EC7D0010387E00101C9A111D1C91126859
:102D300025E746281AD01C9B0733072293431A0025
:102D400008321C9204940A9A0392524602925C68DA
:102D50001B680093019443463A0059462800FFF748
:102D600065FC0700119B0133119319E620231C43D6
:102D7000E1E7672801D0472802D180231B011C43CB
:102D8000452801D0472801D120231C431C9B073331
:102D9000072293431A0008321C9204940A9A039261
:102DA000524602925C681B680093019443463A00C5
:102DB00059462800FFF730FA0700119B01331193A1
:102DC000EEE502231A002240924623421FD001243E
:102DD0001C9B1A1D1C927A1C9146187843463A0097
:102DE0005946A8475346002B16D1119B0133119326
:102DF0004F46D5E5561C434659462020B847230088
:102E000032005C1C9D42F5D83D001700E0E701232D
:102E10003A002F000A9DF4E74A46A9460A9D06E0BB
:102E2000571C434659462020C84734003A00661CC8
:102E3000A542F5D84D469146D7E71C9B1A1D1C921A
:102E40001B6899465346002B00D1013B4E4601E0DA
:102E5000013613003278002A02D05A1E002BF7D117
:102E60004B46F21A10928023DB0026001E401C42C3
:102E700003D0524501D95346109302231A00224031
:102E80000B92234205D03A0037004C46A9465546DE
:102E900020E03A00109B5F46B3462E0006E0551C2A
:102EA000434639002020B04723002A005C1C0A99C1
:102EB0009942F4D835005E46BB46109437004C4624
:102EC000A946554606E01D000134561C43465946A6
:102ED000C84732002078002804D0002FF4D06B1EA1
:102EE000002DF0D117004D460B9B002B03D1119BF9
:102EF0000133119354E50A9F109B06E0561C43468C
:102F000059462020A847230032005C1C9F42F5D878
:102F10001700ECE721231C431C9B1A1D1C921B6805
:102F200000930594082304935346039310230293BC
:102F30000023019343463A0059462800FFF79CF8C6
:102F40000700119B013311932AE57C1C43463A008C
:102F500059462520A847119B0133119327001FE5EF
:102F60007C1C43463A005946A847119B01331193F4
:102F7000270015E50A4B9A4610E5AA46474502D3B5
:102F800043465A1E00E03A00434659460020D047C7
:102F9000380013B0F0BCBB46B246A946A046F0BD0F
:102FA000851E001000B585B00290039101210093A9
:102FB00013004A4202A90248FFF7E2FC05B000BD37
:102FC000871E001001480421014B1847B002002061
:102FD00001300010014B5B6818470000B002002070
:102FE00010B5010018231B8814221088984710BDC3
:102FF00010B5010018231B8816221088984710BDB1
:10300000F0B5C64600B507000E000025012398461E
:1030100000E00135B5420AD2AC003C192068FFF748
:10302000DFFF20600028F4D100239846F1E74046F6
:1030300080BCB846F0BD0000124A936F9B0815D2C1
:103040009066D166002905D0FFE7FFE7FFE7516FE3
:10305000106F704704B580210906C217514000283F
:1030600000D0C84304F0ECF8002104BDF0B5146EA4
:10307000556E576F166FFFF7E3FF14665566576777
:103080001667F0BD000000D0114A936F9B0813D261
:1030900010665166002905D0FFE7FFE7FFE7516F93
:1030A000106F704704B5002801D00020C04304F021
:1030B000C7F8002104BDC046F0B5146E556E576FB9
:1030C000166FFFF7E5FF1466556657671667F0BD84
:1030D000000000D094464A4A926F9208624601D29C
:1030E00028E0C046F0B5464E346E756E776F366F89
:1030F00000F020F89446424A1466556657671667F2
:103100006246F0BD94463E4A926F9208624601D2F2
:1031100054E0C046F0B53A4E346E756E776F366F38
:1031200000F04CF89446364A1466556657671667A1
:103130006246F0BD002B24DB11D000293EDA00B539
:10314000C943404200D1013100F038F8C943404240
:1031500000D10131DB43524200D1013300BD002ACE
:10316000EBD1002801D1002905D00020C90FC907E3
:1031700001D1C043410800B504F05AF800220023F1
:1031800000BD00B500290ADBDB43524200D1013308
:1031900000F014F8C943404200D1013100BDC943D9
:1031A000404200D10131DB43524200D1013300F0F3
:1031B00005F8DB43524200D1013300BD002923D181
:1031C000002B18D1002A0CD0BC460D4F38667A6609
:1031D00000210023FFE7FFE7FFE77A6F386F6746BC
:1031E0007047002801D00748010000B504F020F81E
:1031F0000022002300BD02000B00002000217047C8
:10320000000000D0FFFFFFFF002B00D0BFE0130C39
:1032100028D1002AE7D080B4114F39667A66FFE7DB
:10322000FFE730B4040C7B6F396F1B0423433B660C
:103230007A66FFE7FFE7FFE7C04684B27B6F3D6F2A
:103240001B0423433B667A66FFE7FFE7C046002383
:103250002C042D0C7A6F386F00196941B0BC70478F
:10326000000000D0F0B594460025140E01D11202E2
:103270000835140F01D112010435940F01D19200C9
:103280000235D40F01D152000135D40B0134254F42
:103290007C66254C3C660E0C93B2FFE7FFE7FFE728
:1032A0003C6F6643360C7703BE467343DF0B5B040B
:1032B000C01AB941130C7343DB18C91ACE08664310
:1032C000360CB64493B273431F0F1B01C01AB941A9
:1032D000130C73431F0B1B05C01AB941860D8F02D7
:1032E0003E436643360C092D24DB520A7243801A92
:1032F0007703460A6643360C16235B1BDE40DF402D
:10330000BF1964466643821B7046043506330100CC
:10331000D940A840C01900D30131A24206D20023EF
:10332000F0BD0000000000D0FFFFFFFF121B0130C6
:10333000F3D3F1E709277F1BFE406446A2B2724334
:10334000801A00D20139220C7243130C1204821A23
:1033500099410B007046043513370100F940A8402D
:10336000801900D30131002B02D1A2420AD2F0BD54
:10337000013000D30131121BFAD2013BF8D1A24235
:1033800000D2F0BD013000D30131121BF7E7F0B5D8
:103390001C0C00D080E00CB400251C0A04D11B02D8
:1033A000160E3343120208351C0B04D11B01160FF5
:1033B0003343120104359C0B04D19B00960F334319
:1033C00092000235DC0B02D192185B4101351C00E2
:1033D000971864410134464F7C66464C3C660E0C9F
:1033E000FFE7FFE7FFE7C0463C6F6643360C770315
:1033F000BE4697B27743C01B00D20139C01B00D232
:1034000001399FB27743C91BC91B170C77437E0450
:10341000FF0B801BB941CE086643360C0C2D33DB05
:10342000B644120B1F053A431B0B97B27743C01BE0
:1034300000D201399FB27743C91B170C77433E0472
:103440003F0C801BB941860D8F023E4366432927FE
:103450007F1BFE400C3D7746AF40BF1930BCA2B287
:10346000ABB272437343801A9941220C7243130C1E
:103470001204801A994102000B000137001BA94178
:10348000F9D2781E0021F0BD0C277F1BFE40774645
:103490007F0BAF40FF19E0E700245D1C07D0144FFD
:1034A0007D663966FFE7FFE7FFE7FFE73C6F95B210
:1034B0009EB265436643401BB141150C1E0C65432B
:1034C000664336042F0C3E432D04401BB141994204
:1034D00004D202000B0020000021F0BD01D1904277
:1034E000F7D3801A994101349942F2D3F6E70000EC
:1034F000000000D0FFFFFFFF48404140484018B4A3
:103500001B4B5B68FC46019308BD04DFD3370010FA
:1035100018B4174B1B68FC46019308BD00DFDD376C
:1035200000109446134A926F920809D2624618B46A
:103530000F4BDB68FC46019308BD0CDF953A001089
:103540000C4AF0B5146E556E576F166F6246FFF752
:10355000EEFF084A1466556657671667F0BD18B443
:10356000034B9B68FC46019308BD08DF3939001006
:1035700054070020000000D0FFB5504042405040AA
:1035800059404B40594000E0FFB5154F4C00640DC9
:1035900003D0BC4204D10C0314D80020090D090546
:1035A0005C00640D03D0BC4204D11C030AD8002285
:1035B0001B0D1B0501264B4009D44B4003D58B4204
:1035C00000D18242FFBD9942FCD19042FFBD0B4326
:1035D000DB1803431343F5D0C9434918FFBD00006E
:1035E000FF07000000B5FFF7CFFF804100BDC046D8
:1035F00000B5FFF7C9FF01D9002000BD012000BDC3
:1036000000B5FFF7B9FF01D9002000BD012000BDC2
:1036100000B5FFF7B1FF804100BD012040054A0021
:10362000121804D85A00121801D80020704701203F
:1036300070470020704700000021002805D1704726
:10364000C1174840401AFAD0C90713B5064B1B688A
:1036500098470CBC441CA2401005120B0349091BDF
:1036600009051943114310BD540800201F04000030
:1036700010B54C00620D8023D218DB00D21A5B0516
:103680007E2A10DD9E3A13DACC1709034908194344
:103690005242D140640001341532202A05DAD0406C
:1036A0000843604310BD002010BD0846604310BDB4
:1036B000C80FC018013810BD18B4044B5B6AFC4633
:1036C000019308BD24DF453C001000005407002092
:1036D00070B513231C78012C14D0012C14DC022C9F
:1036E00002DC1F4A1F4B9A641F48FFF779FC1F4BEF
:1036F000186070BD99001A481A4A885001331F2B70
:10370000F8D9EAE70023FAE71948FFF771FC05004A
:103710001848FFF76DFC023803789B007F2B19DDFA
:10372000802229000F4800F091FB022CD7D1124BC8
:103730001A88B5231B029A4209D1104B1A88104BE4
:103740009A4204D10F4B1A880F4B9A42C7D00020DF
:10375000FEF77AFB0D4B0E4A32210E48FEF7DAFADD
:1037600099370010540700204C3300005408002003
:10377000534400005346000054380000D83800007D
:10378000494600009C38000059460000D87F0010D0
:103790008C8000103880001007B56046002800D1EA
:1037A00000BE01880A0A0230DF2AFAD1C9B28208B3
:1037B00004D3028840880004104300E00068024AF5
:1037C0005050039007BD0000540700200FB403BC05
:1037D0000CBCF0B50124E407634000E0F0B50C0D2B
:1037E000CF0F661E3605891B640503D3C9434042CB
:1037F00000D30131640D03D0661CF60A07D0E41B28
:1038000000207F00791C89078912803C24031D0D4C
:10381000DF0F6E1E36059B1B6D0503D3DB43524243
:1038200000D301336D0D03D06E1CF60A07D0ED1BDB
:1038300000227F007B1C9B079B12803D2D032F1BCA
:10384000661B58D4A446202E46DA20371400BC400C
:103850001D00BD40F24033412A4380185941CB0F2F
:1038600005D0C943C04300226442504151416246E1
:103870004D0D28D10D0D07D100281FD0241940412E
:103880004941013A0D0DF9D0640006D3013000D34F
:103890000131002C01D140084000013A0BD4941CA6
:1038A000E40A04D112051144DB071944F0BDD9071D
:1038B000204B194300E0D9070020F0BD0029DDD1DD
:1038C000002CDBD1F0BD0132C6074008CD072843EC
:1038D0004908002EE1D0D9E73C2E29DA203E4037B6
:1038E0001400BC4000D00124F24014431A00BB4035
:1038F0001C43D317ACE7AC46202F08DA203604006F
:10390000B4400D00B540F84039412843A5E73C2FAD
:103910000CDA203F40360400B44000D00124F840C7
:1039200004430800B1400C43C117EAE71000190036
:10393000002494E70000F07FF0B50C0D661E3605FC
:10394000891BE60A6405640D02D0651CED0A04D0EB
:10395000002001210905803C2403A4461C0D671E9C
:103960003F05DB1BE70A6405640D02D0651CED0A08
:1039700004D0002201231B05803C240377406444CB
:1039800097B484B296B27443070C7E43150C6F4310
:1039900080B26843361802D3012000043F18300477
:1039A000350C00197D41844688B29AB250430C0C04
:1039B00062431F0C7C438EB27E43921902D30126D0
:1039C0003604A4191604170C3618674101BC81B2DD
:1039D0009AB25143040C62431B0C5C4380B25843BF
:1039E000121802D30120000424181004130C4018EC
:1039F00063412D185E410020474106BC88B293B256
:103A000058430C0C6343120C544389B251435B1866
:103A100002D301210904641819041A0C091862411F
:103A20006D1856410020474118BCF902720D114330
:103A3000F0026A0D1043ED020A0D03D16D194041E9
:103A40004941013B124E9B1B7600B3420ED26D00E2
:103A500007D30130002671416646354301D1400845
:103A600040001B05C918E4072144F0BD0BDA0133FF
:103A700006D1013004D101314F0D01D04908F2E7E0
:103A8000E1070020F0BD013631050020EBE7000022
:103A9000FF030000F0B51C0D671E3F05DB1BE70AA6
:103AA0006405640D02D0661CF60A04D000220123CE
:103AB0001B05803C2403D0252D060026F6432E66E8
:103AC0001E096E66CE0FF619B44649004F0D02D09E
:103AD0007E1CF60A03D000200021403F3F033E1B1E
:103AE000B600B444013F7F05C91B49082E6F01365B
:103AF00076089C02950D25437543ED137543AD1370
:103B000001356D10F603761B0CB4CC02450D2C4329
:103B1000A2B2B3B25A43270C7B43350C6F43A4B215
:103B20006C431B1902D3012424043F191C041D0CEF
:103B3000A4187D4124196D41009A91B2ACB2614341
:103B4000170C7C432B0C5F4392B25A43A41802D348
:103B500001221204BF182204230C52187B41019C3D
:103B60006C431B19520ED9010A434401A01A81B2B9
:103B7000B2B2514303145A43360C734387B27743AE
:103B8000D617D21900277E4136049B191704160C4C
:103B90007F185E417316ED18F301002680337541DE
:103BA000A90F06D16400690AE8055B0A184309D227
:103BB0002FE00422944480337541A90AA8059B0A8A
:103BC000184326D3404149412404009A019B0D002B
:103BD0005543641B4343E41A95B286B27543170CF0
:103BE0007E43030C5F4392B25A43B61802D30122BC
:103BF0001204BF183204330C52197B4152429C41CB
:103C0000002C02D40022013051414008CA07104361
:103C1000490802B06246D7079210084BD218084BE9
:103C20009A4203D212058918C919F0BD0020002A52
:103C300001DC3900F0BD01331905F5E7FD03000093
:103C4000FE070000002200B5203200F004F8080052
:103C500000BD000000220B150AD410B5944600F0F8
:103C600031F81414013400DA0021CB17144C20472A
:103C70000020002170476244343A0CD40C2A07DA41
:103C800004009140904052422032D440214310BD64
:103C9000D843D94310BD203207D40C469440524239
:103CA00020321141D040204310BD0800C9172032F6
:103CB00003D452422032104110BD1800190010BD2B
:103CC000773C00100A0DCC0F531E1B05C91A520574
:103CD00003D3C943404200D30131520D03D0531CDA
:103CE000DB0A07D0121B00206400611C89078912BF
:103CF000803A1203014BD21A70470000FF03000004
:103D000070B513231D782A48FFF772F90400012DBE
:103D100011D0012D09DDA31E1B789B007F2B40DDF8
:103D200080222100234800F091F82348FFF758F93A
:103D3000224B186070BD542201001E4800F086F826
:103D40001F4B1A881F4B9A421CD1A7239B011A882C
:103D50001D4B9A4216D11D4B1A881D4B9A4211D108
:103D60001C4B1A8894239B019A420BD11A4B1A8838
:103D70001A4B9A4206D11A4B1A681A4B9A4201D131
:103D8000152307E01848FEF75FF899001748094A1D
:103D9000885001331F2BF8D9144A064B1A62DA6196
:103DA000B7E7134B134A42211348FDF7B3FFC04650
:103DB00053460000580800204C33000054080020EF
:103DC000EE290000C40F0000C20D0000962B000079
:103DD000C0B50000182B0000CC2A000010B5000070
:103DE000FC2C000051ED8764BC7C0010FD3D0010F0
:103DF000A080001028810010D480001007B5604614
:103E0000002800D100BE01880A0A0230DF2AFAD158
:103E1000C9B2820804D3028840880004104300E03D
:103E20000068024A5050039007BD00005808002067
:103E300001480421014B1847C00200200130001046
:103E4000014B1B6818470000C0020020014B5B6853
:103E500018470000C002002010B503000800110040
:103E60001B68984710BD0000F8B507000D0016004C
:103E7000437D002B02D0002400200CE003681100D9
:103E8000280098472DE03B7D10E0022115483B6853
:103E90009847601C0134B44214DA002CF3DD2B196E
:103EA000013B1B780D3B5A425341DBB22A5D0A2A83
:103EB000F0D1002BEED1A042E7DA211A28183B6896
:103EC0009847E2E7B04203DA311A28183B6898476E
:103ED000002E06DDAD19013D2B780D3B5A425341B2
:103EE0003B75F8BDB481001070B505000368002B68
:103EF00016D00C4B1C6805E0290004C92000FFF710
:103F0000B3FF2469002C09D02368002BF9D0064B9D
:103F10001B68002BF0D0A342F3D1EDE700232B6008
:103F200070BDC046980400209C04002070B50500B8
:103F30000C000B68802B05D021684B1C2360641893
:103F4000257170BD0800FFF7CFFFF5E710B5FDF74D
:103F500019FA02000B1E0BDB0D48002112184B4111
:103F6000002B0BDB002B0DDB0A4803F071F910BDB1
:103F7000094B0A4A3F210A48FDF7CCFE0122524272
:103F8000084BEFE7044B054A3F210548FDF7C2FE09
:103F900040420F00E0020020807500109C8100105C
:103FA0009C750010FFFFFF7F10B5024803F038F941
:103FB00010BDC046E0020020F0B5CE46474680B5B1
:103FC00083B006000D0090461C00FFF7BFFF81463E
:103FD0006B1C05D0002C08D0194F1A4B1C6807E049
:103FE000300003F0EDF80500F4E7174FF5E724691A
:103FF000002C17D02368002BF9D0144B1B68002B22
:1040000001D0A342F3D12A0031002000B847434633
:10401000002BECD06B46D91D0A230B700122200027
:10402000B847E4E74B46002B07D16B1E9D41E8B231
:1040300003B0C0BCB946B046F0BDFFF7B5FFF4E72A
:10404000593E001098040020693E00109C04002096
:1040500010B5064B1C6801E098472469002C03D07A
:104060006368002BF8D1F8E710BDC0469804002023
:1040700070B5050003F0A4F804000023012201003C
:104080002800FFF799FFFFF7E3FF200070BD000055
:1040900070B5A2B004000E00FFF758FF0500002322
:1040A00001933300220001A90848FEF77BFF0400BA
:1040B00001A8FFF719FFFFF7CBFF002D02D1200069
:1040C00022B070BDFFF770FFF9E7C0462D3F00102A
:1040D0000FB400B583B004A901C90191FFF7D8FF5F
:1040E00003B008BC04B0184770470000000000008F
:1040F0000BA10CC9126892009B581868203080F3FD
:104100000988022080F31488BFF36F8F3FBCAE464E
:1041100008BC04BC62B61847C046C046C046C0468C
:10412000000000D0B004002002E0D0231B069B6DED
:10413000D0231B061B6DDB07F7D4D0231B06FF2201
:104140001A65024B802252051A60704704ED00E0A8
:10415000EFF309811AA00CC8106880001B181868BA
:1041600020390160F0C144464D4656465F46F0C1D5
:10417000146E556E566F176F3039F0C1106808B560
:1041800072B601F02DFD62B60CBC116808681030E3
:10419000F0C8A046A946B246BB4680F309880D2266
:1041A00012073038F0C81466556656671767F0C8AE
:1041B0001847C046C046C046C046C046C046C04676
:1041C000000000D0B004002010B5FDF755FE00003F
:1041D00010B5EFF3108472B601F0D6FE02F046F986
:1041E000002803D0044B802252051A6001F06AFFB8
:1041F00084F3108810BDC04604ED00E070B50400E3
:104200000D00FDF7BFF802000B1E0BDBA41A9D4149
:104210000C48012149420019694100290CDC07D0F2
:10422000002070BD084B094A3F210948FDF772FD87
:10423000FA239B009842F3D3FA2292000023FEF760
:1042400049FFEEE718FCFFFF807500100C8300109B
:104250009C75001010B5031F802464041C60043B8F
:104260001960043B02491960143B1A60403810BDC4
:10427000C941001010B5D0231B061B689B000A4AD9
:104280009B58002B08D1094B802252051A60BFF3BE
:104290004F8FBFF36F8F10BD6C21054B054AFF3167
:1042A0000548FDF737FDC0464C07002004ED00E04F
:1042B000B881001068830010E8810010D0231B062D
:1042C0001B689900084A8A58002A0AD00B0000216E
:1042D0000548195005481B58BFF35F8F116083F3E1
:1042E000108862B67047C0464C070020740902204F
:1042F00010B5D0231B061B68984204D0D0231B06A0
:1043000000225A6510BD8821024B034AFF31034841
:10431000FDF700FD4C8200105C830010E881001066
:1043200010B5094C00232360084A13600520FDF7EF
:1043300033FCFA218900FEF7A7FE0138044B186010
:104340000723236010BDC04610E000E018E000E045
:1043500014E000E070B5244B1A78D0231B061B68CC
:104360009A4214D0214A1168FF231B040B431360A7
:1043700002201F49404202F04BFD05201D494042EA
:1043800002F046FDD0231B06FF221A6510E0FFF75E
:10439000C7FF164A1168FF231B060B431360012059
:1043A0001549404202F034FDDCE7D0231B069B6D2B
:1043B000D0231B061B6DDB07F7D4D0252D062C68F8
:1043C0000F34FF212000FCF7D5F90C492000FCF741
:1043D000D1F801212000FCF7BDF8FFF789FE28681D
:1043E00001F0FEFBFFF7F0FED002002020ED00E020
:1043F00051410010E9400010D14100102941001046
:1044000010B5124B1B78FF2B06D04C21104B114AD4
:10441000FF311148FDF77EFC0E20FCF71BF80F2042
:10442000FCF718F8094B00221A70D0231B061B68F2
:10443000934206D05421094B064AFF310648FDF746
:1044400069FC074802F082FDFFF784FFD0020020DC
:104450006882001074830010E881001084820010CC
:104460006544001010B5EFF3108372B6FFF772FFCA
:1044700010B50A4B1B78FF2B0CD0EFF305800028FA
:1044800005D0D022120612684000801810BD01F03D
:104490007DF8FBE7D0231B061868F7E7D002002061
:1044A00010B582B00C0002681B4B9C46624492100F
:1044B0000123934019021943090A184B1B78FF2B5B
:1044C00020D040BF0368BFF35F8F00221A6084F3DF
:1044D0001088EFF30583DBB2002B04D1104B186872
:1044E00000F06CF916E0002301930D4B186801AA47
:1044F00000F0B4F9019B002B0CD00A4B802252052E
:104500001A6007E040BF0368BFF35F8F00221A60A4
:1045100084F3108802B010BD00FFFF2FD0020020EE
:10452000E409022004ED00E0F0B583B006000F00BE
:1045300015001C00EFF30583DBB2002B2ED1384BA6
:104540001B78FF2B30D0D0231B061B689B00354AFD
:104550009B58002B35D128002100FFF74FFE031E8A
:104560003DD03168002933D0D02212061268920063
:104570002C4811502C49575032682C498C466244C3
:104580009210012191400A021143090A284A106839
:1045900000930023012200F07FF827E0254B264AF4
:1045A00026492748FDF7B6FB0368BFF35F8F00225B
:1045B0001A6081F3108828002100FCF739FE0400FE
:1045C00025E0D4211F4B1C4A89001D48FDF7A2FBA2
:1045D000D6311D4B184A89001948FDF79BFB3368FB
:1045E000BFF35F8F00221A6087F31088174B5B6A56
:1045F0009C4209D8154A926AAA420BD29C4201D029
:10460000012402E0002400E00024002C04D020005B
:1046100003B0F0BD0124F8E7FFF72CFEF7E7C04632
:10462000D00200204C0700207409022000FFFF2F59
:10463000E409022098820010248300104603000041
:10464000E8810010B8810010F88200100040054099
:1046500010B500F014F8014B186010BDE4090220F9
:10466000002A03D1014206D1100003E0084088422D
:1046700003D0002070470120FCE70120FAE710B5C5
:104680001C2002F0D1FC041E03D0002308C000F05F
:10469000EFF8200010BD0000F8B5CE46474680B5C3
:1046A00006000D009046994600282ED00B0E1F06DE
:1046B000002B31D1002936D002F01CF9002802D19C
:1046C000089B002B36D101F0CDF934684A46290009
:1046D0002000FFF7C5FF002833D04346002B02D04F
:1046E0002300AB43336001F085FF002F08D0002882
:1046F00041D002F017F9040083013FD52402240AB7
:104700002000C0BCB946B046F8BDA421254B264ABE
:1047100049002648FDF7FEFA4A21254B224AFF317F
:104720002248FDF7F7FAA521224B1F4A49001F48EE
:10473000FDF7F0FA4E21204B1B4AFF311B48FDF7D5
:10474000E9FA089B002B14D04346002B0ED1390008
:104750004B46002B02D08023DB0419432943301D34
:10476000089A01F055FB3C00089FBCE780214904F2
:10477000EEE7089FB7E701F0F3FBBAE701F004FCAE
:1047800034684A4629002000FFF76AFF002805D058
:104790004346002B02D02300AB43336001F092FC70
:1047A000ACE7C04688830010AC84001094830010EE
:1047B000E08300100884001020840010F8B5040085
:1047C0000D0000280CD00B0E1F06002B0ED106008A
:1047D0000C3601F047F9206923681D43256018E075
:1047E000174B184A18491948FDF794FA8821184BB5
:1047F000144A89001548FDF78DFA2168194099423D
:1048000006D111E0802189042368194301F0CCFF0F
:104810002800B0420CD04568026813021B0A5101FF
:10482000EBD421680B42F3D0D201EBD51F43E9E76B
:104830002368BB43236001F0DDFE2068F8BDC0465D
:1048400088830010988400101F02000094830010D9
:104850007484001010B5FFF7B1FF10BD10B5130040
:104860000A000100014802F09BFA10BD55480010F3
:10487000030008334360012252428260C360036137
:1048800000230360704700230361704743684B6057
:104890009A688A6051609960086103680133036017
:1048A000704730B50C68631C10D0030008331A0041
:1048B0005B681D68A542FAD953684B6099608A60AD
:1048C0005160086103680133036030BD0269F3E79A
:1048D0000369416882688A60416851605A6882420F
:1048E00006D0002202611A68013A1A6018687047FF
:1048F00082685A60F5E710B5040001F045FBA26B31
:10490000E36B9A4204D0002401F0DCFB200010BDD0
:104910000124F9E710B5040001F036FBA36B002B6E
:1049200004D1012401F0CEFB200010BD0024F9E7E2
:1049300070B504001500866B026C002A0CD1036868
:10494000002B03D000200136A66370BD806801F003
:10495000B9FA0023A360F6E7002D0ED14068FFF7F7
:1049600075FA6368226C944663446360A26893425C
:104970001BD3236863602800E5E7C068FFF766FA89
:10498000236C5A42E168CB1AE36021688B4203D260
:10499000A3689C466244E260022D01D00020D2E769
:1049A000002E04D0013E0020CDE72800CBE70020F8
:1049B000C9E7000070B582B00190846C002C0AD069
:1049C000A26BE36B9A420CD2A26B93420FD80025E4
:1049D000280002B070BD174B174A18491848FDF758
:1049E00099F9184B144A18491548FDF793F94523CE
:1049F000E65C76B2002201A92000FFF799FF0500CE
:104A0000731C06D07F2E0FD0013676B24523E654B4
:104A1000DEE7636A002BDBD02000243000F00AFEC2
:104A20000028D5D00125D3E7084B034A084904489C
:104A3000FDF770F9C08400108C870010A80B0000EF
:104A4000D484001018850010A90B000060850010A8
:104A5000C90B000010B5030008001A6C002A0AD028
:104A6000D9688918D9609C68A14201D31968D960B6
:104A7000D968FFF7EBF910BD70B5050001F084FAB5
:104A80004523EC5C64B20AE06B6A002B17D0280067
:104A9000243000F0CFFD00280ED1013C64B2002C80
:104AA0000DDDAB6C002BEFD02800FFF783FF002853
:104AB000F3D000F061FDF0E700F05EFDEDE7452387
:104AC000FF22EA5401F0FEFA01F05EFA4423EC5CA6
:104AD00064B201E0013C64B2002C0BDD2B69002BB9
:104AE00008D02800103000F0A5FD0028F2D000F01A
:104AF00043FDEFE74423FF22EA5401F0E3FA70BDDF
:104B000070B504000D0000281DD001F03DFA2268A8
:104B1000E36B206C010059435118A1600021A1638F
:104B20006260013B4343D318E360FF234422A35454
:104B30000132A354002D16D12369002B0AD101F0B4
:104B4000C1FA012070BD0E210B4B0C4AFF310C48FD
:104B5000FDF7E0F82000103000F06CFD0028EED0EA
:104B600001F0FEF9EBE720001030FFF781FE200096
:104B70002430FFF77DFEE2E780850010E487001017
:104B8000D484001070B51D00049C00290BD1246052
:104B9000E063216401212000FFF7B2FF5023E554B8
:104BA0000023A36470BD2260F2E70000F0B583B07B
:104BB00005000F00160000281CD00C0044430029FB
:104BC00004D02000FEF760FAA8421AD12300553322
:104BD0001ED82000543002F027FA041E07D002002D
:104BE00054320090330039002800FFF7CBFF20003B
:104BF00003B0F0BDC4210A4B0A4A49000A48FDF738
:104C000089F8C821094B074A49000748FDF782F88F
:104C10009421074B034AFF310348FDF77BF8C04658
:104C200088850010D0870010D4840010AC85001057
:104C3000FC850010F0B585B004000F0001921E0045
:104C4000002813D0002918D0022E02D1E36B012BCB
:104C50001CD101F04FFE051E1ED1019B002B5ED022
:104C60004F4B504A50495148FDF754F8C421504B1E
:104C70004C4A89004D48FDF74DF8036C002BE3D0FA
:104C80004C4B484A4C494948FDF744F84B4B454A80
:104C90004B494648FDF73EF8002540E0A56B320041
:104CA00039002000FFF744FEA36C002B10D0022E29
:104CB00001D1002D04D12000FFF77CFE002804D193
:104CC00001F000FA012005B0F0BD01F049F9F7E765
:104CD000636A002B04D10028F2D001F041F9EFE71C
:104CE0002000243000F0A6FC0028E9D001F038F9BB
:104CF000E6E701F0E7F90020E5E702A800F030FC64
:104D0000013519E044230022E25420E0452300222B
:104D1000E25421E02000FFF7AFFE01F06BFC01F050
:104D200033F9A36BE26B9342B8D3022EB6D0019B4A
:104D3000002BDED0002DE0D001F0C4F900F092FE8F
:104D400001F022F94423E25C52B2531CDAD045232D
:104D5000E25C52B2531CD9D001F0B4F901A902A807
:104D600001F06CFD002813D12000FFF7C4FD0028DE
:104D7000D0D020001030019901F02AF82000FFF770
:104D80007BFE01F037FC0028C9D101F0E9F8C6E745
:104D90002000FFF771FE01F02DFC002093E7C046D4
:104DA00020840010A887001015030000D484001090
:104DB000808500103C8600101103000094860010CE
:104DC00012030000F0B5CE46474680B583B004001C
:104DD0000F0001921D0000281CD0002921D0022DB7
:104DE00002D1E36B012B25D1EFF3108872B601F0ED
:104DF000CBF8A36BE26B934222D3022D20D0002488
:104E000001F060F988F31088200003B0C0BCB946F7
:104E1000B046F0BDF9212F4B2F4A89002F48FCF7EF
:104E200079FF036C002BDAD02D4B2B4A2D492B48F0
:104E3000FCF770FF2C4B284A2C492848FCF76AFFE6
:104E40004523E65C76B2A36B99462A003900200020
:104E5000FFF76EFD731C07D07F2E2BD0013676B284
:104E60004523E6540124CBE7A36C002B10D0022D80
:104E700002D14B46002B23D12000FFF79BFD0028D9
:104E800020D0019A002A1FD0012313600124B7E724
:104E9000636A002B01D10124B2E72000243000F026
:104EA000C9FB002812D0019A002A11D001231360F7
:104EB0000124A5E70E4B084A0E490848FCF72AFFD3
:104EC00001249DE701249BE7012499E7012497E74A
:104ED000012495E78085001070870010D4840010AD
:104EE0003C860010E503000094860010E6030000F5
:104EF000608500106F040000F0B585B004000F005D
:104F0000019200280ED0002912D001F0F3FC061EF9
:104F100017D1019B002B4ED0434B444A444945488E
:104F2000FCF7F8FE444B414A44494248FCF7F2FE84
:104F3000036C002BE9D0424B3C4A42493D48FCF708
:104F4000E9FE002637E039002000FFF783FD013D30
:104F5000A5632369002B04D101F0B4F8012005B04A
:104F6000F0BD2000103000F065FB0028F4D000F008
:104F7000F7FFF1E701F0A6F80020F0E702A800F043
:104F8000EFFA013621E044230022E25428E04523D1
:104F90000022E25429E02000FFF76EFD01F02AFB19
:104FA00009E02000FFF768FD01F024FB2000FFF777
:104FB000B1FC002835D100F0E7FFA56B002DC2D170
:104FC000019B002BD6D0002ED8D001F07BF800F04A
:104FD00049FD00F0D9FF4423E35C5BB20133D2D03A
:104FE0004523E35C5BB20133D1D001F06BF801A93A
:104FF00002A801F023FC0028D3D12000FFF78AFC8F
:105000000028C8D020002430019900F0E1FE2000E3
:10501000FFF732FD01F0EEFA0028CCD100F0A0FF3E
:10502000C9E700209BE7C04620840010608700107D
:105030003C050000D4840010E48600103305000015
:10504000F08600103705000010B500280BD00029AD
:105050000FD00023072B16D8DA000B4C1259002A68
:105060000DD00133F6E7094B094A0A490A48FCF713
:1050700051FE0A4B064A0A490748FCF74BFEDB0083
:105080001951E318586010BD240A02204C87001003
:10509000BC870010AA0A0000D484001054870010B6
:1050A000AB0A000070B504000D00160000F06CFFA4
:1050B0004423E35C5BB201330DD04523E35C5BB278
:1050C00001330CD000F0FEFFA36B002B0BD02000AF
:1050D000FFF7D2FC70BD44230022E254EDE74523E4
:1050E0000022E254EEE7200024303200290000F0D4
:1050F000C5FEECE7EFF3108272B6D0231B061B68E7
:105100009B000249585882F310887047A40A022075
:10511000084B1B681B68002B04D1074B012252422D
:105120001A607047034B1B68DB681A68024B1A60F1
:10513000F7E7C046BC040020FC09022010B50400BB
:10514000406B01F0FBFF200001F0F8FF10BD0000F4
:10515000F8B5DE464F4680B507000E0014009B46AA
:105160000A9D9200A521686BFEF76AFE334B9C46B0
:105170006444A4006B6B9C46644407239C43A14693
:10518000002E51D000240F2C08D8325D2B1940334B
:105190001A70335D002B01D00134F4E74F23002255
:1051A000EA54089B1F2B01D91F230893089B2B63EC
:1051B000EB6500242C6628000830FFF764FB28000C
:1051C0001C30FFF760FB6D612023089A9E1AEE6188
:1051D000AD622C652800643014220021FEF730FEF9
:1051E0002800783004220021FEF72AFE2B007C33B1
:1051F0001C707D23EC54013C6C605A4639004846D3
:10520000FFF728F82860AC630D4B9F4210D00D4B80
:105210009F4210D00023EB63099B002B00D01D6040
:10522000C0BCBB46B146F8BD40230022EA54B8E7F3
:105230000123EB63F0E70123EB63EDE7FFFFFF3FA3
:10524000416200104952001010B5FFF713F8034BEC
:105250001B68022BFBD9FFF70DF8F8E7CC04002000
:1052600070B5002407E0A3001B1998000E4BC0186E
:10527000FFF7FEFA01341F2CF5D90C4D2800FFF77B
:10528000F7FA0B4C2000FFF7F3FA0A48FFF7F0FAA1
:105290000948FFF7EDFA0948FFF7EAFA084B1D60E5
:1052A000084B1C6070BDC046CC040020BC09022025
:1052B000D0090220100A0220840A0220700A02206B
:1052C000BC040020C404002010B50400EFF30583E3
:1052D000DBB2002B04D0D0231B061B6898420FD0F2
:1052E000A3000F4A9B589B6B023308D0D0231B06A8
:1052F0001B689C4209D1A4000A4B0122E25010BD58
:105300008400084B0122E250F9E72000FEF7F0FF8D
:10531000A400034BE358022252429A63EFE7C046CF
:10532000B0040020A40A0220F8B5DE4657464E46D7
:105330004546E0B50500794B1F68794B1B689B46D5
:10534000012B04D11E0000239A4698465BE0D12130
:10535000744B754A89007548FCF7DCFCBB00DA1910
:1053600092007348914681444A4652689468DB191A
:105370009B0008331918A14202D0A44646460DE00E
:10538000A3689C46FAE764680BE00122AA405868CB
:1053900002421DD1002E26D1A4454BD06468A14203
:1053A000F1D0E3689A6B0132EFD0AA00614812583D
:1053B0009A42EFD19A6BAA4202D09A6B023233D151
:1053C0000122AA4058680242E4D09D635E460AE08A
:1053D000584AA90088580126764286638858824632
:1053E0009D638B505E462000FFF772FA210048460D
:1053F000FFF74CFA4346B0461E00002F02D1434649
:10540000012B19D1013F4346002B1CD1BB00DB19F6
:105410009B00474A9B58002BA0D1002EEDD03F4A5D
:105420001368013B1360E8E7434B3F4A43493F4859
:10543000FCF770FCB046E0E7EF21414B3A4A8900A7
:105440003A48FCF767FCAB003A4A9B589B6B002B31
:1054500017DBAB009B589B6B012B12DC5346002BD8
:1054600009D01E6BB3009B199B00314A9B18524612
:1054700092699A420CD0F0BCBB46B246A946A046FF
:10548000F8BDF0212F4B284A89002848FCF742FC40
:1054900053465B685246D26BB61A0122AA401342A9
:1054A00004D0AD00234AAA585268934303241C40F9
:1054B00001256D42002C2BD02000FDF78BFD1F2312
:1054C000181A01281ED8012383409C43194A8100E1
:1054D0008B581F6B8B58DB6BFB1A9E42EADD0A0070
:1054E00014495258926B002AE4DB82005258926BA6
:1054F000012ADFDC820014495258002ADAD1050063
:105500001E00D7E7114B084A11490848FCF702FC76
:10551000012DB0D82800FFF7D7FEACE78C09022098
:10552000640A022044880010A48E00100088001035
:10553000CC040020B0040020708800109503000007
:10554000CC8800102C890010A40A02209489001035
:10555000F2030000014B18687047C046980A022009
:10556000034B1B680360034B1B6843607047C046D6
:10557000000A0220980A0220D0231B061B689B0009
:10558000014A012199507047A40A0220EFF31082CA
:1055900072B6D0231B061B689B000249585882F341
:1055A00010887047B0040020F8B504000D00FFF724
:1055B000EDFF036D002B07D0276B002D00D1013FBD
:1055C00000230120404206E0144B154A15491648B5
:1055D000FCF7A0FB0133012B19DC144A99008D580C
:1055E0002E6B8D58ED6B751B8A58926B012AF1D882
:1055F0000A000F495258002AECD1AF42EADB0132CF
:105600009A4061680A42E5D018002F00E2E70128BD
:1056100000D9F8BDFFF758FEFBE7C046D08900105F
:105620004C8F0010DA02000000880010B004002047
:10563000A40A022070B5C368DC68002C29D02500BC
:105640001C352800FFF744F9174B1B68002B26D1A7
:10565000143D2800FFF73CF9236B144A126893426B
:1056600001D9124A13609800C0188000104BC0186E
:105670002900FFF70BF900212000FFF795FFD02349
:105680001B061B689B000B4A9858002800D001207D
:1056900070BD094B094A0A490A48FCF73BFB29003F
:1056A0000948FFF7F3F8E6E7840902208C09022095
:1056B000CC040020A40A0220048A0010308E0010BE
:1056C000CC0F000000880010100A022070B5050001
:1056D0000C001C4B1E68FFF759FF7D230022C254AB
:1056E000FFF754FF0830FFF7F3F86B1C01D1002CD3
:1056F0000FD17419FFF74AFF8460A64211D9124BEB
:105700001C68FFF743FF010008312000FFF7C9F8CC
:1057100070BDFFF73BFF010008310C48FFF7B6F8FA
:10572000F6E70B4B1D68FFF731FF01000831280039
:10573000FFF7B7F8074B1B68A342E9D9054B1C607C
:10574000E6E7C046980A0220C4040020700A02203E
:10575000BC040020FC09022070B5EFF30583DBB226
:10576000002B00D052E1D0231B061B689B00A84AE7
:105770009D587CE0A74BA84AA849A948FCF7CAFA5B
:10578000A84BA94AC721A948FCF7C4FAA84BA64AC6
:10579000C821A648FCF7BEFAA24BA34AC721A348DA
:1057A000FCF7B8FAA24BA04AC821A048FCF7B2FA0D
:1057B000D0231B0619689F4B5A5C930700D4A1E0C5
:1057C0009D4B5B78002B00D1A2E0013BDBB29A48F5
:1057D0004370002B08D102339A43964B5A54BFF3BF
:1057E0005F8F964B01221A60AB6B023300D095E0BD
:1057F000FEF764FDAB6B023300D196E0EFF310834C
:1058000072B6D0231B061A688C4B1B68002B00D184
:1058100091E0BFF35F8F884B5B78002B00D0A2E054
:10582000854B0121597083498B5C022003438B54C3
:10583000D0231B061A68824B1B68002B00D198E00E
:10584000BFF35F8F7C4B1B78002B00D0A9E07A4B15
:105850000121197077498B5C012003438B54FFF7BA
:1058600095FE0465774B1E60002C00D19FE0AB6B6A
:10587000023300D0CAE02C6D724B1E68A319012BB5
:1058800000D077E76F4B00221A60002C90D00023E5
:105890002B65D0231B061968664B5A5CD30700D4CE
:1058A0006EE7654B1B78002B00D16FE7013BDBB245
:1058B00061480370002B07D101339A435D4842547D
:1058C000BFF35F8F5E4A1360D0231B061968594BE4
:1058D0005A5C930700D45FE7574B5B78002B00D1ED
:1058E00060E7013BDBB254484370002B00D07BE7FC
:1058F00002339A434F4B5A54BFF35F8F4F4B0122F1
:105900001A6071E7474B484AC7214848FCF702FA3A
:10591000474B454AC8214548FCF7FCF9A6214A4BAC
:105920003D4A89003E48FCF7F5F9484B3A4A484958
:105930003B48FCF7EFF93F4B9B5C9B070DD53E4B7B
:105940005B78FF2B03D001333B4A537070E7414B28
:10595000354ABC213548FCF7DDF9384B1B68002B74
:1059600000D056E7F9E73C4B2F4AC3212F48FCF7FC
:10597000D1F9304B9B5CDB070DD52F4B1B78FF2BF0
:1059800003D001332C4A137069E7324B264ABC21FD
:105990002648FCF7BFF92A4B1B68002B00D04FE7C5
:1059A000F9E72D4B204AC3212048FCF7B3F9002E1C
:1059B0001AD0D0231B0619681E4B5A5CD30719D581
:1059C0001D4B1B78002B1BD0013BDBB21A48037028
:1059D000002B00D04BE701339A4316484254BFF3E3
:1059E0005F8F174A136042E71C4B0B4A1C490C4857
:1059F000FCF790F90B4B0C4AC7210C48FCF78AF9CD
:105A00000B4B094AC8210948FCF784F970BDC04610
:105A1000B0040020148A0010FC8E001087020000E1
:105A2000008800104C8A0010188F0010788A00102F
:105A3000E88A00106C090220700902203C0100D0A5
:105A4000380100D084090220108B0010488B001010
:105A50009F020000808B0010AC8B0010D48B0010D4
:105A6000AA02000010B5524B1B68002B00D110BDDC
:105A7000EFF3108472B6D0231B061A684D4B1B68D7
:105A8000002B46D0BFF35F8F4B4B5B78002B57D179
:105A9000494B0121597049498B5C022003438B54C7
:105AA000D0231B061A68464B1B68002B4ED0BFF351
:105AB0005F8F414B1B78002B5FD13F4B0121197049
:105AC0003E498B5C012003438B543E4A13680133EB
:105AD0001360D0231B061968384B5A5CD30752D584
