:020000041000EA
:1000000000B5324B212058609868022188439860DF
:10001000D860186158612E4B002199600221596106
:100020000121F02299502B49196001219960352056
:1000300000F044F80222904214D00621196600F024
:1000400034F8196E01211966002018661A6600F04E
:100050002CF8196E196E196E052000F02FF8012189
:100060000842F9D1002199601B49196000215960AB
:100070001A491B48016001219960EB211966A021F2
:10008000196600F012F800219960164914480160C1
:100090000121996001BC002800D000471248134993
:1000A000086003C880F30888084703B5996A0420EC
:1000B0000142FBD001200142F8D103BD02B5186610
:1000C0001866FFF7F2FF186E186E02BD00000240BE
:1000D000000000180000070000035F00212200005C
:1000E000F4000018222000A00001001008ED00E03C
:1000F00000000000000000000000000074B24E7A12
:1001000000200420F7010010C3010010C5010010F9
:10011000C1010010C1010010C1010010C101001097
:10012000C1010010C1010010C1010010C701001081
:10013000C1010010C1010010C9010010CB01001065
:10014000CD010010CD010010CD010010CD01001037
:10015000CD010010CD010010CD010010CD01001027
:10016000CD010010CD010010CD010010CD01001017
:10017000CD010010CD010010CD010010CD01001007
:10018000CD010010CD010010CD010010CD010010F7
:10019000CD010010CD010010CD010010CD010010E7
:1001A000CD010010CD010010CD010010CD010010D7
:1001B000CD010010CD010010CD010010CD010010C7
:1001C00000BE00BE00BE00BE00BE00BEEFF3058054
:1001D000103800BEF2EB887170A8001090A80010D3
:1001E0003402001090A31AE700201F49086006C8D7
:1001F00081F3088810471D48006800282FD10DA4FE
:100200000ECC002902D000F012F8F9E71849194A7B
:10021000002000E001C19142FCD1174988471749ED
:1002200088471749884700BEFDE701C901C29A42C5
:10023000FBD3704790A80010C0000020200F0020C2
:10024000F0B600100000042000000420F0B60010FA
:10025000001004200010042000000000704709482E
:1002600003F05AF80047000008ED00E0000000D05D
:10027000200F002094200220F51B001075030010B1
:10028000E91C00105756000006005250ABB36053F3
:10029000E8A5001006005250861C0302F8A50010C5
:1002A000060052505422A29D14A600100500525080
:1002B000DE65F468F0B60010F8B5C04610B5064C1F
:1002C0002378002B07D1054B002B02D0044800E017
:1002D00000BF0123237010BD681200200000000041
:1002E000C0A20010044B10B5002B03D003490448F2
:1002F00000E000BF10BDC046000000006C120020EE
:10030000C0A20010F0B5CE46474680B58BB008F0CD
:10031000BDFB040007F010FE0700200007F042FFBD
:10032000124B06009946D0231B069846104C4346B4
:100330001D6807F031FF2B003200494600900197FD
:1003400002A802F0AFFF01212068494207F074F8CB
:1003500002A803F0FBFF002300220021206806F022
:1003600027FE642009F058F9E1E7C046C0A200105A
:10037000881C002070B584B004F01EF8012006F03F
:10038000FDFE01250026184B184C186002AB0193A6
:100390008022002320001649009509F0B3F903AB31
:1003A00001938022002320001249009509F0AAF948
:1003B00000238022200010490196009509F0A2F93F
:1003C0000023802220000D490196009509F09AF93A
:1003D0000298012107F0B6FC0221039807F0B2FC55
:1003E00008F0ECFE04B070BD881C0020050300106E
:1003F000D0A20010D4A20010A0A60010D8A2001015
:10040000024B18688007C00F7047C04600C0064006
:1004100070B5EFF3108C72B60D4D2B68002BFCD02D
:10042000BFF35F8F0724CB08C618C05C01230C40C4
:10043000A3401C000440034207D103433370BFF3C1
:100440005F8F2C608CF3108870BD100001F050FCA1
:100450002C0100D0F8B54746CE46884680B5EFF36C
:10046000108C72B6214D2C68002CFCD0BFF35F8F2E
:100470009A422CD8D4080727055D06190124174095
:10048000BC402C421FD007210127894609E0D4082F
:10049000055D06194C4639001440A1400C00294264
:1004A00011D001329342F2D201204042BFF35F8F5C
:1004B00000220E4B1A608CF3108800280FDBC0BCA2
:1004C000B946B046F8BD2C4310003470EEE7BFF3D8
:1004D0005F8F00232B608CF310880120404243463D
:1004E000002BECD0089801F003FCC0462C0100D092
:1004F0000021044B044ABFF35F8F02C39342FAD139
:100500007047C046000100D0800100D0044A107836
:10051000431CDBB2172B00D9102313707047C04661
:10052000180E002010B50100024A0348FFF770FFC3
:1005300010BDC046DCA20010E017002000B5054B3E
:1005400083B00100009318221F230348FFF782FFA6
:1005500003B000BDFCA20010E0170020012383407F
:10056000002904D0034A1360034A13607047034A0A
:100570001360FBE780E200E000E100E080E100E0E2
:1005800001228240034B1B6813405A1E9341D8B28C
:100590007047C04600E100E001238340014A136038
:1005A0007047C04600E200E0084B10309B688000B6
:1005B000C358002B07D0064A00209B1A2F229A42CC
:1005C0004041C0B270470020FCE7C04600ED00E0AB
:1005D0001C0E0020024B10309B688000C0587047F2
:1005E00000ED00E070B50D00EFF3108672B60F4A13
:1005F0001368002BFCD0BFF35F8F0D4B10309B684E
:1006000084001B590B4A934203D09D4201D001F054
:100610008DFB074B9B681D51BFF35F8FBFF35F8F4F
:100620000022024B1A6086F3108870BD240100D0AE
:1006300000ED00E0CD010010F0B557464E46DE4615
:100640004546E0B585B0060002911700EFF3108B28
:1006500072B6674A1368002BFCD0BFF35F8F00258A
:10066000644B5D579A46002D00DAA4E06B00624CA3
:1006700003935B199B009846A146C1444B465246E2
:100680009B79103613705D4BB2009B6801929958AC
:100690000B1B2F2B34D95A4B994200D0A4E0039B5B
:1006A000584A9C46584B6544AD0063534346023359
:1006B0006519E418554B0121043B1B1B1B055B0D01
:1006C00013436B80524BEF71AB80FF23AB71029BE6
:1006D000AB604B460B431900484B019A9B689950FD
:1006E000BFF35F8FBFF35F8F0022414B1A608BF324
:1006F000108805B0F0BCBB46B246A946A046F0BD86
:1007000001200A008243D379BB422FD845464E468A
:10071000130040491B1B5B415943090D3A4B63537E
:100720003A4B02356519043B5B1B1B05354D5B0DD0
:100730002B4373800426B446E0444444131F1B1B20
:100740004C46A17102991B05A16049465B0D2B43E4
:10075000A380314BE77101431360BDE75800C01817
:1007600080002018C679BE422BD902000623D3563A
:10077000002BF3DA101D8246284880460426764274
:10078000B446E14450464E46361A3005400D824686
:1007900056461C48957106439680039A94466544D4
:1007A0001D4AAD00641922604246A371029BA280DB
:1007B000E771A36090E701F0B9FA002553465D5751
:1007C00054E7101D82469088400500158446404637
:1007D000D444664604302018301AE0260005400D47
:1007E000360230438046C9E701F0A0FA57E7C04619
:1007F000240100D08C2002201C0E002000ED00E01F
:10080000CD01001000E0FFFF00A1FFFF4C0E002013
:1008100001BDFFFFAAAA00000148804701BD0000FA
:10082000F0B5DE4657464E464546E0B50C0083B06F
:10083000EFF3108972B6584A1368002BFCD0BFF34F
:100840005F8F564B9A68030010339F00D559544A66
:100850009046954232D0A54243D0524EAA1B2F2A31
:100860002CD801228240924651464F4A12681140CC
:10087000019151464D4A1160BFF35F8FEFF305823E
:100880009346002A33D101232A009A4393689C425D
:1008900008D177E04B005B189B00F3189968A142E0
:1008A0002AD01A00062151560029F3DA019B002BA9
:1008B00019D052463E4B1A603B4B1A60374B9B682F
:1008C000DD51BFF35F8FBFF35F8F0022324B1A60A1
:1008D00089F3108803B0F0BCBB46B246A946A046D7
:1008E000F0BD1500EAE75246304B1A60E6E7934246
:1008F000C9D001F01BFAC6E706215956002921DBB1
:100900004A005018800034188046A0689860E0794A
:10091000D871062020569871002824DBA488F01A8C
:100920006405241544440019E0240005400D240208
:100930002043988052181F4B9200B6181A781970ED
:10094000B271B3E7594600290FD1FF3191711A49AD
:10095000918018490A789A71184A9B1B5B415A4347
:10096000120D0A70A2E71648E3E7164A1649D21A92
:10097000083A5002400D01439980144952080A4335
:10098000DA8093E70621515613000029B8DA5A4657
:10099000002AEAD14546DCE7240100D000ED00E062
:1009A000CD0100101C0E002000E100E080E100E01D
:1009B00080E200E08C20022001BDFFFFAAAA000017
:1009C00001BD0000560E002000F0FFFF00F8FFFF01
:1009D000032310B50400074A18409446C0009C4306
:1009E000FC3383406444226881409A4313000B43E4
:1009F000236010BD00E400E070B5EFF30581012431
:100A00000443EFF3108C72B6214A1368002BFCD01C
:100A1000BFF35F8F1F4B05001F4AED1A6D416A43FC
:100A2000120D1E4D8900AE6852B27658A6421CD0F7
:100A30000621595691421CD012215956914222D07A
:100A40001E215956914220D02A2159560324914201
:100A500010D0134B19781A708171BFF35F8F002289
:100A60000B4B1A608CF3108870BDAB680D4C5C505A
:100A7000EFE700246100091989005B18FF219971D3
:100A800009499980E5E70124F4E70224F2E7C0462A
:100A9000240100D01C0E0020AAAA000000ED00E0F6
:100AA0008C200220CD01001001BDFFFF054B064A3E
:100AB0001360064A136053609360D36013615361FF
:100AC000936170478080808000E400E004E400E0EF
:100AD00000B5074B83B001000093002205230548B1
:100AE000FFF7B8FC002801DB1F23181A03B000BD74
:100AF00018A3001091200220024B9C4661448900FB
:100B0000016070474000003410B50400FFF7FEFCA0
:100B100001002000FFF7F0FF01235B426360BFF399
:100B20005F8F10BD10B50400FFF7F0FC010020003E
:100B3000FFF7E2FF01235B42636000232372BFF3F0
:100B40005F8F10BD10B504000120FFF7F7FC044BC8
:100B50009C46604480002060BFF35F8F10BDC0469C
:100B600040000034034B9C46614489000160BFF3A0
:100B70005F8F70474000003483680B4810B584468F
:100B800061446244090112019A18591854684B686B
:100B900001209C4201D802D00020C0B210BD1268D2
:100BA0000B689A42F9D8F7E7FFFFFF0F074810B527
:100BB0000268EFF3108172B61368002BFCD0BFF30C
:100BC0005F8F05F0CFFE0020002110BD581F0020D0
:100BD000F8B557464E464546DE46E0B599460CAB5D
:100BE0001C780DAB1B78060090469A460768002CCF
:100BF00011D1BC7B002C42D065003B682D19033D10
:100C000059194B78BB73002B00D1FB7300238B70F9
:100C10004B700B7004E065003B682D19033D5919BA
:100C2000B2682A4B94464246E3181B0163441A609B
:100C30004A465A600A9A9A600B9ADA6000238B70CF
:100C40004B700B707B7B9B46002B2BD022005946B0
:100C5000B8687B6898473A68002816D05B465846C3
:100C60005B005B445519033BA870D118D35C002B83
:100C700000D06B705B460C707B73A34513D0F0BC47
:100C8000BB46B246A946A046F8BD5B465B005B4446
:100C9000033BD3189C705119525D002A00D05A7042
:100CA0005B460B707C7342464B46307D00F016FB72
:100CB000051E06D05346002B03D12100306800F0FA
:100CC00037FD0E9B002BDAD01D70D8E7FFFFFF0F1A
:100CD000F0B5DE4657464E4645460023E0B58BB09C
:100CE0000893664B8200D45800239B46099000F07D
:100CF000A5FA626806000F00EFF3108572B613685C
:100D0000002BFCD0BFF35F8F23689C465B7B99462A
:100D1000002B68D0A2685A4B90464B441B01984464
:100D200043461A685B6810001900801BB94100290E
:100D300063DD099800F0D2FA0023002298460023D0
:100D40000692079300239A466368BFF35F8F5A4663
:100D50001A6085F310885346002B08D10028C6D1AD
:100D60000BB0F0BCBB46B246A946A046F0BD089BFE
:100D7000414618024B461843D047626806000F00F0
:100D8000EFF3108572B61368002BFCD0BFF35F8FB2
:100D9000002F4FDB33003B4302D02369002B60D18F
:100DA0002368D97B002907D04A00521819688C465D
:100DB00049466244033A51709A7B002A01D14A465F
:100DC0009A734A46DA734B46E168013BCA5C0132CA
:100DD000CA545B4623616368BFF35F8F5A461A604B
:100DE00085F3108883E700230022984600230692AB
:100DF0000793002300209A46A6E7002901D1002886
:100E000097D10021604600F011FC43461A685B68E8
:100E10000692079343469B689A464346DB6898468A
:100E2000E3684B44013B1B7808931B020343236197
:100E3000002089E72369002BB2D0069A079B921BFA
:100E4000BB41002B15DB5946049101210391494612
:100E5000029141460191514620000091FFF7B8FEF2
:100E6000B7E700F0EBF932003B0012184B41002BC2
:100E7000E9DA0122034B5242E5E7C046981C002004
:100E8000FFFFFF0FFFFFFF7F10B5144C6368002BBF
:100E900004D00A211248FFF72FFE10BD2300114A8B
:100EA0001021206800F0DCFA032000F0BBF90320D9
:100EB00000F084FA03200C4900F0CAF9FFF726FB82
:100EC0000A4B9C4603232375D0231B061B686044F2
:100ED0006375074B80006060DC60DAE7640E002019
:100EE000581F0020790B0010D10C00104000003476
:100EF000981C002000487047640E0020F0B557464B
:100F00004E464546DE46E0B585B0019310AB1B78F2
:100F10000600039300239A46984600927268EFF306
:100F2000108972B61368002BFCD0BFF35F8F356851
:100F3000AC7B002C49D067002B683F19033FDB19BD
:100F40005A78AA73002A00D1EA73B168484A8C46DD
:100F500000980199A21812016244106051600E9924
:100F600091600F99D16042469A705A701A706B7BEB
:100F70009B46002B45D022001900A8686B68984753
:100F80002A68002830D05B4658465B005B44D7197E
:100F9000033BB870D118D35C002B00D07B705B464C
:100FA0000C706B735C452DD0F3681B19013B1878EE
:100FB0007368BFF35F8F42461A6089F31088534607
:100FC000002B2CD10002204307E07368BFF35F8F32
:100FD0001C6089F310880120404205B0F0BCBB467C
:100FE000B246A946A046F0BD5B465B005B44033BAE
:100FF000D3189C70D119D25D002A00D05A705B467C
:101000000B706C73307D009A019B00F067F982468B
:101010000028C9D02100306800F08AFBC4E7039B98
:10102000002B23D00E9B00200F999847030004004B
:101030000D000B431AD000290ADA009A019B121BFB
:10104000AB4100920193002B0ADB039B9A4665E7B4
:1010500000F0F4F824184D4100940195002DF4DAC5
:101060000123044C5B4200930194EEE70020B4E7B7
:10107000FFFFFF0FFFFFFF7F70B542680400EFF333
:10108000108572B61368002BFCD0BFF35F8F206809
:10109000CEB2437BB3420AD0FF230B405A00D31891
:1010A000026894466344033B9B78002B13D0E268AC
:1010B000FF2394460B406344013B0A0A1978D2B2DD
:1010C00091420ED000206368BFF35F8F00221A6048
:1010D00085F3108870BD22698A42F3D10020236114
:1010E000F1E7310000F024FBEDE7C046407D70479A
:1010F00070B5EFF3058305000C0084B0002B0AD017
:10110000164A0020536A9C4203D8926A0130AA42D0
:101110001FD304B070BD124E02930193114B020015
:10112000009330000B00FFF7E9FE011EE8DD20BF51
:101130003000FFF7A1FF094B0020596A8C42E8D824
:101140009B6A0130AB42E4D2641A631E9C41E0B258
:10115000DFE7E41A631E9C41E0B2DAE70040054095
:10116000640E0020AD0B0010F0B5EFF30582D646FB
:101170004F4646461000C0B51038EFF3108872B6DF
:10118000214C2368002BFCD0BFF35F8F0123190093
:1011900081401E4D1F006963AA461D4D29601D4DEB
:1011A0002E78AC463500C5402F402B4209D1BFF305
:1011B0005F8F276088F31088E0BCBA46B146A84626
:1011C000F0BD5346144D5F6A83005D59AF420ED3A4
:1011D000124A8E439B5862461670BFF35F8F0022FF
:1011E000226088F31088002BE6D09847E4E70C4B88
:1011F00092009C46624413681360BFF35F8F002324
:10120000236088F31088D7E7280100D0004005400C
:101210003C70054090200220641F0020C81600206A
:10122000D03F054010B50100024A0348FFF7F0F82F
:1012300010BDC04634A300108B200220034B596A16
:101240000A00986A596A8A42FAD1704700400540FC
:1012500070B504000D00EFF3108672B61A4A1368D9
:10126000002BFCD0BFF35F8F002D1BD02000FFF7B9
:10127000B1F9164981420AD02000FFF7B3F90121E4
:101280002000FFF76BF90123A340114A1360114BB3
:10129000A400E550BFF35F8F00220B4B1A6086F36A
:1012A000108870BD0B4BA200D5500122A2400A4904
:1012B00020000B7893430B700449FFF7B1FA00212B
:1012C0002000FFF74BF9E5E7280100D06911001075
:1012D00038600540C816002090200220F0B54F4627
:1012E000D6464646C0B507002F4C616A0D00A66A77
:1012F000616AA942FAD18B4208D805D00120E0BC2E
:10130000BA46B146A846F0BDB242F7D9EFF3108A0B
:1013100072B6264801680029FCD0BFF35F8F012513
:10132000BD402349204C8846097889462943C9B2E3
:101330008C46414660460870391D1E488900656329
:101340000A51B9000B50216A0020294219D0616A64
:101350000800A66A616A8142FAD18B4219D801D18C
:10136000B24216D8CC451DD00F4B1F201D625D63C5
:1013700001230740BB40104A1E38136043464A46CB
:101380001A70BFF35F8F0022084B1A608AF310882F
:10139000B5E70020BFF35F8F0022044B1A608AF389
:1013A0001088ACE70120ECE700400540280100D0A0
:1013B00090200220641F002080E200E0EFF3108CF8
:1013C00072B60A490B68002BFCD0BFF35F8F012374
:1013D0008340074A0748136202789A430270BFF3BA
:1013E0005F8F00230B608CF310887047280100D0BA
:1013F000004005409020022070B505001400160042
:10140000002915D00C00002A12D080686B6898471C
:10141000296800280ED073009B196200033B121943
:10142000CB18033A9C7088188A5C002A15D1067084
:10143000200070BD63001B197200033B9219CB188A
:10144000033A9E7088188A5C002A02D10470340026
:10145000EEE75A7004703400EAE75A700670E7E766
:1014600030B583600023CCB2437301330473426010
:101470008373C4730D000068012C06D9421C01332C
:10148000DBB2137003329C42F9D1FF2129404B009B
:101490005918002340180338437030BDF8B5CE46C4
:1014A000474606000C0080B5002907D04D000368B0
:1014B0006D18033D5A195778002F04D12000C0BC85
:1014C000B946B046F8BD7900C91903398846434486
:1014D0005978894600215970517073683A0021008B
:1014E000806898473368002814D042469A18947050
:1014F00059195B5D002B00D053700F7027004946CF
:101500003000FFF7CBFF390002003000FFF774FF17
:101510000400D3E7424641465D19AF709A185B5C00
:10152000002B00D06B701470E9E7C046F0B5574649
:101530004546DE464E46E0B50D006B0001685B197E
:10154000DF1E0400C85D83B00192CA19002850D084
:1015500043001B18033BCB185E78B446002E1AD10B
:10156000019E002E42D0E67B002E04D073009B1912
:10157000CB18033B5D70A37B002B00D1A573E573F3
:1015800000282FD10023537003B0F0BCBB46B246F5
:10159000A946A046F0BD72006244033A89184A7811
:1015A000904600224A7091465A7001003200200095
:1015B000FFF722FF43468246002B07D05B002168DD
:1015C0004344033BCB185A78002A16D14246514671
:1015D0002000FFF711FF2168019BCA19002BC2D11F
:1015E0000028CFD043001B18033BCB180021997073
:1015F000C8E7019B002BB6D1C4E750008018033820
:10160000091848788346484648705870414620007B
:10161000FFF7F2FE594680462000FFF73FFF4146A4
:1016200002002000FFF7E8FE8046CFE7F0B55746FE
:101630004546DE464E46E0B583B00191457B040049
:101640006B0000685B19DF1EC15DC219002952D012
:101650004B005B18033BC3185E78B446002E1CD1C8
:10166000019E002E44D0E67B002E04D073009B190F
:10167000C318033B5D70A37B002B00D1A573E573FA
:10168000002931D1002328005370617303B0F0BCEE
:10169000BB46B246A946A046F0BD72006244033A7A
:1016A0008018427890460022427091465A7020007D
:1016B0003200FFF7A1FE43468246002B07D05B00B5
:1016C00021684344033BCB185A78002A17D142467D
:1016D00051462000FFF790FE019B01002068C219CF
:1016E000002BC0D10029CDD04B005B18033BC318A1
:1016F00000209870C6E7019B002BB4D1C2E75000D0
:10170000801803380918487883464846487058704E
:1017100041462000FFF770FE594680462000FFF743
:10172000BDFE414602002000FFF766FE8046CEE780
:1017300070B5040000292CD0437B8B422ED0056865
:1017400048004018033828188278002A21D0530016
:101750009B18033BEA5CEE188A4202D11BE0002A88
:1017600008D053009B18033BEB185A788A42F6D1F5
:1017700042785A7000230122837043702000FFF7E3
:10178000D5FE617B02002000FFF736FE607301206A
:1017900000E0002070BD43783370EBE701221900B0
:1017A000FFF7C4FE60730120F4E7C04630B50C209B
:1017B00083B000F0B7F9FEF723FE00280ED0944B5B
:1017C000944A1A605A609A60DA601A615A619A61A2
:1017D000DA611A62904A5A6203B030BD8F4CA0673A
:1017E00000F0F4F901228E4B1A60636C012BFCD1DE
:1017F00003228C4B1A60894A936B012BFCD1013375
:101800000121894A89480093043300F033F9052304
:10181000874A00930121874800F02CF9864B5A68CB
:10182000FF2A02D8802252005A608022784C7D4BD9
:1018300021691201804D1A60002905D0606901F00C
:10184000C5FD01300138FDD1E0217B4B02201A6833
:101850001140802252012A43116019684840032137
:101860000140116004219A681142FCD0802280213D
:1018700092012A4309011160802252005A606F4B85
:1018800023616F4B5968FF2900D85A600321644ACD
:101890006B4B116002399A681142FCD0E0201A6843
:1018A0001040802252011A431060186848400321FA
:1018B00001400220116062498A681042FCD08022F7
:1018C00092011343802212011A6080225D4B520064
:1018D0004A6063615C4B5968FF2900D85A608022D6
:1018E0005A4BE1691201584D1A60002905D0606910
:1018F00001F06CFD01300138FDD1E02252490B6846
:101900001A4080235B012B431A60802380229B01B5
:101910002B4312011A6080223E4B52004A60E36161
:101920004B4B5968FF2900D85A608022494B216AE5
:101930001201474D1A60002905D0606901F046FD8B
:1019400001300138FDD1E02241490B681A40802363
:101950005B012B431A60802380229B012B431201E1
:101960001A60802380225B004B602A4BD2022362E4
:10197000394B5968914200D25A608022374B616AD4
:101980001201354D1A60002905D0606901F01EFD75
:1019900001300138FDD1E0222F490B681A40802325
:1019A0005B012B431A60802380229B012B43120191
:1019B0001A608023DB024B60174B6362284B5A6826
:1019C000FF2A02D8802252005A608022254BA1694A
:1019D0001201234D1A60002905D0606901F0F6FC60
:1019E00001300138FDD1E0221D490B681A408023E7
:1019F0005B012B431A60802380229B012B43120141
:101A00001A6080235B004B600E4BA361E4E6C04686
:101A1000E4170020006CDC021BB7000000800040CF
:101A20003CB0004030B00040002F685900800240B8
:101A3000008C864700C0024030800040001BB70089
:101A40003C800040405973075480004054B000402F
:101A50006080004060B000406C8000406CB000408E
:101A60004880004048B00040014B8000C05870479B
:101A7000E4170020F0B5C646040000B50C209046DF
:101A80001F000E0001F0A2FC4101091A8D01691A24
:101A9000C90009188901404601F098FC069B3F04E3
:101AA0001A0323681743002B22DB1A4B1A4DE21846
:101AB00053425A4180235B019C461203174B6244F8
:101AC0001A60174B1A601100AB689943FBD1C02212
:101AD000231D92011A4321232660A060136023680E
:101AE000002BFCDA0823E760136080BCB846F0BD29
:101AF0003F2322681340B342D7D1A3681B051B0DB7
:101B00008342D2D1EE22E368D2021340BB42CCD151
:101B1000EBE7C0460040FDBF00C0004000E00040D1
:101B200000F000408023024A9B000343D3627047C9
:101B30000080054010B5140080221B4BD2051A60AE
:101B400000281AD00123194A1843194BDA61194A9F
:101B500042401A62596298628022134BD2051A6081
:101B60001549164A1160E022D2041A60002C07D1F0
:101B70008022134B12061A6010BD0D4BD861EBE7A3
:101B800063011B1B9A008023121912015B049A4205
:101B900000D30C4A0C4B1A60054B5A608022084B4C
:101BA000D2051A60E8E7C04600B00540D3C007B0D0
:101BB000008005402D3FF84FFCFF01000820014048
:101BC00000A00540FFFFFF00841C0020AA23064A56
:101BD0001B0113602F230549D360054B196053681F
:101BE000002BFCDA7047C0460040024000B0FA000B
:101BF000006002402C4B2D4A70B51A602C4A2D4BC8
:101C00002D491A6014008B689C43FBD12B4D2C4E40
:101C1000B54208D2013E761BB60808CD984723008E
:101C20000134B342F9D1FFF7C1FD264A214B1A60B6
:101C3000214A9368DB43DB01DD09002BF9D1402207
:101C4000214B224C224E9A675A671A67DA66B442D1
:101C500008D223682000002B20D00C34FEF762FF4E
:101C6000B442F6D31B4E1C4CC022A168300002F0D7
:101C70003BFAA660FEF73CFCFEF718FFFFF704F9FD
:101C8000164C174EB44208D2013E361BB60808CC9B
:101C900098472B0001359E42F9D170BD0834FEF7FC
:101CA00033FFB442D5D3DDE700E00040BFCDFBFEFB
:101CB000FE7F3C0000F0004000C00040040F002008
:101CC000140F0020FFFFFF0100F00140F40E002080
:101CD000040F00200000002000ED00E0140F0020A1
:101CE000200F002000BEFDE710B5FFF7FBFFC04648
:101CF0000FB400B5084883B002F028FB049B002B0A
:101D000007D005A91800019101F0E0FA034802F09C
:101D10001DFB0120FFF7E6FF58A3001068A3001089
:101D200010B50148FFF7E4FF6CA3001010B501489F
:101D3000FFF7DEFF7CA300109A4200D28854704760
:101D40007047C046F8B557464E464546DE46E0B5B4
:101D500099460A9B07009A460D9B884693461500B4
:101D60000B9E9B0710D10C9B9E420DD29D1B140015
:101D70000E005D4422004B46013431002020B8475C
:101D8000A542F7D1B0460B9E002E27D044467519C8
:101D90005346AA1B013E985D21004B46B847002ED2
:101DA000F6D123002C0098460D9B9B070FD55B4670
:101DB000E51A0C9BAB420AD94646984622004B4690
:101DC000310020200135B8470134A845F6D820005D
:101DD000F0BCBB46B246A946A046F8BD2C00E3E7DE
:101DE000F0B54F464646D646C0B584B098460EABD1
:101DF0001B78129F994694460D9C109B119EBA0722
:101E000025D4002E4BD19C4200D3BFE001223A40A2
:101E100092461F2C00D9B8E00C9A551E302201E0E2
:101E2000202C03D001342A55A342F9D85246002A67
:101E30000DD0A6420BD9202C44D00C9A551E30222E
:101E400001E0202C3ED001342A55B442F9D1FA06E3
:101E50004DD57A053FD4002C39D10F9B102B00D1E2
:101E600079E00F9B022B00D18AE030230C9A0124E9
:101E700013704B46002B3FD02D230C9A1355013481
:101E80000C9B624600930397434602960194FFF72A
:101E900059FF04B0E0BCBA46B146A846F0BD0122E5
:101EA00015003D40AA463A422FD04A46002A02D1A8
:101EB0000C323A4200D0013E9C42BAD21F2CABD920
:101EC000202E27D92024FA06DAD57A0503D4A34296
:101ED0002DD0A6422BD00F9B102B32D0022B20D01E
:101EE000202CCDD030220C9B1B191A700134202CD1
:101EF000C6D04B46002BBFD17B070DD43B07BFD5C7
:101F000020230C9A13550134BAE79C429FD21F2C10
:101F100000D881E720249AE72B230C9A135501342B
:101F2000AEE7202CACD00C9B1B1901343AE0631EA9
:101F3000012C92D00F9A102A2AD0022A2FD01C00EE
:101F4000D0E7BB060ED4202C9AD00C9B1A19013472
:101F500078231370C4E7BB060DD478230C9A0124B0
:101F60001370BFE7202C00D18AE758220C9B1B1965
:101F70001A700134B4E758230C9A01241370B1E7A6
:101F80000C9A603301241370ACE7202400265EE72E
:101F9000023CBA06E9D40C9A12191C00D8E70C9A34
:101FA0009246534462221A709AE7C04610B5002840
:101FB00000D110BD02F07EF9FBE7C046F0B5DE4669
:101FC00057464E464546E0B59BB09B46249B894606
:101FD0009846259B0B900C924046424619009A4623
:101FE00001F0BDFC002800D0D8E001224046514657
:101FF000774B524201F0AEFC002800D0CEE0012227
:1020000040465146734B524201F08EFC002800D0EE
:10201000C4E0002200234046514601F085FC002820
:1020200000D0B9E1424653460A9209938023289A88
:10203000DB001A400E92289A1A4201D106232693F9
:102040000A9A099B1600134300D0C7E0289B00257D
:1020500000261B0500D49BE100230D93269A0D9BBF
:102060009A4200DC9FE1D01A431E26938023289ACF
:10207000DB001A430023002728920D93279B00249E
:10208000BB4200D9DC1B0223289A1A400E92289AE0
:10209000134203D07B427B415B421C400D9B002BD3
:1020A00007D00A9809992A00330001F0DCFB0A9056
:1020B0000991002200234046514601F035FC0028DA
:1020C00005D0802000068446099961440991289A28
:1020D000414B0B9D13400493269B0A9A0293099B44
:1020E00003940092019349465B4628000C9A00F045
:1020F0008BF90400002F62D0289B220098061F2332
:10210000C0179843631C984649465B466530A8470C
:102110000D9B0025DA179C18DB0F9A465440013FAF
:1021200001E0202D13D00AAA94461F232000634407
:102130000A2101355E1901F049F930313170200072
:102140000A2101F043F926000400092EE9D80523ED
:102150000693002304930A330393534605970B9F7A
:10216000029312AB009342465B4649463800019504
:10217000FFF736FE0E9B0400002B20D00C9BC51AE7
:10218000279BAB421BD91E0022005B4649462020FC
:102190000135B8470134AE42F6D810E0289B4246DC
:1021A0000493279B49460393269B0B98029353461F
:1021B000009201935B460C9A00F026F9040020007F
:1021C0001BB0F0BCBB46B246A946A046F0BDC04617
:1021D000FFFFEF7FFFFFEFFFFFF7FFFF734B099F4D
:1021E0009C467800400D604401F0CCFB704A714B76
:1021F00001F057FB704A714B01F02CFB3B03704A16
:102200001B0B1A4304000D00300011006D4B00221F
:1022100001F017FB6C4A6D4B01F043FB02000B0011
:102220002000290001F016FB01F0C4FB0D9001F025
:10223000A9FB674A674B04000D0001F032FB002246
:10224000654B01F007FB01F0B5FB644A0600644BE7
:102250002000290001F025FB040030000D000F963E
:1022600001F090FB5F4A604B01F01BFB02000B008A
:102270002000290001F0E5FA02000B0006000F0023
:1022800001F00FFB320004000D003B00300039006C
:1022900001F0E0FA002210901191544B2000290027
:1022A00001F0E1FA0022524B01F0D4FA02000B00D7
:1022B0002000290001F0D7FA00224E4B01F0CAFAA3
:1022C00002000B002000290001F0CDFA0D00802152
:1022D000040032003B000020C90501F0B2FA020000
:1022E0000B002000290001F0B5FA02000B00109845
:1022F000119901F0B8FA0022314B01F0ABFA3E4BD4
:102300000F9C9C4664440022230501F0CAFA050094
:102310000E0002000B000A98099901F005FB002845
:102320000AD00D9B2800013B31000D930022304B59
:1023300001F099FA05000E00C6270D992B006331B4
:102340008F42BF4128997F420437090500D495E6A2
:10235000334300D182E6099C284A2100284B0A9881
:1023600001F0F0FA002808D000222100254B0A983D
:1023700001F0DAFA002800D070E6269B002B00D18D
:102380007CE60E9B5A1E9341269AD31A269375E635
:10239000002304270D9371E643460A9380231B060E
:1023A0005344099342E6002326935FE601FCFFFFB6
:1023B000FB799F501344D33FB3C8608B288AC63F34
:1023C0000000F03F0000F83F61436F63A787D23FF2
:1023D00071A379094F930A400000E03F1655B5BB41
:1023E000B16B0240EF39FAFE422EE63F00002C406E
:1023F0000000244000001840FF0300002D431CEBA8
:10240000E2361A3F80842E41F0B54E46DE465746EE
:102410004546E0B597B09946209E219F229B834672
:10242000984607910C923B0032003000390001F0D1
:1024300096FA002800D0A9E1012230003900CA4BE9
:10244000524201F071FA002800D0E1E00122300090
:102450003900C64B524201F07DFA002800D0B7E0A7
:10246000002230003900C24B01F074FA002800D07D
:1024700099E0002230003900BE4B01F055FA0028E7
:1024800000D090E0002200233000390001F04CFA27
:10249000002800D0B1E000230D93249B5B0501D4FC
:1024A0000623984608AB9C46172200243023414659
:1024B000624404E0013413550139202C01D009296C
:1024C000F8D888463000390001F074FA4346DA0043
:1024D000A94B05009B181A685B680892099301F0E4
:1024E00051FA02000B003000390001F0AAF9089AF5
:1024F000099B01F0D6F90A900B9101F07FFA824610
:1025000001F03CFA02000B000A980B9901F099F9CE
:1025100000229A4B0A900B9101F01CFA002800D17E
:10252000C0E001239C46E244504601F027FA020035
:102530000B000898099901F0FDF9002802D000234A
:102540009A4601354346002B6AD008AB17269C46B5
:1025500008956644554614E001235B4243440A2132
:1025600028009A4600F032FF0134303137193970B3
:1025700028000A2100F02AFF092D00D8D0E0D0461B
:102580000500202CE8D10EAB98460323249A134073
:10259000012B00D196E02023249A01930392239AE1
:1025A000434602921EE0249B58460493239B0096C8
:1025B0000197039343460C9A029307994B46FFF702
:1025C000FDFC17B0F0BCBB46B246A946A046F0BD24
:1025D000249B5B070ED40322694B2499019203913B
:1025E00023990291009358464B460C9A0799FFF79E
:1025F000A9FBE6E70422634BEFE73B003200002033
:10260000002101F01EF9012306000F000D9344E79D
:10261000249B0393239B0293042301935A4BE1E7EA
:10262000280001F0AFF902000B003000390001F082
:1026300008F9524B002206000F0001F075F90EABAD
:10264000984600280AD10022300039004B4B01F097
:1026500081F9002802D1EB0700D50135202C94D058
:1026600008AA94461723280063440A2101341E193E
:1026700000F084FE3031280031700A2100F07EFE27
:10268000051EEBD10323249A1340012B1BD0202CD1
:1026900000D180E70D9B002B35D02D224146631CD5
:1026A0000A5579E700220A980B99344B01F03CF95E
:1026B000002800D046E75346002B51D101239C4609
:1026C000E2443FE72024239B002BE0D00D9B002B0E
:1026D00003D1249A0C33134202D0239B013B239352
:1026E000239BA342D3D908AB9C46172230236244D4
:1026F000202C00D14FE72399013413558C42C6D0CA
:10270000202CF8D147E7249B5B0724D4249A23008C
:10271000120700D440E72022414601330A553BE727
:102720005746089D202C00D12DE72200302140463D
:10273000002F09D00132B154202A00D123E7D3431E
:102740001B191B18002BF5D10EAB98462E234146C2
:10275000541C8B5482E72B224146631C0A551BE70D
:10276000DB0700D4EEE6A9E7FFFFEFFFFFFFEF7FF7
:1027700065CDCD4165CDCDC180A500100000E03F05
:1027800088A300108CA3001098A30010249B03932F
:10279000239B029303230193004B23E794A3001090
:1027A000F0B5DE464E4657464546E0B59FB01C00A4
:1027B000289B91460993C94AC94B8B4608901A60D9
:1027C000002900D118E2002320789A46002800D181
:1027D0001AE226001D005C460AE02A006F1C4B46E8
:1027E000089D2100A8473D0001363078002870D0B0
:1027F0002528F2D110239B46083B9A46043B984675
:10280000023B00219C46721C107816000300203BFE
:10281000DBB2102B03D8B34F9B00FB589F4603003D
:10282000303B092B32D900230A932A2868D0002391
:1028300098462E283ED00300683BDBB2122B1CD8F2
:10284000A94A9B00D3589F46012301321943DBE775
:10285000634601321943D7E7434601321943D3E7B0
:102860005B4601321943CFE7534601321943CBE7A8
:1028700080235B007078194301360300253BDBB2EF
:10288000532BAAD8994A9B00D3589F460027030090
:10289000B800C01901364000C018337830381A002B
:1028A000303A0700092AF3D90A9018000023984605
:1028B0002E28C0D180237078DB0019430300303B01
:1028C000721C092B00D8A1E12A2800D1B2E1160020
:1028D000B1E7A346AA462C00D14503D801235B42A9
:1028E0004B449A464B46524659460020089DA847FD
:1028F00020001FB0F0BCBB46B246A946A046F0BDC2
:10290000099B40CB0A96002E03DB50780993561C96
:102910008DE72838014370420A9009935078561C7D
:1029200085E7782800D1DFE1582800D14CE26F28F4
:1029300000D14FE3622801D100F030FC10230A00DF
:102940009A430B92692801D000F0A9FC0A230C934A
:102950004B0500D5D0E10B9A802311009B00194054
:102960008B461A4200D0A1E2802311005B0019407F
:102970008A461A4200D0B6E313005B0600D5EDE2AA
:10298000130009991B0601D400F076FC08C91BB29C
:10299000D8171A18424092B209919346DA0F129250
:1029A000002B09D1802310220B99DB000B409143AF
:1029B0000B91002B00D0E4E20B9A6123920600D524
:1029C00041230EA91F228C46DBB262440A3B5F46BC
:1029D0001395A34655460C9CB2460D9316000AE08B
:1029E0003033DBB201357355A74200D2EDE2202D22
:1029F00000D1EAE207002100380000F0E7FCCBB28A
:102A00000929EDD90D9A94466344DBB2EAE78023A5
:102A10009B007078194301362FE77078682800D141
:102A2000CDE180230136194327E770786C2800D167
:102A3000BFE180235B00194301361EE7462800D121
:102A40009BE10722099B0491073393430A9A1900DB
:102A50000392424602920CC9089800920193099190
:102A60002A004B462100FFF7CFFC01360500BCE6EB
:102A70002A006F1C4B46089D21002520A8470136DF
:102A80003D00B2E68B0700D4ADE1099B2A009A46CF
:102A90006B1C9846534601CB21009A46089F4B4633
:102AA000C0B2B8470A9B9C466544012B00D886E219
:102AB000089B4746B04626004C4699463A002300FC
:102AC000013731002020C847AF42F7D1A146534615
:102AD000340046460993013687E6C046A127001018
:102AE000801C0020A0A30010E4A3001030A400105C
:102AF000099B04CB9B4643460992002B00D1C6E0BC
:102B000013789C46002B00D1BDE34346013B099A54
:102B10000133D0180A9F130001E0834203D05A7892
:102B20000133002AF9D1099A0A979B1A0B93802343
:102B30000A00DB001A400C92194204D00B9B43455B
:102B400001D943460B9302231A000A400D920B420F
:102B500000D187E16046002800D168E10C9B002B82
:102B600000D10DE1A844C246099B57465B1B98461D
:102B7000089BB2462A0026004C46994609E02300ED
:102B80003100551CC8474346585D002800D126E156
:102B90002A009742F3D1A1463D00340056460D9BD2
:102BA000002B00D043E15B46013609931DE6099BEB
:102BB0001A0008CA9246002B48D0212211438B46A6
:102BC0000EA884461F216144099500220F27A446C0
:102BD0000D0002E0202A0CD00B003C001C4020001D
:102BE0003730092C00D807380132A85419090F2BA7
:102BF000F0D86446099D32E0DC4B2078089300232E
:102C00009A46002800D0E4E5002465E64346060025
:102C10000A9F9800C01801324000801916780300FE
:102C200030003038303B0928F3D930009846160080
:102C30000A9700E6099B023604CB9046D2434046F1
:102C4000D2171040804609933078F4E5102208002E
:102C5000904311321043834600224905B0D55B46AC
:102C600006930823059343460493102303930023FC
:102C7000029316AB019200932A004B46210008985C
:102C8000FFF7AEF85346050001360993ADE513781A
:102C90009C46002B00D1F7E202235B4237E720235A
:102CA00002009A43472A04D180231B0119430223BF
:102CB0009843452801D1202319430722099B0491F9
:102CC000073393430A9A19000392424602920CC9B1
:102CD00008980092019309912A004B462100FFF7C2
:102CE0006DF90136050080E510230C930C230A00D2
:102CF0009A430B924B0503D501230B9A9A430B92EF
:102D0000692800D127E6642800D124E60B9A8023A5
:102D100011009B0019408B461A4200D066E18023C7
:102D200011005B0019408A461A4200D039E21300B4
:102D30005B0600D53CE113001B0600D4A6E2099B0C
:102D400004CB1204120C934609935B46002B00D06F
:102D50009AE10B9A1033110099430B91520500D45C
:102D600092E100239A460B9B06930A9B05934346E8
:102D700004930C9B039300230CE12023194360E68A
:102D8000099B0A9A5B1B98464B4691461F00B24628
:102D90002600089C2A003B003100A047434601352D
:102DA000585D0028F6D14A463400B94656460A9284
:102DB000F5E6C0239B00B078194302365DE5C023D9
:102DC000B0781943023658E50C230A009A431433AD
:102DD0001A43103B0B920C934B058DD496E7A146FA
:102DE00034005646DBE60A9A012A00D853E26B1EED
:102DF0009F18089BB04626004C4699462A0023009F
:102E0000013531002020C847BD42F7D1A14634002A
:102E10004646099B3A0001CB210098467D1C4B4653
:102E2000089FC0B2B847434601360993DDE40B9BC7
:102E30000A9AA8469A4200D8B5E694466544ED1A27
:102E4000089B4746B04626004C4699463A00230068
:102E5000013731002020C847AF42F7D1A1463400E6
:102E60004646A0E60B9A0A99531C914200D814E2F8
:102E70004B199B1A1F00089BB24626004C469946E8
:102E80002A002300013531002020C847BD42F7D178
:102E90000A9BA14601330B93099B34001B785646CD
:102EA0009C466046002800D058E67CE60722099B35
:102EB00007339343013294469C4462465F6809920B
:102EC0001A68FB171093119310981199030053403F
:102ED0000E930B007B400F9394460E9A0F9B121A91
:102EE0008B410E920F93FB0F6246129300233A43DD
:102EF0009B463DD00B9A6123920600D541230022C8
:102F0000DBB20EA90A3B8C4692460D9343461F3214
:102F100062441395159655460E9E0F9FA246904605
:102F20000C9C14930CE03032D2B2434601355A5512
:102F3000BB4500D18AE1202D00D18AE106000F00B7
:102F4000220000233000390000F07EFAD2B2092AB4
:102F5000E9D90D9B9C466244D2B2E6E7FF2309996A
:102F600004C913401A00099117E5C046411D00101D
:102F70000B9A1033110099430B915205BAD50023D7
:102F80009A460B9B06930A9B0593434604930C9B1E
:102F90000393129B02935346019316AB2A000093AE
:102FA00021004B460898FEF71BFF013605001CE484
:102FB000FF22099B02CB11408B460993C5E653467D
:102FC000454609930136FFF710FC56465C46AA4673
:102FD000139DD6E708230C930B910B99642800D01E
:102FE00084E60B9B5B0500D586E6B4E40722099BCB
:102FF00007339343013294469C44624609921A680F
:103000005B6810009B4613005A46134307D10B9A86
:103010001033110099430B91520500D5A1E60B9A8C
:103020006123920600D541230022DBB20EA90A3BA0
:103030008C4692460D9343461F3262445F4612957A
:10304000A34655460400B24690460C9E13930DE0ED
:103050003032D2B2434601355A550023BB4200D12B
:1030600000E1202D00D100E104000F003200002318
:103070002000390000F0E8F9D2B2092AE8D90D9B06
:103080009C466244D2B2E5E70B9A6123920600D5D2
:103090004123DBB20EA90A3B1F228C460D9323006D
:1030A00062445C461295170055469B46B2460C9EFC
:1030B00008E03033DBB201357B55B4420ED3202D0E
:1030C0000CD004003100200000F080F9CBB20929B7
:1030D000EFD90D9A94466344DBB2ECE756465C4662
:1030E000AA46129D3FE6099B1A0008CAD9171392F7
:1030F0005A184A409246DA0F1292002B08D18023C8
:1031000010220B99DB000B4091430B91002B2BD12C
:103110000B9A6123920600D541230EAA1F279446DD
:10312000DBB20A3B0D9567445D460993A3465446BE
:10313000B2460C9E08E03033DBB201357B55B44219
:103140000ED3202D0CD004003100200000F03EF9F9
:10315000CBB20929EFD9099A94466344DBB2ECE774
:1031600056465C46AB460D9D0B9B2A0006930A9B78
:1031700021000593434604930C9B08980393129BEC
:10318000013602935B46019316AB00934B46FEF764
:1031900027FE139B05000993FFF727FB02230C93DF
:1031A0001AE7099B04CB92461293002A08D1802388
:1031B00010220B99DB000B4091430B91002B2BD17C
:1031C0000B9A6123920600D541230EAA1F2794462D
:1031D000DBB20A3B0D9567445D460993A34654460E
:1031E000B2460C9E08E03033DBB201357B55B44269
:1031F0000ED3202D0CD004003100200000F0E6F8A2
:10320000CBB20929EFD9099A94466344DBB2ECE7C3
:1032100056465C46AB460D9D0B9B2A0006930A9BC7
:1032200021000593434604930C9B089803930023C5
:1032300002935B46019316AB00934B46FEF7D0FD1D
:10324000129B050009930136FFF7CFFAB44200D86C
:1032500071E6149B54460E960F97AA469846159E03
:10326000139D8EE6A64200D8FBE6139B5646984671
:10327000AA465C46129D76E508C9D8171A1842403E
:103280000991FFF78AFB00230B9350E4099B04CBC1
:103290009346099359E52F00BBE50B9301E6063BE6
:1032A0000C939AE60EB4012210B585B007AC08CC99
:1032B00001000094524204480394FFF771FA05B0EC
:1032C00010BC08BC03B01847391D001010B5094ADE
:1032D0000300146884B0002C08D001220091064835
:1032E000524203A9A047012004B010BD01F02EF8FE
:1032F0000020F9E7801C0020AD1F001001480421C8
:10330000014B1847900E002039330010014B5B68C9
:1033100018470000900E0020142310B501001888F3
:1033200004331B88984710BD162310B50100188878
:1033300002331B88984710BDF8B54746CE4680B586
:103340000F1E19D0142399460433040000250126CA
:1033500098464B461888434621681B88984701C405
:10336000431E9841013540420640AF42F1D1300042
:10337000C0BCB946B046F8BD0126F8E7124A936FC3
:103380009B0815D29066D166002905D0FFE7FFE7BC
:10339000FFE7516F106F704704B580210906C2170F
:1033A0005140002800D0C84306F03AFF002104BD78
:1033B000F0B5146E556E576F166FFFF7E3FF146686
:1033C000556657671667F0BD000000D0114A936F2D
:1033D0009B0813D210665166002905D0FFE7FFE76E
:1033E000FFE7516F106F704704B5002801D000202F
:1033F000C04306F015FF002104BDC046F0B5146EB1
:10340000556E576F166FFFF7E5FF146655665767E1
:103410001667F0BD000000D094464A4A926F9208A9
:10342000624601D228E0C046F0B5464E346E756E55
:10343000776F366F00F020F89446424A146655665E
:10344000576716676246F0BD94463E4A926F9208EF
:10345000624601D254E0C046F0B53A4E346E756E05
:10346000776F366F00F04CF89446364A146655660E
:10347000576716676246F0BD002B24DB11D0002988
:103480003EDA00B5C943404200D1013100F038F8BE
:10349000C943404200D10131DB43524200D10133E4
:1034A00000BD002AEBD1002801D1002905D0002061
:1034B000C90FC90701D1C043410800B506F0A8FEF5
:1034C0000022002300BD00B500290ADBDB43524285
:1034D00000D1013300F014F8C943404200D101315A
:1034E00000BDC943404200D10131DB43524200D10B
:1034F000013300F005F8DB43524200D1013300BD37
:10350000002923D1002B18D1002A0CD0BC460D4F26
:1035100038667A6600210023FFE7FFE7FFE77A6F4E
:10352000386F67467047002801D00748010000B592
:1035300006F06EFE0022002300BD02000B000020FA
:1035400000217047000000D0FFFFFFFF002B00D0DC
:10355000BFE0130C28D1002AE7D080B4114F3966A0
:103560007A66FFE7FFE730B4040C7B6F396F1B040A
:1035700023433B667A66FFE7FFE7FFE7C04684B276
:103580007B6F3D6F1B0423433B667A66FFE7FFE7D3
:10359000C04600232C042D0C7A6F386F0019694146
:1035A000B0BC7047000000D0F0B594460025140E62
:1035B00001D112020835140F01D112010435940F04
:1035C00001D192000235D40F01D152000135D40B44
:1035D0000134254F7C66254C3C660E0C93B2FFE708
:1035E000FFE7FFE73C6F6643360C7703BE46734345
:1035F000DF0B5B04C01AB941130C7343DB18C91A03
:10360000CE086643360CB64493B273431F0F1B01BA
:10361000C01AB941130C73431F0B1B05C01AB941E3
:10362000860D8F023E436643360C092D24DB520A79
:103630007243801A7703460A6643360C16235B1BD7
:10364000DE40DF40BF1964466643821B7046043586
:1036500006330100D940A840C01900D30131A2426D
:1036600006D20023F0BD0000000000D0FFFFFFFFE6
:10367000121B0130F3D3F1E709277F1BFE4064469C
:10368000A2B27243801A00D20139220C7243130C89
:103690001204821A99410B00704604351337010059
:1036A000F940A840801900D30131002B02D1A24279
:1036B0000AD2F0BD013000D30131121BFAD2013B16
:1036C000F8D1A24200D2F0BD013000D30131121B6B
:1036D000F7E7F0B51C0C00D080E00CB400251C0A04
:1036E00004D11B02160E3343120208351C0B04D101
:1036F0001B01160F3343120104359C0B04D19B00B0
:10370000960F334392000235DC0B02D192185B41D5
:1037100001351C00971864410134464F7C66464CC5
:103720003C660E0CFFE7FFE7FFE7C0463C6F6643D1
:10373000360C7703BE4697B27743C01B00D20139DF
:10374000C01B00D201399FB27743C91BC91B170C9C
:1037500077437E04FF0B801BB941CE086643360CCD
:103760000C2D33DBB644120B1F053A431B0B97B2EB
:103770007743C01B00D201399FB27743C91B170C96
:1037800077433E043F0C801BB941860D8F023E43B8
:10379000664329277F1BFE400C3D7746AF40BF198B
:1037A00030BCA2B2ABB272437343801A9941220C6F
:1037B0007243130C1204801A994102000B00013766
:1037C000001BA941F9D2781E0021F0BD0C277F1BF8
:1037D000FE4077467F0BAF40FF19E0E700245D1CF9
:1037E00007D0144F7D663966FFE7FFE7FFE7FFE785
:1037F0003C6F95B29EB265436643401BB141150CC8
:103800001E0C6543664336042F0C3E432D04401BBB
:10381000B141994204D202000B0020000021F0BD0A
:1038200001D19042F7D3801A994101349942F2D3E1
:10383000F6E70000000000D0FFFFFFFF48404140D6
:10384000484018B41B4B5B68FC46019308BD04DF7D
:10385000DB3A001018B4174B1B68FC46019308BDF7
:1038600000DFE53A00109446134A926F920809D29D
:10387000624618B40F4BDB68FC46019308BD0CDFB1
:103880009D3D00100C4AF0B5146E556E576F166FC3
:103890006246FFF7EEFF084A1466556657671667DB
:1038A000F0BD18B4034B9B68FC46019308BD08DFCC
:1038B000413C001028100020000000D0FFB550400F
:1038C0004240504059404B40594000E0FFB5154F31
:1038D0004C00640D03D0BC4204D10C0314D800206A
:1038E000090D09055C00640D03D0BC4204D11C0322
:1038F0000AD800221B0D1B0501264B4009D44B4062
:1039000003D58B4200D18242FFBD9942FCD1904247
:10391000FFBD0B43DB1803431343F5D0C9434918DC
:10392000FFBD0000FF07000000B5FFF7CFFF80419B
:1039300000BDC04600B5FFF7C9FF01D9002000BD9A
:10394000012000BD00B5FFF7B9FF01D9002000BD7F
:10395000012000BD00B5FFF7B1FF804100BD01208F
:1039600040054A00121804D85A00121801D8002045
:103970007047012070470020704700000021002898
:1039800005D17047C1174840401AFAD0C90713B58E
:10399000064B1B6898470CBC441CA2401005120B38
:1039A0000349091B09051943114310BD541F002089
:1039B0001F04000010B54C00620D8023D218DB00FC
:1039C000D21A5B057E2A10DD9E3A13DACC17090362
:1039D000490819435242D140640001341532202A6B
:1039E00005DAD0400843604310BD002010BD0846F2
:1039F000604310BDC80FC018013810BD18B4044B87
:103A00005B6AFC46019308BD24DF4D3F00100000B7
:103A100028100020132370B51D78012D15D010DD5E
:103A20001C48FFF781FC1C4C01008022200000F0A4
:103A30005BFB022D06D01948FFF76EFC184B18608F
:103A400070BD154C174BA364F5E7164B124C236061
:103A50006360A360E36023616361A361E361236248
:103A60006362A362E36223636363A363E363236428
:103A70006364A364E36423656365A365E365236608
:103A80006366A366E36623676367A367E367A3646C
:103A9000D1E7C04653440000281000204C330000FA
:103AA000541F0020A93A001007B5604601880A0A91
:103AB0000230DF2AFAD1C9B2820804D302884088D2
:103AC0000004104300E00068014A5050039007BD15
:103AD000281000200FB403BC0CBCF0B50124E4078F
:103AE000634000E0F0B50C0DCF0F661E3605891B54
:103AF000640503D3C943404200D30131640D03D0B0
:103B0000661CF60A07D0E41B00207F00791C890799
:103B10008912803C24031D0DDF0F6E1E36059B1B92
:103B20006D0503D3DB43524200D301336D0D03D047
:103B30006E1CF60A07D0ED1B00227F007B1C9B0742
:103B40009B12803D2D032F1B661B58D4A446202EAC
:103B500046DA20371400BC401D00BD40F24033411E
:103B60002A4380185941CB0F05D0C943C0430022D6
:103B700064425041514162464D0D28D10D0D07D18F
:103B800000281FD0241940414941013A0D0DF9D0B8
:103B9000640006D3013000D30131002C01D140086C
:103BA0004000013A0BD4941CE40A04D112051144DC
:103BB000DB071944F0BDD907204B194300E0D907B2
:103BC0000020F0BD0029DDD1002CDBD1F0BD013299
:103BD000C6074008CD0728434908002EE1D0D9E7A1
:103BE0003C2E29DA203E40371400BC4000D001248E
:103BF000F24014431A00BB401C43D317ACE7AC4659
:103C0000202F08DA20360400B4400D00B540F840FB
:103C100039412843A5E73C2F0CDA203F4036040009
:103C2000B44000D00124F84004430800B1400C43E4
:103C3000C117EAE710001900002494E70000F07FA4
:103C4000F0B50C0D661E3605891BE60A6405640D89
:103C500002D0651CED0A04D0002001210905803C3A
:103C60002403A4461C0D671E3F05DB1BE70A640501
:103C7000640D02D0651CED0A04D0002201231B054F
:103C8000803C24037740644497B484B296B2744372
:103C9000070C7E43150C6F4380B26843361802D37D
:103CA000012000043F183004350C00197D41844682
:103CB00088B29AB250430C0C62431F0C7C438EB204
:103CC0007E43921902D301263604A4191604170C58
:103CD0003618674101BC81B29AB25143040C624369
:103CE0001B0C5C4380B25843121802D3012000041D
:103CF00024181004130C401863412D185E41002055
:103D0000474106BC88B293B258430C0C6343120C73
:103D1000544389B251435B1802D30121090464184A
:103D200019041A0C091862416D18564100204741C8
:103D300018BCF902720D1143F0026A0D1043ED0236
:103D40000A0D03D16D1940414941013B124E9B1BA5
:103D50007600B3420ED26D0007D3013000267141C8
:103D60006646354301D1400840001B05C918E407E9
:103D70002144F0BD0BDA013306D1013004D1013109
:103D80004F0D01D04908F2E7E1070020F0BD0136F0
:103D900031050020EBE70000FF030000F0B51C0D2B
:103DA000671E3F05DB1BE70A6405640D02D0661C35
:103DB000F60A04D0002201231B05803C2403D025F1
:103DC0002D060026F6432E661E096E66CE0FF619E6
:103DD000B44649004F0D02D07E1CF60A03D00020E5
:103DE0000021403F3F033E1BB600B444013F7F0526
:103DF000C91B49082E6F013676089C02950D254394
:103E00007543ED137543AD1301356D10F603761B45
:103E10000CB4CC02450D2C43A2B2B3B25A43270CCA
:103E20007B43350C6F43A4B26C431B1902D30124AE
:103E300024043F191C041D0CA4187D4124196D4154
:103E4000009A91B2ACB26143170C7C432B0C5F43D8
:103E500092B25A43A41802D301221204BF182204BA
:103E6000230C52187B41019C6C431B19520ED90143
:103E70000A434401A01A81B2B2B2514303145A4317
:103E8000360C734387B27743D617D21900277E4189
:103E900036049B191704160C7F185E417316ED1833
:103EA000F301002680337541A90F06D16400690A29
:103EB000E8055B0A184309D22FE0042294448033BA
:103EC0007541A90AA8059B0A184326D340414941D8
:103ED0002404009A019B0D005543641B4343E41ADC
:103EE00095B286B27543170C7E43030C5F4392B2C2
:103EF0005A43B61802D301221204BF183204330CFD
:103F000052197B4152429C41002C02D400220130C4
:103F100051414008CA071043490802B06246D7071A
:103F20009210084BD218084B9A4203D212058918F6
:103F3000C919F0BD0020002A01DC3900F0BD0133B1
:103F40001905F5E7FD030000FE070000002200B59B
:103F5000203200F004F8080000BD000000220B151C
:103F60000AD410B5944600F031F81414013400DA84
:103F70000021CB17144C20470020002170476244D9
:103F8000343A0CD40C2A07DA040091409040524293
:103F90002032D440214310BDD843D94310BD203234
:103FA00007D40C469440524220321141D040204365
:103FB00010BD0800C917203203D4524220321041EC
:103FC00010BD1800190010BD7F3F00100A0DCC0F66
:103FD000531E1B05C91A520503D3C943404200D3DF
:103FE0000131520D03D0531CDB0A07D0121B0020F5
:103FF0006400611C89078912803A1203014BD21AAE
:1040000070470000FF03000051434343C9188C462A
:10401000110C83B24B4310B4040C614392B280B2D2
:10402000504362431C041B0C001910BC594113047B
:10403000120CC0185141614470470000132310B5A1
:1040400012481C78FFF770F90100012C0AD003DD3B
:1040500080220F4800F048F80E48FFF75DF90E4B3C
:10406000186010BD0A4C5422200000F03DF80B4BA4
:104070006365A365E36523666366A366E3662367FA
:104080006367A367E3672362E361E5E753460000E4
:10409000281100204C330000541F0020A1400010C4
:1040A00007B5604601880A0A0230DF2AFAD1C9B290
:1040B000820804D3028840880004104300E00068AE
:1040C000014A5050039007BD2811002001480421E7
:1040D000014B1847A00E002039330010014B1B681C
:1040E00018470000A00E0020014B5B681847000035
:1040F000A00E0020030010B5080011001B689847AF
:1041000010BDC046F0B546464F46D646C0B5437DC5
:1041100080460E001700002B46D0002A3FDD4B1EC4
:104120009946244B0125002400209A460DE04B4679
:104130001B5D0D3B5A425341325DDBB20A2A0BD064
:104140002B00013401359F421ADD002CEFD143468C
:10415000325D1B7D0A2AF3D1002BF1D1A04204DA93
:104160004346211A1B6830189847434650461B683F
:1041700002219847013428002B0001359F42E4DCDE
:10418000874204DD4346391A1B6830189847F619F0
:10419000013E33780D3B5A42534142461375E0BC11
:1041A000BA46B146A846F0BD0368110030009847F2
:1041B000F5E7C04644A60010F0B5DE4657464E4629
:1041C0004546E0B585B017001C0006000D00FDF760
:1041D00035F80023304A12184B41002B58DB2F4989
:1041E00008008A4606F03CF801906B1C03D13000B1
:1041F00005F0CCFF0500002C25D1294B9846294B12
:104200001C68002C15D0002F20D1274F02E0246914
:10421000002C0ED02368002BF9D03B68002B01D076
:10422000A342F4D120002A003100C0472469002CA9
:10423000F0D1019B002B27D105B0F0BCBB46B246A4
:10424000A946A046F0BD194B9846D8E7164B9946AB
:1042500002ABDF1D0A239B4602E02469002CE8D054
:104260002368002BF9D04B461B68002B01D0A342DA
:10427000F3D12A0031002000C0475B4601223900FB
:1042800020003B70C047E8E7504605F0B9FFD3E790
:104290000122074B5242A2E740420F00FC0E0020D1
:1042A00005410010741800207C180020F540001013
:1042B000FFFFFF7FF0B5CE46474680B583B06B4623
:1042C0000600DD1D2870FCF7B9FF00231A4A1218FA
:1042D0004B41002B2BDB19490800884605F0C0FF35
:1042E000174B81461C68002C14D0164F02E024693D
:1042F000002C0FD02368002BF9D03B68002B01D095
:10430000A342F4D1200001222900FFF7FBFE24691B
:10431000002CEFD14B46002B05D1300003B0C0BCC0
:10432000B946B046F0BD404605F06AFFF5E7012208
:10433000054B5242CFE7C04640420F00FC0E002022
:10434000741800207C180020FFFFFF7F70B5040068
:1043500005F01CFF00230100050001222000FFF7EB
:104360002BFF084B1C68002C06D06368002B05D07F
:1043700098472469002CF8D1280070BD2469002CCE
:10438000F3D1F9E7741800200A4A1368002B05D10D
:104390000CE01A001B691032002B07D09842F8D1AC
:1043A000002902D103691360016170470029FCD024
:1043B0001060FAE77418002010B500F0D9F910BDAC
:1043C0007047C0460022014B1A7070478D200220B2
:1043D0004B790020FF2B0BD18B79002B08D1CB79A7
:1043E000012B05D1082A03D98A78024B09301A70AB
:1043F0007047C0468D2002200120704770B501290A
:1044000009D115495379107909781B02034300201B
:10441000994202D070BD0120FCE75378012B08D0EF
:10442000022BF7D1002064220021FDF783FB01203D
:10443000F0E79478D278050012021443D20502D531
:10444000620A93401D000548FEF766FF7F210300C6
:10445000214028009847C0468D2002205542000088
:10446000012303700048704748A6001048780B7875
:104470008A7800021843120410439622CB7810B5B4
:104480001B060343D200934200D010BD0348FEF741
:1044900043FF0021030008009847C0465542000032
:1044A000024B1860024B19607047C046D8170020B5
:1044B000DC17002010B5024B1878FCF76DF810BD22
:1044C0008E200220114B70B51A68002A1AD0EFF323
:1044D000108172B610680028FCD0BFF35F8F0022F5
:1044E0000B48596002701B68BFF35F8F1A6081F33D
:1044F000108800240025074B1878FCF74DF8290098
:10450000200070BDFA240025A400F4E7901C0020D0
:104510008F2002208E20022070B5040000200E00A3
:1045200001F002FB002835D0002001F015FB002827
:1045300030D0FCF783FE0023184A12184B41002BA1
:1045400024DB174D280005F08BFE002822D0002028
:1045500001F0EAFA00280BD1012000210324404297
:1045600000F0CCFC6442280005F04AFE200070BD3B
:10457000002001F0F1FA0028EED0210032000020E6
:1045800001F0F6FA041EEED1033CECE70122054BE4
:104590005242D6E703246442E8E7C04640420F0097
:1045A0005C1F0020FFFFFF7FF8B5DE46574680B551
:1045B00005000C00FCF742FE0023364A12184B415E
:1045C000002B5ADB344908008A4605F049FE0028D2
:1045D00003D1C0BCBB46B246F8BD002001F0A4FA2E
:1045E00000284ED00026002C43DD2C4B9B4614E0C7
:1045F000A919002001F030FB0700012000214042F2
:1046000000F07CFC002001F0EBFAFCF717FE234BD6
:10461000F61918605960B4422BDD002001F036FB1A
:10462000A71B0200B84200DD3A00002AE0D10120B9
:104630000021404200F062FC002001F0D1FA00208D
:1046400001F072FA002814D0002001F01FFB0028AE
:10465000E1D1FCF7F3FD5B460F001A685B680021AF
:1046600084460F4812184B419F4202D8D3D194453B
:10467000D1D9504605F0C4FDABE70122094B5242A7
:10468000A0E700200021054B18605960504605F056
:10469000B7FD9EE740420F005C1F00202010002065
:1046A00020A10700FFFFFF7F10B5244C84B000213C
:1046B000200005F0BDFD00281CD1214B1A68002AFE
:1046C00016D0EFF3108172B610680028FCD0BFF34B
:1046D0005F8F01241B48596002781B68D2B20470B6
:1046E000BFF35F8F0020186081F31088002A0AD082
:1046F00004B010BD01200021404200F0FFFB20006B
:1047000005F07EFDF4E7FCF7F5FB0400FCF796FDF1
:10471000FA220023920012184B41002B09DB0121E1
:10472000029100210191084920000091FCF7E6FB6D
:10473000DEE70122054B5242F1E7C0465C1F002034
:10474000901C00208F200220C5440010FFFFFF7F37
:10475000054B10B51868002804D0044B00221968D6
:1047600001F044F810BDC046D8170020DC17002027
:10477000D02310B51B0684B01C68FCF7BBFBFCF70C
:10478000B5FCA04202D0002004B010BD264B1B781F
:1047900001F066FC2548FCF7B7F90120FCF798F911
:1047A000FF23234C234920701840FBF71BFF207880
:1047B0000121FBF7D3FE0520FBF7F6FE002822D1EE
:1047C000FCF798FB0400FCF739FDFA220023920065
:1047D00012184B41002B22DB012102910021019193
:1047E000154920000091FCF789FB082204000021F4
:1047F0001248FFF773FC002CC5DB11480121FFF7BD
:10480000C3FD0120C0E700220E490520FBF714FF7D
:10481000FBF77CFE01000948FCF7A4F9EDE7012253
:10482000094B5242D8E7C0468CA800105C1F0020FC
:104830008E200220A9460010C5440010901C0020C4
:10484000B00E0020B5440010FFFFFF7F0048704706
:1048500000A7001000487047ACA6001070B5040017
:1048600017480378002B21D0002C06D1C12415480D
:10487000154BA4004380048070BD052C1DD8134B3C
:104880001048A400E558811C002304E001330A808D
:104890000231132B0ED0EA5CDCB2002AF6D1C02321
:1048A0000134E4B264009B001C43E4E7112100F0F2
:1048B00017F8D9E7CA24A400DDE70020DCE7C046EA
:1048C000841F02204C1800200904000014A70010C7
:1048D00010B5024800F0D8F810BDC0464C1F0020AB
:1048E00030B54B1E012900D1A7E0664A11780D11A1
:1048F0002C0030349F2900D9A2E00470012B00D194
:10490000BEE00F21147821400C003034092900DD6D
:1049100098E04470022B00D1B2E0547825112900B0
:1049200030319F2C00D990E08170032B00D1A7E09B
:104930000F2121400C003034092900DD87E0C470CC
:10494000042B00D19CE094782511290030319F2C54
:1049500000D97FE00171052B00D191E00F212140AA
:104960000C003034092900DD76E04471062B00D1BB
:1049700086E0D4782511290030319F2C00D96EE0D3
:104980008171072B00D17BE00F2121400C003034D6
:10499000092966DCC471082B00D171E01479251156
:1049A000290030319F2C5FD80172092B68D00F216C
:1049B00021400C003034092958DC44720A2B5FD0A6
:1049C00054792511290030319F2C52D881720B2B3C
:1049D00056D00F2121400C00303409294BDCC47221
:1049E0000C2B4DD094792511290030319F2C00D902
:1049F000073101730D2B43D00F2121400C003034BF
:104A0000092901DD37310C0044730E2B38D0D179E0
:104A10000C11220030329F2900D9073282730F2BEC
:104A20002ED00F220A4011003731092A01DC303222
:104A30001100C173102B23D010300023037030BD40
:104A400007345AE737310C0063E707316CE7373139
:104A50000C0074E707317DE737310C0085E707313B
:104A60008EE737310C0095E707319DE737310C00B1
:104A7000A3E70731AAE737310C00C4720C2BB1D180
:104A8000C018DAE74C1F002030B5002589B00400BB
:104A90000922002101A80095FFF720FB092200212F
:104AA00005A80495FFF71AFB4B236A466846137066
:104AB00004A90D2205F09CFB152108222000694461
:104AC000FFF712FB09B030BD10B501210520FBF73F
:104AD00045FD10BD10B500220021024800F05AF932
:104AE00010BDC046A01800208022024B5202DA649A
:104AF0007047C04600201150F0B5C64600B506000C
:104B000000F022F90C231B4DFF22AB6705201A4948
:104B1000FBF792FD40239846184C402200212000CC
:104B2000FFF7DCFA43460127238321210023144A9F
:104B30006770A260136063545F31618441462187CE
:104B4000053963540F4A10496360E260A1620B604B
:104B50006362E26205F0ACFB80239B052F64EB648B
:104B600090230A4A3000EA50FFF7BEFF80BCB846E7
:104B7000F0BDC04600001150D9040020801800206C
:104B800084001050000110508000105010D001001F
:104B90000B785B0602D14B78052B00D070478A78E2
:104BA000014B1A60FAE7C04600001150F0B5C64646
:104BB00000B54B790C791B0288782343CC787F2190
:104BC000A4070140C509A20F4F001400324E7A1904
:104BD0005201B218907001206840507000205B05AF
:104BE0005B0DD0701383D4768046CA00012D33D07C
:104BF0002A488446880162448446B4446046826000
:104C000040461060002933D0254AC90090466246CC
:104C1000414451603F223F339343022C00D15B005B
:104C200020487A1901685201B218D1601E4ACB1887
:104C3000036051405340802288465201934228D855
:104C40004346A4061C4380237F197F011B06F619E7
:104C50001C4373681C6011E0144884468801624458
:104C60008446B4446046826240461060002909D1FF
:104C700000236D01761973600D4BF360012080BC39
:104C8000B846F0BD084AC9009046624641445162A8
:104C9000C0E7FDF74BF8D3E78018002084001050E0
:104CA000040010508C1C0020000010508000105098
:104CB0000001105010B505F0FBFA10BD10B57F20B3
:104CC0000C0020404000E409110000191A00034BB9
:104CD0004001C01800F05EF8012010BD80180020CF
:104CE0007F22130010B50B400A420BD0C909802265
:104CF000580040180649400140181201002105F0F3
:104D0000CFFA10BD02220348C909521A8266EEE7A3
:104D100080180020002011507F22100010B508409C
:104D20000A4200D110BD0023C909400040180449BF
:104D30004001081800220349C37005F0B1FAF1E7F9
:104D400080180020FFF7FFFF80220D4B520410B5A2
:104D50001A600C4B0C491A6010008B689843FBD109
:104D60000A4C9C2200212000FFF7B8F98022002184
:104D700052010748FFF7B2F90923636710BDC04627
:104D800000E0004000F0004000C000400000115072
:104D90000000105070B5837E04000D001600002B3B
:104DA00017D10023E38201332000A682A376256178
:104DB00005F066FA002804D080219023084A890271
:104DC000D150200005F044FA002805D001232377B4
:104DD00070BD05F05DFAE4E7200005F049FAF7E759
:104DE00000201150024B5878431E9841C0B27047C2
:104DF000AC150020024B18784007C00F7047C04622
:104E0000AC150020034B1878FF38431E9841C0B200
:104E10007047C046EC0E0020F8B5CE46474680B538
:104E20002C4E050033780120FF2B03D0C0BCB946BF
:104E3000B046F8BD532200212748FFF74FF9274C11
:104E40002000FBF761FE264B1C60264C200014302E
:104E5000FBF778FE200001F0D1FB234B234F1C60B1
:104E6000234B9846002B04D03800FFF7F9FA214B6A
:104E70001860424600243B78002A23D01E4A904600
:104E80001C4A9146A34212D80FD143469847013499
:104E90003B78E4B2A342F5D228003570FFF72CFE30
:104EA0002800FFF711FE0120C0E70020BEE74A46B8
:104EB0001268630094461B19DB006344002BF4D096
:104EC0001B68E3E700F0EEFE3B780020002BADD13D
:104ED000E2E7C046EC0E0020AC150020641500206F
:104EE00000160020D00E002004160020882002208A
:104EF0006144001084120020A55C0010F0B5DE466D
:104F000057464E464546E0B58BB001F0AFF8002855
:104F100000D10FE1CD4BCE4D9946CE4B07AC9B4611
:104F20002E687269EFF3108172B61368002BFCD003
:104F3000BFF35F8FB1613000210001F0A1F9726908
:104F4000B369BFF35F8F0021116083F310880028DD
:104F500000D1EFE06378082BE2D84A469B00D35893
:104F60009F466368002BDBD0A0689847D8E77F2274
:104F70002179B84E0A405000CB093618F618300097
:104F800001273030C378BB43C370C3780337BB43BA
:104F9000C370002A00D1F2E0AF4AF37C002A06D0A9
:104FA000AE4A1278934200D244E19B1ADBB2002B46
:104FB00000D0BFE0AA4E62792078A368B047AFE77F
:104FC0005B4601221B78012113435A461370332399
:104FD0005846D25C5E468A43C254C25C0420824377
:104FE000F2540133F25C8A43F254F25C8243F2548D
:104FF000237800209A4600F005FD602223791A40AC
:10500000602A0DD0402A00D1BFE0DB06DB0E012B69
:1050100000D137E1022B00D1D4E0002B00D1C3E056
:1050200020780021FFF75CFE80212078FFF758FEF2
:1050300076E7884E3378DB0700D471E7894B002B85
:1050400000D16DE700E000BF6AE7824E3378DB07EE
:1050500000D465E7844B002B00D161E7307800076E
:10506000C00F00E000BF5BE77C4B7B4A9846002600
:1050700027781B78002A00D179E07C4A92469E422C
:105080005FD319D17A4B38009847434601361B78D5
:10509000F6B2B342F3D26F4E532200213000FFF735
:1050A0001DF81022FF21F01CFFF718F83000202215
:1050B000FF211330FFF712F800F09AFC6D4B002B24
:1050C00000D12DE700E000BF2AE7644B624A984612
:1050D000002627781B78002A1FD0644A92469E42F9
:1050E0003AD321D1624B38009847434601361B78AA
:1050F000F6B2B342F3D2574E532200213000FEF7EE
:10510000EDFF1022FF21F01CFEF7E8FF3000202207
:10511000FF211330FEF7E2FF07E0380000F000FE49
:1051200043461B78002BE6D04A4E00F061FC237901
:10513000B370F5E60BB0F0BCBB46B246A946A0463C
:10514000F0BD52461268730094469B19DB0063441D
:10515000002BB1D05B6896E7524612687300944604
:105160009B19DB006344002BDED05B68BBE7380093
:1051700000F0D6FD43461B78002B9DD18BE762796A
:105180002078A36800F052FCCAE63B48002800D112
:1051900046E700F037FC0121504608AA00E000BFB6
:1051A000002800D0BCE63BE7202A00D19FE0002A7F
:1051B00000D035E76379092B00D931E72F4A9B00EE
:1051C000D3589F467023217A0B4200D028E75846D7
:1051D0000F330B405B00CE09C0181F4F8019C07CF5
:1051E000002F06D01D4F3F78B84200D2A1E0C01B6F
:1051F000C0B2002800D097E0002A00D048E1204F3C
:105200000220627990468243012A00D143E142465E
:10521000002A00D004E75B449E193036F37806AAD2
:105220009B07DB0F023213805046022308A900F0CF
:1052300081FB75E65A00D3180C4ADB001268D318BC
:10524000002B00D176E71E69B5E6C04694A7001092
:1052500004160020AC1500206144001088200220B4
:10526000195F001000000000000000008412002000
:10527000215D00100000000000000000B8A7001031
:1052800020A80010237A0F2B00D9C9E6AA4A5B4454
:10529000DB78002A05D0A94A127893425ED39B1A84
:1052A000DBB2002B00D0BBE6A548A64E00F0AAFB5F
:1052B00001215046F36808AA9847002800D02FE63D
:1052C0006022160023791E401A4200D0A8E66379B6
:1052D0000A3B012B00D9A3E600F094FB63790A2B6B
:1052E00000D120E1504608A900F00CFB18E6237A13
:1052F0000F2B00D994E6904A5B44DB78002A06D055
:105300008E4A1278934200D2E6E09B1ADBB2002B61
:1053100000D085E68A488B4E00F074FB0121504690
:10532000F36808AA98473BE70027002A00D167E7FF
:1053300076E647003818844FC0003F683F18002ABF
:1053400000D15DE7002F00D16AE6F86800F05AFB53
:1053500001215046FB6808AA984721E77A4A5E0077
:10536000F3181668DB00F618002E00D158E6F06836
:105370009CE7A279019273789A4207D07378002B48
:1053800000D045E1019B002B00D0E9E05B46019A8B
:10539000504608A95A7000F0B5FAC1E5737806AA1C
:1053A000023213705046012308A900F0C3FAB7E592
:1053B000E088030AC0B20F2B00D931E663499A0096
:1053C0008A58974608A800F023FB5046A179FFF7BA
:1053D00081FB0222337813433370A1E5E388012B6C
:1053E00000D01DE60822337893435A46137079E7BC
:1053F0000220317806AB9A1C8B068908DB0F01402E
:105400000B4310E7E388012B00D009E6082233782C
:105410001343EAE74E4B002B00D101E600E000BF4A
:10542000021E00D1FCE5D37891781B020B43504655
:1054300008A900F07FFAB3E6464B002B00D1EFE558
:1054400000E000BF021E00D1EAE55046137808A92B
:1054500000F070FAA4E62189FFF700FA021EF4D1E9
:10546000DEE5022B00D111E13B4B002B00D1D7E54B
:1054700000E000BF0200002A00D1D1E5D3E7FFF72A
:10548000E5F91223020008A9504600F053FA87E616
:105490002B482C4F5AE7E288002A08D142465B4449
:1054A0009E193036F378012A21D09B072ED5002F84
:1054B00000D135E5F86800F0A5FAFB6808AA0121DB
:1054C00050469847002000F09DFA34235A46D35C9A
:1054D000DB0700D524E505E71B4A5E00F3181668D4
:1054E000DB00F618002E00D19AE5F06814E79B0760
:1054F000DDD51A4B1878FFF70FFC0222F37893439F
:105500004246F370F3789343F370D0E7134B187867
:10551000FFF7E6FB0222F37813430122F370F378DE
:105520001343F370C3E706AB9A1C5046012308A946
:10553000167000F0FFF9F3E46144001088200220A7
:10554000355E001020A8001084120020E0A7001093
:10555000000000000000000000000000EC0E002031
:10556000581EC0B2FFF776F9002800D158E54378FD
:105570000593022B00D053E50121C2790700931156
:1055800052110B400A4012015B0113435A46127834
:105590002F318A4313435A461370C37882781B0213
:1055A0001343C31809370393039BBB4200D8ACE0F5
:1055B00001227B7800920B2B03D1FB7800933B7880
:1055C000FF187B78042B00D02AE50026039B584A5D
:1055D000DB1B9BB20293574B04931B78B24263D000
:1055E000B846B34256D800D01AE5534B534F414604
:1055F0005046029A9847082803D9029A824200D35B
:105600008AE0049B01361B78F6B2B342E9D207E583
:105610005046FFF74FFBB378454A0093454B0026B1
:1056200098461B78002A0DD0454FB34225D820D18B
:10563000444B50469847434601361B78F6B2B34276
:10564000F3D206E0504600F06BFB43461B78002B7C
:105650000FD1532200215846FEF740FD5B46102231
:10566000FF21D81CFEF73AFD2022FF213648FEF725
:1056700035FD5B46009A9A7084E618233A687343B6
:1056800094466344002BF4D05B68D2E7FFF7E2F85E
:105690000200F0E62A4B1F6818237343FF18002FFF
:1056A00000D1BDE4BB68A2E7029B39001A00504656
:1056B000984600F04BFB082800D8B1E442468242ED
:1056C00000D2ADE41D4B9846009B012B28D0002250
:1056D0000AE0BB78D318DBB25B44D978FF2900D04D
:1056E0009EE40132DE70D2B2009B9A42F1D1804634
:1056F000330002003900144800F03CFD049B47448D
:105700001B78B34200D34FE78AE4104B002B00D143
:105710003CE600E000BF39E63B0047469846D3E749
:105720004246054B92689A42D1D1059B0093CEE741
:1057300061440010882002204D5D001020A8001058
:1057400084120020215D0010BF1500200000000021
:10575000F8B557464E46DE4645460C00E0B5160005
:105760001F00002A3CD0702398461E4B00259B4604
:105770001D4B9A461AE05B461B782000994653461B
:10578000997800F0BBFC00281CD021004846FFF7A8
:105790000DFA002816D0A378DA09012A19D00A9A3E
:1057A000013513702378E418B54219DA6378052BB4
:1057B00008D1E3789B079B0FBB4203D14246A378F5
:1057C0001A42D8D00020F0BCBB46B246A946A0463B
:1057D000F8BD0B9A013513702378E418B542E5DB68
:1057E0000120F0E7EC0E0020AC150020802310B55E
:1057F0001B0184B001930E4B02901C6803916269F7
:10580000EFF3108372B611680029FCD0BFF35F8FED
:10581000A361200001A900F0F9FD6269A369BFF34B
:105820005F8F0021116083F3108804B010BDC04663
:1058300004160020702270B58B780C001A4201D03B
:10584000002070BD064B20001D78064B997800F0B3
:1058500055FC0028F4D021002800FFF7A7F9F0E755
:10586000EC0E0020AC150020074B080019687F23C0
:1058700010B50340C0095B0033301818034B1818EB
:1058800000F0F8FB10BDC04600160020AC1500204B
:10589000074B080019687F2310B50340C0095B005F
:1058A00033301818034B181800F00CFC10BDC0461C
:1058B00000160020AC1500207F2070B508400F4C6A
:1058C0004000CD09241864193034E5780020ED0734
:1058D00000D570BD0126E578094835430078E570AC
:1058E000FFF7ECF90028F4D10122E3789343E37049
:1058F000E37803329343E370EBE7C046AC15002036
:10590000EC0E002070B50A4E0500300008220C0095
:10591000FEF7EAFB00237F21F3602278B360914217
:105920005B412800D90100220023FFF7C5FF70BDAD
:1059300050150020F8B5CE46474691462A4E80B510
:105940000822070030000D009846FEF7CDFB4B46BD
:10595000B3600023F381EC79A97924020C43231C62
:10596000444500D943469AB29046B381002C13D0E7
:10597000002A1FD04B46002B34D0131C402A1FD8BE
:105980009BB2984633787F2B20D80021174A434694
:105990003800FFF791FF09E07F222B7838009A4208
:1059A000644100230022E101FFF786FFC0BCB94635
:1059B000B046F8BD33787F2B11D980210022E6E76D
:1059C00040239BB2984633787F2BDED9074C424662
:1059D00049462000FEF788FB80212200D7E70021FE
:1059E0000022D4E70020E1E7501500206C150020CC
:1059F00010B5142200210248FEF770FB10BDC0460E
:105A000050150020014B18617047C046501500200A
:105A100010B5054C010008222000FEF765FB0023AD
:105A2000A360E36010BDC04650150020F8B53B4CA4
:105A30001D0023780600DA09C9098A4213D0002024
:105A4000002D00D0F8BD364B002B03D021003000D4
:105A5000FFF79EF82369002B44D022000321300079
:105A600098470120EEE77F2B06D8A068002837D0A2
:105A70002A002C49FEF738FBA368E289591952190C
:105A8000E38892B2E281A160934214D03F2D12D9F3
:105A9000A589A81A071C80B240282FD82378BFB246
:105AA0007F2B2DD80021AA4235D01E4A3B00300062
:105AB000FFF702FFC6E72369002B05D02200022171
:105AC0003000984700280FD07F2200212378300033
:105AD0009A42494100230022C901FFF7EDFEB1E7D8
